{
	"BuildingFirstDapp/GuevarraTokenVestingManager.sol": {
		"GuevarraTokenVestingManager": {
			"abi": [
				{
					"inputs": [],
					"stateMutability": "nonpayable",
					"type": "constructor"
				},
				{
					"anonymous": false,
					"inputs": [
						{
							"indexed": true,
							"internalType": "address",
							"name": "orgAddress",
							"type": "address"
						},
						{
							"indexed": true,
							"internalType": "address",
							"name": "adminAddress",
							"type": "address"
						}
					],
					"name": "AdminAdded",
					"type": "event"
				},
				{
					"anonymous": false,
					"inputs": [
						{
							"indexed": true,
							"internalType": "address",
							"name": "orgAddress",
							"type": "address"
						},
						{
							"indexed": true,
							"internalType": "address",
							"name": "tokenAddress",
							"type": "address"
						}
					],
					"name": "OrganizationRegistered",
					"type": "event"
				},
				{
					"anonymous": false,
					"inputs": [
						{
							"indexed": true,
							"internalType": "address",
							"name": "orgAddress",
							"type": "address"
						},
						{
							"indexed": true,
							"internalType": "bytes32",
							"name": "typeId",
							"type": "bytes32"
						},
						{
							"indexed": false,
							"internalType": "string",
							"name": "name",
							"type": "string"
						},
						{
							"indexed": false,
							"internalType": "uint256",
							"name": "vestingPeriod",
							"type": "uint256"
						}
					],
					"name": "StakeholderTypeAdded",
					"type": "event"
				},
				{
					"anonymous": false,
					"inputs": [
						{
							"indexed": true,
							"internalType": "address",
							"name": "orgAddress",
							"type": "address"
						},
						{
							"indexed": true,
							"internalType": "address",
							"name": "beneficiary",
							"type": "address"
						},
						{
							"indexed": false,
							"internalType": "uint256",
							"name": "amount",
							"type": "uint256"
						}
					],
					"name": "TokensClaimed",
					"type": "event"
				},
				{
					"anonymous": false,
					"inputs": [
						{
							"indexed": true,
							"internalType": "address",
							"name": "orgAddress",
							"type": "address"
						},
						{
							"indexed": true,
							"internalType": "address",
							"name": "beneficiary",
							"type": "address"
						},
						{
							"indexed": false,
							"internalType": "bytes32",
							"name": "stakeholderTypeId",
							"type": "bytes32"
						},
						{
							"indexed": false,
							"internalType": "uint256",
							"name": "amount",
							"type": "uint256"
						}
					],
					"name": "VestingScheduleCreated",
					"type": "event"
				},
				{
					"inputs": [
						{
							"internalType": "address",
							"name": "_adminAddress",
							"type": "address"
						}
					],
					"name": "addAdmin",
					"outputs": [],
					"stateMutability": "nonpayable",
					"type": "function"
				},
				{
					"inputs": [
						{
							"internalType": "string",
							"name": "_name",
							"type": "string"
						},
						{
							"internalType": "uint256",
							"name": "_vestingPeriod",
							"type": "uint256"
						}
					],
					"name": "addStakeholderType",
					"outputs": [],
					"stateMutability": "nonpayable",
					"type": "function"
				},
				{
					"inputs": [
						{
							"internalType": "address",
							"name": "_orgAddress",
							"type": "address"
						}
					],
					"name": "claimTokens",
					"outputs": [],
					"stateMutability": "nonpayable",
					"type": "function"
				},
				{
					"inputs": [
						{
							"internalType": "address",
							"name": "_beneficiary",
							"type": "address"
						},
						{
							"internalType": "bytes32",
							"name": "_stakeholderTypeId",
							"type": "bytes32"
						},
						{
							"internalType": "uint256",
							"name": "_amount",
							"type": "uint256"
						}
					],
					"name": "createVestingSchedule",
					"outputs": [],
					"stateMutability": "nonpayable",
					"type": "function"
				},
				{
					"inputs": [
						{
							"internalType": "address",
							"name": "_orgAddress",
							"type": "address"
						},
						{
							"internalType": "address",
							"name": "_beneficiary",
							"type": "address"
						}
					],
					"name": "getVestingInfo",
					"outputs": [
						{
							"internalType": "bytes32",
							"name": "stakeholderTypeId",
							"type": "bytes32"
						},
						{
							"internalType": "uint256",
							"name": "amount",
							"type": "uint256"
						},
						{
							"internalType": "uint256",
							"name": "startTime",
							"type": "uint256"
						},
						{
							"internalType": "uint256",
							"name": "claimedAmount",
							"type": "uint256"
						}
					],
					"stateMutability": "view",
					"type": "function"
				},
				{
					"inputs": [
						{
							"internalType": "address",
							"name": "",
							"type": "address"
						}
					],
					"name": "organizations",
					"outputs": [
						{
							"internalType": "address",
							"name": "tokenAddress",
							"type": "address"
						},
						{
							"internalType": "bool",
							"name": "isRegistered",
							"type": "bool"
						}
					],
					"stateMutability": "view",
					"type": "function"
				},
				{
					"inputs": [],
					"name": "owner",
					"outputs": [
						{
							"internalType": "address",
							"name": "",
							"type": "address"
						}
					],
					"stateMutability": "view",
					"type": "function"
				},
				{
					"inputs": [
						{
							"internalType": "address",
							"name": "_tokenAddress",
							"type": "address"
						}
					],
					"name": "registerOrganization",
					"outputs": [],
					"stateMutability": "nonpayable",
					"type": "function"
				},
				{
					"inputs": [
						{
							"internalType": "address",
							"name": "newOwner",
							"type": "address"
						}
					],
					"name": "transferOwnership",
					"outputs": [],
					"stateMutability": "nonpayable",
					"type": "function"
				}
			],
			"devdoc": {
				"details": "Manages token vesting schedules for different organizations and stakeholders",
				"kind": "dev",
				"methods": {
					"addAdmin(address)": {
						"details": "Add a new admin for the organization",
						"params": {
							"_adminAddress": "The address of the new admin"
						}
					},
					"addStakeholderType(string,uint256)": {
						"details": "Add a new stakeholder type for the organization",
						"params": {
							"_name": "The name of the stakeholder type",
							"_vestingPeriod": "The vesting period in seconds"
						}
					},
					"claimTokens(address)": {
						"details": "Claim vested tokens",
						"params": {
							"_orgAddress": "The address of the organization"
						}
					},
					"createVestingSchedule(address,bytes32,uint256)": {
						"details": "Create a vesting schedule for a beneficiary",
						"params": {
							"_amount": "The amount of tokens to vest",
							"_beneficiary": "The address of the beneficiary",
							"_stakeholderTypeId": "The ID of the stakeholder type"
						}
					},
					"getVestingInfo(address,address)": {
						"details": "Get vesting information for a beneficiary",
						"params": {
							"_beneficiary": "The address of the beneficiary",
							"_orgAddress": "The address of the organization"
						},
						"returns": {
							"amount": "The total amount of tokens in the vesting schedule",
							"claimedAmount": "The amount of tokens already claimed",
							"stakeholderTypeId": "The ID of the stakeholder type",
							"startTime": "The start time of the vesting schedule"
						}
					},
					"registerOrganization(address)": {
						"details": "Register a new organization and its token",
						"params": {
							"_tokenAddress": "The address of the organization's ERC20 token"
						}
					}
				},
				"title": "GuevarraTokenVestingManager",
				"version": 1
			},
			"evm": {
				"assembly": "    /* \"BuildingFirstDapp/GuevarraTokenVestingManager.sol\":315:7455  contract GuevarraTokenVestingManager {... */\n  mstore(0x40, 0x80)\n    /* \"BuildingFirstDapp/GuevarraTokenVestingManager.sol\":1798:1849  constructor() {... */\n  callvalue\n  dup1\n  iszero\n  tag_1\n  jumpi\n  0x00\n  dup1\n  revert\ntag_1:\n  pop\n    /* \"BuildingFirstDapp/GuevarraTokenVestingManager.sol\":1831:1841  msg.sender */\n  caller\n    /* \"BuildingFirstDapp/GuevarraTokenVestingManager.sol\":1823:1828  owner */\n  0x00\n  dup1\n    /* \"BuildingFirstDapp/GuevarraTokenVestingManager.sol\":1823:1841  owner = msg.sender */\n  0x0100\n  exp\n  dup2\n  sload\n  dup2\n  0xffffffffffffffffffffffffffffffffffffffff\n  mul\n  not\n  and\n  swap1\n  dup4\n  0xffffffffffffffffffffffffffffffffffffffff\n  and\n  mul\n  or\n  swap1\n  sstore\n  pop\n    /* \"BuildingFirstDapp/GuevarraTokenVestingManager.sol\":315:7455  contract GuevarraTokenVestingManager {... */\n  dataSize(sub_0)\n  dup1\n  dataOffset(sub_0)\n  0x00\n  codecopy\n  0x00\n  return\nstop\n\nsub_0: assembly {\n        /* \"BuildingFirstDapp/GuevarraTokenVestingManager.sol\":315:7455  contract GuevarraTokenVestingManager {... */\n      mstore(0x40, 0x80)\n      callvalue\n      dup1\n      iszero\n      tag_1\n      jumpi\n      0x00\n      dup1\n      revert\n    tag_1:\n      pop\n      jumpi(tag_2, lt(calldatasize, 0x04))\n      shr(0xe0, calldataload(0x00))\n      dup1\n      0x8ddb44a8\n      gt\n      tag_12\n      jumpi\n      dup1\n      0x8ddb44a8\n      eq\n      tag_7\n      jumpi\n      dup1\n      0x90be003c\n      eq\n      tag_8\n      jumpi\n      dup1\n      0xdf8de3e7\n      eq\n      tag_9\n      jumpi\n      dup1\n      0xf2fde38b\n      eq\n      tag_10\n      jumpi\n      dup1\n      0xffc7b095\n      eq\n      tag_11\n      jumpi\n      jump(tag_2)\n    tag_12:\n      dup1\n      0x253a45f7\n      eq\n      tag_3\n      jumpi\n      dup1\n      0x5a1f7406\n      eq\n      tag_4\n      jumpi\n      dup1\n      0x70480275\n      eq\n      tag_5\n      jumpi\n      dup1\n      0x8da5cb5b\n      eq\n      tag_6\n      jumpi\n    tag_2:\n      0x00\n      dup1\n      revert\n        /* \"BuildingFirstDapp/GuevarraTokenVestingManager.sol\":4073:4998  function createVestingSchedule(address _beneficiary, bytes32 _stakeholderTypeId, uint256 _amount) external onlyOrgAdmin(msg.sender) {... */\n    tag_3:\n      tag_13\n      0x04\n      dup1\n      calldatasize\n      sub\n      dup2\n      add\n      swap1\n      tag_14\n      swap2\n      swap1\n      tag_15\n      jump\t// in\n    tag_14:\n      tag_16\n      jump\t// in\n    tag_13:\n      stop\n        /* \"BuildingFirstDapp/GuevarraTokenVestingManager.sol\":915:968  mapping(address => Organization) public organizations */\n    tag_4:\n      tag_17\n      0x04\n      dup1\n      calldatasize\n      sub\n      dup2\n      add\n      swap1\n      tag_18\n      swap2\n      swap1\n      tag_19\n      jump\t// in\n    tag_18:\n      tag_20\n      jump\t// in\n    tag_17:\n      mload(0x40)\n      tag_21\n      swap3\n      swap2\n      swap1\n      tag_22\n      jump\t// in\n    tag_21:\n      mload(0x40)\n      dup1\n      swap2\n      sub\n      swap1\n      return\n        /* \"BuildingFirstDapp/GuevarraTokenVestingManager.sol\":2856:3129  function addAdmin(address _adminAddress) external onlyOrgAdmin(msg.sender) {... */\n    tag_5:\n      tag_23\n      0x04\n      dup1\n      calldatasize\n      sub\n      dup2\n      add\n      swap1\n      tag_24\n      swap2\n      swap1\n      tag_19\n      jump\t// in\n    tag_24:\n      tag_25\n      jump\t// in\n    tag_23:\n      stop\n        /* \"BuildingFirstDapp/GuevarraTokenVestingManager.sol\":394:414  address public owner */\n    tag_6:\n      tag_26\n      tag_27\n      jump\t// in\n    tag_26:\n      mload(0x40)\n      tag_28\n      swap2\n      swap1\n      tag_29\n      jump\t// in\n    tag_28:\n      mload(0x40)\n      dup1\n      swap2\n      sub\n      swap1\n      return\n        /* \"BuildingFirstDapp/GuevarraTokenVestingManager.sol\":3330:3814  function addStakeholderType(string memory _name, uint256 _vestingPeriod) external onlyOrgAdmin(msg.sender) {... */\n    tag_7:\n      tag_30\n      0x04\n      dup1\n      calldatasize\n      sub\n      dup2\n      add\n      swap1\n      tag_31\n      swap2\n      swap1\n      tag_32\n      jump\t// in\n    tag_31:\n      tag_33\n      jump\t// in\n    tag_30:\n      stop\n        /* \"BuildingFirstDapp/GuevarraTokenVestingManager.sol\":2185:2720  function registerOrganization(address _tokenAddress) external {... */\n    tag_8:\n      tag_34\n      0x04\n      dup1\n      calldatasize\n      sub\n      dup2\n      add\n      swap1\n      tag_35\n      swap2\n      swap1\n      tag_19\n      jump\t// in\n    tag_35:\n      tag_36\n      jump\t// in\n    tag_34:\n      stop\n        /* \"BuildingFirstDapp/GuevarraTokenVestingManager.sol\":5116:6022  function claimTokens(address _orgAddress) external {... */\n    tag_9:\n      tag_37\n      0x04\n      dup1\n      calldatasize\n      sub\n      dup2\n      add\n      swap1\n      tag_38\n      swap2\n      swap1\n      tag_19\n      jump\t// in\n    tag_38:\n      tag_39\n      jump\t// in\n    tag_37:\n      stop\n        /* \"BuildingFirstDapp/GuevarraTokenVestingManager.sol\":1857:2029  function transferOwnership(address newOwner) public onlyOwner {... */\n    tag_10:\n      tag_40\n      0x04\n      dup1\n      calldatasize\n      sub\n      dup2\n      add\n      swap1\n      tag_41\n      swap2\n      swap1\n      tag_19\n      jump\t// in\n    tag_41:\n      tag_42\n      jump\t// in\n    tag_40:\n      stop\n        /* \"BuildingFirstDapp/GuevarraTokenVestingManager.sol\":7080:7452  function getVestingInfo(address _orgAddress, address _beneficiary) external view returns (bytes32 stakeholderTypeId, uint256 amount, uint256 startTime, uint256 claimedAmount) {... */\n    tag_11:\n      tag_43\n      0x04\n      dup1\n      calldatasize\n      sub\n      dup2\n      add\n      swap1\n      tag_44\n      swap2\n      swap1\n      tag_45\n      jump\t// in\n    tag_44:\n      tag_46\n      jump\t// in\n    tag_43:\n      mload(0x40)\n      tag_47\n      swap5\n      swap4\n      swap3\n      swap2\n      swap1\n      tag_48\n      jump\t// in\n    tag_47:\n      mload(0x40)\n      dup1\n      swap2\n      sub\n      swap1\n      return\n        /* \"BuildingFirstDapp/GuevarraTokenVestingManager.sol\":4073:4998  function createVestingSchedule(address _beneficiary, bytes32 _stakeholderTypeId, uint256 _amount) external onlyOrgAdmin(msg.sender) {... */\n    tag_16:\n        /* \"BuildingFirstDapp/GuevarraTokenVestingManager.sol\":4193:4203  msg.sender */\n      caller\n        /* \"BuildingFirstDapp/GuevarraTokenVestingManager.sol\":1685:1698  organizations */\n      0x01\n        /* \"BuildingFirstDapp/GuevarraTokenVestingManager.sol\":1685:1711  organizations[_orgAddress] */\n      0x00\n        /* \"BuildingFirstDapp/GuevarraTokenVestingManager.sol\":1699:1710  _orgAddress */\n      dup3\n        /* \"BuildingFirstDapp/GuevarraTokenVestingManager.sol\":1685:1711  organizations[_orgAddress] */\n      0xffffffffffffffffffffffffffffffffffffffff\n      and\n      0xffffffffffffffffffffffffffffffffffffffff\n      and\n      dup2\n      mstore\n      0x20\n      add\n      swap1\n      dup2\n      mstore\n      0x20\n      add\n      0x00\n      keccak256\n        /* \"BuildingFirstDapp/GuevarraTokenVestingManager.sol\":1685:1718  organizations[_orgAddress].admins */\n      0x01\n      add\n        /* \"BuildingFirstDapp/GuevarraTokenVestingManager.sol\":1685:1730  organizations[_orgAddress].admins[msg.sender] */\n      0x00\n        /* \"BuildingFirstDapp/GuevarraTokenVestingManager.sol\":1719:1729  msg.sender */\n      caller\n        /* \"BuildingFirstDapp/GuevarraTokenVestingManager.sol\":1685:1730  organizations[_orgAddress].admins[msg.sender] */\n      0xffffffffffffffffffffffffffffffffffffffff\n      and\n      0xffffffffffffffffffffffffffffffffffffffff\n      and\n      dup2\n      mstore\n      0x20\n      add\n      swap1\n      dup2\n      mstore\n      0x20\n      add\n      0x00\n      keccak256\n      0x00\n      swap1\n      sload\n      swap1\n      0x0100\n      exp\n      swap1\n      div\n      0xff\n      and\n        /* \"BuildingFirstDapp/GuevarraTokenVestingManager.sol\":1677:1770  require(organizations[_orgAddress].admins[msg.sender], \"Caller is not an organization admin\") */\n      tag_50\n      jumpi\n      mload(0x40)\n      0x08c379a000000000000000000000000000000000000000000000000000000000\n      dup2\n      mstore\n      0x04\n      add\n      tag_51\n      swap1\n      tag_52\n      jump\t// in\n    tag_51:\n      mload(0x40)\n      dup1\n      swap2\n      sub\n      swap1\n      revert\n    tag_50:\n        /* \"BuildingFirstDapp/GuevarraTokenVestingManager.sol\":4248:4249  0 */\n      0x00\n        /* \"BuildingFirstDapp/GuevarraTokenVestingManager.sol\":4224:4250  _beneficiary != address(0) */\n      0xffffffffffffffffffffffffffffffffffffffff\n      and\n        /* \"BuildingFirstDapp/GuevarraTokenVestingManager.sol\":4224:4236  _beneficiary */\n      dup5\n        /* \"BuildingFirstDapp/GuevarraTokenVestingManager.sol\":4224:4250  _beneficiary != address(0) */\n      0xffffffffffffffffffffffffffffffffffffffff\n      and\n      sub\n        /* \"BuildingFirstDapp/GuevarraTokenVestingManager.sol\":4216:4282  require(_beneficiary != address(0), \"Invalid beneficiary address\") */\n      tag_54\n      jumpi\n      mload(0x40)\n      0x08c379a000000000000000000000000000000000000000000000000000000000\n      dup2\n      mstore\n      0x04\n      add\n      tag_55\n      swap1\n      tag_56\n      jump\t// in\n    tag_55:\n      mload(0x40)\n      dup1\n      swap2\n      sub\n      swap1\n      revert\n    tag_54:\n        /* \"BuildingFirstDapp/GuevarraTokenVestingManager.sol\":4380:4381  0 */\n      0x00\n        /* \"BuildingFirstDapp/GuevarraTokenVestingManager.sol\":4301:4314  organizations */\n      0x01\n        /* \"BuildingFirstDapp/GuevarraTokenVestingManager.sol\":4301:4326  organizations[msg.sender] */\n      0x00\n        /* \"BuildingFirstDapp/GuevarraTokenVestingManager.sol\":4315:4325  msg.sender */\n      caller\n        /* \"BuildingFirstDapp/GuevarraTokenVestingManager.sol\":4301:4326  organizations[msg.sender] */\n      0xffffffffffffffffffffffffffffffffffffffff\n      and\n      0xffffffffffffffffffffffffffffffffffffffff\n      and\n      dup2\n      mstore\n      0x20\n      add\n      swap1\n      dup2\n      mstore\n      0x20\n      add\n      0x00\n      keccak256\n        /* \"BuildingFirstDapp/GuevarraTokenVestingManager.sol\":4301:4343  organizations[msg.sender].stakeholderTypes */\n      0x02\n      add\n        /* \"BuildingFirstDapp/GuevarraTokenVestingManager.sol\":4301:4363  organizations[msg.sender].stakeholderTypes[_stakeholderTypeId] */\n      0x00\n        /* \"BuildingFirstDapp/GuevarraTokenVestingManager.sol\":4344:4362  _stakeholderTypeId */\n      dup6\n        /* \"BuildingFirstDapp/GuevarraTokenVestingManager.sol\":4301:4363  organizations[msg.sender].stakeholderTypes[_stakeholderTypeId] */\n      dup2\n      mstore\n      0x20\n      add\n      swap1\n      dup2\n      mstore\n      0x20\n      add\n      0x00\n      keccak256\n        /* \"BuildingFirstDapp/GuevarraTokenVestingManager.sol\":4301:4377  organizations[msg.sender].stakeholderTypes[_stakeholderTypeId].vestingPeriod */\n      0x01\n      add\n      sload\n        /* \"BuildingFirstDapp/GuevarraTokenVestingManager.sol\":4301:4381  organizations[msg.sender].stakeholderTypes[_stakeholderTypeId].vestingPeriod > 0 */\n      gt\n        /* \"BuildingFirstDapp/GuevarraTokenVestingManager.sol\":4293:4410  require(organizations[msg.sender].stakeholderTypes[_stakeholderTypeId].vestingPeriod > 0, \"Invalid stakeholder type\") */\n      tag_57\n      jumpi\n      mload(0x40)\n      0x08c379a000000000000000000000000000000000000000000000000000000000\n      dup2\n      mstore\n      0x04\n      add\n      tag_58\n      swap1\n      tag_59\n      jump\t// in\n    tag_58:\n      mload(0x40)\n      dup1\n      swap2\n      sub\n      swap1\n      revert\n    tag_57:\n        /* \"BuildingFirstDapp/GuevarraTokenVestingManager.sol\":4439:4440  0 */\n      0x00\n        /* \"BuildingFirstDapp/GuevarraTokenVestingManager.sol\":4429:4436  _amount */\n      dup3\n        /* \"BuildingFirstDapp/GuevarraTokenVestingManager.sol\":4429:4440  _amount > 0 */\n      gt\n        /* \"BuildingFirstDapp/GuevarraTokenVestingManager.sol\":4421:4474  require(_amount > 0, \"Amount must be greater than 0\") */\n      tag_60\n      jumpi\n      mload(0x40)\n      0x08c379a000000000000000000000000000000000000000000000000000000000\n      dup2\n      mstore\n      0x04\n      add\n      tag_61\n      swap1\n      tag_62\n      jump\t// in\n    tag_61:\n      mload(0x40)\n      dup1\n      swap2\n      sub\n      swap1\n      revert\n    tag_60:\n        /* \"BuildingFirstDapp/GuevarraTokenVestingManager.sol\":4487:4511  Organization storage org */\n      0x00\n        /* \"BuildingFirstDapp/GuevarraTokenVestingManager.sol\":4514:4527  organizations */\n      0x01\n        /* \"BuildingFirstDapp/GuevarraTokenVestingManager.sol\":4514:4539  organizations[msg.sender] */\n      0x00\n        /* \"BuildingFirstDapp/GuevarraTokenVestingManager.sol\":4528:4538  msg.sender */\n      caller\n        /* \"BuildingFirstDapp/GuevarraTokenVestingManager.sol\":4514:4539  organizations[msg.sender] */\n      0xffffffffffffffffffffffffffffffffffffffff\n      and\n      0xffffffffffffffffffffffffffffffffffffffff\n      and\n      dup2\n      mstore\n      0x20\n      add\n      swap1\n      dup2\n      mstore\n      0x20\n      add\n      0x00\n      keccak256\n        /* \"BuildingFirstDapp/GuevarraTokenVestingManager.sol\":4487:4539  Organization storage org = organizations[msg.sender] */\n      swap1\n      pop\n        /* \"BuildingFirstDapp/GuevarraTokenVestingManager.sol\":4595:4596  0 */\n      0x00\n        /* \"BuildingFirstDapp/GuevarraTokenVestingManager.sol\":4558:4561  org */\n      dup2\n        /* \"BuildingFirstDapp/GuevarraTokenVestingManager.sol\":4558:4570  org.vestings */\n      0x03\n      add\n        /* \"BuildingFirstDapp/GuevarraTokenVestingManager.sol\":4558:4584  org.vestings[_beneficiary] */\n      0x00\n        /* \"BuildingFirstDapp/GuevarraTokenVestingManager.sol\":4571:4583  _beneficiary */\n      dup8\n        /* \"BuildingFirstDapp/GuevarraTokenVestingManager.sol\":4558:4584  org.vestings[_beneficiary] */\n      0xffffffffffffffffffffffffffffffffffffffff\n      and\n      0xffffffffffffffffffffffffffffffffffffffff\n      and\n      dup2\n      mstore\n      0x20\n      add\n      swap1\n      dup2\n      mstore\n      0x20\n      add\n      0x00\n      keccak256\n        /* \"BuildingFirstDapp/GuevarraTokenVestingManager.sol\":4558:4591  org.vestings[_beneficiary].amount */\n      0x01\n      add\n      sload\n        /* \"BuildingFirstDapp/GuevarraTokenVestingManager.sol\":4558:4596  org.vestings[_beneficiary].amount == 0 */\n      eq\n        /* \"BuildingFirstDapp/GuevarraTokenVestingManager.sol\":4550:4648  require(org.vestings[_beneficiary].amount == 0, \"Vesting schedule already exists for beneficiary\") */\n      tag_63\n      jumpi\n      mload(0x40)\n      0x08c379a000000000000000000000000000000000000000000000000000000000\n      dup2\n      mstore\n      0x04\n      add\n      tag_64\n      swap1\n      tag_65\n      jump\t// in\n    tag_64:\n      mload(0x40)\n      dup1\n      swap2\n      sub\n      swap1\n      revert\n    tag_63:\n        /* \"BuildingFirstDapp/GuevarraTokenVestingManager.sol\":4661:4673  IERC20 token */\n      0x00\n        /* \"BuildingFirstDapp/GuevarraTokenVestingManager.sol\":4683:4686  org */\n      dup2\n        /* \"BuildingFirstDapp/GuevarraTokenVestingManager.sol\":4683:4699  org.tokenAddress */\n      0x00\n      add\n      0x00\n      swap1\n      sload\n      swap1\n      0x0100\n      exp\n      swap1\n      div\n      0xffffffffffffffffffffffffffffffffffffffff\n      and\n        /* \"BuildingFirstDapp/GuevarraTokenVestingManager.sol\":4661:4700  IERC20 token = IERC20(org.tokenAddress) */\n      swap1\n      pop\n        /* \"BuildingFirstDapp/GuevarraTokenVestingManager.sol\":4719:4724  token */\n      dup1\n        /* \"BuildingFirstDapp/GuevarraTokenVestingManager.sol\":4719:4737  token.transferFrom */\n      0xffffffffffffffffffffffffffffffffffffffff\n      and\n      0x23b872dd\n        /* \"BuildingFirstDapp/GuevarraTokenVestingManager.sol\":4738:4748  msg.sender */\n      caller\n        /* \"BuildingFirstDapp/GuevarraTokenVestingManager.sol\":4758:4762  this */\n      address\n        /* \"BuildingFirstDapp/GuevarraTokenVestingManager.sol\":4765:4772  _amount */\n      dup8\n        /* \"BuildingFirstDapp/GuevarraTokenVestingManager.sol\":4719:4773  token.transferFrom(msg.sender, address(this), _amount) */\n      mload(0x40)\n      dup5\n      0xffffffff\n      and\n      0xe0\n      shl\n      dup2\n      mstore\n      0x04\n      add\n      tag_66\n      swap4\n      swap3\n      swap2\n      swap1\n      tag_67\n      jump\t// in\n    tag_66:\n      0x20\n      mload(0x40)\n      dup1\n      dup4\n      sub\n      dup2\n      0x00\n      dup8\n      gas\n      call\n      iszero\n      dup1\n      iszero\n      tag_69\n      jumpi\n      returndatasize\n      0x00\n      dup1\n      returndatacopy\n      revert(0x00, returndatasize)\n    tag_69:\n      pop\n      pop\n      pop\n      pop\n      mload(0x40)\n      returndatasize\n      not(0x1f)\n      0x1f\n      dup3\n      add\n      and\n      dup3\n      add\n      dup1\n      0x40\n      mstore\n      pop\n      dup2\n      add\n      swap1\n      tag_70\n      swap2\n      swap1\n      tag_71\n      jump\t// in\n    tag_70:\n        /* \"BuildingFirstDapp/GuevarraTokenVestingManager.sol\":4711:4799  require(token.transferFrom(msg.sender, address(this), _amount), \"Token transfer failed\") */\n      tag_72\n      jumpi\n      mload(0x40)\n      0x08c379a000000000000000000000000000000000000000000000000000000000\n      dup2\n      mstore\n      0x04\n      add\n      tag_73\n      swap1\n      tag_74\n      jump\t// in\n    tag_73:\n      mload(0x40)\n      dup1\n      swap2\n      sub\n      swap1\n      revert\n    tag_72:\n        /* \"BuildingFirstDapp/GuevarraTokenVestingManager.sol\":4841:4897  Vesting(_stakeholderTypeId, _amount, block.timestamp, 0) */\n      mload(0x40)\n      dup1\n      0x80\n      add\n      0x40\n      mstore\n      dup1\n        /* \"BuildingFirstDapp/GuevarraTokenVestingManager.sol\":4849:4867  _stakeholderTypeId */\n      dup7\n        /* \"BuildingFirstDapp/GuevarraTokenVestingManager.sol\":4841:4897  Vesting(_stakeholderTypeId, _amount, block.timestamp, 0) */\n      dup2\n      mstore\n      0x20\n      add\n        /* \"BuildingFirstDapp/GuevarraTokenVestingManager.sol\":4869:4876  _amount */\n      dup6\n        /* \"BuildingFirstDapp/GuevarraTokenVestingManager.sol\":4841:4897  Vesting(_stakeholderTypeId, _amount, block.timestamp, 0) */\n      dup2\n      mstore\n      0x20\n      add\n        /* \"BuildingFirstDapp/GuevarraTokenVestingManager.sol\":4878:4893  block.timestamp */\n      timestamp\n        /* \"BuildingFirstDapp/GuevarraTokenVestingManager.sol\":4841:4897  Vesting(_stakeholderTypeId, _amount, block.timestamp, 0) */\n      dup2\n      mstore\n      0x20\n      add\n        /* \"BuildingFirstDapp/GuevarraTokenVestingManager.sol\":4895:4896  0 */\n      0x00\n        /* \"BuildingFirstDapp/GuevarraTokenVestingManager.sol\":4841:4897  Vesting(_stakeholderTypeId, _amount, block.timestamp, 0) */\n      dup2\n      mstore\n      pop\n        /* \"BuildingFirstDapp/GuevarraTokenVestingManager.sol\":4812:4815  org */\n      dup3\n        /* \"BuildingFirstDapp/GuevarraTokenVestingManager.sol\":4812:4824  org.vestings */\n      0x03\n      add\n        /* \"BuildingFirstDapp/GuevarraTokenVestingManager.sol\":4812:4838  org.vestings[_beneficiary] */\n      0x00\n        /* \"BuildingFirstDapp/GuevarraTokenVestingManager.sol\":4825:4837  _beneficiary */\n      dup9\n        /* \"BuildingFirstDapp/GuevarraTokenVestingManager.sol\":4812:4838  org.vestings[_beneficiary] */\n      0xffffffffffffffffffffffffffffffffffffffff\n      and\n      0xffffffffffffffffffffffffffffffffffffffff\n      and\n      dup2\n      mstore\n      0x20\n      add\n      swap1\n      dup2\n      mstore\n      0x20\n      add\n      0x00\n      keccak256\n        /* \"BuildingFirstDapp/GuevarraTokenVestingManager.sol\":4812:4897  org.vestings[_beneficiary] = Vesting(_stakeholderTypeId, _amount, block.timestamp, 0) */\n      0x00\n      dup3\n      add\n      mload\n      dup2\n      0x00\n      add\n      sstore\n      0x20\n      dup3\n      add\n      mload\n      dup2\n      0x01\n      add\n      sstore\n      0x40\n      dup3\n      add\n      mload\n      dup2\n      0x02\n      add\n      sstore\n      0x60\n      dup3\n      add\n      mload\n      dup2\n      0x03\n      add\n      sstore\n      swap1\n      pop\n      pop\n        /* \"BuildingFirstDapp/GuevarraTokenVestingManager.sol\":4948:4960  _beneficiary */\n      dup6\n        /* \"BuildingFirstDapp/GuevarraTokenVestingManager.sol\":4913:4990  VestingScheduleCreated(msg.sender, _beneficiary, _stakeholderTypeId, _amount) */\n      0xffffffffffffffffffffffffffffffffffffffff\n      and\n        /* \"BuildingFirstDapp/GuevarraTokenVestingManager.sol\":4936:4946  msg.sender */\n      caller\n        /* \"BuildingFirstDapp/GuevarraTokenVestingManager.sol\":4913:4990  VestingScheduleCreated(msg.sender, _beneficiary, _stakeholderTypeId, _amount) */\n      0xffffffffffffffffffffffffffffffffffffffff\n      and\n      0xf00d5a3e0408d34d2b3b0ee24c891fc3a82e6568f4f136256b72527802ba6b96\n        /* \"BuildingFirstDapp/GuevarraTokenVestingManager.sol\":4962:4980  _stakeholderTypeId */\n      dup8\n        /* \"BuildingFirstDapp/GuevarraTokenVestingManager.sol\":4982:4989  _amount */\n      dup8\n        /* \"BuildingFirstDapp/GuevarraTokenVestingManager.sol\":4913:4990  VestingScheduleCreated(msg.sender, _beneficiary, _stakeholderTypeId, _amount) */\n      mload(0x40)\n      tag_75\n      swap3\n      swap2\n      swap1\n      tag_76\n      jump\t// in\n    tag_75:\n      mload(0x40)\n      dup1\n      swap2\n      sub\n      swap1\n      log3\n        /* \"BuildingFirstDapp/GuevarraTokenVestingManager.sol\":4205:4998  {... */\n      pop\n      pop\n        /* \"BuildingFirstDapp/GuevarraTokenVestingManager.sol\":4073:4998  function createVestingSchedule(address _beneficiary, bytes32 _stakeholderTypeId, uint256 _amount) external onlyOrgAdmin(msg.sender) {... */\n      pop\n      pop\n      pop\n      pop\n      jump\t// out\n        /* \"BuildingFirstDapp/GuevarraTokenVestingManager.sol\":915:968  mapping(address => Organization) public organizations */\n    tag_20:\n      mstore(0x20, 0x01)\n      dup1\n      0x00\n      mstore\n      keccak256(0x00, 0x40)\n      0x00\n      swap2\n      pop\n      swap1\n      pop\n      dup1\n      0x00\n      add\n      0x00\n      swap1\n      sload\n      swap1\n      0x0100\n      exp\n      swap1\n      div\n      0xffffffffffffffffffffffffffffffffffffffff\n      and\n      swap1\n      dup1\n      0x00\n      add\n      0x14\n      swap1\n      sload\n      swap1\n      0x0100\n      exp\n      swap1\n      div\n      0xff\n      and\n      swap1\n      pop\n      dup3\n      jump\t// out\n        /* \"BuildingFirstDapp/GuevarraTokenVestingManager.sol\":2856:3129  function addAdmin(address _adminAddress) external onlyOrgAdmin(msg.sender) {... */\n    tag_25:\n        /* \"BuildingFirstDapp/GuevarraTokenVestingManager.sol\":2919:2929  msg.sender */\n      caller\n        /* \"BuildingFirstDapp/GuevarraTokenVestingManager.sol\":1685:1698  organizations */\n      0x01\n        /* \"BuildingFirstDapp/GuevarraTokenVestingManager.sol\":1685:1711  organizations[_orgAddress] */\n      0x00\n        /* \"BuildingFirstDapp/GuevarraTokenVestingManager.sol\":1699:1710  _orgAddress */\n      dup3\n        /* \"BuildingFirstDapp/GuevarraTokenVestingManager.sol\":1685:1711  organizations[_orgAddress] */\n      0xffffffffffffffffffffffffffffffffffffffff\n      and\n      0xffffffffffffffffffffffffffffffffffffffff\n      and\n      dup2\n      mstore\n      0x20\n      add\n      swap1\n      dup2\n      mstore\n      0x20\n      add\n      0x00\n      keccak256\n        /* \"BuildingFirstDapp/GuevarraTokenVestingManager.sol\":1685:1718  organizations[_orgAddress].admins */\n      0x01\n      add\n        /* \"BuildingFirstDapp/GuevarraTokenVestingManager.sol\":1685:1730  organizations[_orgAddress].admins[msg.sender] */\n      0x00\n        /* \"BuildingFirstDapp/GuevarraTokenVestingManager.sol\":1719:1729  msg.sender */\n      caller\n        /* \"BuildingFirstDapp/GuevarraTokenVestingManager.sol\":1685:1730  organizations[_orgAddress].admins[msg.sender] */\n      0xffffffffffffffffffffffffffffffffffffffff\n      and\n      0xffffffffffffffffffffffffffffffffffffffff\n      and\n      dup2\n      mstore\n      0x20\n      add\n      swap1\n      dup2\n      mstore\n      0x20\n      add\n      0x00\n      keccak256\n      0x00\n      swap1\n      sload\n      swap1\n      0x0100\n      exp\n      swap1\n      div\n      0xff\n      and\n        /* \"BuildingFirstDapp/GuevarraTokenVestingManager.sol\":1677:1770  require(organizations[_orgAddress].admins[msg.sender], \"Caller is not an organization admin\") */\n      tag_78\n      jumpi\n      mload(0x40)\n      0x08c379a000000000000000000000000000000000000000000000000000000000\n      dup2\n      mstore\n      0x04\n      add\n      tag_79\n      swap1\n      tag_52\n      jump\t// in\n    tag_79:\n      mload(0x40)\n      dup1\n      swap2\n      sub\n      swap1\n      revert\n    tag_78:\n        /* \"BuildingFirstDapp/GuevarraTokenVestingManager.sol\":2975:2976  0 */\n      0x00\n        /* \"BuildingFirstDapp/GuevarraTokenVestingManager.sol\":2950:2977  _adminAddress != address(0) */\n      0xffffffffffffffffffffffffffffffffffffffff\n      and\n        /* \"BuildingFirstDapp/GuevarraTokenVestingManager.sol\":2950:2963  _adminAddress */\n      dup3\n        /* \"BuildingFirstDapp/GuevarraTokenVestingManager.sol\":2950:2977  _adminAddress != address(0) */\n      0xffffffffffffffffffffffffffffffffffffffff\n      and\n      sub\n        /* \"BuildingFirstDapp/GuevarraTokenVestingManager.sol\":2942:3003  require(_adminAddress != address(0), \"Invalid admin address\") */\n      tag_81\n      jumpi\n      mload(0x40)\n      0x08c379a000000000000000000000000000000000000000000000000000000000\n      dup2\n      mstore\n      0x04\n      add\n      tag_82\n      swap1\n      tag_83\n      jump\t// in\n    tag_82:\n      mload(0x40)\n      dup1\n      swap2\n      sub\n      swap1\n      revert\n    tag_81:\n        /* \"BuildingFirstDapp/GuevarraTokenVestingManager.sol\":3064:3068  true */\n      0x01\n        /* \"BuildingFirstDapp/GuevarraTokenVestingManager.sol\":3014:3027  organizations */\n      dup1\n        /* \"BuildingFirstDapp/GuevarraTokenVestingManager.sol\":3014:3039  organizations[msg.sender] */\n      0x00\n        /* \"BuildingFirstDapp/GuevarraTokenVestingManager.sol\":3028:3038  msg.sender */\n      caller\n        /* \"BuildingFirstDapp/GuevarraTokenVestingManager.sol\":3014:3039  organizations[msg.sender] */\n      0xffffffffffffffffffffffffffffffffffffffff\n      and\n      0xffffffffffffffffffffffffffffffffffffffff\n      and\n      dup2\n      mstore\n      0x20\n      add\n      swap1\n      dup2\n      mstore\n      0x20\n      add\n      0x00\n      keccak256\n        /* \"BuildingFirstDapp/GuevarraTokenVestingManager.sol\":3014:3046  organizations[msg.sender].admins */\n      0x01\n      add\n        /* \"BuildingFirstDapp/GuevarraTokenVestingManager.sol\":3014:3061  organizations[msg.sender].admins[_adminAddress] */\n      0x00\n        /* \"BuildingFirstDapp/GuevarraTokenVestingManager.sol\":3047:3060  _adminAddress */\n      dup5\n        /* \"BuildingFirstDapp/GuevarraTokenVestingManager.sol\":3014:3061  organizations[msg.sender].admins[_adminAddress] */\n      0xffffffffffffffffffffffffffffffffffffffff\n      and\n      0xffffffffffffffffffffffffffffffffffffffff\n      and\n      dup2\n      mstore\n      0x20\n      add\n      swap1\n      dup2\n      mstore\n      0x20\n      add\n      0x00\n      keccak256\n      0x00\n        /* \"BuildingFirstDapp/GuevarraTokenVestingManager.sol\":3014:3068  organizations[msg.sender].admins[_adminAddress] = true */\n      0x0100\n      exp\n      dup2\n      sload\n      dup2\n      0xff\n      mul\n      not\n      and\n      swap1\n      dup4\n      iszero\n      iszero\n      mul\n      or\n      swap1\n      sstore\n      pop\n        /* \"BuildingFirstDapp/GuevarraTokenVestingManager.sol\":3107:3120  _adminAddress */\n      dup2\n        /* \"BuildingFirstDapp/GuevarraTokenVestingManager.sol\":3084:3121  AdminAdded(msg.sender, _adminAddress) */\n      0xffffffffffffffffffffffffffffffffffffffff\n      and\n        /* \"BuildingFirstDapp/GuevarraTokenVestingManager.sol\":3095:3105  msg.sender */\n      caller\n        /* \"BuildingFirstDapp/GuevarraTokenVestingManager.sol\":3084:3121  AdminAdded(msg.sender, _adminAddress) */\n      0xffffffffffffffffffffffffffffffffffffffff\n      and\n      0xbf3f493c772c8c283fd124432c2d0f539ab343faa04258fe88e52912d36b102b\n      mload(0x40)\n      mload(0x40)\n      dup1\n      swap2\n      sub\n      swap1\n      log3\n        /* \"BuildingFirstDapp/GuevarraTokenVestingManager.sol\":2856:3129  function addAdmin(address _adminAddress) external onlyOrgAdmin(msg.sender) {... */\n      pop\n      pop\n      jump\t// out\n        /* \"BuildingFirstDapp/GuevarraTokenVestingManager.sol\":394:414  address public owner */\n    tag_27:\n      0x00\n      dup1\n      sload\n      swap1\n      0x0100\n      exp\n      swap1\n      div\n      0xffffffffffffffffffffffffffffffffffffffff\n      and\n      dup2\n      jump\t// out\n        /* \"BuildingFirstDapp/GuevarraTokenVestingManager.sol\":3330:3814  function addStakeholderType(string memory _name, uint256 _vestingPeriod) external onlyOrgAdmin(msg.sender) {... */\n    tag_33:\n        /* \"BuildingFirstDapp/GuevarraTokenVestingManager.sol\":3425:3435  msg.sender */\n      caller\n        /* \"BuildingFirstDapp/GuevarraTokenVestingManager.sol\":1685:1698  organizations */\n      0x01\n        /* \"BuildingFirstDapp/GuevarraTokenVestingManager.sol\":1685:1711  organizations[_orgAddress] */\n      0x00\n        /* \"BuildingFirstDapp/GuevarraTokenVestingManager.sol\":1699:1710  _orgAddress */\n      dup3\n        /* \"BuildingFirstDapp/GuevarraTokenVestingManager.sol\":1685:1711  organizations[_orgAddress] */\n      0xffffffffffffffffffffffffffffffffffffffff\n      and\n      0xffffffffffffffffffffffffffffffffffffffff\n      and\n      dup2\n      mstore\n      0x20\n      add\n      swap1\n      dup2\n      mstore\n      0x20\n      add\n      0x00\n      keccak256\n        /* \"BuildingFirstDapp/GuevarraTokenVestingManager.sol\":1685:1718  organizations[_orgAddress].admins */\n      0x01\n      add\n        /* \"BuildingFirstDapp/GuevarraTokenVestingManager.sol\":1685:1730  organizations[_orgAddress].admins[msg.sender] */\n      0x00\n        /* \"BuildingFirstDapp/GuevarraTokenVestingManager.sol\":1719:1729  msg.sender */\n      caller\n        /* \"BuildingFirstDapp/GuevarraTokenVestingManager.sol\":1685:1730  organizations[_orgAddress].admins[msg.sender] */\n      0xffffffffffffffffffffffffffffffffffffffff\n      and\n      0xffffffffffffffffffffffffffffffffffffffff\n      and\n      dup2\n      mstore\n      0x20\n      add\n      swap1\n      dup2\n      mstore\n      0x20\n      add\n      0x00\n      keccak256\n      0x00\n      swap1\n      sload\n      swap1\n      0x0100\n      exp\n      swap1\n      div\n      0xff\n      and\n        /* \"BuildingFirstDapp/GuevarraTokenVestingManager.sol\":1677:1770  require(organizations[_orgAddress].admins[msg.sender], \"Caller is not an organization admin\") */\n      tag_85\n      jumpi\n      mload(0x40)\n      0x08c379a000000000000000000000000000000000000000000000000000000000\n      dup2\n      mstore\n      0x04\n      add\n      tag_86\n      swap1\n      tag_52\n      jump\t// in\n    tag_86:\n      mload(0x40)\n      dup1\n      swap2\n      sub\n      swap1\n      revert\n    tag_85:\n        /* \"BuildingFirstDapp/GuevarraTokenVestingManager.sol\":3448:3462  bytes32 typeId */\n      0x00\n        /* \"BuildingFirstDapp/GuevarraTokenVestingManager.sol\":3492:3497  _name */\n      dup4\n        /* \"BuildingFirstDapp/GuevarraTokenVestingManager.sol\":3475:3498  abi.encodePacked(_name) */\n      add(0x20, mload(0x40))\n      tag_88\n      swap2\n      swap1\n      tag_89\n      jump\t// in\n    tag_88:\n      mload(0x40)\n      0x20\n      dup2\n      dup4\n      sub\n      sub\n      dup2\n      mstore\n      swap1\n      0x40\n      mstore\n        /* \"BuildingFirstDapp/GuevarraTokenVestingManager.sol\":3465:3499  keccak256(abi.encodePacked(_name)) */\n      dup1\n      mload\n      swap1\n      0x20\n      add\n      keccak256\n        /* \"BuildingFirstDapp/GuevarraTokenVestingManager.sol\":3448:3499  bytes32 typeId = keccak256(abi.encodePacked(_name)) */\n      swap1\n      pop\n        /* \"BuildingFirstDapp/GuevarraTokenVestingManager.sol\":3586:3587  0 */\n      0x00\n        /* \"BuildingFirstDapp/GuevarraTokenVestingManager.sol\":3518:3531  organizations */\n      0x01\n        /* \"BuildingFirstDapp/GuevarraTokenVestingManager.sol\":3518:3543  organizations[msg.sender] */\n      0x00\n        /* \"BuildingFirstDapp/GuevarraTokenVestingManager.sol\":3532:3542  msg.sender */\n      caller\n        /* \"BuildingFirstDapp/GuevarraTokenVestingManager.sol\":3518:3543  organizations[msg.sender] */\n      0xffffffffffffffffffffffffffffffffffffffff\n      and\n      0xffffffffffffffffffffffffffffffffffffffff\n      and\n      dup2\n      mstore\n      0x20\n      add\n      swap1\n      dup2\n      mstore\n      0x20\n      add\n      0x00\n      keccak256\n        /* \"BuildingFirstDapp/GuevarraTokenVestingManager.sol\":3518:3560  organizations[msg.sender].stakeholderTypes */\n      0x02\n      add\n        /* \"BuildingFirstDapp/GuevarraTokenVestingManager.sol\":3518:3568  organizations[msg.sender].stakeholderTypes[typeId] */\n      0x00\n        /* \"BuildingFirstDapp/GuevarraTokenVestingManager.sol\":3561:3567  typeId */\n      dup4\n        /* \"BuildingFirstDapp/GuevarraTokenVestingManager.sol\":3518:3568  organizations[msg.sender].stakeholderTypes[typeId] */\n      dup2\n      mstore\n      0x20\n      add\n      swap1\n      dup2\n      mstore\n      0x20\n      add\n      0x00\n      keccak256\n        /* \"BuildingFirstDapp/GuevarraTokenVestingManager.sol\":3518:3582  organizations[msg.sender].stakeholderTypes[typeId].vestingPeriod */\n      0x01\n      add\n      sload\n        /* \"BuildingFirstDapp/GuevarraTokenVestingManager.sol\":3518:3587  organizations[msg.sender].stakeholderTypes[typeId].vestingPeriod == 0 */\n      eq\n        /* \"BuildingFirstDapp/GuevarraTokenVestingManager.sol\":3510:3623  require(organizations[msg.sender].stakeholderTypes[typeId].vestingPeriod == 0, \"Stakeholder type already exists\") */\n      tag_90\n      jumpi\n      mload(0x40)\n      0x08c379a000000000000000000000000000000000000000000000000000000000\n      dup2\n      mstore\n      0x04\n      add\n      tag_91\n      swap1\n      tag_92\n      jump\t// in\n    tag_91:\n      mload(0x40)\n      dup1\n      swap2\n      sub\n      swap1\n      revert\n    tag_90:\n        /* \"BuildingFirstDapp/GuevarraTokenVestingManager.sol\":3689:3727  StakeholderType(_name, _vestingPeriod) */\n      mload(0x40)\n      dup1\n      0x40\n      add\n      0x40\n      mstore\n      dup1\n        /* \"BuildingFirstDapp/GuevarraTokenVestingManager.sol\":3705:3710  _name */\n      dup6\n        /* \"BuildingFirstDapp/GuevarraTokenVestingManager.sol\":3689:3727  StakeholderType(_name, _vestingPeriod) */\n      dup2\n      mstore\n      0x20\n      add\n        /* \"BuildingFirstDapp/GuevarraTokenVestingManager.sol\":3712:3726  _vestingPeriod */\n      dup5\n        /* \"BuildingFirstDapp/GuevarraTokenVestingManager.sol\":3689:3727  StakeholderType(_name, _vestingPeriod) */\n      dup2\n      mstore\n      pop\n        /* \"BuildingFirstDapp/GuevarraTokenVestingManager.sol\":3636:3649  organizations */\n      0x01\n        /* \"BuildingFirstDapp/GuevarraTokenVestingManager.sol\":3636:3661  organizations[msg.sender] */\n      0x00\n        /* \"BuildingFirstDapp/GuevarraTokenVestingManager.sol\":3650:3660  msg.sender */\n      caller\n        /* \"BuildingFirstDapp/GuevarraTokenVestingManager.sol\":3636:3661  organizations[msg.sender] */\n      0xffffffffffffffffffffffffffffffffffffffff\n      and\n      0xffffffffffffffffffffffffffffffffffffffff\n      and\n      dup2\n      mstore\n      0x20\n      add\n      swap1\n      dup2\n      mstore\n      0x20\n      add\n      0x00\n      keccak256\n        /* \"BuildingFirstDapp/GuevarraTokenVestingManager.sol\":3636:3678  organizations[msg.sender].stakeholderTypes */\n      0x02\n      add\n        /* \"BuildingFirstDapp/GuevarraTokenVestingManager.sol\":3636:3686  organizations[msg.sender].stakeholderTypes[typeId] */\n      0x00\n        /* \"BuildingFirstDapp/GuevarraTokenVestingManager.sol\":3679:3685  typeId */\n      dup4\n        /* \"BuildingFirstDapp/GuevarraTokenVestingManager.sol\":3636:3686  organizations[msg.sender].stakeholderTypes[typeId] */\n      dup2\n      mstore\n      0x20\n      add\n      swap1\n      dup2\n      mstore\n      0x20\n      add\n      0x00\n      keccak256\n        /* \"BuildingFirstDapp/GuevarraTokenVestingManager.sol\":3636:3727  organizations[msg.sender].stakeholderTypes[typeId] = StakeholderType(_name, _vestingPeriod) */\n      0x00\n      dup3\n      add\n      mload\n      dup2\n      0x00\n      add\n      swap1\n      dup2\n      tag_93\n      swap2\n      swap1\n      tag_94\n      jump\t// in\n    tag_93:\n      pop\n      0x20\n      dup3\n      add\n      mload\n      dup2\n      0x01\n      add\n      sstore\n      swap1\n      pop\n      pop\n        /* \"BuildingFirstDapp/GuevarraTokenVestingManager.sol\":3776:3782  typeId */\n      dup1\n        /* \"BuildingFirstDapp/GuevarraTokenVestingManager.sol\":3764:3774  msg.sender */\n      caller\n        /* \"BuildingFirstDapp/GuevarraTokenVestingManager.sol\":3743:3806  StakeholderTypeAdded(msg.sender, typeId, _name, _vestingPeriod) */\n      0xffffffffffffffffffffffffffffffffffffffff\n      and\n      0x363005321f09105a5c4496a963b03a8be1278be47ed2cba71837c87fc8b86f85\n        /* \"BuildingFirstDapp/GuevarraTokenVestingManager.sol\":3784:3789  _name */\n      dup7\n        /* \"BuildingFirstDapp/GuevarraTokenVestingManager.sol\":3791:3805  _vestingPeriod */\n      dup7\n        /* \"BuildingFirstDapp/GuevarraTokenVestingManager.sol\":3743:3806  StakeholderTypeAdded(msg.sender, typeId, _name, _vestingPeriod) */\n      mload(0x40)\n      tag_95\n      swap3\n      swap2\n      swap1\n      tag_96\n      jump\t// in\n    tag_95:\n      mload(0x40)\n      dup1\n      swap2\n      sub\n      swap1\n      log3\n        /* \"BuildingFirstDapp/GuevarraTokenVestingManager.sol\":3437:3814  {... */\n      pop\n        /* \"BuildingFirstDapp/GuevarraTokenVestingManager.sol\":3330:3814  function addStakeholderType(string memory _name, uint256 _vestingPeriod) external onlyOrgAdmin(msg.sender) {... */\n      pop\n      pop\n      pop\n      jump\t// out\n        /* \"BuildingFirstDapp/GuevarraTokenVestingManager.sol\":2185:2720  function registerOrganization(address _tokenAddress) external {... */\n    tag_36:\n        /* \"BuildingFirstDapp/GuevarraTokenVestingManager.sol\":2267:2280  organizations */\n      0x01\n        /* \"BuildingFirstDapp/GuevarraTokenVestingManager.sol\":2267:2292  organizations[msg.sender] */\n      0x00\n        /* \"BuildingFirstDapp/GuevarraTokenVestingManager.sol\":2281:2291  msg.sender */\n      caller\n        /* \"BuildingFirstDapp/GuevarraTokenVestingManager.sol\":2267:2292  organizations[msg.sender] */\n      0xffffffffffffffffffffffffffffffffffffffff\n      and\n      0xffffffffffffffffffffffffffffffffffffffff\n      and\n      dup2\n      mstore\n      0x20\n      add\n      swap1\n      dup2\n      mstore\n      0x20\n      add\n      0x00\n      keccak256\n        /* \"BuildingFirstDapp/GuevarraTokenVestingManager.sol\":2267:2305  organizations[msg.sender].isRegistered */\n      0x00\n      add\n      0x14\n      swap1\n      sload\n      swap1\n      0x0100\n      exp\n      swap1\n      div\n      0xff\n      and\n        /* \"BuildingFirstDapp/GuevarraTokenVestingManager.sol\":2266:2305  !organizations[msg.sender].isRegistered */\n      iszero\n        /* \"BuildingFirstDapp/GuevarraTokenVestingManager.sol\":2258:2341  require(!organizations[msg.sender].isRegistered, \"Organization already registered\") */\n      tag_98\n      jumpi\n      mload(0x40)\n      0x08c379a000000000000000000000000000000000000000000000000000000000\n      dup2\n      mstore\n      0x04\n      add\n      tag_99\n      swap1\n      tag_100\n      jump\t// in\n    tag_99:\n      mload(0x40)\n      dup1\n      swap2\n      sub\n      swap1\n      revert\n    tag_98:\n        /* \"BuildingFirstDapp/GuevarraTokenVestingManager.sol\":2385:2386  0 */\n      0x00\n        /* \"BuildingFirstDapp/GuevarraTokenVestingManager.sol\":2360:2387  _tokenAddress != address(0) */\n      0xffffffffffffffffffffffffffffffffffffffff\n      and\n        /* \"BuildingFirstDapp/GuevarraTokenVestingManager.sol\":2360:2373  _tokenAddress */\n      dup2\n        /* \"BuildingFirstDapp/GuevarraTokenVestingManager.sol\":2360:2387  _tokenAddress != address(0) */\n      0xffffffffffffffffffffffffffffffffffffffff\n      and\n      sub\n        /* \"BuildingFirstDapp/GuevarraTokenVestingManager.sol\":2352:2413  require(_tokenAddress != address(0), \"Invalid token address\") */\n      tag_101\n      jumpi\n      mload(0x40)\n      0x08c379a000000000000000000000000000000000000000000000000000000000\n      dup2\n      mstore\n      0x04\n      add\n      tag_102\n      swap1\n      tag_103\n      jump\t// in\n    tag_102:\n      mload(0x40)\n      dup1\n      swap2\n      sub\n      swap1\n      revert\n    tag_101:\n        /* \"BuildingFirstDapp/GuevarraTokenVestingManager.sol\":2426:2450  Organization storage org */\n      0x00\n        /* \"BuildingFirstDapp/GuevarraTokenVestingManager.sol\":2453:2466  organizations */\n      0x01\n        /* \"BuildingFirstDapp/GuevarraTokenVestingManager.sol\":2453:2478  organizations[msg.sender] */\n      0x00\n        /* \"BuildingFirstDapp/GuevarraTokenVestingManager.sol\":2467:2477  msg.sender */\n      caller\n        /* \"BuildingFirstDapp/GuevarraTokenVestingManager.sol\":2453:2478  organizations[msg.sender] */\n      0xffffffffffffffffffffffffffffffffffffffff\n      and\n      0xffffffffffffffffffffffffffffffffffffffff\n      and\n      dup2\n      mstore\n      0x20\n      add\n      swap1\n      dup2\n      mstore\n      0x20\n      add\n      0x00\n      keccak256\n        /* \"BuildingFirstDapp/GuevarraTokenVestingManager.sol\":2426:2478  Organization storage org = organizations[msg.sender] */\n      swap1\n      pop\n        /* \"BuildingFirstDapp/GuevarraTokenVestingManager.sol\":2508:2521  _tokenAddress */\n      dup2\n        /* \"BuildingFirstDapp/GuevarraTokenVestingManager.sol\":2489:2492  org */\n      dup2\n        /* \"BuildingFirstDapp/GuevarraTokenVestingManager.sol\":2489:2505  org.tokenAddress */\n      0x00\n      add\n      0x00\n        /* \"BuildingFirstDapp/GuevarraTokenVestingManager.sol\":2489:2521  org.tokenAddress = _tokenAddress */\n      0x0100\n      exp\n      dup2\n      sload\n      dup2\n      0xffffffffffffffffffffffffffffffffffffffff\n      mul\n      not\n      and\n      swap1\n      dup4\n      0xffffffffffffffffffffffffffffffffffffffff\n      and\n      mul\n      or\n      swap1\n      sstore\n      pop\n        /* \"BuildingFirstDapp/GuevarraTokenVestingManager.sol\":2551:2555  true */\n      0x01\n        /* \"BuildingFirstDapp/GuevarraTokenVestingManager.sol\":2532:2535  org */\n      dup2\n        /* \"BuildingFirstDapp/GuevarraTokenVestingManager.sol\":2532:2548  org.isRegistered */\n      0x00\n      add\n      0x14\n        /* \"BuildingFirstDapp/GuevarraTokenVestingManager.sol\":2532:2555  org.isRegistered = true */\n      0x0100\n      exp\n      dup2\n      sload\n      dup2\n      0xff\n      mul\n      not\n      and\n      swap1\n      dup4\n      iszero\n      iszero\n      mul\n      or\n      swap1\n      sstore\n      pop\n        /* \"BuildingFirstDapp/GuevarraTokenVestingManager.sol\":2591:2595  true */\n      0x01\n        /* \"BuildingFirstDapp/GuevarraTokenVestingManager.sol\":2566:2569  org */\n      dup2\n        /* \"BuildingFirstDapp/GuevarraTokenVestingManager.sol\":2566:2576  org.admins */\n      0x01\n      add\n        /* \"BuildingFirstDapp/GuevarraTokenVestingManager.sol\":2566:2588  org.admins[msg.sender] */\n      0x00\n        /* \"BuildingFirstDapp/GuevarraTokenVestingManager.sol\":2577:2587  msg.sender */\n      caller\n        /* \"BuildingFirstDapp/GuevarraTokenVestingManager.sol\":2566:2588  org.admins[msg.sender] */\n      0xffffffffffffffffffffffffffffffffffffffff\n      and\n      0xffffffffffffffffffffffffffffffffffffffff\n      and\n      dup2\n      mstore\n      0x20\n      add\n      swap1\n      dup2\n      mstore\n      0x20\n      add\n      0x00\n      keccak256\n      0x00\n        /* \"BuildingFirstDapp/GuevarraTokenVestingManager.sol\":2566:2595  org.admins[msg.sender] = true */\n      0x0100\n      exp\n      dup2\n      sload\n      dup2\n      0xff\n      mul\n      not\n      and\n      swap1\n      dup4\n      iszero\n      iszero\n      mul\n      or\n      swap1\n      sstore\n      pop\n        /* \"BuildingFirstDapp/GuevarraTokenVestingManager.sol\":2648:2661  _tokenAddress */\n      dup2\n        /* \"BuildingFirstDapp/GuevarraTokenVestingManager.sol\":2613:2662  OrganizationRegistered(msg.sender, _tokenAddress) */\n      0xffffffffffffffffffffffffffffffffffffffff\n      and\n        /* \"BuildingFirstDapp/GuevarraTokenVestingManager.sol\":2636:2646  msg.sender */\n      caller\n        /* \"BuildingFirstDapp/GuevarraTokenVestingManager.sol\":2613:2662  OrganizationRegistered(msg.sender, _tokenAddress) */\n      0xffffffffffffffffffffffffffffffffffffffff\n      and\n      0x9f51233d33c6517e4ea55596370510cf6f316777b475e532b8fbe6d3e6b1afaa\n      mload(0x40)\n      mload(0x40)\n      dup1\n      swap2\n      sub\n      swap1\n      log3\n        /* \"BuildingFirstDapp/GuevarraTokenVestingManager.sol\":2701:2711  msg.sender */\n      caller\n        /* \"BuildingFirstDapp/GuevarraTokenVestingManager.sol\":2678:2712  AdminAdded(msg.sender, msg.sender) */\n      0xffffffffffffffffffffffffffffffffffffffff\n      and\n        /* \"BuildingFirstDapp/GuevarraTokenVestingManager.sol\":2689:2699  msg.sender */\n      caller\n        /* \"BuildingFirstDapp/GuevarraTokenVestingManager.sol\":2678:2712  AdminAdded(msg.sender, msg.sender) */\n      0xffffffffffffffffffffffffffffffffffffffff\n      and\n      0xbf3f493c772c8c283fd124432c2d0f539ab343faa04258fe88e52912d36b102b\n      mload(0x40)\n      mload(0x40)\n      dup1\n      swap2\n      sub\n      swap1\n      log3\n        /* \"BuildingFirstDapp/GuevarraTokenVestingManager.sol\":2247:2720  {... */\n      pop\n        /* \"BuildingFirstDapp/GuevarraTokenVestingManager.sol\":2185:2720  function registerOrganization(address _tokenAddress) external {... */\n      pop\n      jump\t// out\n        /* \"BuildingFirstDapp/GuevarraTokenVestingManager.sol\":5116:6022  function claimTokens(address _orgAddress) external {... */\n    tag_39:\n        /* \"BuildingFirstDapp/GuevarraTokenVestingManager.sol\":5178:5202  Organization storage org */\n      0x00\n        /* \"BuildingFirstDapp/GuevarraTokenVestingManager.sol\":5205:5218  organizations */\n      0x01\n        /* \"BuildingFirstDapp/GuevarraTokenVestingManager.sol\":5205:5231  organizations[_orgAddress] */\n      0x00\n        /* \"BuildingFirstDapp/GuevarraTokenVestingManager.sol\":5219:5230  _orgAddress */\n      dup4\n        /* \"BuildingFirstDapp/GuevarraTokenVestingManager.sol\":5205:5231  organizations[_orgAddress] */\n      0xffffffffffffffffffffffffffffffffffffffff\n      and\n      0xffffffffffffffffffffffffffffffffffffffff\n      and\n      dup2\n      mstore\n      0x20\n      add\n      swap1\n      dup2\n      mstore\n      0x20\n      add\n      0x00\n      keccak256\n        /* \"BuildingFirstDapp/GuevarraTokenVestingManager.sol\":5178:5231  Organization storage org = organizations[_orgAddress] */\n      swap1\n      pop\n        /* \"BuildingFirstDapp/GuevarraTokenVestingManager.sol\":5250:5253  org */\n      dup1\n        /* \"BuildingFirstDapp/GuevarraTokenVestingManager.sol\":5250:5266  org.isRegistered */\n      0x00\n      add\n      0x14\n      swap1\n      sload\n      swap1\n      0x0100\n      exp\n      swap1\n      div\n      0xff\n      and\n        /* \"BuildingFirstDapp/GuevarraTokenVestingManager.sol\":5242:5298  require(org.isRegistered, \"Organization not registered\") */\n      tag_105\n      jumpi\n      mload(0x40)\n      0x08c379a000000000000000000000000000000000000000000000000000000000\n      dup2\n      mstore\n      0x04\n      add\n      tag_106\n      swap1\n      tag_107\n      jump\t// in\n    tag_106:\n      mload(0x40)\n      dup1\n      swap2\n      sub\n      swap1\n      revert\n    tag_105:\n        /* \"BuildingFirstDapp/GuevarraTokenVestingManager.sol\":5311:5334  Vesting storage vesting */\n      0x00\n        /* \"BuildingFirstDapp/GuevarraTokenVestingManager.sol\":5337:5340  org */\n      dup2\n        /* \"BuildingFirstDapp/GuevarraTokenVestingManager.sol\":5337:5349  org.vestings */\n      0x03\n      add\n        /* \"BuildingFirstDapp/GuevarraTokenVestingManager.sol\":5337:5361  org.vestings[msg.sender] */\n      0x00\n        /* \"BuildingFirstDapp/GuevarraTokenVestingManager.sol\":5350:5360  msg.sender */\n      caller\n        /* \"BuildingFirstDapp/GuevarraTokenVestingManager.sol\":5337:5361  org.vestings[msg.sender] */\n      0xffffffffffffffffffffffffffffffffffffffff\n      and\n      0xffffffffffffffffffffffffffffffffffffffff\n      and\n      dup2\n      mstore\n      0x20\n      add\n      swap1\n      dup2\n      mstore\n      0x20\n      add\n      0x00\n      keccak256\n        /* \"BuildingFirstDapp/GuevarraTokenVestingManager.sol\":5311:5361  Vesting storage vesting = org.vestings[msg.sender] */\n      swap1\n      pop\n        /* \"BuildingFirstDapp/GuevarraTokenVestingManager.sol\":5397:5398  0 */\n      0x00\n        /* \"BuildingFirstDapp/GuevarraTokenVestingManager.sol\":5380:5387  vesting */\n      dup2\n        /* \"BuildingFirstDapp/GuevarraTokenVestingManager.sol\":5380:5394  vesting.amount */\n      0x01\n      add\n      sload\n        /* \"BuildingFirstDapp/GuevarraTokenVestingManager.sol\":5380:5398  vesting.amount > 0 */\n      gt\n        /* \"BuildingFirstDapp/GuevarraTokenVestingManager.sol\":5372:5444  require(vesting.amount > 0, \"No vesting schedule found for beneficiary\") */\n      tag_108\n      jumpi\n      mload(0x40)\n      0x08c379a000000000000000000000000000000000000000000000000000000000\n      dup2\n      mstore\n      0x04\n      add\n      tag_109\n      swap1\n      tag_110\n      jump\t// in\n    tag_109:\n      mload(0x40)\n      dup1\n      swap2\n      sub\n      swap1\n      revert\n    tag_108:\n        /* \"BuildingFirstDapp/GuevarraTokenVestingManager.sol\":5457:5495  StakeholderType memory stakeholderType */\n      0x00\n        /* \"BuildingFirstDapp/GuevarraTokenVestingManager.sol\":5498:5501  org */\n      dup3\n        /* \"BuildingFirstDapp/GuevarraTokenVestingManager.sol\":5498:5518  org.stakeholderTypes */\n      0x02\n      add\n        /* \"BuildingFirstDapp/GuevarraTokenVestingManager.sol\":5498:5545  org.stakeholderTypes[vesting.stakeholderTypeId] */\n      0x00\n        /* \"BuildingFirstDapp/GuevarraTokenVestingManager.sol\":5519:5526  vesting */\n      dup4\n        /* \"BuildingFirstDapp/GuevarraTokenVestingManager.sol\":5519:5544  vesting.stakeholderTypeId */\n      0x00\n      add\n      sload\n        /* \"BuildingFirstDapp/GuevarraTokenVestingManager.sol\":5498:5545  org.stakeholderTypes[vesting.stakeholderTypeId] */\n      dup2\n      mstore\n      0x20\n      add\n      swap1\n      dup2\n      mstore\n      0x20\n      add\n      0x00\n      keccak256\n        /* \"BuildingFirstDapp/GuevarraTokenVestingManager.sol\":5457:5545  StakeholderType memory stakeholderType = org.stakeholderTypes[vesting.stakeholderTypeId] */\n      mload(0x40)\n      dup1\n      0x40\n      add\n      0x40\n      mstore\n      swap1\n      dup2\n      0x00\n      dup3\n      add\n      dup1\n      sload\n      tag_111\n      swap1\n      tag_112\n      jump\t// in\n    tag_111:\n      dup1\n      0x1f\n      add\n      0x20\n      dup1\n      swap2\n      div\n      mul\n      0x20\n      add\n      mload(0x40)\n      swap1\n      dup2\n      add\n      0x40\n      mstore\n      dup1\n      swap3\n      swap2\n      swap1\n      dup2\n      dup2\n      mstore\n      0x20\n      add\n      dup3\n      dup1\n      sload\n      tag_113\n      swap1\n      tag_112\n      jump\t// in\n    tag_113:\n      dup1\n      iszero\n      tag_114\n      jumpi\n      dup1\n      0x1f\n      lt\n      tag_115\n      jumpi\n      0x0100\n      dup1\n      dup4\n      sload\n      div\n      mul\n      dup4\n      mstore\n      swap2\n      0x20\n      add\n      swap2\n      jump(tag_114)\n    tag_115:\n      dup3\n      add\n      swap2\n      swap1\n      0x00\n      mstore\n      keccak256(0x00, 0x20)\n      swap1\n    tag_116:\n      dup2\n      sload\n      dup2\n      mstore\n      swap1\n      0x01\n      add\n      swap1\n      0x20\n      add\n      dup1\n      dup4\n      gt\n      tag_116\n      jumpi\n      dup3\n      swap1\n      sub\n      0x1f\n      and\n      dup3\n      add\n      swap2\n    tag_114:\n      pop\n      pop\n      pop\n      pop\n      pop\n      dup2\n      mstore\n      0x20\n      add\n      0x01\n      dup3\n      add\n      sload\n      dup2\n      mstore\n      pop\n      pop\n      swap1\n      pop\n        /* \"BuildingFirstDapp/GuevarraTokenVestingManager.sol\":5556:5576  uint256 vestedAmount */\n      0x00\n        /* \"BuildingFirstDapp/GuevarraTokenVestingManager.sol\":5579:5640  calculateVestedAmount(vesting, stakeholderType.vestingPeriod) */\n      tag_117\n        /* \"BuildingFirstDapp/GuevarraTokenVestingManager.sol\":5601:5608  vesting */\n      dup4\n        /* \"BuildingFirstDapp/GuevarraTokenVestingManager.sol\":5579:5640  calculateVestedAmount(vesting, stakeholderType.vestingPeriod) */\n      mload(0x40)\n      dup1\n      0x80\n      add\n      0x40\n      mstore\n      swap1\n      dup2\n      0x00\n      dup3\n      add\n      sload\n      dup2\n      mstore\n      0x20\n      add\n      0x01\n      dup3\n      add\n      sload\n      dup2\n      mstore\n      0x20\n      add\n      0x02\n      dup3\n      add\n      sload\n      dup2\n      mstore\n      0x20\n      add\n      0x03\n      dup3\n      add\n      sload\n      dup2\n      mstore\n      pop\n      pop\n        /* \"BuildingFirstDapp/GuevarraTokenVestingManager.sol\":5610:5625  stakeholderType */\n      dup4\n        /* \"BuildingFirstDapp/GuevarraTokenVestingManager.sol\":5610:5639  stakeholderType.vestingPeriod */\n      0x20\n      add\n      mload\n        /* \"BuildingFirstDapp/GuevarraTokenVestingManager.sol\":5579:5600  calculateVestedAmount */\n      tag_118\n        /* \"BuildingFirstDapp/GuevarraTokenVestingManager.sol\":5579:5640  calculateVestedAmount(vesting, stakeholderType.vestingPeriod) */\n      jump\t// in\n    tag_117:\n        /* \"BuildingFirstDapp/GuevarraTokenVestingManager.sol\":5556:5640  uint256 vestedAmount = calculateVestedAmount(vesting, stakeholderType.vestingPeriod) */\n      swap1\n      pop\n        /* \"BuildingFirstDapp/GuevarraTokenVestingManager.sol\":5651:5674  uint256 claimableAmount */\n      0x00\n        /* \"BuildingFirstDapp/GuevarraTokenVestingManager.sol\":5677:5716  vestedAmount.sub(vesting.claimedAmount) */\n      tag_119\n        /* \"BuildingFirstDapp/GuevarraTokenVestingManager.sol\":5694:5701  vesting */\n      dup5\n        /* \"BuildingFirstDapp/GuevarraTokenVestingManager.sol\":5694:5715  vesting.claimedAmount */\n      0x03\n      add\n      sload\n        /* \"BuildingFirstDapp/GuevarraTokenVestingManager.sol\":5677:5689  vestedAmount */\n      dup4\n        /* \"BuildingFirstDapp/GuevarraTokenVestingManager.sol\":5677:5693  vestedAmount.sub */\n      tag_120\n      swap1\n        /* \"BuildingFirstDapp/GuevarraTokenVestingManager.sol\":5677:5716  vestedAmount.sub(vesting.claimedAmount) */\n      swap2\n      swap1\n      0xffffffff\n      and\n      jump\t// in\n    tag_119:\n        /* \"BuildingFirstDapp/GuevarraTokenVestingManager.sol\":5651:5716  uint256 claimableAmount = vestedAmount.sub(vesting.claimedAmount) */\n      swap1\n      pop\n        /* \"BuildingFirstDapp/GuevarraTokenVestingManager.sol\":5755:5756  0 */\n      0x00\n        /* \"BuildingFirstDapp/GuevarraTokenVestingManager.sol\":5737:5752  claimableAmount */\n      dup2\n        /* \"BuildingFirstDapp/GuevarraTokenVestingManager.sol\":5737:5756  claimableAmount > 0 */\n      gt\n        /* \"BuildingFirstDapp/GuevarraTokenVestingManager.sol\":5729:5789  require(claimableAmount > 0, \"No tokens available to claim\") */\n      tag_121\n      jumpi\n      mload(0x40)\n      0x08c379a000000000000000000000000000000000000000000000000000000000\n      dup2\n      mstore\n      0x04\n      add\n      tag_122\n      swap1\n      tag_123\n      jump\t// in\n    tag_122:\n      mload(0x40)\n      dup1\n      swap2\n      sub\n      swap1\n      revert\n    tag_121:\n        /* \"BuildingFirstDapp/GuevarraTokenVestingManager.sol\":5826:5868  vesting.claimedAmount.add(claimableAmount) */\n      tag_124\n        /* \"BuildingFirstDapp/GuevarraTokenVestingManager.sol\":5852:5867  claimableAmount */\n      dup2\n        /* \"BuildingFirstDapp/GuevarraTokenVestingManager.sol\":5826:5833  vesting */\n      dup6\n        /* \"BuildingFirstDapp/GuevarraTokenVestingManager.sol\":5826:5847  vesting.claimedAmount */\n      0x03\n      add\n      sload\n        /* \"BuildingFirstDapp/GuevarraTokenVestingManager.sol\":5826:5851  vesting.claimedAmount.add */\n      tag_125\n      swap1\n        /* \"BuildingFirstDapp/GuevarraTokenVestingManager.sol\":5826:5868  vesting.claimedAmount.add(claimableAmount) */\n      swap2\n      swap1\n      0xffffffff\n      and\n      jump\t// in\n    tag_124:\n        /* \"BuildingFirstDapp/GuevarraTokenVestingManager.sol\":5802:5809  vesting */\n      dup5\n        /* \"BuildingFirstDapp/GuevarraTokenVestingManager.sol\":5802:5823  vesting.claimedAmount */\n      0x03\n      add\n        /* \"BuildingFirstDapp/GuevarraTokenVestingManager.sol\":5802:5868  vesting.claimedAmount = vesting.claimedAmount.add(claimableAmount) */\n      dup2\n      swap1\n      sstore\n      pop\n        /* \"BuildingFirstDapp/GuevarraTokenVestingManager.sol\":5886:5889  org */\n      dup5\n        /* \"BuildingFirstDapp/GuevarraTokenVestingManager.sol\":5886:5902  org.tokenAddress */\n      0x00\n      add\n      0x00\n      swap1\n      sload\n      swap1\n      0x0100\n      exp\n      swap1\n      div\n      0xffffffffffffffffffffffffffffffffffffffff\n      and\n        /* \"BuildingFirstDapp/GuevarraTokenVestingManager.sol\":5879:5912  IERC20(org.tokenAddress).transfer */\n      0xffffffffffffffffffffffffffffffffffffffff\n      and\n      0xa9059cbb\n        /* \"BuildingFirstDapp/GuevarraTokenVestingManager.sol\":5913:5923  msg.sender */\n      caller\n        /* \"BuildingFirstDapp/GuevarraTokenVestingManager.sol\":5925:5940  claimableAmount */\n      dup4\n        /* \"BuildingFirstDapp/GuevarraTokenVestingManager.sol\":5879:5941  IERC20(org.tokenAddress).transfer(msg.sender, claimableAmount) */\n      mload(0x40)\n      dup4\n      0xffffffff\n      and\n      0xe0\n      shl\n      dup2\n      mstore\n      0x04\n      add\n      tag_126\n      swap3\n      swap2\n      swap1\n      tag_127\n      jump\t// in\n    tag_126:\n      0x20\n      mload(0x40)\n      dup1\n      dup4\n      sub\n      dup2\n      0x00\n      dup8\n      gas\n      call\n      iszero\n      dup1\n      iszero\n      tag_129\n      jumpi\n      returndatasize\n      0x00\n      dup1\n      returndatacopy\n      revert(0x00, returndatasize)\n    tag_129:\n      pop\n      pop\n      pop\n      pop\n      mload(0x40)\n      returndatasize\n      not(0x1f)\n      0x1f\n      dup3\n      add\n      and\n      dup3\n      add\n      dup1\n      0x40\n      mstore\n      pop\n      dup2\n      add\n      swap1\n      tag_130\n      swap2\n      swap1\n      tag_71\n      jump\t// in\n    tag_130:\n      pop\n        /* \"BuildingFirstDapp/GuevarraTokenVestingManager.sol\":5986:5996  msg.sender */\n      caller\n        /* \"BuildingFirstDapp/GuevarraTokenVestingManager.sol\":5959:6014  TokensClaimed(_orgAddress, msg.sender, claimableAmount) */\n      0xffffffffffffffffffffffffffffffffffffffff\n      and\n        /* \"BuildingFirstDapp/GuevarraTokenVestingManager.sol\":5973:5984  _orgAddress */\n      dup7\n        /* \"BuildingFirstDapp/GuevarraTokenVestingManager.sol\":5959:6014  TokensClaimed(_orgAddress, msg.sender, claimableAmount) */\n      0xffffffffffffffffffffffffffffffffffffffff\n      and\n      0xa86305abc2db271df4609aa86a8d044bc11fb36939841bfdad6c1ab2b26e9471\n        /* \"BuildingFirstDapp/GuevarraTokenVestingManager.sol\":5998:6013  claimableAmount */\n      dup4\n        /* \"BuildingFirstDapp/GuevarraTokenVestingManager.sol\":5959:6014  TokensClaimed(_orgAddress, msg.sender, claimableAmount) */\n      mload(0x40)\n      tag_131\n      swap2\n      swap1\n      tag_132\n      jump\t// in\n    tag_131:\n      mload(0x40)\n      dup1\n      swap2\n      sub\n      swap1\n      log3\n        /* \"BuildingFirstDapp/GuevarraTokenVestingManager.sol\":5167:6022  {... */\n      pop\n      pop\n      pop\n      pop\n      pop\n        /* \"BuildingFirstDapp/GuevarraTokenVestingManager.sol\":5116:6022  function claimTokens(address _orgAddress) external {... */\n      pop\n      jump\t// out\n        /* \"BuildingFirstDapp/GuevarraTokenVestingManager.sol\":1857:2029  function transferOwnership(address newOwner) public onlyOwner {... */\n    tag_42:\n        /* \"BuildingFirstDapp/GuevarraTokenVestingManager.sol\":1562:1567  owner */\n      0x00\n      dup1\n      sload\n      swap1\n      0x0100\n      exp\n      swap1\n      div\n      0xffffffffffffffffffffffffffffffffffffffff\n      and\n        /* \"BuildingFirstDapp/GuevarraTokenVestingManager.sol\":1548:1567  msg.sender == owner */\n      0xffffffffffffffffffffffffffffffffffffffff\n      and\n        /* \"BuildingFirstDapp/GuevarraTokenVestingManager.sol\":1548:1558  msg.sender */\n      caller\n        /* \"BuildingFirstDapp/GuevarraTokenVestingManager.sol\":1548:1567  msg.sender == owner */\n      0xffffffffffffffffffffffffffffffffffffffff\n      and\n      eq\n        /* \"BuildingFirstDapp/GuevarraTokenVestingManager.sol\":1540:1595  require(msg.sender == owner, \"Caller is not the owner\") */\n      tag_134\n      jumpi\n      mload(0x40)\n      0x08c379a000000000000000000000000000000000000000000000000000000000\n      dup2\n      mstore\n      0x04\n      add\n      tag_135\n      swap1\n      tag_136\n      jump\t// in\n    tag_135:\n      mload(0x40)\n      dup1\n      swap2\n      sub\n      swap1\n      revert\n    tag_134:\n        /* \"BuildingFirstDapp/GuevarraTokenVestingManager.sol\":1958:1959  0 */\n      0x00\n        /* \"BuildingFirstDapp/GuevarraTokenVestingManager.sol\":1938:1960  newOwner != address(0) */\n      0xffffffffffffffffffffffffffffffffffffffff\n      and\n        /* \"BuildingFirstDapp/GuevarraTokenVestingManager.sol\":1938:1946  newOwner */\n      dup2\n        /* \"BuildingFirstDapp/GuevarraTokenVestingManager.sol\":1938:1960  newOwner != address(0) */\n      0xffffffffffffffffffffffffffffffffffffffff\n      and\n      sub\n        /* \"BuildingFirstDapp/GuevarraTokenVestingManager.sol\":1930:1994  require(newOwner != address(0), \"New owner is the zero address\") */\n      tag_138\n      jumpi\n      mload(0x40)\n      0x08c379a000000000000000000000000000000000000000000000000000000000\n      dup2\n      mstore\n      0x04\n      add\n      tag_139\n      swap1\n      tag_140\n      jump\t// in\n    tag_139:\n      mload(0x40)\n      dup1\n      swap2\n      sub\n      swap1\n      revert\n    tag_138:\n        /* \"BuildingFirstDapp/GuevarraTokenVestingManager.sol\":2013:2021  newOwner */\n      dup1\n        /* \"BuildingFirstDapp/GuevarraTokenVestingManager.sol\":2005:2010  owner */\n      0x00\n      dup1\n        /* \"BuildingFirstDapp/GuevarraTokenVestingManager.sol\":2005:2021  owner = newOwner */\n      0x0100\n      exp\n      dup2\n      sload\n      dup2\n      0xffffffffffffffffffffffffffffffffffffffff\n      mul\n      not\n      and\n      swap1\n      dup4\n      0xffffffffffffffffffffffffffffffffffffffff\n      and\n      mul\n      or\n      swap1\n      sstore\n      pop\n        /* \"BuildingFirstDapp/GuevarraTokenVestingManager.sol\":1857:2029  function transferOwnership(address newOwner) public onlyOwner {... */\n      pop\n      jump\t// out\n        /* \"BuildingFirstDapp/GuevarraTokenVestingManager.sol\":7080:7452  function getVestingInfo(address _orgAddress, address _beneficiary) external view returns (bytes32 stakeholderTypeId, uint256 amount, uint256 startTime, uint256 claimedAmount) {... */\n    tag_46:\n        /* \"BuildingFirstDapp/GuevarraTokenVestingManager.sol\":7170:7195  bytes32 stakeholderTypeId */\n      0x00\n        /* \"BuildingFirstDapp/GuevarraTokenVestingManager.sol\":7197:7211  uint256 amount */\n      dup1\n        /* \"BuildingFirstDapp/GuevarraTokenVestingManager.sol\":7213:7230  uint256 startTime */\n      0x00\n        /* \"BuildingFirstDapp/GuevarraTokenVestingManager.sol\":7232:7253  uint256 claimedAmount */\n      dup1\n        /* \"BuildingFirstDapp/GuevarraTokenVestingManager.sol\":7266:7289  Vesting storage vesting */\n      0x00\n        /* \"BuildingFirstDapp/GuevarraTokenVestingManager.sol\":7292:7305  organizations */\n      0x01\n        /* \"BuildingFirstDapp/GuevarraTokenVestingManager.sol\":7292:7318  organizations[_orgAddress] */\n      0x00\n        /* \"BuildingFirstDapp/GuevarraTokenVestingManager.sol\":7306:7317  _orgAddress */\n      dup9\n        /* \"BuildingFirstDapp/GuevarraTokenVestingManager.sol\":7292:7318  organizations[_orgAddress] */\n      0xffffffffffffffffffffffffffffffffffffffff\n      and\n      0xffffffffffffffffffffffffffffffffffffffff\n      and\n      dup2\n      mstore\n      0x20\n      add\n      swap1\n      dup2\n      mstore\n      0x20\n      add\n      0x00\n      keccak256\n        /* \"BuildingFirstDapp/GuevarraTokenVestingManager.sol\":7292:7327  organizations[_orgAddress].vestings */\n      0x03\n      add\n        /* \"BuildingFirstDapp/GuevarraTokenVestingManager.sol\":7292:7341  organizations[_orgAddress].vestings[_beneficiary] */\n      0x00\n        /* \"BuildingFirstDapp/GuevarraTokenVestingManager.sol\":7328:7340  _beneficiary */\n      dup8\n        /* \"BuildingFirstDapp/GuevarraTokenVestingManager.sol\":7292:7341  organizations[_orgAddress].vestings[_beneficiary] */\n      0xffffffffffffffffffffffffffffffffffffffff\n      and\n      0xffffffffffffffffffffffffffffffffffffffff\n      and\n      dup2\n      mstore\n      0x20\n      add\n      swap1\n      dup2\n      mstore\n      0x20\n      add\n      0x00\n      keccak256\n        /* \"BuildingFirstDapp/GuevarraTokenVestingManager.sol\":7266:7341  Vesting storage vesting = organizations[_orgAddress].vestings[_beneficiary] */\n      swap1\n      pop\n        /* \"BuildingFirstDapp/GuevarraTokenVestingManager.sol\":7360:7367  vesting */\n      dup1\n        /* \"BuildingFirstDapp/GuevarraTokenVestingManager.sol\":7360:7385  vesting.stakeholderTypeId */\n      0x00\n      add\n      sload\n        /* \"BuildingFirstDapp/GuevarraTokenVestingManager.sol\":7387:7394  vesting */\n      dup2\n        /* \"BuildingFirstDapp/GuevarraTokenVestingManager.sol\":7387:7401  vesting.amount */\n      0x01\n      add\n      sload\n        /* \"BuildingFirstDapp/GuevarraTokenVestingManager.sol\":7403:7410  vesting */\n      dup3\n        /* \"BuildingFirstDapp/GuevarraTokenVestingManager.sol\":7403:7420  vesting.startTime */\n      0x02\n      add\n      sload\n        /* \"BuildingFirstDapp/GuevarraTokenVestingManager.sol\":7422:7429  vesting */\n      dup4\n        /* \"BuildingFirstDapp/GuevarraTokenVestingManager.sol\":7422:7443  vesting.claimedAmount */\n      0x03\n      add\n      sload\n        /* \"BuildingFirstDapp/GuevarraTokenVestingManager.sol\":7352:7444  return (vesting.stakeholderTypeId, vesting.amount, vesting.startTime, vesting.claimedAmount) */\n      swap5\n      pop\n      swap5\n      pop\n      swap5\n      pop\n      swap5\n      pop\n      pop\n        /* \"BuildingFirstDapp/GuevarraTokenVestingManager.sol\":7080:7452  function getVestingInfo(address _orgAddress, address _beneficiary) external view returns (bytes32 stakeholderTypeId, uint256 amount, uint256 startTime, uint256 claimedAmount) {... */\n      swap3\n      swap6\n      swap2\n      swap5\n      pop\n      swap3\n      pop\n      jump\t// out\n        /* \"BuildingFirstDapp/GuevarraTokenVestingManager.sol\":6248:6610  function calculateVestedAmount(Vesting memory _vesting, uint256 _vestingPeriod) internal view returns (uint256) {... */\n    tag_118:\n        /* \"BuildingFirstDapp/GuevarraTokenVestingManager.sol\":6351:6358  uint256 */\n      0x00\n        /* \"BuildingFirstDapp/GuevarraTokenVestingManager.sol\":6394:6432  _vesting.startTime.add(_vestingPeriod) */\n      tag_143\n        /* \"BuildingFirstDapp/GuevarraTokenVestingManager.sol\":6417:6431  _vestingPeriod */\n      dup3\n        /* \"BuildingFirstDapp/GuevarraTokenVestingManager.sol\":6394:6402  _vesting */\n      dup5\n        /* \"BuildingFirstDapp/GuevarraTokenVestingManager.sol\":6394:6412  _vesting.startTime */\n      0x40\n      add\n      mload\n        /* \"BuildingFirstDapp/GuevarraTokenVestingManager.sol\":6394:6416  _vesting.startTime.add */\n      tag_125\n      swap1\n        /* \"BuildingFirstDapp/GuevarraTokenVestingManager.sol\":6394:6432  _vesting.startTime.add(_vestingPeriod) */\n      swap2\n      swap1\n      0xffffffff\n      and\n      jump\t// in\n    tag_143:\n        /* \"BuildingFirstDapp/GuevarraTokenVestingManager.sol\":6375:6390  block.timestamp */\n      timestamp\n        /* \"BuildingFirstDapp/GuevarraTokenVestingManager.sol\":6375:6432  block.timestamp >= _vesting.startTime.add(_vestingPeriod) */\n      lt\n        /* \"BuildingFirstDapp/GuevarraTokenVestingManager.sol\":6371:6603  if (block.timestamp >= _vesting.startTime.add(_vestingPeriod)) {... */\n      tag_144\n      jumpi\n        /* \"BuildingFirstDapp/GuevarraTokenVestingManager.sol\":6456:6464  _vesting */\n      dup3\n        /* \"BuildingFirstDapp/GuevarraTokenVestingManager.sol\":6456:6471  _vesting.amount */\n      0x20\n      add\n      mload\n        /* \"BuildingFirstDapp/GuevarraTokenVestingManager.sol\":6449:6471  return _vesting.amount */\n      swap1\n      pop\n      jump(tag_142)\n        /* \"BuildingFirstDapp/GuevarraTokenVestingManager.sol\":6371:6603  if (block.timestamp >= _vesting.startTime.add(_vestingPeriod)) {... */\n    tag_144:\n        /* \"BuildingFirstDapp/GuevarraTokenVestingManager.sol\":6511:6591  _vesting.amount.mul(block.timestamp.sub(_vesting.startTime)).div(_vestingPeriod) */\n      tag_146\n        /* \"BuildingFirstDapp/GuevarraTokenVestingManager.sol\":6576:6590  _vestingPeriod */\n      dup3\n        /* \"BuildingFirstDapp/GuevarraTokenVestingManager.sol\":6511:6571  _vesting.amount.mul(block.timestamp.sub(_vesting.startTime)) */\n      tag_147\n        /* \"BuildingFirstDapp/GuevarraTokenVestingManager.sol\":6531:6570  block.timestamp.sub(_vesting.startTime) */\n      tag_148\n        /* \"BuildingFirstDapp/GuevarraTokenVestingManager.sol\":6551:6559  _vesting */\n      dup7\n        /* \"BuildingFirstDapp/GuevarraTokenVestingManager.sol\":6551:6569  _vesting.startTime */\n      0x40\n      add\n      mload\n        /* \"BuildingFirstDapp/GuevarraTokenVestingManager.sol\":6531:6546  block.timestamp */\n      timestamp\n        /* \"BuildingFirstDapp/GuevarraTokenVestingManager.sol\":6531:6550  block.timestamp.sub */\n      tag_120\n      swap1\n        /* \"BuildingFirstDapp/GuevarraTokenVestingManager.sol\":6531:6570  block.timestamp.sub(_vesting.startTime) */\n      swap2\n      swap1\n      0xffffffff\n      and\n      jump\t// in\n    tag_148:\n        /* \"BuildingFirstDapp/GuevarraTokenVestingManager.sol\":6511:6519  _vesting */\n      dup7\n        /* \"BuildingFirstDapp/GuevarraTokenVestingManager.sol\":6511:6526  _vesting.amount */\n      0x20\n      add\n      mload\n        /* \"BuildingFirstDapp/GuevarraTokenVestingManager.sol\":6511:6530  _vesting.amount.mul */\n      tag_149\n      swap1\n        /* \"BuildingFirstDapp/GuevarraTokenVestingManager.sol\":6511:6571  _vesting.amount.mul(block.timestamp.sub(_vesting.startTime)) */\n      swap2\n      swap1\n      0xffffffff\n      and\n      jump\t// in\n    tag_147:\n        /* \"BuildingFirstDapp/GuevarraTokenVestingManager.sol\":6511:6575  _vesting.amount.mul(block.timestamp.sub(_vesting.startTime)).div */\n      tag_150\n      swap1\n        /* \"BuildingFirstDapp/GuevarraTokenVestingManager.sol\":6511:6591  _vesting.amount.mul(block.timestamp.sub(_vesting.startTime)).div(_vestingPeriod) */\n      swap2\n      swap1\n      0xffffffff\n      and\n      jump\t// in\n    tag_146:\n        /* \"BuildingFirstDapp/GuevarraTokenVestingManager.sol\":6504:6591  return _vesting.amount.mul(block.timestamp.sub(_vesting.startTime)).div(_vestingPeriod) */\n      swap1\n      pop\n        /* \"BuildingFirstDapp/GuevarraTokenVestingManager.sol\":6248:6610  function calculateVestedAmount(Vesting memory _vesting, uint256 _vestingPeriod) internal view returns (uint256) {... */\n    tag_142:\n      swap3\n      swap2\n      pop\n      pop\n      jump\t// out\n        /* \"@openzeppelin/contracts/utils/math/SafeMath.sol\":3122:3218  function sub(uint256 a, uint256 b) internal pure returns (uint256) {... */\n    tag_120:\n        /* \"@openzeppelin/contracts/utils/math/SafeMath.sol\":3180:3187  uint256 */\n      0x00\n        /* \"@openzeppelin/contracts/utils/math/SafeMath.sol\":3210:3211  b */\n      dup2\n        /* \"@openzeppelin/contracts/utils/math/SafeMath.sol\":3206:3207  a */\n      dup4\n        /* \"@openzeppelin/contracts/utils/math/SafeMath.sol\":3206:3211  a - b */\n      tag_152\n      swap2\n      swap1\n      tag_153\n      jump\t// in\n    tag_152:\n        /* \"@openzeppelin/contracts/utils/math/SafeMath.sol\":3199:3211  return a - b */\n      swap1\n      pop\n        /* \"@openzeppelin/contracts/utils/math/SafeMath.sol\":3122:3218  function sub(uint256 a, uint256 b) internal pure returns (uint256) {... */\n      swap3\n      swap2\n      pop\n      pop\n      jump\t// out\n        /* \"@openzeppelin/contracts/utils/math/SafeMath.sol\":2755:2851  function add(uint256 a, uint256 b) internal pure returns (uint256) {... */\n    tag_125:\n        /* \"@openzeppelin/contracts/utils/math/SafeMath.sol\":2813:2820  uint256 */\n      0x00\n        /* \"@openzeppelin/contracts/utils/math/SafeMath.sol\":2843:2844  b */\n      dup2\n        /* \"@openzeppelin/contracts/utils/math/SafeMath.sol\":2839:2840  a */\n      dup4\n        /* \"@openzeppelin/contracts/utils/math/SafeMath.sol\":2839:2844  a + b */\n      tag_155\n      swap2\n      swap1\n      tag_156\n      jump\t// in\n    tag_155:\n        /* \"@openzeppelin/contracts/utils/math/SafeMath.sol\":2832:2844  return a + b */\n      swap1\n      pop\n        /* \"@openzeppelin/contracts/utils/math/SafeMath.sol\":2755:2851  function add(uint256 a, uint256 b) internal pure returns (uint256) {... */\n      swap3\n      swap2\n      pop\n      pop\n      jump\t// out\n        /* \"@openzeppelin/contracts/utils/math/SafeMath.sol\":3465:3561  function mul(uint256 a, uint256 b) internal pure returns (uint256) {... */\n    tag_149:\n        /* \"@openzeppelin/contracts/utils/math/SafeMath.sol\":3523:3530  uint256 */\n      0x00\n        /* \"@openzeppelin/contracts/utils/math/SafeMath.sol\":3553:3554  b */\n      dup2\n        /* \"@openzeppelin/contracts/utils/math/SafeMath.sol\":3549:3550  a */\n      dup4\n        /* \"@openzeppelin/contracts/utils/math/SafeMath.sol\":3549:3554  a * b */\n      tag_158\n      swap2\n      swap1\n      tag_159\n      jump\t// in\n    tag_158:\n        /* \"@openzeppelin/contracts/utils/math/SafeMath.sol\":3542:3554  return a * b */\n      swap1\n      pop\n        /* \"@openzeppelin/contracts/utils/math/SafeMath.sol\":3465:3561  function mul(uint256 a, uint256 b) internal pure returns (uint256) {... */\n      swap3\n      swap2\n      pop\n      pop\n      jump\t// out\n        /* \"@openzeppelin/contracts/utils/math/SafeMath.sol\":3850:3946  function div(uint256 a, uint256 b) internal pure returns (uint256) {... */\n    tag_150:\n        /* \"@openzeppelin/contracts/utils/math/SafeMath.sol\":3908:3915  uint256 */\n      0x00\n        /* \"@openzeppelin/contracts/utils/math/SafeMath.sol\":3938:3939  b */\n      dup2\n        /* \"@openzeppelin/contracts/utils/math/SafeMath.sol\":3934:3935  a */\n      dup4\n        /* \"@openzeppelin/contracts/utils/math/SafeMath.sol\":3934:3939  a / b */\n      tag_161\n      swap2\n      swap1\n      tag_162\n      jump\t// in\n    tag_161:\n        /* \"@openzeppelin/contracts/utils/math/SafeMath.sol\":3927:3939  return a / b */\n      swap1\n      pop\n        /* \"@openzeppelin/contracts/utils/math/SafeMath.sol\":3850:3946  function div(uint256 a, uint256 b) internal pure returns (uint256) {... */\n      swap3\n      swap2\n      pop\n      pop\n      jump\t// out\n        /* \"#utility.yul\":7:82   */\n    tag_163:\n        /* \"#utility.yul\":40:46   */\n      0x00\n        /* \"#utility.yul\":73:75   */\n      0x40\n        /* \"#utility.yul\":67:76   */\n      mload\n        /* \"#utility.yul\":57:76   */\n      swap1\n      pop\n        /* \"#utility.yul\":7:82   */\n      swap1\n      jump\t// out\n        /* \"#utility.yul\":88:205   */\n    tag_164:\n        /* \"#utility.yul\":197:198   */\n      0x00\n        /* \"#utility.yul\":194:195   */\n      dup1\n        /* \"#utility.yul\":187:199   */\n      revert\n        /* \"#utility.yul\":211:328   */\n    tag_165:\n        /* \"#utility.yul\":320:321   */\n      0x00\n        /* \"#utility.yul\":317:318   */\n      dup1\n        /* \"#utility.yul\":310:322   */\n      revert\n        /* \"#utility.yul\":334:460   */\n    tag_166:\n        /* \"#utility.yul\":371:378   */\n      0x00\n        /* \"#utility.yul\":411:453   */\n      0xffffffffffffffffffffffffffffffffffffffff\n        /* \"#utility.yul\":404:409   */\n      dup3\n        /* \"#utility.yul\":400:454   */\n      and\n        /* \"#utility.yul\":389:454   */\n      swap1\n      pop\n        /* \"#utility.yul\":334:460   */\n      swap2\n      swap1\n      pop\n      jump\t// out\n        /* \"#utility.yul\":466:562   */\n    tag_167:\n        /* \"#utility.yul\":503:510   */\n      0x00\n        /* \"#utility.yul\":532:556   */\n      tag_253\n        /* \"#utility.yul\":550:555   */\n      dup3\n        /* \"#utility.yul\":532:556   */\n      tag_166\n      jump\t// in\n    tag_253:\n        /* \"#utility.yul\":521:556   */\n      swap1\n      pop\n        /* \"#utility.yul\":466:562   */\n      swap2\n      swap1\n      pop\n      jump\t// out\n        /* \"#utility.yul\":568:690   */\n    tag_168:\n        /* \"#utility.yul\":641:665   */\n      tag_255\n        /* \"#utility.yul\":659:664   */\n      dup2\n        /* \"#utility.yul\":641:665   */\n      tag_167\n      jump\t// in\n    tag_255:\n        /* \"#utility.yul\":634:639   */\n      dup2\n        /* \"#utility.yul\":631:666   */\n      eq\n        /* \"#utility.yul\":621:684   */\n      tag_256\n      jumpi\n        /* \"#utility.yul\":680:681   */\n      0x00\n        /* \"#utility.yul\":677:678   */\n      dup1\n        /* \"#utility.yul\":670:682   */\n      revert\n        /* \"#utility.yul\":621:684   */\n    tag_256:\n        /* \"#utility.yul\":568:690   */\n      pop\n      jump\t// out\n        /* \"#utility.yul\":696:835   */\n    tag_169:\n        /* \"#utility.yul\":742:747   */\n      0x00\n        /* \"#utility.yul\":780:786   */\n      dup2\n        /* \"#utility.yul\":767:787   */\n      calldataload\n        /* \"#utility.yul\":758:787   */\n      swap1\n      pop\n        /* \"#utility.yul\":796:829   */\n      tag_258\n        /* \"#utility.yul\":823:828   */\n      dup2\n        /* \"#utility.yul\":796:829   */\n      tag_168\n      jump\t// in\n    tag_258:\n        /* \"#utility.yul\":696:835   */\n      swap3\n      swap2\n      pop\n      pop\n      jump\t// out\n        /* \"#utility.yul\":841:918   */\n    tag_170:\n        /* \"#utility.yul\":878:885   */\n      0x00\n        /* \"#utility.yul\":907:912   */\n      dup2\n        /* \"#utility.yul\":896:912   */\n      swap1\n      pop\n        /* \"#utility.yul\":841:918   */\n      swap2\n      swap1\n      pop\n      jump\t// out\n        /* \"#utility.yul\":924:1046   */\n    tag_171:\n        /* \"#utility.yul\":997:1021   */\n      tag_261\n        /* \"#utility.yul\":1015:1020   */\n      dup2\n        /* \"#utility.yul\":997:1021   */\n      tag_170\n      jump\t// in\n    tag_261:\n        /* \"#utility.yul\":990:995   */\n      dup2\n        /* \"#utility.yul\":987:1022   */\n      eq\n        /* \"#utility.yul\":977:1040   */\n      tag_262\n      jumpi\n        /* \"#utility.yul\":1036:1037   */\n      0x00\n        /* \"#utility.yul\":1033:1034   */\n      dup1\n        /* \"#utility.yul\":1026:1038   */\n      revert\n        /* \"#utility.yul\":977:1040   */\n    tag_262:\n        /* \"#utility.yul\":924:1046   */\n      pop\n      jump\t// out\n        /* \"#utility.yul\":1052:1191   */\n    tag_172:\n        /* \"#utility.yul\":1098:1103   */\n      0x00\n        /* \"#utility.yul\":1136:1142   */\n      dup2\n        /* \"#utility.yul\":1123:1143   */\n      calldataload\n        /* \"#utility.yul\":1114:1143   */\n      swap1\n      pop\n        /* \"#utility.yul\":1152:1185   */\n      tag_264\n        /* \"#utility.yul\":1179:1184   */\n      dup2\n        /* \"#utility.yul\":1152:1185   */\n      tag_171\n      jump\t// in\n    tag_264:\n        /* \"#utility.yul\":1052:1191   */\n      swap3\n      swap2\n      pop\n      pop\n      jump\t// out\n        /* \"#utility.yul\":1197:1274   */\n    tag_173:\n        /* \"#utility.yul\":1234:1241   */\n      0x00\n        /* \"#utility.yul\":1263:1268   */\n      dup2\n        /* \"#utility.yul\":1252:1268   */\n      swap1\n      pop\n        /* \"#utility.yul\":1197:1274   */\n      swap2\n      swap1\n      pop\n      jump\t// out\n        /* \"#utility.yul\":1280:1402   */\n    tag_174:\n        /* \"#utility.yul\":1353:1377   */\n      tag_267\n        /* \"#utility.yul\":1371:1376   */\n      dup2\n        /* \"#utility.yul\":1353:1377   */\n      tag_173\n      jump\t// in\n    tag_267:\n        /* \"#utility.yul\":1346:1351   */\n      dup2\n        /* \"#utility.yul\":1343:1378   */\n      eq\n        /* \"#utility.yul\":1333:1396   */\n      tag_268\n      jumpi\n        /* \"#utility.yul\":1392:1393   */\n      0x00\n        /* \"#utility.yul\":1389:1390   */\n      dup1\n        /* \"#utility.yul\":1382:1394   */\n      revert\n        /* \"#utility.yul\":1333:1396   */\n    tag_268:\n        /* \"#utility.yul\":1280:1402   */\n      pop\n      jump\t// out\n        /* \"#utility.yul\":1408:1547   */\n    tag_175:\n        /* \"#utility.yul\":1454:1459   */\n      0x00\n        /* \"#utility.yul\":1492:1498   */\n      dup2\n        /* \"#utility.yul\":1479:1499   */\n      calldataload\n        /* \"#utility.yul\":1470:1499   */\n      swap1\n      pop\n        /* \"#utility.yul\":1508:1541   */\n      tag_270\n        /* \"#utility.yul\":1535:1540   */\n      dup2\n        /* \"#utility.yul\":1508:1541   */\n      tag_174\n      jump\t// in\n    tag_270:\n        /* \"#utility.yul\":1408:1547   */\n      swap3\n      swap2\n      pop\n      pop\n      jump\t// out\n        /* \"#utility.yul\":1553:2172   */\n    tag_15:\n        /* \"#utility.yul\":1630:1636   */\n      0x00\n        /* \"#utility.yul\":1638:1644   */\n      dup1\n        /* \"#utility.yul\":1646:1652   */\n      0x00\n        /* \"#utility.yul\":1695:1697   */\n      0x60\n        /* \"#utility.yul\":1683:1692   */\n      dup5\n        /* \"#utility.yul\":1674:1681   */\n      dup7\n        /* \"#utility.yul\":1670:1693   */\n      sub\n        /* \"#utility.yul\":1666:1698   */\n      slt\n        /* \"#utility.yul\":1663:1782   */\n      iszero\n      tag_272\n      jumpi\n        /* \"#utility.yul\":1701:1780   */\n      tag_273\n      tag_164\n      jump\t// in\n    tag_273:\n        /* \"#utility.yul\":1663:1782   */\n    tag_272:\n        /* \"#utility.yul\":1821:1822   */\n      0x00\n        /* \"#utility.yul\":1846:1899   */\n      tag_274\n        /* \"#utility.yul\":1891:1898   */\n      dup7\n        /* \"#utility.yul\":1882:1888   */\n      dup3\n        /* \"#utility.yul\":1871:1880   */\n      dup8\n        /* \"#utility.yul\":1867:1889   */\n      add\n        /* \"#utility.yul\":1846:1899   */\n      tag_169\n      jump\t// in\n    tag_274:\n        /* \"#utility.yul\":1836:1899   */\n      swap4\n      pop\n        /* \"#utility.yul\":1792:1909   */\n      pop\n        /* \"#utility.yul\":1948:1950   */\n      0x20\n        /* \"#utility.yul\":1974:2027   */\n      tag_275\n        /* \"#utility.yul\":2019:2026   */\n      dup7\n        /* \"#utility.yul\":2010:2016   */\n      dup3\n        /* \"#utility.yul\":1999:2008   */\n      dup8\n        /* \"#utility.yul\":1995:2017   */\n      add\n        /* \"#utility.yul\":1974:2027   */\n      tag_172\n      jump\t// in\n    tag_275:\n        /* \"#utility.yul\":1964:2027   */\n      swap3\n      pop\n        /* \"#utility.yul\":1919:2037   */\n      pop\n        /* \"#utility.yul\":2076:2078   */\n      0x40\n        /* \"#utility.yul\":2102:2155   */\n      tag_276\n        /* \"#utility.yul\":2147:2154   */\n      dup7\n        /* \"#utility.yul\":2138:2144   */\n      dup3\n        /* \"#utility.yul\":2127:2136   */\n      dup8\n        /* \"#utility.yul\":2123:2145   */\n      add\n        /* \"#utility.yul\":2102:2155   */\n      tag_175\n      jump\t// in\n    tag_276:\n        /* \"#utility.yul\":2092:2155   */\n      swap2\n      pop\n        /* \"#utility.yul\":2047:2165   */\n      pop\n        /* \"#utility.yul\":1553:2172   */\n      swap3\n      pop\n      swap3\n      pop\n      swap3\n      jump\t// out\n        /* \"#utility.yul\":2178:2507   */\n    tag_19:\n        /* \"#utility.yul\":2237:2243   */\n      0x00\n        /* \"#utility.yul\":2286:2288   */\n      0x20\n        /* \"#utility.yul\":2274:2283   */\n      dup3\n        /* \"#utility.yul\":2265:2272   */\n      dup5\n        /* \"#utility.yul\":2261:2284   */\n      sub\n        /* \"#utility.yul\":2257:2289   */\n      slt\n        /* \"#utility.yul\":2254:2373   */\n      iszero\n      tag_278\n      jumpi\n        /* \"#utility.yul\":2292:2371   */\n      tag_279\n      tag_164\n      jump\t// in\n    tag_279:\n        /* \"#utility.yul\":2254:2373   */\n    tag_278:\n        /* \"#utility.yul\":2412:2413   */\n      0x00\n        /* \"#utility.yul\":2437:2490   */\n      tag_280\n        /* \"#utility.yul\":2482:2489   */\n      dup5\n        /* \"#utility.yul\":2473:2479   */\n      dup3\n        /* \"#utility.yul\":2462:2471   */\n      dup6\n        /* \"#utility.yul\":2458:2480   */\n      add\n        /* \"#utility.yul\":2437:2490   */\n      tag_169\n      jump\t// in\n    tag_280:\n        /* \"#utility.yul\":2427:2490   */\n      swap2\n      pop\n        /* \"#utility.yul\":2383:2500   */\n      pop\n        /* \"#utility.yul\":2178:2507   */\n      swap3\n      swap2\n      pop\n      pop\n      jump\t// out\n        /* \"#utility.yul\":2513:2631   */\n    tag_176:\n        /* \"#utility.yul\":2600:2624   */\n      tag_282\n        /* \"#utility.yul\":2618:2623   */\n      dup2\n        /* \"#utility.yul\":2600:2624   */\n      tag_167\n      jump\t// in\n    tag_282:\n        /* \"#utility.yul\":2595:2598   */\n      dup3\n        /* \"#utility.yul\":2588:2625   */\n      mstore\n        /* \"#utility.yul\":2513:2631   */\n      pop\n      pop\n      jump\t// out\n        /* \"#utility.yul\":2637:2727   */\n    tag_177:\n        /* \"#utility.yul\":2671:2678   */\n      0x00\n        /* \"#utility.yul\":2714:2719   */\n      dup2\n        /* \"#utility.yul\":2707:2720   */\n      iszero\n        /* \"#utility.yul\":2700:2721   */\n      iszero\n        /* \"#utility.yul\":2689:2721   */\n      swap1\n      pop\n        /* \"#utility.yul\":2637:2727   */\n      swap2\n      swap1\n      pop\n      jump\t// out\n        /* \"#utility.yul\":2733:2842   */\n    tag_178:\n        /* \"#utility.yul\":2814:2835   */\n      tag_285\n        /* \"#utility.yul\":2829:2834   */\n      dup2\n        /* \"#utility.yul\":2814:2835   */\n      tag_177\n      jump\t// in\n    tag_285:\n        /* \"#utility.yul\":2809:2812   */\n      dup3\n        /* \"#utility.yul\":2802:2836   */\n      mstore\n        /* \"#utility.yul\":2733:2842   */\n      pop\n      pop\n      jump\t// out\n        /* \"#utility.yul\":2848:3168   */\n    tag_22:\n        /* \"#utility.yul\":2963:2967   */\n      0x00\n        /* \"#utility.yul\":3001:3003   */\n      0x40\n        /* \"#utility.yul\":2990:2999   */\n      dup3\n        /* \"#utility.yul\":2986:3004   */\n      add\n        /* \"#utility.yul\":2978:3004   */\n      swap1\n      pop\n        /* \"#utility.yul\":3014:3085   */\n      tag_287\n        /* \"#utility.yul\":3082:3083   */\n      0x00\n        /* \"#utility.yul\":3071:3080   */\n      dup4\n        /* \"#utility.yul\":3067:3084   */\n      add\n        /* \"#utility.yul\":3058:3064   */\n      dup6\n        /* \"#utility.yul\":3014:3085   */\n      tag_176\n      jump\t// in\n    tag_287:\n        /* \"#utility.yul\":3095:3161   */\n      tag_288\n        /* \"#utility.yul\":3157:3159   */\n      0x20\n        /* \"#utility.yul\":3146:3155   */\n      dup4\n        /* \"#utility.yul\":3142:3160   */\n      add\n        /* \"#utility.yul\":3133:3139   */\n      dup5\n        /* \"#utility.yul\":3095:3161   */\n      tag_178\n      jump\t// in\n    tag_288:\n        /* \"#utility.yul\":2848:3168   */\n      swap4\n      swap3\n      pop\n      pop\n      pop\n      jump\t// out\n        /* \"#utility.yul\":3174:3396   */\n    tag_29:\n        /* \"#utility.yul\":3267:3271   */\n      0x00\n        /* \"#utility.yul\":3305:3307   */\n      0x20\n        /* \"#utility.yul\":3294:3303   */\n      dup3\n        /* \"#utility.yul\":3290:3308   */\n      add\n        /* \"#utility.yul\":3282:3308   */\n      swap1\n      pop\n        /* \"#utility.yul\":3318:3389   */\n      tag_290\n        /* \"#utility.yul\":3386:3387   */\n      0x00\n        /* \"#utility.yul\":3375:3384   */\n      dup4\n        /* \"#utility.yul\":3371:3388   */\n      add\n        /* \"#utility.yul\":3362:3368   */\n      dup5\n        /* \"#utility.yul\":3318:3389   */\n      tag_176\n      jump\t// in\n    tag_290:\n        /* \"#utility.yul\":3174:3396   */\n      swap3\n      swap2\n      pop\n      pop\n      jump\t// out\n        /* \"#utility.yul\":3402:3519   */\n    tag_179:\n        /* \"#utility.yul\":3511:3512   */\n      0x00\n        /* \"#utility.yul\":3508:3509   */\n      dup1\n        /* \"#utility.yul\":3501:3513   */\n      revert\n        /* \"#utility.yul\":3525:3642   */\n    tag_180:\n        /* \"#utility.yul\":3634:3635   */\n      0x00\n        /* \"#utility.yul\":3631:3632   */\n      dup1\n        /* \"#utility.yul\":3624:3636   */\n      revert\n        /* \"#utility.yul\":3648:3750   */\n    tag_181:\n        /* \"#utility.yul\":3689:3695   */\n      0x00\n        /* \"#utility.yul\":3740:3742   */\n      0x1f\n        /* \"#utility.yul\":3736:3743   */\n      not\n        /* \"#utility.yul\":3731:3733   */\n      0x1f\n        /* \"#utility.yul\":3724:3729   */\n      dup4\n        /* \"#utility.yul\":3720:3734   */\n      add\n        /* \"#utility.yul\":3716:3744   */\n      and\n        /* \"#utility.yul\":3706:3744   */\n      swap1\n      pop\n        /* \"#utility.yul\":3648:3750   */\n      swap2\n      swap1\n      pop\n      jump\t// out\n        /* \"#utility.yul\":3756:3936   */\n    tag_182:\n        /* \"#utility.yul\":3804:3881   */\n      0x4e487b7100000000000000000000000000000000000000000000000000000000\n        /* \"#utility.yul\":3801:3802   */\n      0x00\n        /* \"#utility.yul\":3794:3882   */\n      mstore\n        /* \"#utility.yul\":3901:3905   */\n      0x41\n        /* \"#utility.yul\":3898:3899   */\n      0x04\n        /* \"#utility.yul\":3891:3906   */\n      mstore\n        /* \"#utility.yul\":3925:3929   */\n      0x24\n        /* \"#utility.yul\":3922:3923   */\n      0x00\n        /* \"#utility.yul\":3915:3930   */\n      revert\n        /* \"#utility.yul\":3942:4223   */\n    tag_183:\n        /* \"#utility.yul\":4025:4052   */\n      tag_296\n        /* \"#utility.yul\":4047:4051   */\n      dup3\n        /* \"#utility.yul\":4025:4052   */\n      tag_181\n      jump\t// in\n    tag_296:\n        /* \"#utility.yul\":4017:4023   */\n      dup2\n        /* \"#utility.yul\":4013:4053   */\n      add\n        /* \"#utility.yul\":4155:4161   */\n      dup2\n        /* \"#utility.yul\":4143:4153   */\n      dup2\n        /* \"#utility.yul\":4140:4162   */\n      lt\n        /* \"#utility.yul\":4119:4137   */\n      0xffffffffffffffff\n        /* \"#utility.yul\":4107:4117   */\n      dup3\n        /* \"#utility.yul\":4104:4138   */\n      gt\n        /* \"#utility.yul\":4101:4163   */\n      or\n        /* \"#utility.yul\":4098:4186   */\n      iszero\n      tag_297\n      jumpi\n        /* \"#utility.yul\":4166:4184   */\n      tag_298\n      tag_182\n      jump\t// in\n    tag_298:\n        /* \"#utility.yul\":4098:4186   */\n    tag_297:\n        /* \"#utility.yul\":4206:4216   */\n      dup1\n        /* \"#utility.yul\":4202:4204   */\n      0x40\n        /* \"#utility.yul\":4195:4217   */\n      mstore\n        /* \"#utility.yul\":3985:4223   */\n      pop\n        /* \"#utility.yul\":3942:4223   */\n      pop\n      pop\n      jump\t// out\n        /* \"#utility.yul\":4229:4358   */\n    tag_184:\n        /* \"#utility.yul\":4263:4269   */\n      0x00\n        /* \"#utility.yul\":4290:4310   */\n      tag_300\n      tag_163\n      jump\t// in\n    tag_300:\n        /* \"#utility.yul\":4280:4310   */\n      swap1\n      pop\n        /* \"#utility.yul\":4319:4352   */\n      tag_301\n        /* \"#utility.yul\":4347:4351   */\n      dup3\n        /* \"#utility.yul\":4339:4345   */\n      dup3\n        /* \"#utility.yul\":4319:4352   */\n      tag_183\n      jump\t// in\n    tag_301:\n        /* \"#utility.yul\":4229:4358   */\n      swap2\n      swap1\n      pop\n      jump\t// out\n        /* \"#utility.yul\":4364:4672   */\n    tag_185:\n        /* \"#utility.yul\":4426:4430   */\n      0x00\n        /* \"#utility.yul\":4516:4534   */\n      0xffffffffffffffff\n        /* \"#utility.yul\":4508:4514   */\n      dup3\n        /* \"#utility.yul\":4505:4535   */\n      gt\n        /* \"#utility.yul\":4502:4558   */\n      iszero\n      tag_303\n      jumpi\n        /* \"#utility.yul\":4538:4556   */\n      tag_304\n      tag_182\n      jump\t// in\n    tag_304:\n        /* \"#utility.yul\":4502:4558   */\n    tag_303:\n        /* \"#utility.yul\":4576:4605   */\n      tag_305\n        /* \"#utility.yul\":4598:4604   */\n      dup3\n        /* \"#utility.yul\":4576:4605   */\n      tag_181\n      jump\t// in\n    tag_305:\n        /* \"#utility.yul\":4568:4605   */\n      swap1\n      pop\n        /* \"#utility.yul\":4660:4664   */\n      0x20\n        /* \"#utility.yul\":4654:4658   */\n      dup2\n        /* \"#utility.yul\":4650:4665   */\n      add\n        /* \"#utility.yul\":4642:4665   */\n      swap1\n      pop\n        /* \"#utility.yul\":4364:4672   */\n      swap2\n      swap1\n      pop\n      jump\t// out\n        /* \"#utility.yul\":4678:4824   */\n    tag_186:\n        /* \"#utility.yul\":4775:4781   */\n      dup3\n        /* \"#utility.yul\":4770:4773   */\n      dup2\n        /* \"#utility.yul\":4765:4768   */\n      dup4\n        /* \"#utility.yul\":4752:4782   */\n      calldatacopy\n        /* \"#utility.yul\":4816:4817   */\n      0x00\n        /* \"#utility.yul\":4807:4813   */\n      dup4\n        /* \"#utility.yul\":4802:4805   */\n      dup4\n        /* \"#utility.yul\":4798:4814   */\n      add\n        /* \"#utility.yul\":4791:4818   */\n      mstore\n        /* \"#utility.yul\":4678:4824   */\n      pop\n      pop\n      pop\n      jump\t// out\n        /* \"#utility.yul\":4830:5255   */\n    tag_187:\n        /* \"#utility.yul\":4908:4913   */\n      0x00\n        /* \"#utility.yul\":4933:4999   */\n      tag_308\n        /* \"#utility.yul\":4949:4998   */\n      tag_309\n        /* \"#utility.yul\":4991:4997   */\n      dup5\n        /* \"#utility.yul\":4949:4998   */\n      tag_185\n      jump\t// in\n    tag_309:\n        /* \"#utility.yul\":4933:4999   */\n      tag_184\n      jump\t// in\n    tag_308:\n        /* \"#utility.yul\":4924:4999   */\n      swap1\n      pop\n        /* \"#utility.yul\":5022:5028   */\n      dup3\n        /* \"#utility.yul\":5015:5020   */\n      dup2\n        /* \"#utility.yul\":5008:5029   */\n      mstore\n        /* \"#utility.yul\":5060:5064   */\n      0x20\n        /* \"#utility.yul\":5053:5058   */\n      dup2\n        /* \"#utility.yul\":5049:5065   */\n      add\n        /* \"#utility.yul\":5098:5101   */\n      dup5\n        /* \"#utility.yul\":5089:5095   */\n      dup5\n        /* \"#utility.yul\":5084:5087   */\n      dup5\n        /* \"#utility.yul\":5080:5096   */\n      add\n        /* \"#utility.yul\":5077:5102   */\n      gt\n        /* \"#utility.yul\":5074:5186   */\n      iszero\n      tag_310\n      jumpi\n        /* \"#utility.yul\":5105:5184   */\n      tag_311\n      tag_180\n      jump\t// in\n    tag_311:\n        /* \"#utility.yul\":5074:5186   */\n    tag_310:\n        /* \"#utility.yul\":5195:5249   */\n      tag_312\n        /* \"#utility.yul\":5242:5248   */\n      dup5\n        /* \"#utility.yul\":5237:5240   */\n      dup3\n        /* \"#utility.yul\":5232:5235   */\n      dup6\n        /* \"#utility.yul\":5195:5249   */\n      tag_186\n      jump\t// in\n    tag_312:\n        /* \"#utility.yul\":4914:5255   */\n      pop\n        /* \"#utility.yul\":4830:5255   */\n      swap4\n      swap3\n      pop\n      pop\n      pop\n      jump\t// out\n        /* \"#utility.yul\":5275:5615   */\n    tag_188:\n        /* \"#utility.yul\":5331:5336   */\n      0x00\n        /* \"#utility.yul\":5380:5383   */\n      dup3\n        /* \"#utility.yul\":5373:5377   */\n      0x1f\n        /* \"#utility.yul\":5365:5371   */\n      dup4\n        /* \"#utility.yul\":5361:5378   */\n      add\n        /* \"#utility.yul\":5357:5384   */\n      slt\n        /* \"#utility.yul\":5347:5469   */\n      tag_314\n      jumpi\n        /* \"#utility.yul\":5388:5467   */\n      tag_315\n      tag_179\n      jump\t// in\n    tag_315:\n        /* \"#utility.yul\":5347:5469   */\n    tag_314:\n        /* \"#utility.yul\":5505:5511   */\n      dup2\n        /* \"#utility.yul\":5492:5512   */\n      calldataload\n        /* \"#utility.yul\":5530:5609   */\n      tag_316\n        /* \"#utility.yul\":5605:5608   */\n      dup5\n        /* \"#utility.yul\":5597:5603   */\n      dup3\n        /* \"#utility.yul\":5590:5594   */\n      0x20\n        /* \"#utility.yul\":5582:5588   */\n      dup7\n        /* \"#utility.yul\":5578:5595   */\n      add\n        /* \"#utility.yul\":5530:5609   */\n      tag_187\n      jump\t// in\n    tag_316:\n        /* \"#utility.yul\":5521:5609   */\n      swap2\n      pop\n        /* \"#utility.yul\":5337:5615   */\n      pop\n        /* \"#utility.yul\":5275:5615   */\n      swap3\n      swap2\n      pop\n      pop\n      jump\t// out\n        /* \"#utility.yul\":5621:6275   */\n    tag_32:\n        /* \"#utility.yul\":5699:5705   */\n      0x00\n        /* \"#utility.yul\":5707:5713   */\n      dup1\n        /* \"#utility.yul\":5756:5758   */\n      0x40\n        /* \"#utility.yul\":5744:5753   */\n      dup4\n        /* \"#utility.yul\":5735:5742   */\n      dup6\n        /* \"#utility.yul\":5731:5754   */\n      sub\n        /* \"#utility.yul\":5727:5759   */\n      slt\n        /* \"#utility.yul\":5724:5843   */\n      iszero\n      tag_318\n      jumpi\n        /* \"#utility.yul\":5762:5841   */\n      tag_319\n      tag_164\n      jump\t// in\n    tag_319:\n        /* \"#utility.yul\":5724:5843   */\n    tag_318:\n        /* \"#utility.yul\":5910:5911   */\n      0x00\n        /* \"#utility.yul\":5899:5908   */\n      dup4\n        /* \"#utility.yul\":5895:5912   */\n      add\n        /* \"#utility.yul\":5882:5913   */\n      calldataload\n        /* \"#utility.yul\":5940:5958   */\n      0xffffffffffffffff\n        /* \"#utility.yul\":5932:5938   */\n      dup2\n        /* \"#utility.yul\":5929:5959   */\n      gt\n        /* \"#utility.yul\":5926:6043   */\n      iszero\n      tag_320\n      jumpi\n        /* \"#utility.yul\":5962:6041   */\n      tag_321\n      tag_165\n      jump\t// in\n    tag_321:\n        /* \"#utility.yul\":5926:6043   */\n    tag_320:\n        /* \"#utility.yul\":6067:6130   */\n      tag_322\n        /* \"#utility.yul\":6122:6129   */\n      dup6\n        /* \"#utility.yul\":6113:6119   */\n      dup3\n        /* \"#utility.yul\":6102:6111   */\n      dup7\n        /* \"#utility.yul\":6098:6120   */\n      add\n        /* \"#utility.yul\":6067:6130   */\n      tag_188\n      jump\t// in\n    tag_322:\n        /* \"#utility.yul\":6057:6130   */\n      swap3\n      pop\n        /* \"#utility.yul\":5853:6140   */\n      pop\n        /* \"#utility.yul\":6179:6181   */\n      0x20\n        /* \"#utility.yul\":6205:6258   */\n      tag_323\n        /* \"#utility.yul\":6250:6257   */\n      dup6\n        /* \"#utility.yul\":6241:6247   */\n      dup3\n        /* \"#utility.yul\":6230:6239   */\n      dup7\n        /* \"#utility.yul\":6226:6248   */\n      add\n        /* \"#utility.yul\":6205:6258   */\n      tag_175\n      jump\t// in\n    tag_323:\n        /* \"#utility.yul\":6195:6258   */\n      swap2\n      pop\n        /* \"#utility.yul\":6150:6268   */\n      pop\n        /* \"#utility.yul\":5621:6275   */\n      swap3\n      pop\n      swap3\n      swap1\n      pop\n      jump\t// out\n        /* \"#utility.yul\":6281:6755   */\n    tag_45:\n        /* \"#utility.yul\":6349:6355   */\n      0x00\n        /* \"#utility.yul\":6357:6363   */\n      dup1\n        /* \"#utility.yul\":6406:6408   */\n      0x40\n        /* \"#utility.yul\":6394:6403   */\n      dup4\n        /* \"#utility.yul\":6385:6392   */\n      dup6\n        /* \"#utility.yul\":6381:6404   */\n      sub\n        /* \"#utility.yul\":6377:6409   */\n      slt\n        /* \"#utility.yul\":6374:6493   */\n      iszero\n      tag_325\n      jumpi\n        /* \"#utility.yul\":6412:6491   */\n      tag_326\n      tag_164\n      jump\t// in\n    tag_326:\n        /* \"#utility.yul\":6374:6493   */\n    tag_325:\n        /* \"#utility.yul\":6532:6533   */\n      0x00\n        /* \"#utility.yul\":6557:6610   */\n      tag_327\n        /* \"#utility.yul\":6602:6609   */\n      dup6\n        /* \"#utility.yul\":6593:6599   */\n      dup3\n        /* \"#utility.yul\":6582:6591   */\n      dup7\n        /* \"#utility.yul\":6578:6600   */\n      add\n        /* \"#utility.yul\":6557:6610   */\n      tag_169\n      jump\t// in\n    tag_327:\n        /* \"#utility.yul\":6547:6610   */\n      swap3\n      pop\n        /* \"#utility.yul\":6503:6620   */\n      pop\n        /* \"#utility.yul\":6659:6661   */\n      0x20\n        /* \"#utility.yul\":6685:6738   */\n      tag_328\n        /* \"#utility.yul\":6730:6737   */\n      dup6\n        /* \"#utility.yul\":6721:6727   */\n      dup3\n        /* \"#utility.yul\":6710:6719   */\n      dup7\n        /* \"#utility.yul\":6706:6728   */\n      add\n        /* \"#utility.yul\":6685:6738   */\n      tag_169\n      jump\t// in\n    tag_328:\n        /* \"#utility.yul\":6675:6738   */\n      swap2\n      pop\n        /* \"#utility.yul\":6630:6748   */\n      pop\n        /* \"#utility.yul\":6281:6755   */\n      swap3\n      pop\n      swap3\n      swap1\n      pop\n      jump\t// out\n        /* \"#utility.yul\":6761:6879   */\n    tag_189:\n        /* \"#utility.yul\":6848:6872   */\n      tag_330\n        /* \"#utility.yul\":6866:6871   */\n      dup2\n        /* \"#utility.yul\":6848:6872   */\n      tag_170\n      jump\t// in\n    tag_330:\n        /* \"#utility.yul\":6843:6846   */\n      dup3\n        /* \"#utility.yul\":6836:6873   */\n      mstore\n        /* \"#utility.yul\":6761:6879   */\n      pop\n      pop\n      jump\t// out\n        /* \"#utility.yul\":6885:7003   */\n    tag_190:\n        /* \"#utility.yul\":6972:6996   */\n      tag_332\n        /* \"#utility.yul\":6990:6995   */\n      dup2\n        /* \"#utility.yul\":6972:6996   */\n      tag_173\n      jump\t// in\n    tag_332:\n        /* \"#utility.yul\":6967:6970   */\n      dup3\n        /* \"#utility.yul\":6960:6997   */\n      mstore\n        /* \"#utility.yul\":6885:7003   */\n      pop\n      pop\n      jump\t// out\n        /* \"#utility.yul\":7009:7562   */\n    tag_48:\n        /* \"#utility.yul\":7186:7190   */\n      0x00\n        /* \"#utility.yul\":7224:7227   */\n      0x80\n        /* \"#utility.yul\":7213:7222   */\n      dup3\n        /* \"#utility.yul\":7209:7228   */\n      add\n        /* \"#utility.yul\":7201:7228   */\n      swap1\n      pop\n        /* \"#utility.yul\":7238:7309   */\n      tag_334\n        /* \"#utility.yul\":7306:7307   */\n      0x00\n        /* \"#utility.yul\":7295:7304   */\n      dup4\n        /* \"#utility.yul\":7291:7308   */\n      add\n        /* \"#utility.yul\":7282:7288   */\n      dup8\n        /* \"#utility.yul\":7238:7309   */\n      tag_189\n      jump\t// in\n    tag_334:\n        /* \"#utility.yul\":7319:7391   */\n      tag_335\n        /* \"#utility.yul\":7387:7389   */\n      0x20\n        /* \"#utility.yul\":7376:7385   */\n      dup4\n        /* \"#utility.yul\":7372:7390   */\n      add\n        /* \"#utility.yul\":7363:7369   */\n      dup7\n        /* \"#utility.yul\":7319:7391   */\n      tag_190\n      jump\t// in\n    tag_335:\n        /* \"#utility.yul\":7401:7473   */\n      tag_336\n        /* \"#utility.yul\":7469:7471   */\n      0x40\n        /* \"#utility.yul\":7458:7467   */\n      dup4\n        /* \"#utility.yul\":7454:7472   */\n      add\n        /* \"#utility.yul\":7445:7451   */\n      dup6\n        /* \"#utility.yul\":7401:7473   */\n      tag_190\n      jump\t// in\n    tag_336:\n        /* \"#utility.yul\":7483:7555   */\n      tag_337\n        /* \"#utility.yul\":7551:7553   */\n      0x60\n        /* \"#utility.yul\":7540:7549   */\n      dup4\n        /* \"#utility.yul\":7536:7554   */\n      add\n        /* \"#utility.yul\":7527:7533   */\n      dup5\n        /* \"#utility.yul\":7483:7555   */\n      tag_190\n      jump\t// in\n    tag_337:\n        /* \"#utility.yul\":7009:7562   */\n      swap6\n      swap5\n      pop\n      pop\n      pop\n      pop\n      pop\n      jump\t// out\n        /* \"#utility.yul\":7568:7737   */\n    tag_191:\n        /* \"#utility.yul\":7652:7663   */\n      0x00\n        /* \"#utility.yul\":7686:7692   */\n      dup3\n        /* \"#utility.yul\":7681:7684   */\n      dup3\n        /* \"#utility.yul\":7674:7693   */\n      mstore\n        /* \"#utility.yul\":7726:7730   */\n      0x20\n        /* \"#utility.yul\":7721:7724   */\n      dup3\n        /* \"#utility.yul\":7717:7731   */\n      add\n        /* \"#utility.yul\":7702:7731   */\n      swap1\n      pop\n        /* \"#utility.yul\":7568:7737   */\n      swap3\n      swap2\n      pop\n      pop\n      jump\t// out\n        /* \"#utility.yul\":7743:7965   */\n    tag_192:\n        /* \"#utility.yul\":7883:7917   */\n      0x43616c6c6572206973206e6f7420616e206f7267616e697a6174696f6e206164\n        /* \"#utility.yul\":7879:7880   */\n      0x00\n        /* \"#utility.yul\":7871:7877   */\n      dup3\n        /* \"#utility.yul\":7867:7881   */\n      add\n        /* \"#utility.yul\":7860:7918   */\n      mstore\n        /* \"#utility.yul\":7952:7957   */\n      0x6d696e0000000000000000000000000000000000000000000000000000000000\n        /* \"#utility.yul\":7947:7949   */\n      0x20\n        /* \"#utility.yul\":7939:7945   */\n      dup3\n        /* \"#utility.yul\":7935:7950   */\n      add\n        /* \"#utility.yul\":7928:7958   */\n      mstore\n        /* \"#utility.yul\":7743:7965   */\n      pop\n      jump\t// out\n        /* \"#utility.yul\":7971:8337   */\n    tag_193:\n        /* \"#utility.yul\":8113:8116   */\n      0x00\n        /* \"#utility.yul\":8134:8201   */\n      tag_341\n        /* \"#utility.yul\":8198:8200   */\n      0x23\n        /* \"#utility.yul\":8193:8196   */\n      dup4\n        /* \"#utility.yul\":8134:8201   */\n      tag_191\n      jump\t// in\n    tag_341:\n        /* \"#utility.yul\":8127:8201   */\n      swap2\n      pop\n        /* \"#utility.yul\":8210:8303   */\n      tag_342\n        /* \"#utility.yul\":8299:8302   */\n      dup3\n        /* \"#utility.yul\":8210:8303   */\n      tag_192\n      jump\t// in\n    tag_342:\n        /* \"#utility.yul\":8328:8330   */\n      0x40\n        /* \"#utility.yul\":8323:8326   */\n      dup3\n        /* \"#utility.yul\":8319:8331   */\n      add\n        /* \"#utility.yul\":8312:8331   */\n      swap1\n      pop\n        /* \"#utility.yul\":7971:8337   */\n      swap2\n      swap1\n      pop\n      jump\t// out\n        /* \"#utility.yul\":8343:8762   */\n    tag_52:\n        /* \"#utility.yul\":8509:8513   */\n      0x00\n        /* \"#utility.yul\":8547:8549   */\n      0x20\n        /* \"#utility.yul\":8536:8545   */\n      dup3\n        /* \"#utility.yul\":8532:8550   */\n      add\n        /* \"#utility.yul\":8524:8550   */\n      swap1\n      pop\n        /* \"#utility.yul\":8596:8605   */\n      dup2\n        /* \"#utility.yul\":8590:8594   */\n      dup2\n        /* \"#utility.yul\":8586:8606   */\n      sub\n        /* \"#utility.yul\":8582:8583   */\n      0x00\n        /* \"#utility.yul\":8571:8580   */\n      dup4\n        /* \"#utility.yul\":8567:8584   */\n      add\n        /* \"#utility.yul\":8560:8607   */\n      mstore\n        /* \"#utility.yul\":8624:8755   */\n      tag_344\n        /* \"#utility.yul\":8750:8754   */\n      dup2\n        /* \"#utility.yul\":8624:8755   */\n      tag_193\n      jump\t// in\n    tag_344:\n        /* \"#utility.yul\":8616:8755   */\n      swap1\n      pop\n        /* \"#utility.yul\":8343:8762   */\n      swap2\n      swap1\n      pop\n      jump\t// out\n        /* \"#utility.yul\":8768:8945   */\n    tag_194:\n        /* \"#utility.yul\":8908:8937   */\n      0x496e76616c69642062656e656669636961727920616464726573730000000000\n        /* \"#utility.yul\":8904:8905   */\n      0x00\n        /* \"#utility.yul\":8896:8902   */\n      dup3\n        /* \"#utility.yul\":8892:8906   */\n      add\n        /* \"#utility.yul\":8885:8938   */\n      mstore\n        /* \"#utility.yul\":8768:8945   */\n      pop\n      jump\t// out\n        /* \"#utility.yul\":8951:9317   */\n    tag_195:\n        /* \"#utility.yul\":9093:9096   */\n      0x00\n        /* \"#utility.yul\":9114:9181   */\n      tag_347\n        /* \"#utility.yul\":9178:9180   */\n      0x1b\n        /* \"#utility.yul\":9173:9176   */\n      dup4\n        /* \"#utility.yul\":9114:9181   */\n      tag_191\n      jump\t// in\n    tag_347:\n        /* \"#utility.yul\":9107:9181   */\n      swap2\n      pop\n        /* \"#utility.yul\":9190:9283   */\n      tag_348\n        /* \"#utility.yul\":9279:9282   */\n      dup3\n        /* \"#utility.yul\":9190:9283   */\n      tag_194\n      jump\t// in\n    tag_348:\n        /* \"#utility.yul\":9308:9310   */\n      0x20\n        /* \"#utility.yul\":9303:9306   */\n      dup3\n        /* \"#utility.yul\":9299:9311   */\n      add\n        /* \"#utility.yul\":9292:9311   */\n      swap1\n      pop\n        /* \"#utility.yul\":8951:9317   */\n      swap2\n      swap1\n      pop\n      jump\t// out\n        /* \"#utility.yul\":9323:9742   */\n    tag_56:\n        /* \"#utility.yul\":9489:9493   */\n      0x00\n        /* \"#utility.yul\":9527:9529   */\n      0x20\n        /* \"#utility.yul\":9516:9525   */\n      dup3\n        /* \"#utility.yul\":9512:9530   */\n      add\n        /* \"#utility.yul\":9504:9530   */\n      swap1\n      pop\n        /* \"#utility.yul\":9576:9585   */\n      dup2\n        /* \"#utility.yul\":9570:9574   */\n      dup2\n        /* \"#utility.yul\":9566:9586   */\n      sub\n        /* \"#utility.yul\":9562:9563   */\n      0x00\n        /* \"#utility.yul\":9551:9560   */\n      dup4\n        /* \"#utility.yul\":9547:9564   */\n      add\n        /* \"#utility.yul\":9540:9587   */\n      mstore\n        /* \"#utility.yul\":9604:9735   */\n      tag_350\n        /* \"#utility.yul\":9730:9734   */\n      dup2\n        /* \"#utility.yul\":9604:9735   */\n      tag_195\n      jump\t// in\n    tag_350:\n        /* \"#utility.yul\":9596:9735   */\n      swap1\n      pop\n        /* \"#utility.yul\":9323:9742   */\n      swap2\n      swap1\n      pop\n      jump\t// out\n        /* \"#utility.yul\":9748:9922   */\n    tag_196:\n        /* \"#utility.yul\":9888:9914   */\n      0x496e76616c6964207374616b65686f6c64657220747970650000000000000000\n        /* \"#utility.yul\":9884:9885   */\n      0x00\n        /* \"#utility.yul\":9876:9882   */\n      dup3\n        /* \"#utility.yul\":9872:9886   */\n      add\n        /* \"#utility.yul\":9865:9915   */\n      mstore\n        /* \"#utility.yul\":9748:9922   */\n      pop\n      jump\t// out\n        /* \"#utility.yul\":9928:10294   */\n    tag_197:\n        /* \"#utility.yul\":10070:10073   */\n      0x00\n        /* \"#utility.yul\":10091:10158   */\n      tag_353\n        /* \"#utility.yul\":10155:10157   */\n      0x18\n        /* \"#utility.yul\":10150:10153   */\n      dup4\n        /* \"#utility.yul\":10091:10158   */\n      tag_191\n      jump\t// in\n    tag_353:\n        /* \"#utility.yul\":10084:10158   */\n      swap2\n      pop\n        /* \"#utility.yul\":10167:10260   */\n      tag_354\n        /* \"#utility.yul\":10256:10259   */\n      dup3\n        /* \"#utility.yul\":10167:10260   */\n      tag_196\n      jump\t// in\n    tag_354:\n        /* \"#utility.yul\":10285:10287   */\n      0x20\n        /* \"#utility.yul\":10280:10283   */\n      dup3\n        /* \"#utility.yul\":10276:10288   */\n      add\n        /* \"#utility.yul\":10269:10288   */\n      swap1\n      pop\n        /* \"#utility.yul\":9928:10294   */\n      swap2\n      swap1\n      pop\n      jump\t// out\n        /* \"#utility.yul\":10300:10719   */\n    tag_59:\n        /* \"#utility.yul\":10466:10470   */\n      0x00\n        /* \"#utility.yul\":10504:10506   */\n      0x20\n        /* \"#utility.yul\":10493:10502   */\n      dup3\n        /* \"#utility.yul\":10489:10507   */\n      add\n        /* \"#utility.yul\":10481:10507   */\n      swap1\n      pop\n        /* \"#utility.yul\":10553:10562   */\n      dup2\n        /* \"#utility.yul\":10547:10551   */\n      dup2\n        /* \"#utility.yul\":10543:10563   */\n      sub\n        /* \"#utility.yul\":10539:10540   */\n      0x00\n        /* \"#utility.yul\":10528:10537   */\n      dup4\n        /* \"#utility.yul\":10524:10541   */\n      add\n        /* \"#utility.yul\":10517:10564   */\n      mstore\n        /* \"#utility.yul\":10581:10712   */\n      tag_356\n        /* \"#utility.yul\":10707:10711   */\n      dup2\n        /* \"#utility.yul\":10581:10712   */\n      tag_197\n      jump\t// in\n    tag_356:\n        /* \"#utility.yul\":10573:10712   */\n      swap1\n      pop\n        /* \"#utility.yul\":10300:10719   */\n      swap2\n      swap1\n      pop\n      jump\t// out\n        /* \"#utility.yul\":10725:10904   */\n    tag_198:\n        /* \"#utility.yul\":10865:10896   */\n      0x416d6f756e74206d7573742062652067726561746572207468616e2030000000\n        /* \"#utility.yul\":10861:10862   */\n      0x00\n        /* \"#utility.yul\":10853:10859   */\n      dup3\n        /* \"#utility.yul\":10849:10863   */\n      add\n        /* \"#utility.yul\":10842:10897   */\n      mstore\n        /* \"#utility.yul\":10725:10904   */\n      pop\n      jump\t// out\n        /* \"#utility.yul\":10910:11276   */\n    tag_199:\n        /* \"#utility.yul\":11052:11055   */\n      0x00\n        /* \"#utility.yul\":11073:11140   */\n      tag_359\n        /* \"#utility.yul\":11137:11139   */\n      0x1d\n        /* \"#utility.yul\":11132:11135   */\n      dup4\n        /* \"#utility.yul\":11073:11140   */\n      tag_191\n      jump\t// in\n    tag_359:\n        /* \"#utility.yul\":11066:11140   */\n      swap2\n      pop\n        /* \"#utility.yul\":11149:11242   */\n      tag_360\n        /* \"#utility.yul\":11238:11241   */\n      dup3\n        /* \"#utility.yul\":11149:11242   */\n      tag_198\n      jump\t// in\n    tag_360:\n        /* \"#utility.yul\":11267:11269   */\n      0x20\n        /* \"#utility.yul\":11262:11265   */\n      dup3\n        /* \"#utility.yul\":11258:11270   */\n      add\n        /* \"#utility.yul\":11251:11270   */\n      swap1\n      pop\n        /* \"#utility.yul\":10910:11276   */\n      swap2\n      swap1\n      pop\n      jump\t// out\n        /* \"#utility.yul\":11282:11701   */\n    tag_62:\n        /* \"#utility.yul\":11448:11452   */\n      0x00\n        /* \"#utility.yul\":11486:11488   */\n      0x20\n        /* \"#utility.yul\":11475:11484   */\n      dup3\n        /* \"#utility.yul\":11471:11489   */\n      add\n        /* \"#utility.yul\":11463:11489   */\n      swap1\n      pop\n        /* \"#utility.yul\":11535:11544   */\n      dup2\n        /* \"#utility.yul\":11529:11533   */\n      dup2\n        /* \"#utility.yul\":11525:11545   */\n      sub\n        /* \"#utility.yul\":11521:11522   */\n      0x00\n        /* \"#utility.yul\":11510:11519   */\n      dup4\n        /* \"#utility.yul\":11506:11523   */\n      add\n        /* \"#utility.yul\":11499:11546   */\n      mstore\n        /* \"#utility.yul\":11563:11694   */\n      tag_362\n        /* \"#utility.yul\":11689:11693   */\n      dup2\n        /* \"#utility.yul\":11563:11694   */\n      tag_199\n      jump\t// in\n    tag_362:\n        /* \"#utility.yul\":11555:11694   */\n      swap1\n      pop\n        /* \"#utility.yul\":11282:11701   */\n      swap2\n      swap1\n      pop\n      jump\t// out\n        /* \"#utility.yul\":11707:11941   */\n    tag_200:\n        /* \"#utility.yul\":11847:11881   */\n      0x56657374696e67207363686564756c6520616c72656164792065786973747320\n        /* \"#utility.yul\":11843:11844   */\n      0x00\n        /* \"#utility.yul\":11835:11841   */\n      dup3\n        /* \"#utility.yul\":11831:11845   */\n      add\n        /* \"#utility.yul\":11824:11882   */\n      mstore\n        /* \"#utility.yul\":11916:11933   */\n      0x666f722062656e65666963696172790000000000000000000000000000000000\n        /* \"#utility.yul\":11911:11913   */\n      0x20\n        /* \"#utility.yul\":11903:11909   */\n      dup3\n        /* \"#utility.yul\":11899:11914   */\n      add\n        /* \"#utility.yul\":11892:11934   */\n      mstore\n        /* \"#utility.yul\":11707:11941   */\n      pop\n      jump\t// out\n        /* \"#utility.yul\":11947:12313   */\n    tag_201:\n        /* \"#utility.yul\":12089:12092   */\n      0x00\n        /* \"#utility.yul\":12110:12177   */\n      tag_365\n        /* \"#utility.yul\":12174:12176   */\n      0x2f\n        /* \"#utility.yul\":12169:12172   */\n      dup4\n        /* \"#utility.yul\":12110:12177   */\n      tag_191\n      jump\t// in\n    tag_365:\n        /* \"#utility.yul\":12103:12177   */\n      swap2\n      pop\n        /* \"#utility.yul\":12186:12279   */\n      tag_366\n        /* \"#utility.yul\":12275:12278   */\n      dup3\n        /* \"#utility.yul\":12186:12279   */\n      tag_200\n      jump\t// in\n    tag_366:\n        /* \"#utility.yul\":12304:12306   */\n      0x40\n        /* \"#utility.yul\":12299:12302   */\n      dup3\n        /* \"#utility.yul\":12295:12307   */\n      add\n        /* \"#utility.yul\":12288:12307   */\n      swap1\n      pop\n        /* \"#utility.yul\":11947:12313   */\n      swap2\n      swap1\n      pop\n      jump\t// out\n        /* \"#utility.yul\":12319:12738   */\n    tag_65:\n        /* \"#utility.yul\":12485:12489   */\n      0x00\n        /* \"#utility.yul\":12523:12525   */\n      0x20\n        /* \"#utility.yul\":12512:12521   */\n      dup3\n        /* \"#utility.yul\":12508:12526   */\n      add\n        /* \"#utility.yul\":12500:12526   */\n      swap1\n      pop\n        /* \"#utility.yul\":12572:12581   */\n      dup2\n        /* \"#utility.yul\":12566:12570   */\n      dup2\n        /* \"#utility.yul\":12562:12582   */\n      sub\n        /* \"#utility.yul\":12558:12559   */\n      0x00\n        /* \"#utility.yul\":12547:12556   */\n      dup4\n        /* \"#utility.yul\":12543:12560   */\n      add\n        /* \"#utility.yul\":12536:12583   */\n      mstore\n        /* \"#utility.yul\":12600:12731   */\n      tag_368\n        /* \"#utility.yul\":12726:12730   */\n      dup2\n        /* \"#utility.yul\":12600:12731   */\n      tag_201\n      jump\t// in\n    tag_368:\n        /* \"#utility.yul\":12592:12731   */\n      swap1\n      pop\n        /* \"#utility.yul\":12319:12738   */\n      swap2\n      swap1\n      pop\n      jump\t// out\n        /* \"#utility.yul\":12744:13186   */\n    tag_67:\n        /* \"#utility.yul\":12893:12897   */\n      0x00\n        /* \"#utility.yul\":12931:12933   */\n      0x60\n        /* \"#utility.yul\":12920:12929   */\n      dup3\n        /* \"#utility.yul\":12916:12934   */\n      add\n        /* \"#utility.yul\":12908:12934   */\n      swap1\n      pop\n        /* \"#utility.yul\":12944:13015   */\n      tag_370\n        /* \"#utility.yul\":13012:13013   */\n      0x00\n        /* \"#utility.yul\":13001:13010   */\n      dup4\n        /* \"#utility.yul\":12997:13014   */\n      add\n        /* \"#utility.yul\":12988:12994   */\n      dup7\n        /* \"#utility.yul\":12944:13015   */\n      tag_176\n      jump\t// in\n    tag_370:\n        /* \"#utility.yul\":13025:13097   */\n      tag_371\n        /* \"#utility.yul\":13093:13095   */\n      0x20\n        /* \"#utility.yul\":13082:13091   */\n      dup4\n        /* \"#utility.yul\":13078:13096   */\n      add\n        /* \"#utility.yul\":13069:13075   */\n      dup6\n        /* \"#utility.yul\":13025:13097   */\n      tag_176\n      jump\t// in\n    tag_371:\n        /* \"#utility.yul\":13107:13179   */\n      tag_372\n        /* \"#utility.yul\":13175:13177   */\n      0x40\n        /* \"#utility.yul\":13164:13173   */\n      dup4\n        /* \"#utility.yul\":13160:13178   */\n      add\n        /* \"#utility.yul\":13151:13157   */\n      dup5\n        /* \"#utility.yul\":13107:13179   */\n      tag_190\n      jump\t// in\n    tag_372:\n        /* \"#utility.yul\":12744:13186   */\n      swap5\n      swap4\n      pop\n      pop\n      pop\n      pop\n      jump\t// out\n        /* \"#utility.yul\":13192:13308   */\n    tag_202:\n        /* \"#utility.yul\":13262:13283   */\n      tag_374\n        /* \"#utility.yul\":13277:13282   */\n      dup2\n        /* \"#utility.yul\":13262:13283   */\n      tag_177\n      jump\t// in\n    tag_374:\n        /* \"#utility.yul\":13255:13260   */\n      dup2\n        /* \"#utility.yul\":13252:13284   */\n      eq\n        /* \"#utility.yul\":13242:13302   */\n      tag_375\n      jumpi\n        /* \"#utility.yul\":13298:13299   */\n      0x00\n        /* \"#utility.yul\":13295:13296   */\n      dup1\n        /* \"#utility.yul\":13288:13300   */\n      revert\n        /* \"#utility.yul\":13242:13302   */\n    tag_375:\n        /* \"#utility.yul\":13192:13308   */\n      pop\n      jump\t// out\n        /* \"#utility.yul\":13314:13451   */\n    tag_203:\n        /* \"#utility.yul\":13368:13373   */\n      0x00\n        /* \"#utility.yul\":13399:13405   */\n      dup2\n        /* \"#utility.yul\":13393:13406   */\n      mload\n        /* \"#utility.yul\":13384:13406   */\n      swap1\n      pop\n        /* \"#utility.yul\":13415:13445   */\n      tag_377\n        /* \"#utility.yul\":13439:13444   */\n      dup2\n        /* \"#utility.yul\":13415:13445   */\n      tag_202\n      jump\t// in\n    tag_377:\n        /* \"#utility.yul\":13314:13451   */\n      swap3\n      swap2\n      pop\n      pop\n      jump\t// out\n        /* \"#utility.yul\":13457:13802   */\n    tag_71:\n        /* \"#utility.yul\":13524:13530   */\n      0x00\n        /* \"#utility.yul\":13573:13575   */\n      0x20\n        /* \"#utility.yul\":13561:13570   */\n      dup3\n        /* \"#utility.yul\":13552:13559   */\n      dup5\n        /* \"#utility.yul\":13548:13571   */\n      sub\n        /* \"#utility.yul\":13544:13576   */\n      slt\n        /* \"#utility.yul\":13541:13660   */\n      iszero\n      tag_379\n      jumpi\n        /* \"#utility.yul\":13579:13658   */\n      tag_380\n      tag_164\n      jump\t// in\n    tag_380:\n        /* \"#utility.yul\":13541:13660   */\n    tag_379:\n        /* \"#utility.yul\":13699:13700   */\n      0x00\n        /* \"#utility.yul\":13724:13785   */\n      tag_381\n        /* \"#utility.yul\":13777:13784   */\n      dup5\n        /* \"#utility.yul\":13768:13774   */\n      dup3\n        /* \"#utility.yul\":13757:13766   */\n      dup6\n        /* \"#utility.yul\":13753:13775   */\n      add\n        /* \"#utility.yul\":13724:13785   */\n      tag_203\n      jump\t// in\n    tag_381:\n        /* \"#utility.yul\":13714:13785   */\n      swap2\n      pop\n        /* \"#utility.yul\":13670:13795   */\n      pop\n        /* \"#utility.yul\":13457:13802   */\n      swap3\n      swap2\n      pop\n      pop\n      jump\t// out\n        /* \"#utility.yul\":13808:13979   */\n    tag_204:\n        /* \"#utility.yul\":13948:13971   */\n      0x546f6b656e207472616e73666572206661696c65640000000000000000000000\n        /* \"#utility.yul\":13944:13945   */\n      0x00\n        /* \"#utility.yul\":13936:13942   */\n      dup3\n        /* \"#utility.yul\":13932:13946   */\n      add\n        /* \"#utility.yul\":13925:13972   */\n      mstore\n        /* \"#utility.yul\":13808:13979   */\n      pop\n      jump\t// out\n        /* \"#utility.yul\":13985:14351   */\n    tag_205:\n        /* \"#utility.yul\":14127:14130   */\n      0x00\n        /* \"#utility.yul\":14148:14215   */\n      tag_384\n        /* \"#utility.yul\":14212:14214   */\n      0x15\n        /* \"#utility.yul\":14207:14210   */\n      dup4\n        /* \"#utility.yul\":14148:14215   */\n      tag_191\n      jump\t// in\n    tag_384:\n        /* \"#utility.yul\":14141:14215   */\n      swap2\n      pop\n        /* \"#utility.yul\":14224:14317   */\n      tag_385\n        /* \"#utility.yul\":14313:14316   */\n      dup3\n        /* \"#utility.yul\":14224:14317   */\n      tag_204\n      jump\t// in\n    tag_385:\n        /* \"#utility.yul\":14342:14344   */\n      0x20\n        /* \"#utility.yul\":14337:14340   */\n      dup3\n        /* \"#utility.yul\":14333:14345   */\n      add\n        /* \"#utility.yul\":14326:14345   */\n      swap1\n      pop\n        /* \"#utility.yul\":13985:14351   */\n      swap2\n      swap1\n      pop\n      jump\t// out\n        /* \"#utility.yul\":14357:14776   */\n    tag_74:\n        /* \"#utility.yul\":14523:14527   */\n      0x00\n        /* \"#utility.yul\":14561:14563   */\n      0x20\n        /* \"#utility.yul\":14550:14559   */\n      dup3\n        /* \"#utility.yul\":14546:14564   */\n      add\n        /* \"#utility.yul\":14538:14564   */\n      swap1\n      pop\n        /* \"#utility.yul\":14610:14619   */\n      dup2\n        /* \"#utility.yul\":14604:14608   */\n      dup2\n        /* \"#utility.yul\":14600:14620   */\n      sub\n        /* \"#utility.yul\":14596:14597   */\n      0x00\n        /* \"#utility.yul\":14585:14594   */\n      dup4\n        /* \"#utility.yul\":14581:14598   */\n      add\n        /* \"#utility.yul\":14574:14621   */\n      mstore\n        /* \"#utility.yul\":14638:14769   */\n      tag_387\n        /* \"#utility.yul\":14764:14768   */\n      dup2\n        /* \"#utility.yul\":14638:14769   */\n      tag_205\n      jump\t// in\n    tag_387:\n        /* \"#utility.yul\":14630:14769   */\n      swap1\n      pop\n        /* \"#utility.yul\":14357:14776   */\n      swap2\n      swap1\n      pop\n      jump\t// out\n        /* \"#utility.yul\":14782:15114   */\n    tag_76:\n        /* \"#utility.yul\":14903:14907   */\n      0x00\n        /* \"#utility.yul\":14941:14943   */\n      0x40\n        /* \"#utility.yul\":14930:14939   */\n      dup3\n        /* \"#utility.yul\":14926:14944   */\n      add\n        /* \"#utility.yul\":14918:14944   */\n      swap1\n      pop\n        /* \"#utility.yul\":14954:15025   */\n      tag_389\n        /* \"#utility.yul\":15022:15023   */\n      0x00\n        /* \"#utility.yul\":15011:15020   */\n      dup4\n        /* \"#utility.yul\":15007:15024   */\n      add\n        /* \"#utility.yul\":14998:15004   */\n      dup6\n        /* \"#utility.yul\":14954:15025   */\n      tag_189\n      jump\t// in\n    tag_389:\n        /* \"#utility.yul\":15035:15107   */\n      tag_390\n        /* \"#utility.yul\":15103:15105   */\n      0x20\n        /* \"#utility.yul\":15092:15101   */\n      dup4\n        /* \"#utility.yul\":15088:15106   */\n      add\n        /* \"#utility.yul\":15079:15085   */\n      dup5\n        /* \"#utility.yul\":15035:15107   */\n      tag_190\n      jump\t// in\n    tag_390:\n        /* \"#utility.yul\":14782:15114   */\n      swap4\n      swap3\n      pop\n      pop\n      pop\n      jump\t// out\n        /* \"#utility.yul\":15120:15291   */\n    tag_206:\n        /* \"#utility.yul\":15260:15283   */\n      0x496e76616c69642061646d696e20616464726573730000000000000000000000\n        /* \"#utility.yul\":15256:15257   */\n      0x00\n        /* \"#utility.yul\":15248:15254   */\n      dup3\n        /* \"#utility.yul\":15244:15258   */\n      add\n        /* \"#utility.yul\":15237:15284   */\n      mstore\n        /* \"#utility.yul\":15120:15291   */\n      pop\n      jump\t// out\n        /* \"#utility.yul\":15297:15663   */\n    tag_207:\n        /* \"#utility.yul\":15439:15442   */\n      0x00\n        /* \"#utility.yul\":15460:15527   */\n      tag_393\n        /* \"#utility.yul\":15524:15526   */\n      0x15\n        /* \"#utility.yul\":15519:15522   */\n      dup4\n        /* \"#utility.yul\":15460:15527   */\n      tag_191\n      jump\t// in\n    tag_393:\n        /* \"#utility.yul\":15453:15527   */\n      swap2\n      pop\n        /* \"#utility.yul\":15536:15629   */\n      tag_394\n        /* \"#utility.yul\":15625:15628   */\n      dup3\n        /* \"#utility.yul\":15536:15629   */\n      tag_206\n      jump\t// in\n    tag_394:\n        /* \"#utility.yul\":15654:15656   */\n      0x20\n        /* \"#utility.yul\":15649:15652   */\n      dup3\n        /* \"#utility.yul\":15645:15657   */\n      add\n        /* \"#utility.yul\":15638:15657   */\n      swap1\n      pop\n        /* \"#utility.yul\":15297:15663   */\n      swap2\n      swap1\n      pop\n      jump\t// out\n        /* \"#utility.yul\":15669:16088   */\n    tag_83:\n        /* \"#utility.yul\":15835:15839   */\n      0x00\n        /* \"#utility.yul\":15873:15875   */\n      0x20\n        /* \"#utility.yul\":15862:15871   */\n      dup3\n        /* \"#utility.yul\":15858:15876   */\n      add\n        /* \"#utility.yul\":15850:15876   */\n      swap1\n      pop\n        /* \"#utility.yul\":15922:15931   */\n      dup2\n        /* \"#utility.yul\":15916:15920   */\n      dup2\n        /* \"#utility.yul\":15912:15932   */\n      sub\n        /* \"#utility.yul\":15908:15909   */\n      0x00\n        /* \"#utility.yul\":15897:15906   */\n      dup4\n        /* \"#utility.yul\":15893:15910   */\n      add\n        /* \"#utility.yul\":15886:15933   */\n      mstore\n        /* \"#utility.yul\":15950:16081   */\n      tag_396\n        /* \"#utility.yul\":16076:16080   */\n      dup2\n        /* \"#utility.yul\":15950:16081   */\n      tag_207\n      jump\t// in\n    tag_396:\n        /* \"#utility.yul\":15942:16081   */\n      swap1\n      pop\n        /* \"#utility.yul\":15669:16088   */\n      swap2\n      swap1\n      pop\n      jump\t// out\n        /* \"#utility.yul\":16094:16193   */\n    tag_208:\n        /* \"#utility.yul\":16146:16152   */\n      0x00\n        /* \"#utility.yul\":16180:16185   */\n      dup2\n        /* \"#utility.yul\":16174:16186   */\n      mload\n        /* \"#utility.yul\":16164:16186   */\n      swap1\n      pop\n        /* \"#utility.yul\":16094:16193   */\n      swap2\n      swap1\n      pop\n      jump\t// out\n        /* \"#utility.yul\":16199:16347   */\n    tag_209:\n        /* \"#utility.yul\":16301:16312   */\n      0x00\n        /* \"#utility.yul\":16338:16341   */\n      dup2\n        /* \"#utility.yul\":16323:16341   */\n      swap1\n      pop\n        /* \"#utility.yul\":16199:16347   */\n      swap3\n      swap2\n      pop\n      pop\n      jump\t// out\n        /* \"#utility.yul\":16353:16599   */\n    tag_210:\n        /* \"#utility.yul\":16434:16435   */\n      0x00\n        /* \"#utility.yul\":16444:16557   */\n    tag_400:\n        /* \"#utility.yul\":16458:16464   */\n      dup4\n        /* \"#utility.yul\":16455:16456   */\n      dup2\n        /* \"#utility.yul\":16452:16465   */\n      lt\n        /* \"#utility.yul\":16444:16557   */\n      iszero\n      tag_402\n      jumpi\n        /* \"#utility.yul\":16543:16544   */\n      dup1\n        /* \"#utility.yul\":16538:16541   */\n      dup3\n        /* \"#utility.yul\":16534:16545   */\n      add\n        /* \"#utility.yul\":16528:16546   */\n      mload\n        /* \"#utility.yul\":16524:16525   */\n      dup2\n        /* \"#utility.yul\":16519:16522   */\n      dup5\n        /* \"#utility.yul\":16515:16526   */\n      add\n        /* \"#utility.yul\":16508:16547   */\n      mstore\n        /* \"#utility.yul\":16480:16482   */\n      0x20\n        /* \"#utility.yul\":16477:16478   */\n      dup2\n        /* \"#utility.yul\":16473:16483   */\n      add\n        /* \"#utility.yul\":16468:16483   */\n      swap1\n      pop\n        /* \"#utility.yul\":16444:16557   */\n      jump(tag_400)\n    tag_402:\n        /* \"#utility.yul\":16591:16592   */\n      0x00\n        /* \"#utility.yul\":16582:16588   */\n      dup5\n        /* \"#utility.yul\":16577:16580   */\n      dup5\n        /* \"#utility.yul\":16573:16589   */\n      add\n        /* \"#utility.yul\":16566:16593   */\n      mstore\n        /* \"#utility.yul\":16415:16599   */\n      pop\n        /* \"#utility.yul\":16353:16599   */\n      pop\n      pop\n      pop\n      jump\t// out\n        /* \"#utility.yul\":16605:16995   */\n    tag_211:\n        /* \"#utility.yul\":16711:16714   */\n      0x00\n        /* \"#utility.yul\":16739:16778   */\n      tag_404\n        /* \"#utility.yul\":16772:16777   */\n      dup3\n        /* \"#utility.yul\":16739:16778   */\n      tag_208\n      jump\t// in\n    tag_404:\n        /* \"#utility.yul\":16794:16883   */\n      tag_405\n        /* \"#utility.yul\":16876:16882   */\n      dup2\n        /* \"#utility.yul\":16871:16874   */\n      dup6\n        /* \"#utility.yul\":16794:16883   */\n      tag_209\n      jump\t// in\n    tag_405:\n        /* \"#utility.yul\":16787:16883   */\n      swap4\n      pop\n        /* \"#utility.yul\":16892:16957   */\n      tag_406\n        /* \"#utility.yul\":16950:16956   */\n      dup2\n        /* \"#utility.yul\":16945:16948   */\n      dup6\n        /* \"#utility.yul\":16938:16942   */\n      0x20\n        /* \"#utility.yul\":16931:16936   */\n      dup7\n        /* \"#utility.yul\":16927:16943   */\n      add\n        /* \"#utility.yul\":16892:16957   */\n      tag_210\n      jump\t// in\n    tag_406:\n        /* \"#utility.yul\":16982:16988   */\n      dup1\n        /* \"#utility.yul\":16977:16980   */\n      dup5\n        /* \"#utility.yul\":16973:16989   */\n      add\n        /* \"#utility.yul\":16966:16989   */\n      swap2\n      pop\n        /* \"#utility.yul\":16715:16995   */\n      pop\n        /* \"#utility.yul\":16605:16995   */\n      swap3\n      swap2\n      pop\n      pop\n      jump\t// out\n        /* \"#utility.yul\":17001:17276   */\n    tag_89:\n        /* \"#utility.yul\":17133:17136   */\n      0x00\n        /* \"#utility.yul\":17155:17250   */\n      tag_408\n        /* \"#utility.yul\":17246:17249   */\n      dup3\n        /* \"#utility.yul\":17237:17243   */\n      dup5\n        /* \"#utility.yul\":17155:17250   */\n      tag_211\n      jump\t// in\n    tag_408:\n        /* \"#utility.yul\":17148:17250   */\n      swap2\n      pop\n        /* \"#utility.yul\":17267:17270   */\n      dup2\n        /* \"#utility.yul\":17260:17270   */\n      swap1\n      pop\n        /* \"#utility.yul\":17001:17276   */\n      swap3\n      swap2\n      pop\n      pop\n      jump\t// out\n        /* \"#utility.yul\":17282:17463   */\n    tag_212:\n        /* \"#utility.yul\":17422:17455   */\n      0x5374616b65686f6c646572207479706520616c72656164792065786973747300\n        /* \"#utility.yul\":17418:17419   */\n      0x00\n        /* \"#utility.yul\":17410:17416   */\n      dup3\n        /* \"#utility.yul\":17406:17420   */\n      add\n        /* \"#utility.yul\":17399:17456   */\n      mstore\n        /* \"#utility.yul\":17282:17463   */\n      pop\n      jump\t// out\n        /* \"#utility.yul\":17469:17835   */\n    tag_213:\n        /* \"#utility.yul\":17611:17614   */\n      0x00\n        /* \"#utility.yul\":17632:17699   */\n      tag_411\n        /* \"#utility.yul\":17696:17698   */\n      0x1f\n        /* \"#utility.yul\":17691:17694   */\n      dup4\n        /* \"#utility.yul\":17632:17699   */\n      tag_191\n      jump\t// in\n    tag_411:\n        /* \"#utility.yul\":17625:17699   */\n      swap2\n      pop\n        /* \"#utility.yul\":17708:17801   */\n      tag_412\n        /* \"#utility.yul\":17797:17800   */\n      dup3\n        /* \"#utility.yul\":17708:17801   */\n      tag_212\n      jump\t// in\n    tag_412:\n        /* \"#utility.yul\":17826:17828   */\n      0x20\n        /* \"#utility.yul\":17821:17824   */\n      dup3\n        /* \"#utility.yul\":17817:17829   */\n      add\n        /* \"#utility.yul\":17810:17829   */\n      swap1\n      pop\n        /* \"#utility.yul\":17469:17835   */\n      swap2\n      swap1\n      pop\n      jump\t// out\n        /* \"#utility.yul\":17841:18260   */\n    tag_92:\n        /* \"#utility.yul\":18007:18011   */\n      0x00\n        /* \"#utility.yul\":18045:18047   */\n      0x20\n        /* \"#utility.yul\":18034:18043   */\n      dup3\n        /* \"#utility.yul\":18030:18048   */\n      add\n        /* \"#utility.yul\":18022:18048   */\n      swap1\n      pop\n        /* \"#utility.yul\":18094:18103   */\n      dup2\n        /* \"#utility.yul\":18088:18092   */\n      dup2\n        /* \"#utility.yul\":18084:18104   */\n      sub\n        /* \"#utility.yul\":18080:18081   */\n      0x00\n        /* \"#utility.yul\":18069:18078   */\n      dup4\n        /* \"#utility.yul\":18065:18082   */\n      add\n        /* \"#utility.yul\":18058:18105   */\n      mstore\n        /* \"#utility.yul\":18122:18253   */\n      tag_414\n        /* \"#utility.yul\":18248:18252   */\n      dup2\n        /* \"#utility.yul\":18122:18253   */\n      tag_213\n      jump\t// in\n    tag_414:\n        /* \"#utility.yul\":18114:18253   */\n      swap1\n      pop\n        /* \"#utility.yul\":17841:18260   */\n      swap2\n      swap1\n      pop\n      jump\t// out\n        /* \"#utility.yul\":18266:18446   */\n    tag_214:\n        /* \"#utility.yul\":18314:18391   */\n      0x4e487b7100000000000000000000000000000000000000000000000000000000\n        /* \"#utility.yul\":18311:18312   */\n      0x00\n        /* \"#utility.yul\":18304:18392   */\n      mstore\n        /* \"#utility.yul\":18411:18415   */\n      0x22\n        /* \"#utility.yul\":18408:18409   */\n      0x04\n        /* \"#utility.yul\":18401:18416   */\n      mstore\n        /* \"#utility.yul\":18435:18439   */\n      0x24\n        /* \"#utility.yul\":18432:18433   */\n      0x00\n        /* \"#utility.yul\":18425:18440   */\n      revert\n        /* \"#utility.yul\":18452:18772   */\n    tag_112:\n        /* \"#utility.yul\":18496:18502   */\n      0x00\n        /* \"#utility.yul\":18533:18534   */\n      0x02\n        /* \"#utility.yul\":18527:18531   */\n      dup3\n        /* \"#utility.yul\":18523:18535   */\n      div\n        /* \"#utility.yul\":18513:18535   */\n      swap1\n      pop\n        /* \"#utility.yul\":18580:18581   */\n      0x01\n        /* \"#utility.yul\":18574:18578   */\n      dup3\n        /* \"#utility.yul\":18570:18582   */\n      and\n        /* \"#utility.yul\":18601:18619   */\n      dup1\n        /* \"#utility.yul\":18591:18672   */\n      tag_417\n      jumpi\n        /* \"#utility.yul\":18657:18661   */\n      0x7f\n        /* \"#utility.yul\":18649:18655   */\n      dup3\n        /* \"#utility.yul\":18645:18662   */\n      and\n        /* \"#utility.yul\":18635:18662   */\n      swap2\n      pop\n        /* \"#utility.yul\":18591:18672   */\n    tag_417:\n        /* \"#utility.yul\":18719:18721   */\n      0x20\n        /* \"#utility.yul\":18711:18717   */\n      dup3\n        /* \"#utility.yul\":18708:18722   */\n      lt\n        /* \"#utility.yul\":18688:18706   */\n      dup2\n        /* \"#utility.yul\":18685:18723   */\n      sub\n        /* \"#utility.yul\":18682:18766   */\n      tag_418\n      jumpi\n        /* \"#utility.yul\":18738:18756   */\n      tag_419\n      tag_214\n      jump\t// in\n    tag_419:\n        /* \"#utility.yul\":18682:18766   */\n    tag_418:\n        /* \"#utility.yul\":18503:18772   */\n      pop\n        /* \"#utility.yul\":18452:18772   */\n      swap2\n      swap1\n      pop\n      jump\t// out\n        /* \"#utility.yul\":18778:18919   */\n    tag_215:\n        /* \"#utility.yul\":18827:18831   */\n      0x00\n        /* \"#utility.yul\":18850:18853   */\n      dup2\n        /* \"#utility.yul\":18842:18853   */\n      swap1\n      pop\n        /* \"#utility.yul\":18873:18876   */\n      dup2\n        /* \"#utility.yul\":18870:18871   */\n      0x00\n        /* \"#utility.yul\":18863:18877   */\n      mstore\n        /* \"#utility.yul\":18907:18911   */\n      0x20\n        /* \"#utility.yul\":18904:18905   */\n      0x00\n        /* \"#utility.yul\":18894:18912   */\n      keccak256\n        /* \"#utility.yul\":18886:18912   */\n      swap1\n      pop\n        /* \"#utility.yul\":18778:18919   */\n      swap2\n      swap1\n      pop\n      jump\t// out\n        /* \"#utility.yul\":18925:19018   */\n    tag_216:\n        /* \"#utility.yul\":18962:18968   */\n      0x00\n        /* \"#utility.yul\":19009:19011   */\n      0x20\n        /* \"#utility.yul\":19004:19006   */\n      0x1f\n        /* \"#utility.yul\":18997:19002   */\n      dup4\n        /* \"#utility.yul\":18993:19007   */\n      add\n        /* \"#utility.yul\":18989:19012   */\n      div\n        /* \"#utility.yul\":18979:19012   */\n      swap1\n      pop\n        /* \"#utility.yul\":18925:19018   */\n      swap2\n      swap1\n      pop\n      jump\t// out\n        /* \"#utility.yul\":19024:19131   */\n    tag_217:\n        /* \"#utility.yul\":19068:19076   */\n      0x00\n        /* \"#utility.yul\":19118:19123   */\n      dup3\n        /* \"#utility.yul\":19112:19116   */\n      dup3\n        /* \"#utility.yul\":19108:19124   */\n      shl\n        /* \"#utility.yul\":19087:19124   */\n      swap1\n      pop\n        /* \"#utility.yul\":19024:19131   */\n      swap3\n      swap2\n      pop\n      pop\n      jump\t// out\n        /* \"#utility.yul\":19137:19530   */\n    tag_218:\n        /* \"#utility.yul\":19206:19212   */\n      0x00\n        /* \"#utility.yul\":19256:19257   */\n      0x08\n        /* \"#utility.yul\":19244:19254   */\n      dup4\n        /* \"#utility.yul\":19240:19258   */\n      mul\n        /* \"#utility.yul\":19279:19376   */\n      tag_424\n        /* \"#utility.yul\":19309:19375   */\n      0xffffffffffffffffffffffffffffffffffffffffffffffffffffffffffffffff\n        /* \"#utility.yul\":19298:19307   */\n      dup3\n        /* \"#utility.yul\":19279:19376   */\n      tag_217\n      jump\t// in\n    tag_424:\n        /* \"#utility.yul\":19397:19436   */\n      tag_425\n        /* \"#utility.yul\":19427:19435   */\n      dup7\n        /* \"#utility.yul\":19416:19425   */\n      dup4\n        /* \"#utility.yul\":19397:19436   */\n      tag_217\n      jump\t// in\n    tag_425:\n        /* \"#utility.yul\":19385:19436   */\n      swap6\n      pop\n        /* \"#utility.yul\":19469:19473   */\n      dup1\n        /* \"#utility.yul\":19465:19474   */\n      not\n        /* \"#utility.yul\":19458:19463   */\n      dup5\n        /* \"#utility.yul\":19454:19475   */\n      and\n        /* \"#utility.yul\":19445:19475   */\n      swap4\n      pop\n        /* \"#utility.yul\":19518:19522   */\n      dup1\n        /* \"#utility.yul\":19508:19516   */\n      dup7\n        /* \"#utility.yul\":19504:19523   */\n      and\n        /* \"#utility.yul\":19497:19502   */\n      dup5\n        /* \"#utility.yul\":19494:19524   */\n      or\n        /* \"#utility.yul\":19484:19524   */\n      swap3\n      pop\n        /* \"#utility.yul\":19213:19530   */\n      pop\n      pop\n        /* \"#utility.yul\":19137:19530   */\n      swap4\n      swap3\n      pop\n      pop\n      pop\n      jump\t// out\n        /* \"#utility.yul\":19536:19596   */\n    tag_219:\n        /* \"#utility.yul\":19564:19567   */\n      0x00\n        /* \"#utility.yul\":19585:19590   */\n      dup2\n        /* \"#utility.yul\":19578:19590   */\n      swap1\n      pop\n        /* \"#utility.yul\":19536:19596   */\n      swap2\n      swap1\n      pop\n      jump\t// out\n        /* \"#utility.yul\":19602:19744   */\n    tag_220:\n        /* \"#utility.yul\":19652:19661   */\n      0x00\n        /* \"#utility.yul\":19685:19738   */\n      tag_428\n        /* \"#utility.yul\":19703:19737   */\n      tag_429\n        /* \"#utility.yul\":19712:19736   */\n      tag_430\n        /* \"#utility.yul\":19730:19735   */\n      dup5\n        /* \"#utility.yul\":19712:19736   */\n      tag_173\n      jump\t// in\n    tag_430:\n        /* \"#utility.yul\":19703:19737   */\n      tag_219\n      jump\t// in\n    tag_429:\n        /* \"#utility.yul\":19685:19738   */\n      tag_173\n      jump\t// in\n    tag_428:\n        /* \"#utility.yul\":19672:19738   */\n      swap1\n      pop\n        /* \"#utility.yul\":19602:19744   */\n      swap2\n      swap1\n      pop\n      jump\t// out\n        /* \"#utility.yul\":19750:19825   */\n    tag_221:\n        /* \"#utility.yul\":19793:19796   */\n      0x00\n        /* \"#utility.yul\":19814:19819   */\n      dup2\n        /* \"#utility.yul\":19807:19819   */\n      swap1\n      pop\n        /* \"#utility.yul\":19750:19825   */\n      swap2\n      swap1\n      pop\n      jump\t// out\n        /* \"#utility.yul\":19831:20100   */\n    tag_222:\n        /* \"#utility.yul\":19941:19980   */\n      tag_433\n        /* \"#utility.yul\":19972:19979   */\n      dup4\n        /* \"#utility.yul\":19941:19980   */\n      tag_220\n      jump\t// in\n    tag_433:\n        /* \"#utility.yul\":20002:20093   */\n      tag_434\n        /* \"#utility.yul\":20051:20092   */\n      tag_435\n        /* \"#utility.yul\":20075:20091   */\n      dup3\n        /* \"#utility.yul\":20051:20092   */\n      tag_221\n      jump\t// in\n    tag_435:\n        /* \"#utility.yul\":20043:20049   */\n      dup5\n        /* \"#utility.yul\":20036:20040   */\n      dup5\n        /* \"#utility.yul\":20030:20041   */\n      sload\n        /* \"#utility.yul\":20002:20093   */\n      tag_218\n      jump\t// in\n    tag_434:\n        /* \"#utility.yul\":19996:20000   */\n      dup3\n        /* \"#utility.yul\":19989:20094   */\n      sstore\n        /* \"#utility.yul\":19907:20100   */\n      pop\n        /* \"#utility.yul\":19831:20100   */\n      pop\n      pop\n      pop\n      jump\t// out\n        /* \"#utility.yul\":20106:20179   */\n    tag_223:\n        /* \"#utility.yul\":20151:20154   */\n      0x00\n        /* \"#utility.yul\":20106:20179   */\n      swap1\n      jump\t// out\n        /* \"#utility.yul\":20185:20374   */\n    tag_224:\n        /* \"#utility.yul\":20262:20294   */\n      tag_438\n      tag_223\n      jump\t// in\n    tag_438:\n        /* \"#utility.yul\":20303:20368   */\n      tag_439\n        /* \"#utility.yul\":20361:20367   */\n      dup2\n        /* \"#utility.yul\":20353:20359   */\n      dup5\n        /* \"#utility.yul\":20347:20351   */\n      dup5\n        /* \"#utility.yul\":20303:20368   */\n      tag_222\n      jump\t// in\n    tag_439:\n        /* \"#utility.yul\":20238:20374   */\n      pop\n        /* \"#utility.yul\":20185:20374   */\n      pop\n      pop\n      jump\t// out\n        /* \"#utility.yul\":20380:20566   */\n    tag_225:\n        /* \"#utility.yul\":20440:20560   */\n    tag_441:\n        /* \"#utility.yul\":20457:20460   */\n      dup2\n        /* \"#utility.yul\":20450:20455   */\n      dup2\n        /* \"#utility.yul\":20447:20461   */\n      lt\n        /* \"#utility.yul\":20440:20560   */\n      iszero\n      tag_443\n      jumpi\n        /* \"#utility.yul\":20511:20550   */\n      tag_444\n        /* \"#utility.yul\":20548:20549   */\n      0x00\n        /* \"#utility.yul\":20541:20546   */\n      dup3\n        /* \"#utility.yul\":20511:20550   */\n      tag_224\n      jump\t// in\n    tag_444:\n        /* \"#utility.yul\":20484:20485   */\n      0x01\n        /* \"#utility.yul\":20477:20482   */\n      dup2\n        /* \"#utility.yul\":20473:20486   */\n      add\n        /* \"#utility.yul\":20464:20486   */\n      swap1\n      pop\n        /* \"#utility.yul\":20440:20560   */\n      jump(tag_441)\n    tag_443:\n        /* \"#utility.yul\":20380:20566   */\n      pop\n      pop\n      jump\t// out\n        /* \"#utility.yul\":20572:21115   */\n    tag_226:\n        /* \"#utility.yul\":20673:20675   */\n      0x1f\n        /* \"#utility.yul\":20668:20671   */\n      dup3\n        /* \"#utility.yul\":20665:20676   */\n      gt\n        /* \"#utility.yul\":20662:21108   */\n      iszero\n      tag_446\n      jumpi\n        /* \"#utility.yul\":20707:20745   */\n      tag_447\n        /* \"#utility.yul\":20739:20744   */\n      dup2\n        /* \"#utility.yul\":20707:20745   */\n      tag_215\n      jump\t// in\n    tag_447:\n        /* \"#utility.yul\":20791:20820   */\n      tag_448\n        /* \"#utility.yul\":20809:20819   */\n      dup5\n        /* \"#utility.yul\":20791:20820   */\n      tag_216\n      jump\t// in\n    tag_448:\n        /* \"#utility.yul\":20781:20789   */\n      dup2\n        /* \"#utility.yul\":20777:20821   */\n      add\n        /* \"#utility.yul\":20974:20976   */\n      0x20\n        /* \"#utility.yul\":20962:20972   */\n      dup6\n        /* \"#utility.yul\":20959:20977   */\n      lt\n        /* \"#utility.yul\":20956:21005   */\n      iszero\n      tag_449\n      jumpi\n        /* \"#utility.yul\":20995:21003   */\n      dup2\n        /* \"#utility.yul\":20980:21003   */\n      swap1\n      pop\n        /* \"#utility.yul\":20956:21005   */\n    tag_449:\n        /* \"#utility.yul\":21018:21098   */\n      tag_450\n        /* \"#utility.yul\":21074:21096   */\n      tag_451\n        /* \"#utility.yul\":21092:21095   */\n      dup6\n        /* \"#utility.yul\":21074:21096   */\n      tag_216\n      jump\t// in\n    tag_451:\n        /* \"#utility.yul\":21064:21072   */\n      dup4\n        /* \"#utility.yul\":21060:21097   */\n      add\n        /* \"#utility.yul\":21047:21058   */\n      dup3\n        /* \"#utility.yul\":21018:21098   */\n      tag_225\n      jump\t// in\n    tag_450:\n        /* \"#utility.yul\":20677:21108   */\n      pop\n      pop\n        /* \"#utility.yul\":20662:21108   */\n    tag_446:\n        /* \"#utility.yul\":20572:21115   */\n      pop\n      pop\n      pop\n      jump\t// out\n        /* \"#utility.yul\":21121:21238   */\n    tag_227:\n        /* \"#utility.yul\":21175:21183   */\n      0x00\n        /* \"#utility.yul\":21225:21230   */\n      dup3\n        /* \"#utility.yul\":21219:21223   */\n      dup3\n        /* \"#utility.yul\":21215:21231   */\n      shr\n        /* \"#utility.yul\":21194:21231   */\n      swap1\n      pop\n        /* \"#utility.yul\":21121:21238   */\n      swap3\n      swap2\n      pop\n      pop\n      jump\t// out\n        /* \"#utility.yul\":21244:21413   */\n    tag_228:\n        /* \"#utility.yul\":21288:21294   */\n      0x00\n        /* \"#utility.yul\":21321:21372   */\n      tag_454\n        /* \"#utility.yul\":21369:21370   */\n      0x00\n        /* \"#utility.yul\":21365:21371   */\n      not\n        /* \"#utility.yul\":21357:21362   */\n      dup5\n        /* \"#utility.yul\":21354:21355   */\n      0x08\n        /* \"#utility.yul\":21350:21363   */\n      mul\n        /* \"#utility.yul\":21321:21372   */\n      tag_227\n      jump\t// in\n    tag_454:\n        /* \"#utility.yul\":21317:21373   */\n      not\n        /* \"#utility.yul\":21402:21406   */\n      dup1\n        /* \"#utility.yul\":21396:21400   */\n      dup4\n        /* \"#utility.yul\":21392:21407   */\n      and\n        /* \"#utility.yul\":21382:21407   */\n      swap2\n      pop\n        /* \"#utility.yul\":21295:21413   */\n      pop\n        /* \"#utility.yul\":21244:21413   */\n      swap3\n      swap2\n      pop\n      pop\n      jump\t// out\n        /* \"#utility.yul\":21418:21713   */\n    tag_229:\n        /* \"#utility.yul\":21494:21498   */\n      0x00\n        /* \"#utility.yul\":21640:21669   */\n      tag_456\n        /* \"#utility.yul\":21665:21668   */\n      dup4\n        /* \"#utility.yul\":21659:21663   */\n      dup4\n        /* \"#utility.yul\":21640:21669   */\n      tag_228\n      jump\t// in\n    tag_456:\n        /* \"#utility.yul\":21632:21669   */\n      swap2\n      pop\n        /* \"#utility.yul\":21702:21705   */\n      dup3\n        /* \"#utility.yul\":21699:21700   */\n      0x02\n        /* \"#utility.yul\":21695:21706   */\n      mul\n        /* \"#utility.yul\":21689:21693   */\n      dup3\n        /* \"#utility.yul\":21686:21707   */\n      or\n        /* \"#utility.yul\":21678:21707   */\n      swap1\n      pop\n        /* \"#utility.yul\":21418:21713   */\n      swap3\n      swap2\n      pop\n      pop\n      jump\t// out\n        /* \"#utility.yul\":21718:23113   */\n    tag_94:\n        /* \"#utility.yul\":21835:21872   */\n      tag_458\n        /* \"#utility.yul\":21868:21871   */\n      dup3\n        /* \"#utility.yul\":21835:21872   */\n      tag_208\n      jump\t// in\n    tag_458:\n        /* \"#utility.yul\":21937:21955   */\n      0xffffffffffffffff\n        /* \"#utility.yul\":21929:21935   */\n      dup2\n        /* \"#utility.yul\":21926:21956   */\n      gt\n        /* \"#utility.yul\":21923:21979   */\n      iszero\n      tag_459\n      jumpi\n        /* \"#utility.yul\":21959:21977   */\n      tag_460\n      tag_182\n      jump\t// in\n    tag_460:\n        /* \"#utility.yul\":21923:21979   */\n    tag_459:\n        /* \"#utility.yul\":22003:22041   */\n      tag_461\n        /* \"#utility.yul\":22035:22039   */\n      dup3\n        /* \"#utility.yul\":22029:22040   */\n      sload\n        /* \"#utility.yul\":22003:22041   */\n      tag_112\n      jump\t// in\n    tag_461:\n        /* \"#utility.yul\":22088:22155   */\n      tag_462\n        /* \"#utility.yul\":22148:22154   */\n      dup3\n        /* \"#utility.yul\":22140:22146   */\n      dup3\n        /* \"#utility.yul\":22134:22138   */\n      dup6\n        /* \"#utility.yul\":22088:22155   */\n      tag_226\n      jump\t// in\n    tag_462:\n        /* \"#utility.yul\":22182:22183   */\n      0x00\n        /* \"#utility.yul\":22206:22210   */\n      0x20\n        /* \"#utility.yul\":22193:22210   */\n      swap1\n      pop\n        /* \"#utility.yul\":22238:22240   */\n      0x1f\n        /* \"#utility.yul\":22230:22236   */\n      dup4\n        /* \"#utility.yul\":22227:22241   */\n      gt\n        /* \"#utility.yul\":22255:22256   */\n      0x01\n        /* \"#utility.yul\":22250:22868   */\n      dup2\n      eq\n      tag_464\n      jumpi\n        /* \"#utility.yul\":22912:22913   */\n      0x00\n        /* \"#utility.yul\":22929:22935   */\n      dup5\n        /* \"#utility.yul\":22926:23003   */\n      iszero\n      tag_465\n      jumpi\n        /* \"#utility.yul\":22978:22987   */\n      dup3\n        /* \"#utility.yul\":22973:22976   */\n      dup8\n        /* \"#utility.yul\":22969:22988   */\n      add\n        /* \"#utility.yul\":22963:22989   */\n      mload\n        /* \"#utility.yul\":22954:22989   */\n      swap1\n      pop\n        /* \"#utility.yul\":22926:23003   */\n    tag_465:\n        /* \"#utility.yul\":23029:23096   */\n      tag_466\n        /* \"#utility.yul\":23089:23095   */\n      dup6\n        /* \"#utility.yul\":23082:23087   */\n      dup3\n        /* \"#utility.yul\":23029:23096   */\n      tag_229\n      jump\t// in\n    tag_466:\n        /* \"#utility.yul\":23023:23027   */\n      dup7\n        /* \"#utility.yul\":23016:23097   */\n      sstore\n        /* \"#utility.yul\":22885:23107   */\n      pop\n        /* \"#utility.yul\":22220:23107   */\n      jump(tag_463)\n        /* \"#utility.yul\":22250:22868   */\n    tag_464:\n        /* \"#utility.yul\":22302:22306   */\n      0x1f\n        /* \"#utility.yul\":22298:22307   */\n      not\n        /* \"#utility.yul\":22290:22296   */\n      dup5\n        /* \"#utility.yul\":22286:22308   */\n      and\n        /* \"#utility.yul\":22336:22373   */\n      tag_467\n        /* \"#utility.yul\":22368:22372   */\n      dup7\n        /* \"#utility.yul\":22336:22373   */\n      tag_215\n      jump\t// in\n    tag_467:\n        /* \"#utility.yul\":22395:22396   */\n      0x00\n        /* \"#utility.yul\":22409:22617   */\n    tag_468:\n        /* \"#utility.yul\":22423:22430   */\n      dup3\n        /* \"#utility.yul\":22420:22421   */\n      dup2\n        /* \"#utility.yul\":22417:22431   */\n      lt\n        /* \"#utility.yul\":22409:22617   */\n      iszero\n      tag_470\n      jumpi\n        /* \"#utility.yul\":22502:22511   */\n      dup5\n        /* \"#utility.yul\":22497:22500   */\n      dup10\n        /* \"#utility.yul\":22493:22512   */\n      add\n        /* \"#utility.yul\":22487:22513   */\n      mload\n        /* \"#utility.yul\":22479:22485   */\n      dup3\n        /* \"#utility.yul\":22472:22514   */\n      sstore\n        /* \"#utility.yul\":22553:22554   */\n      0x01\n        /* \"#utility.yul\":22545:22551   */\n      dup3\n        /* \"#utility.yul\":22541:22555   */\n      add\n        /* \"#utility.yul\":22531:22555   */\n      swap2\n      pop\n        /* \"#utility.yul\":22600:22602   */\n      0x20\n        /* \"#utility.yul\":22589:22598   */\n      dup6\n        /* \"#utility.yul\":22585:22603   */\n      add\n        /* \"#utility.yul\":22572:22603   */\n      swap5\n      pop\n        /* \"#utility.yul\":22446:22450   */\n      0x20\n        /* \"#utility.yul\":22443:22444   */\n      dup2\n        /* \"#utility.yul\":22439:22451   */\n      add\n        /* \"#utility.yul\":22434:22451   */\n      swap1\n      pop\n        /* \"#utility.yul\":22409:22617   */\n      jump(tag_468)\n    tag_470:\n        /* \"#utility.yul\":22645:22651   */\n      dup7\n        /* \"#utility.yul\":22636:22643   */\n      dup4\n        /* \"#utility.yul\":22633:22652   */\n      lt\n        /* \"#utility.yul\":22630:22809   */\n      iszero\n      tag_471\n      jumpi\n        /* \"#utility.yul\":22703:22712   */\n      dup5\n        /* \"#utility.yul\":22698:22701   */\n      dup10\n        /* \"#utility.yul\":22694:22713   */\n      add\n        /* \"#utility.yul\":22688:22714   */\n      mload\n        /* \"#utility.yul\":22746:22794   */\n      tag_472\n        /* \"#utility.yul\":22788:22792   */\n      0x1f\n        /* \"#utility.yul\":22780:22786   */\n      dup10\n        /* \"#utility.yul\":22776:22793   */\n      and\n        /* \"#utility.yul\":22765:22774   */\n      dup3\n        /* \"#utility.yul\":22746:22794   */\n      tag_228\n      jump\t// in\n    tag_472:\n        /* \"#utility.yul\":22738:22744   */\n      dup4\n        /* \"#utility.yul\":22731:22795   */\n      sstore\n        /* \"#utility.yul\":22653:22809   */\n      pop\n        /* \"#utility.yul\":22630:22809   */\n    tag_471:\n        /* \"#utility.yul\":22855:22856   */\n      0x01\n        /* \"#utility.yul\":22851:22852   */\n      0x02\n        /* \"#utility.yul\":22843:22849   */\n      dup9\n        /* \"#utility.yul\":22839:22853   */\n      mul\n        /* \"#utility.yul\":22835:22857   */\n      add\n        /* \"#utility.yul\":22829:22833   */\n      dup9\n        /* \"#utility.yul\":22822:22858   */\n      sstore\n        /* \"#utility.yul\":22257:22868   */\n      pop\n      pop\n      pop\n        /* \"#utility.yul\":22220:23107   */\n    tag_463:\n      pop\n        /* \"#utility.yul\":21810:23113   */\n      pop\n      pop\n      pop\n        /* \"#utility.yul\":21718:23113   */\n      pop\n      pop\n      jump\t// out\n        /* \"#utility.yul\":23119:23496   */\n    tag_230:\n        /* \"#utility.yul\":23207:23210   */\n      0x00\n        /* \"#utility.yul\":23235:23274   */\n      tag_474\n        /* \"#utility.yul\":23268:23273   */\n      dup3\n        /* \"#utility.yul\":23235:23274   */\n      tag_208\n      jump\t// in\n    tag_474:\n        /* \"#utility.yul\":23290:23361   */\n      tag_475\n        /* \"#utility.yul\":23354:23360   */\n      dup2\n        /* \"#utility.yul\":23349:23352   */\n      dup6\n        /* \"#utility.yul\":23290:23361   */\n      tag_191\n      jump\t// in\n    tag_475:\n        /* \"#utility.yul\":23283:23361   */\n      swap4\n      pop\n        /* \"#utility.yul\":23370:23435   */\n      tag_476\n        /* \"#utility.yul\":23428:23434   */\n      dup2\n        /* \"#utility.yul\":23423:23426   */\n      dup6\n        /* \"#utility.yul\":23416:23420   */\n      0x20\n        /* \"#utility.yul\":23409:23414   */\n      dup7\n        /* \"#utility.yul\":23405:23421   */\n      add\n        /* \"#utility.yul\":23370:23435   */\n      tag_210\n      jump\t// in\n    tag_476:\n        /* \"#utility.yul\":23460:23489   */\n      tag_477\n        /* \"#utility.yul\":23482:23488   */\n      dup2\n        /* \"#utility.yul\":23460:23489   */\n      tag_181\n      jump\t// in\n    tag_477:\n        /* \"#utility.yul\":23455:23458   */\n      dup5\n        /* \"#utility.yul\":23451:23490   */\n      add\n        /* \"#utility.yul\":23444:23490   */\n      swap2\n      pop\n        /* \"#utility.yul\":23211:23496   */\n      pop\n        /* \"#utility.yul\":23119:23496   */\n      swap3\n      swap2\n      pop\n      pop\n      jump\t// out\n        /* \"#utility.yul\":23502:23925   */\n    tag_96:\n        /* \"#utility.yul\":23643:23647   */\n      0x00\n        /* \"#utility.yul\":23681:23683   */\n      0x40\n        /* \"#utility.yul\":23670:23679   */\n      dup3\n        /* \"#utility.yul\":23666:23684   */\n      add\n        /* \"#utility.yul\":23658:23684   */\n      swap1\n      pop\n        /* \"#utility.yul\":23730:23739   */\n      dup2\n        /* \"#utility.yul\":23724:23728   */\n      dup2\n        /* \"#utility.yul\":23720:23740   */\n      sub\n        /* \"#utility.yul\":23716:23717   */\n      0x00\n        /* \"#utility.yul\":23705:23714   */\n      dup4\n        /* \"#utility.yul\":23701:23718   */\n      add\n        /* \"#utility.yul\":23694:23741   */\n      mstore\n        /* \"#utility.yul\":23758:23836   */\n      tag_479\n        /* \"#utility.yul\":23831:23835   */\n      dup2\n        /* \"#utility.yul\":23822:23828   */\n      dup6\n        /* \"#utility.yul\":23758:23836   */\n      tag_230\n      jump\t// in\n    tag_479:\n        /* \"#utility.yul\":23750:23836   */\n      swap1\n      pop\n        /* \"#utility.yul\":23846:23918   */\n      tag_480\n        /* \"#utility.yul\":23914:23916   */\n      0x20\n        /* \"#utility.yul\":23903:23912   */\n      dup4\n        /* \"#utility.yul\":23899:23917   */\n      add\n        /* \"#utility.yul\":23890:23896   */\n      dup5\n        /* \"#utility.yul\":23846:23918   */\n      tag_190\n      jump\t// in\n    tag_480:\n        /* \"#utility.yul\":23502:23925   */\n      swap4\n      swap3\n      pop\n      pop\n      pop\n      jump\t// out\n        /* \"#utility.yul\":23931:24112   */\n    tag_231:\n        /* \"#utility.yul\":24071:24104   */\n      0x4f7267616e697a6174696f6e20616c7265616479207265676973746572656400\n        /* \"#utility.yul\":24067:24068   */\n      0x00\n        /* \"#utility.yul\":24059:24065   */\n      dup3\n        /* \"#utility.yul\":24055:24069   */\n      add\n        /* \"#utility.yul\":24048:24105   */\n      mstore\n        /* \"#utility.yul\":23931:24112   */\n      pop\n      jump\t// out\n        /* \"#utility.yul\":24118:24484   */\n    tag_232:\n        /* \"#utility.yul\":24260:24263   */\n      0x00\n        /* \"#utility.yul\":24281:24348   */\n      tag_483\n        /* \"#utility.yul\":24345:24347   */\n      0x1f\n        /* \"#utility.yul\":24340:24343   */\n      dup4\n        /* \"#utility.yul\":24281:24348   */\n      tag_191\n      jump\t// in\n    tag_483:\n        /* \"#utility.yul\":24274:24348   */\n      swap2\n      pop\n        /* \"#utility.yul\":24357:24450   */\n      tag_484\n        /* \"#utility.yul\":24446:24449   */\n      dup3\n        /* \"#utility.yul\":24357:24450   */\n      tag_231\n      jump\t// in\n    tag_484:\n        /* \"#utility.yul\":24475:24477   */\n      0x20\n        /* \"#utility.yul\":24470:24473   */\n      dup3\n        /* \"#utility.yul\":24466:24478   */\n      add\n        /* \"#utility.yul\":24459:24478   */\n      swap1\n      pop\n        /* \"#utility.yul\":24118:24484   */\n      swap2\n      swap1\n      pop\n      jump\t// out\n        /* \"#utility.yul\":24490:24909   */\n    tag_100:\n        /* \"#utility.yul\":24656:24660   */\n      0x00\n        /* \"#utility.yul\":24694:24696   */\n      0x20\n        /* \"#utility.yul\":24683:24692   */\n      dup3\n        /* \"#utility.yul\":24679:24697   */\n      add\n        /* \"#utility.yul\":24671:24697   */\n      swap1\n      pop\n        /* \"#utility.yul\":24743:24752   */\n      dup2\n        /* \"#utility.yul\":24737:24741   */\n      dup2\n        /* \"#utility.yul\":24733:24753   */\n      sub\n        /* \"#utility.yul\":24729:24730   */\n      0x00\n        /* \"#utility.yul\":24718:24727   */\n      dup4\n        /* \"#utility.yul\":24714:24731   */\n      add\n        /* \"#utility.yul\":24707:24754   */\n      mstore\n        /* \"#utility.yul\":24771:24902   */\n      tag_486\n        /* \"#utility.yul\":24897:24901   */\n      dup2\n        /* \"#utility.yul\":24771:24902   */\n      tag_232\n      jump\t// in\n    tag_486:\n        /* \"#utility.yul\":24763:24902   */\n      swap1\n      pop\n        /* \"#utility.yul\":24490:24909   */\n      swap2\n      swap1\n      pop\n      jump\t// out\n        /* \"#utility.yul\":24915:25086   */\n    tag_233:\n        /* \"#utility.yul\":25055:25078   */\n      0x496e76616c696420746f6b656e20616464726573730000000000000000000000\n        /* \"#utility.yul\":25051:25052   */\n      0x00\n        /* \"#utility.yul\":25043:25049   */\n      dup3\n        /* \"#utility.yul\":25039:25053   */\n      add\n        /* \"#utility.yul\":25032:25079   */\n      mstore\n        /* \"#utility.yul\":24915:25086   */\n      pop\n      jump\t// out\n        /* \"#utility.yul\":25092:25458   */\n    tag_234:\n        /* \"#utility.yul\":25234:25237   */\n      0x00\n        /* \"#utility.yul\":25255:25322   */\n      tag_489\n        /* \"#utility.yul\":25319:25321   */\n      0x15\n        /* \"#utility.yul\":25314:25317   */\n      dup4\n        /* \"#utility.yul\":25255:25322   */\n      tag_191\n      jump\t// in\n    tag_489:\n        /* \"#utility.yul\":25248:25322   */\n      swap2\n      pop\n        /* \"#utility.yul\":25331:25424   */\n      tag_490\n        /* \"#utility.yul\":25420:25423   */\n      dup3\n        /* \"#utility.yul\":25331:25424   */\n      tag_233\n      jump\t// in\n    tag_490:\n        /* \"#utility.yul\":25449:25451   */\n      0x20\n        /* \"#utility.yul\":25444:25447   */\n      dup3\n        /* \"#utility.yul\":25440:25452   */\n      add\n        /* \"#utility.yul\":25433:25452   */\n      swap1\n      pop\n        /* \"#utility.yul\":25092:25458   */\n      swap2\n      swap1\n      pop\n      jump\t// out\n        /* \"#utility.yul\":25464:25883   */\n    tag_103:\n        /* \"#utility.yul\":25630:25634   */\n      0x00\n        /* \"#utility.yul\":25668:25670   */\n      0x20\n        /* \"#utility.yul\":25657:25666   */\n      dup3\n        /* \"#utility.yul\":25653:25671   */\n      add\n        /* \"#utility.yul\":25645:25671   */\n      swap1\n      pop\n        /* \"#utility.yul\":25717:25726   */\n      dup2\n        /* \"#utility.yul\":25711:25715   */\n      dup2\n        /* \"#utility.yul\":25707:25727   */\n      sub\n        /* \"#utility.yul\":25703:25704   */\n      0x00\n        /* \"#utility.yul\":25692:25701   */\n      dup4\n        /* \"#utility.yul\":25688:25705   */\n      add\n        /* \"#utility.yul\":25681:25728   */\n      mstore\n        /* \"#utility.yul\":25745:25876   */\n      tag_492\n        /* \"#utility.yul\":25871:25875   */\n      dup2\n        /* \"#utility.yul\":25745:25876   */\n      tag_234\n      jump\t// in\n    tag_492:\n        /* \"#utility.yul\":25737:25876   */\n      swap1\n      pop\n        /* \"#utility.yul\":25464:25883   */\n      swap2\n      swap1\n      pop\n      jump\t// out\n        /* \"#utility.yul\":25889:26066   */\n    tag_235:\n        /* \"#utility.yul\":26029:26058   */\n      0x4f7267616e697a6174696f6e206e6f7420726567697374657265640000000000\n        /* \"#utility.yul\":26025:26026   */\n      0x00\n        /* \"#utility.yul\":26017:26023   */\n      dup3\n        /* \"#utility.yul\":26013:26027   */\n      add\n        /* \"#utility.yul\":26006:26059   */\n      mstore\n        /* \"#utility.yul\":25889:26066   */\n      pop\n      jump\t// out\n        /* \"#utility.yul\":26072:26438   */\n    tag_236:\n        /* \"#utility.yul\":26214:26217   */\n      0x00\n        /* \"#utility.yul\":26235:26302   */\n      tag_495\n        /* \"#utility.yul\":26299:26301   */\n      0x1b\n        /* \"#utility.yul\":26294:26297   */\n      dup4\n        /* \"#utility.yul\":26235:26302   */\n      tag_191\n      jump\t// in\n    tag_495:\n        /* \"#utility.yul\":26228:26302   */\n      swap2\n      pop\n        /* \"#utility.yul\":26311:26404   */\n      tag_496\n        /* \"#utility.yul\":26400:26403   */\n      dup3\n        /* \"#utility.yul\":26311:26404   */\n      tag_235\n      jump\t// in\n    tag_496:\n        /* \"#utility.yul\":26429:26431   */\n      0x20\n        /* \"#utility.yul\":26424:26427   */\n      dup3\n        /* \"#utility.yul\":26420:26432   */\n      add\n        /* \"#utility.yul\":26413:26432   */\n      swap1\n      pop\n        /* \"#utility.yul\":26072:26438   */\n      swap2\n      swap1\n      pop\n      jump\t// out\n        /* \"#utility.yul\":26444:26863   */\n    tag_107:\n        /* \"#utility.yul\":26610:26614   */\n      0x00\n        /* \"#utility.yul\":26648:26650   */\n      0x20\n        /* \"#utility.yul\":26637:26646   */\n      dup3\n        /* \"#utility.yul\":26633:26651   */\n      add\n        /* \"#utility.yul\":26625:26651   */\n      swap1\n      pop\n        /* \"#utility.yul\":26697:26706   */\n      dup2\n        /* \"#utility.yul\":26691:26695   */\n      dup2\n        /* \"#utility.yul\":26687:26707   */\n      sub\n        /* \"#utility.yul\":26683:26684   */\n      0x00\n        /* \"#utility.yul\":26672:26681   */\n      dup4\n        /* \"#utility.yul\":26668:26685   */\n      add\n        /* \"#utility.yul\":26661:26708   */\n      mstore\n        /* \"#utility.yul\":26725:26856   */\n      tag_498\n        /* \"#utility.yul\":26851:26855   */\n      dup2\n        /* \"#utility.yul\":26725:26856   */\n      tag_236\n      jump\t// in\n    tag_498:\n        /* \"#utility.yul\":26717:26856   */\n      swap1\n      pop\n        /* \"#utility.yul\":26444:26863   */\n      swap2\n      swap1\n      pop\n      jump\t// out\n        /* \"#utility.yul\":26869:27097   */\n    tag_237:\n        /* \"#utility.yul\":27009:27043   */\n      0x4e6f2076657374696e67207363686564756c6520666f756e6420666f72206265\n        /* \"#utility.yul\":27005:27006   */\n      0x00\n        /* \"#utility.yul\":26997:27003   */\n      dup3\n        /* \"#utility.yul\":26993:27007   */\n      add\n        /* \"#utility.yul\":26986:27044   */\n      mstore\n        /* \"#utility.yul\":27078:27089   */\n      0x6e65666963696172790000000000000000000000000000000000000000000000\n        /* \"#utility.yul\":27073:27075   */\n      0x20\n        /* \"#utility.yul\":27065:27071   */\n      dup3\n        /* \"#utility.yul\":27061:27076   */\n      add\n        /* \"#utility.yul\":27054:27090   */\n      mstore\n        /* \"#utility.yul\":26869:27097   */\n      pop\n      jump\t// out\n        /* \"#utility.yul\":27103:27469   */\n    tag_238:\n        /* \"#utility.yul\":27245:27248   */\n      0x00\n        /* \"#utility.yul\":27266:27333   */\n      tag_501\n        /* \"#utility.yul\":27330:27332   */\n      0x29\n        /* \"#utility.yul\":27325:27328   */\n      dup4\n        /* \"#utility.yul\":27266:27333   */\n      tag_191\n      jump\t// in\n    tag_501:\n        /* \"#utility.yul\":27259:27333   */\n      swap2\n      pop\n        /* \"#utility.yul\":27342:27435   */\n      tag_502\n        /* \"#utility.yul\":27431:27434   */\n      dup3\n        /* \"#utility.yul\":27342:27435   */\n      tag_237\n      jump\t// in\n    tag_502:\n        /* \"#utility.yul\":27460:27462   */\n      0x40\n        /* \"#utility.yul\":27455:27458   */\n      dup3\n        /* \"#utility.yul\":27451:27463   */\n      add\n        /* \"#utility.yul\":27444:27463   */\n      swap1\n      pop\n        /* \"#utility.yul\":27103:27469   */\n      swap2\n      swap1\n      pop\n      jump\t// out\n        /* \"#utility.yul\":27475:27894   */\n    tag_110:\n        /* \"#utility.yul\":27641:27645   */\n      0x00\n        /* \"#utility.yul\":27679:27681   */\n      0x20\n        /* \"#utility.yul\":27668:27677   */\n      dup3\n        /* \"#utility.yul\":27664:27682   */\n      add\n        /* \"#utility.yul\":27656:27682   */\n      swap1\n      pop\n        /* \"#utility.yul\":27728:27737   */\n      dup2\n        /* \"#utility.yul\":27722:27726   */\n      dup2\n        /* \"#utility.yul\":27718:27738   */\n      sub\n        /* \"#utility.yul\":27714:27715   */\n      0x00\n        /* \"#utility.yul\":27703:27712   */\n      dup4\n        /* \"#utility.yul\":27699:27716   */\n      add\n        /* \"#utility.yul\":27692:27739   */\n      mstore\n        /* \"#utility.yul\":27756:27887   */\n      tag_504\n        /* \"#utility.yul\":27882:27886   */\n      dup2\n        /* \"#utility.yul\":27756:27887   */\n      tag_238\n      jump\t// in\n    tag_504:\n        /* \"#utility.yul\":27748:27887   */\n      swap1\n      pop\n        /* \"#utility.yul\":27475:27894   */\n      swap2\n      swap1\n      pop\n      jump\t// out\n        /* \"#utility.yul\":27900:28078   */\n    tag_239:\n        /* \"#utility.yul\":28040:28070   */\n      0x4e6f20746f6b656e7320617661696c61626c6520746f20636c61696d00000000\n        /* \"#utility.yul\":28036:28037   */\n      0x00\n        /* \"#utility.yul\":28028:28034   */\n      dup3\n        /* \"#utility.yul\":28024:28038   */\n      add\n        /* \"#utility.yul\":28017:28071   */\n      mstore\n        /* \"#utility.yul\":27900:28078   */\n      pop\n      jump\t// out\n        /* \"#utility.yul\":28084:28450   */\n    tag_240:\n        /* \"#utility.yul\":28226:28229   */\n      0x00\n        /* \"#utility.yul\":28247:28314   */\n      tag_507\n        /* \"#utility.yul\":28311:28313   */\n      0x1c\n        /* \"#utility.yul\":28306:28309   */\n      dup4\n        /* \"#utility.yul\":28247:28314   */\n      tag_191\n      jump\t// in\n    tag_507:\n        /* \"#utility.yul\":28240:28314   */\n      swap2\n      pop\n        /* \"#utility.yul\":28323:28416   */\n      tag_508\n        /* \"#utility.yul\":28412:28415   */\n      dup3\n        /* \"#utility.yul\":28323:28416   */\n      tag_239\n      jump\t// in\n    tag_508:\n        /* \"#utility.yul\":28441:28443   */\n      0x20\n        /* \"#utility.yul\":28436:28439   */\n      dup3\n        /* \"#utility.yul\":28432:28444   */\n      add\n        /* \"#utility.yul\":28425:28444   */\n      swap1\n      pop\n        /* \"#utility.yul\":28084:28450   */\n      swap2\n      swap1\n      pop\n      jump\t// out\n        /* \"#utility.yul\":28456:28875   */\n    tag_123:\n        /* \"#utility.yul\":28622:28626   */\n      0x00\n        /* \"#utility.yul\":28660:28662   */\n      0x20\n        /* \"#utility.yul\":28649:28658   */\n      dup3\n        /* \"#utility.yul\":28645:28663   */\n      add\n        /* \"#utility.yul\":28637:28663   */\n      swap1\n      pop\n        /* \"#utility.yul\":28709:28718   */\n      dup2\n        /* \"#utility.yul\":28703:28707   */\n      dup2\n        /* \"#utility.yul\":28699:28719   */\n      sub\n        /* \"#utility.yul\":28695:28696   */\n      0x00\n        /* \"#utility.yul\":28684:28693   */\n      dup4\n        /* \"#utility.yul\":28680:28697   */\n      add\n        /* \"#utility.yul\":28673:28720   */\n      mstore\n        /* \"#utility.yul\":28737:28868   */\n      tag_510\n        /* \"#utility.yul\":28863:28867   */\n      dup2\n        /* \"#utility.yul\":28737:28868   */\n      tag_240\n      jump\t// in\n    tag_510:\n        /* \"#utility.yul\":28729:28868   */\n      swap1\n      pop\n        /* \"#utility.yul\":28456:28875   */\n      swap2\n      swap1\n      pop\n      jump\t// out\n        /* \"#utility.yul\":28881:29213   */\n    tag_127:\n        /* \"#utility.yul\":29002:29006   */\n      0x00\n        /* \"#utility.yul\":29040:29042   */\n      0x40\n        /* \"#utility.yul\":29029:29038   */\n      dup3\n        /* \"#utility.yul\":29025:29043   */\n      add\n        /* \"#utility.yul\":29017:29043   */\n      swap1\n      pop\n        /* \"#utility.yul\":29053:29124   */\n      tag_512\n        /* \"#utility.yul\":29121:29122   */\n      0x00\n        /* \"#utility.yul\":29110:29119   */\n      dup4\n        /* \"#utility.yul\":29106:29123   */\n      add\n        /* \"#utility.yul\":29097:29103   */\n      dup6\n        /* \"#utility.yul\":29053:29124   */\n      tag_176\n      jump\t// in\n    tag_512:\n        /* \"#utility.yul\":29134:29206   */\n      tag_513\n        /* \"#utility.yul\":29202:29204   */\n      0x20\n        /* \"#utility.yul\":29191:29200   */\n      dup4\n        /* \"#utility.yul\":29187:29205   */\n      add\n        /* \"#utility.yul\":29178:29184   */\n      dup5\n        /* \"#utility.yul\":29134:29206   */\n      tag_190\n      jump\t// in\n    tag_513:\n        /* \"#utility.yul\":28881:29213   */\n      swap4\n      swap3\n      pop\n      pop\n      pop\n      jump\t// out\n        /* \"#utility.yul\":29219:29441   */\n    tag_132:\n        /* \"#utility.yul\":29312:29316   */\n      0x00\n        /* \"#utility.yul\":29350:29352   */\n      0x20\n        /* \"#utility.yul\":29339:29348   */\n      dup3\n        /* \"#utility.yul\":29335:29353   */\n      add\n        /* \"#utility.yul\":29327:29353   */\n      swap1\n      pop\n        /* \"#utility.yul\":29363:29434   */\n      tag_515\n        /* \"#utility.yul\":29431:29432   */\n      0x00\n        /* \"#utility.yul\":29420:29429   */\n      dup4\n        /* \"#utility.yul\":29416:29433   */\n      add\n        /* \"#utility.yul\":29407:29413   */\n      dup5\n        /* \"#utility.yul\":29363:29434   */\n      tag_190\n      jump\t// in\n    tag_515:\n        /* \"#utility.yul\":29219:29441   */\n      swap3\n      swap2\n      pop\n      pop\n      jump\t// out\n        /* \"#utility.yul\":29447:29620   */\n    tag_241:\n        /* \"#utility.yul\":29587:29612   */\n      0x43616c6c6572206973206e6f7420746865206f776e6572000000000000000000\n        /* \"#utility.yul\":29583:29584   */\n      0x00\n        /* \"#utility.yul\":29575:29581   */\n      dup3\n        /* \"#utility.yul\":29571:29585   */\n      add\n        /* \"#utility.yul\":29564:29613   */\n      mstore\n        /* \"#utility.yul\":29447:29620   */\n      pop\n      jump\t// out\n        /* \"#utility.yul\":29626:29992   */\n    tag_242:\n        /* \"#utility.yul\":29768:29771   */\n      0x00\n        /* \"#utility.yul\":29789:29856   */\n      tag_518\n        /* \"#utility.yul\":29853:29855   */\n      0x17\n        /* \"#utility.yul\":29848:29851   */\n      dup4\n        /* \"#utility.yul\":29789:29856   */\n      tag_191\n      jump\t// in\n    tag_518:\n        /* \"#utility.yul\":29782:29856   */\n      swap2\n      pop\n        /* \"#utility.yul\":29865:29958   */\n      tag_519\n        /* \"#utility.yul\":29954:29957   */\n      dup3\n        /* \"#utility.yul\":29865:29958   */\n      tag_241\n      jump\t// in\n    tag_519:\n        /* \"#utility.yul\":29983:29985   */\n      0x20\n        /* \"#utility.yul\":29978:29981   */\n      dup3\n        /* \"#utility.yul\":29974:29986   */\n      add\n        /* \"#utility.yul\":29967:29986   */\n      swap1\n      pop\n        /* \"#utility.yul\":29626:29992   */\n      swap2\n      swap1\n      pop\n      jump\t// out\n        /* \"#utility.yul\":29998:30417   */\n    tag_136:\n        /* \"#utility.yul\":30164:30168   */\n      0x00\n        /* \"#utility.yul\":30202:30204   */\n      0x20\n        /* \"#utility.yul\":30191:30200   */\n      dup3\n        /* \"#utility.yul\":30187:30205   */\n      add\n        /* \"#utility.yul\":30179:30205   */\n      swap1\n      pop\n        /* \"#utility.yul\":30251:30260   */\n      dup2\n        /* \"#utility.yul\":30245:30249   */\n      dup2\n        /* \"#utility.yul\":30241:30261   */\n      sub\n        /* \"#utility.yul\":30237:30238   */\n      0x00\n        /* \"#utility.yul\":30226:30235   */\n      dup4\n        /* \"#utility.yul\":30222:30239   */\n      add\n        /* \"#utility.yul\":30215:30262   */\n      mstore\n        /* \"#utility.yul\":30279:30410   */\n      tag_521\n        /* \"#utility.yul\":30405:30409   */\n      dup2\n        /* \"#utility.yul\":30279:30410   */\n      tag_242\n      jump\t// in\n    tag_521:\n        /* \"#utility.yul\":30271:30410   */\n      swap1\n      pop\n        /* \"#utility.yul\":29998:30417   */\n      swap2\n      swap1\n      pop\n      jump\t// out\n        /* \"#utility.yul\":30423:30602   */\n    tag_243:\n        /* \"#utility.yul\":30563:30594   */\n      0x4e6577206f776e657220697320746865207a65726f2061646472657373000000\n        /* \"#utility.yul\":30559:30560   */\n      0x00\n        /* \"#utility.yul\":30551:30557   */\n      dup3\n        /* \"#utility.yul\":30547:30561   */\n      add\n        /* \"#utility.yul\":30540:30595   */\n      mstore\n        /* \"#utility.yul\":30423:30602   */\n      pop\n      jump\t// out\n        /* \"#utility.yul\":30608:30974   */\n    tag_244:\n        /* \"#utility.yul\":30750:30753   */\n      0x00\n        /* \"#utility.yul\":30771:30838   */\n      tag_524\n        /* \"#utility.yul\":30835:30837   */\n      0x1d\n        /* \"#utility.yul\":30830:30833   */\n      dup4\n        /* \"#utility.yul\":30771:30838   */\n      tag_191\n      jump\t// in\n    tag_524:\n        /* \"#utility.yul\":30764:30838   */\n      swap2\n      pop\n        /* \"#utility.yul\":30847:30940   */\n      tag_525\n        /* \"#utility.yul\":30936:30939   */\n      dup3\n        /* \"#utility.yul\":30847:30940   */\n      tag_243\n      jump\t// in\n    tag_525:\n        /* \"#utility.yul\":30965:30967   */\n      0x20\n        /* \"#utility.yul\":30960:30963   */\n      dup3\n        /* \"#utility.yul\":30956:30968   */\n      add\n        /* \"#utility.yul\":30949:30968   */\n      swap1\n      pop\n        /* \"#utility.yul\":30608:30974   */\n      swap2\n      swap1\n      pop\n      jump\t// out\n        /* \"#utility.yul\":30980:31399   */\n    tag_140:\n        /* \"#utility.yul\":31146:31150   */\n      0x00\n        /* \"#utility.yul\":31184:31186   */\n      0x20\n        /* \"#utility.yul\":31173:31182   */\n      dup3\n        /* \"#utility.yul\":31169:31187   */\n      add\n        /* \"#utility.yul\":31161:31187   */\n      swap1\n      pop\n        /* \"#utility.yul\":31233:31242   */\n      dup2\n        /* \"#utility.yul\":31227:31231   */\n      dup2\n        /* \"#utility.yul\":31223:31243   */\n      sub\n        /* \"#utility.yul\":31219:31220   */\n      0x00\n        /* \"#utility.yul\":31208:31217   */\n      dup4\n        /* \"#utility.yul\":31204:31221   */\n      add\n        /* \"#utility.yul\":31197:31244   */\n      mstore\n        /* \"#utility.yul\":31261:31392   */\n      tag_527\n        /* \"#utility.yul\":31387:31391   */\n      dup2\n        /* \"#utility.yul\":31261:31392   */\n      tag_244\n      jump\t// in\n    tag_527:\n        /* \"#utility.yul\":31253:31392   */\n      swap1\n      pop\n        /* \"#utility.yul\":30980:31399   */\n      swap2\n      swap1\n      pop\n      jump\t// out\n        /* \"#utility.yul\":31405:31585   */\n    tag_245:\n        /* \"#utility.yul\":31453:31530   */\n      0x4e487b7100000000000000000000000000000000000000000000000000000000\n        /* \"#utility.yul\":31450:31451   */\n      0x00\n        /* \"#utility.yul\":31443:31531   */\n      mstore\n        /* \"#utility.yul\":31550:31554   */\n      0x11\n        /* \"#utility.yul\":31547:31548   */\n      0x04\n        /* \"#utility.yul\":31540:31555   */\n      mstore\n        /* \"#utility.yul\":31574:31578   */\n      0x24\n        /* \"#utility.yul\":31571:31572   */\n      0x00\n        /* \"#utility.yul\":31564:31579   */\n      revert\n        /* \"#utility.yul\":31591:31785   */\n    tag_153:\n        /* \"#utility.yul\":31631:31635   */\n      0x00\n        /* \"#utility.yul\":31651:31671   */\n      tag_530\n        /* \"#utility.yul\":31669:31670   */\n      dup3\n        /* \"#utility.yul\":31651:31671   */\n      tag_173\n      jump\t// in\n    tag_530:\n        /* \"#utility.yul\":31646:31671   */\n      swap2\n      pop\n        /* \"#utility.yul\":31685:31705   */\n      tag_531\n        /* \"#utility.yul\":31703:31704   */\n      dup4\n        /* \"#utility.yul\":31685:31705   */\n      tag_173\n      jump\t// in\n    tag_531:\n        /* \"#utility.yul\":31680:31705   */\n      swap3\n      pop\n        /* \"#utility.yul\":31729:31730   */\n      dup3\n        /* \"#utility.yul\":31726:31727   */\n      dup3\n        /* \"#utility.yul\":31722:31731   */\n      sub\n        /* \"#utility.yul\":31714:31731   */\n      swap1\n      pop\n        /* \"#utility.yul\":31753:31754   */\n      dup2\n        /* \"#utility.yul\":31747:31751   */\n      dup2\n        /* \"#utility.yul\":31744:31755   */\n      gt\n        /* \"#utility.yul\":31741:31778   */\n      iszero\n      tag_532\n      jumpi\n        /* \"#utility.yul\":31758:31776   */\n      tag_533\n      tag_245\n      jump\t// in\n    tag_533:\n        /* \"#utility.yul\":31741:31778   */\n    tag_532:\n        /* \"#utility.yul\":31591:31785   */\n      swap3\n      swap2\n      pop\n      pop\n      jump\t// out\n        /* \"#utility.yul\":31791:31982   */\n    tag_156:\n        /* \"#utility.yul\":31831:31834   */\n      0x00\n        /* \"#utility.yul\":31850:31870   */\n      tag_535\n        /* \"#utility.yul\":31868:31869   */\n      dup3\n        /* \"#utility.yul\":31850:31870   */\n      tag_173\n      jump\t// in\n    tag_535:\n        /* \"#utility.yul\":31845:31870   */\n      swap2\n      pop\n        /* \"#utility.yul\":31884:31904   */\n      tag_536\n        /* \"#utility.yul\":31902:31903   */\n      dup4\n        /* \"#utility.yul\":31884:31904   */\n      tag_173\n      jump\t// in\n    tag_536:\n        /* \"#utility.yul\":31879:31904   */\n      swap3\n      pop\n        /* \"#utility.yul\":31927:31928   */\n      dup3\n        /* \"#utility.yul\":31924:31925   */\n      dup3\n        /* \"#utility.yul\":31920:31929   */\n      add\n        /* \"#utility.yul\":31913:31929   */\n      swap1\n      pop\n        /* \"#utility.yul\":31948:31951   */\n      dup1\n        /* \"#utility.yul\":31945:31946   */\n      dup3\n        /* \"#utility.yul\":31942:31952   */\n      gt\n        /* \"#utility.yul\":31939:31975   */\n      iszero\n      tag_537\n      jumpi\n        /* \"#utility.yul\":31955:31973   */\n      tag_538\n      tag_245\n      jump\t// in\n    tag_538:\n        /* \"#utility.yul\":31939:31975   */\n    tag_537:\n        /* \"#utility.yul\":31791:31982   */\n      swap3\n      swap2\n      pop\n      pop\n      jump\t// out\n        /* \"#utility.yul\":31988:32398   */\n    tag_159:\n        /* \"#utility.yul\":32028:32035   */\n      0x00\n        /* \"#utility.yul\":32051:32071   */\n      tag_540\n        /* \"#utility.yul\":32069:32070   */\n      dup3\n        /* \"#utility.yul\":32051:32071   */\n      tag_173\n      jump\t// in\n    tag_540:\n        /* \"#utility.yul\":32046:32071   */\n      swap2\n      pop\n        /* \"#utility.yul\":32085:32105   */\n      tag_541\n        /* \"#utility.yul\":32103:32104   */\n      dup4\n        /* \"#utility.yul\":32085:32105   */\n      tag_173\n      jump\t// in\n    tag_541:\n        /* \"#utility.yul\":32080:32105   */\n      swap3\n      pop\n        /* \"#utility.yul\":32140:32141   */\n      dup3\n        /* \"#utility.yul\":32137:32138   */\n      dup3\n        /* \"#utility.yul\":32133:32142   */\n      mul\n        /* \"#utility.yul\":32162:32192   */\n      tag_542\n        /* \"#utility.yul\":32180:32191   */\n      dup2\n        /* \"#utility.yul\":32162:32192   */\n      tag_173\n      jump\t// in\n    tag_542:\n        /* \"#utility.yul\":32151:32192   */\n      swap2\n      pop\n        /* \"#utility.yul\":32341:32342   */\n      dup3\n        /* \"#utility.yul\":32332:32339   */\n      dup3\n        /* \"#utility.yul\":32328:32343   */\n      div\n        /* \"#utility.yul\":32325:32326   */\n      dup5\n        /* \"#utility.yul\":32322:32344   */\n      eq\n        /* \"#utility.yul\":32302:32303   */\n      dup4\n        /* \"#utility.yul\":32295:32304   */\n      iszero\n        /* \"#utility.yul\":32275:32358   */\n      or\n        /* \"#utility.yul\":32252:32391   */\n      tag_543\n      jumpi\n        /* \"#utility.yul\":32371:32389   */\n      tag_544\n      tag_245\n      jump\t// in\n    tag_544:\n        /* \"#utility.yul\":32252:32391   */\n    tag_543:\n        /* \"#utility.yul\":32036:32398   */\n      pop\n        /* \"#utility.yul\":31988:32398   */\n      swap3\n      swap2\n      pop\n      pop\n      jump\t// out\n        /* \"#utility.yul\":32404:32584   */\n    tag_246:\n        /* \"#utility.yul\":32452:32529   */\n      0x4e487b7100000000000000000000000000000000000000000000000000000000\n        /* \"#utility.yul\":32449:32450   */\n      0x00\n        /* \"#utility.yul\":32442:32530   */\n      mstore\n        /* \"#utility.yul\":32549:32553   */\n      0x12\n        /* \"#utility.yul\":32546:32547   */\n      0x04\n        /* \"#utility.yul\":32539:32554   */\n      mstore\n        /* \"#utility.yul\":32573:32577   */\n      0x24\n        /* \"#utility.yul\":32570:32571   */\n      0x00\n        /* \"#utility.yul\":32563:32578   */\n      revert\n        /* \"#utility.yul\":32590:32775   */\n    tag_162:\n        /* \"#utility.yul\":32630:32631   */\n      0x00\n        /* \"#utility.yul\":32647:32667   */\n      tag_547\n        /* \"#utility.yul\":32665:32666   */\n      dup3\n        /* \"#utility.yul\":32647:32667   */\n      tag_173\n      jump\t// in\n    tag_547:\n        /* \"#utility.yul\":32642:32667   */\n      swap2\n      pop\n        /* \"#utility.yul\":32681:32701   */\n      tag_548\n        /* \"#utility.yul\":32699:32700   */\n      dup4\n        /* \"#utility.yul\":32681:32701   */\n      tag_173\n      jump\t// in\n    tag_548:\n        /* \"#utility.yul\":32676:32701   */\n      swap3\n      pop\n        /* \"#utility.yul\":32720:32721   */\n      dup3\n        /* \"#utility.yul\":32710:32745   */\n      tag_549\n      jumpi\n        /* \"#utility.yul\":32725:32743   */\n      tag_550\n      tag_246\n      jump\t// in\n    tag_550:\n        /* \"#utility.yul\":32710:32745   */\n    tag_549:\n        /* \"#utility.yul\":32767:32768   */\n      dup3\n        /* \"#utility.yul\":32764:32765   */\n      dup3\n        /* \"#utility.yul\":32760:32769   */\n      div\n        /* \"#utility.yul\":32755:32769   */\n      swap1\n      pop\n        /* \"#utility.yul\":32590:32775   */\n      swap3\n      swap2\n      pop\n      pop\n      jump\t// out\n\n    auxdata: 0xa264697066735822122054adb5f212a60da3b038b1a52217ee98725531b06ffee7ed64da226fa0a5f9bb64736f6c63430008140033\n}\n",
				"bytecode": {
					"linkReferences": {},
					"object": "608060405234801561000f575f80fd5b50335f806101000a81548173ffffffffffffffffffffffffffffffffffffffff021916908373ffffffffffffffffffffffffffffffffffffffff1602179055506124db8061005c5f395ff3fe608060405234801561000f575f80fd5b5060043610610091575f3560e01c80638ddb44a8116100645780638ddb44a81461011c57806390be003c14610138578063df8de3e714610154578063f2fde38b14610170578063ffc7b0951461018c57610091565b8063253a45f7146100955780635a1f7406146100b157806370480275146100e25780638da5cb5b146100fe575b5f80fd5b6100af60048036038101906100aa919061151f565b6101bf565b005b6100cb60048036038101906100c6919061156f565b610669565b6040516100d99291906115c3565b60405180910390f35b6100fc60048036038101906100f7919061156f565b6106b4565b005b6101066108da565b60405161011391906115ea565b60405180910390f35b6101366004803603810190610131919061173f565b6108fd565b005b610152600480360381019061014d919061156f565b610b5f565b005b61016e6004803603810190610169919061156f565b610e06565b005b61018a6004803603810190610185919061156f565b6111a4565b005b6101a660048036038101906101a19190611799565b6112e1565b6040516101b694939291906117f5565b60405180910390f35b3360015f8273ffffffffffffffffffffffffffffffffffffffff1673ffffffffffffffffffffffffffffffffffffffff1681526020019081526020015f206001015f3373ffffffffffffffffffffffffffffffffffffffff1673ffffffffffffffffffffffffffffffffffffffff1681526020019081526020015f205f9054906101000a900460ff16610287576040517f08c379a000000000000000000000000000000000000000000000000000000000815260040161027e906118b8565b60405180910390fd5b5f73ffffffffffffffffffffffffffffffffffffffff168473ffffffffffffffffffffffffffffffffffffffff16036102f5576040517f08c379a00000000000000000000000000000000000000000000000000000000081526004016102ec90611920565b60405180910390fd5b5f60015f3373ffffffffffffffffffffffffffffffffffffffff1673ffffffffffffffffffffffffffffffffffffffff1681526020019081526020015f206002015f8581526020019081526020015f206001015411610389576040517f08c379a000000000000000000000000000000000000000000000000000000000815260040161038090611988565b60405180910390fd5b5f82116103cb576040517f08c379a00000000000000000000000000000000000000000000000000000000081526004016103c2906119f0565b60405180910390fd5b5f60015f3373ffffffffffffffffffffffffffffffffffffffff1673ffffffffffffffffffffffffffffffffffffffff1681526020019081526020015f2090505f816003015f8773ffffffffffffffffffffffffffffffffffffffff1673ffffffffffffffffffffffffffffffffffffffff1681526020019081526020015f20600101541461048f576040517f08c379a000000000000000000000000000000000000000000000000000000000815260040161048690611a7e565b60405180910390fd5b5f815f015f9054906101000a900473ffffffffffffffffffffffffffffffffffffffff1690508073ffffffffffffffffffffffffffffffffffffffff166323b872dd3330876040518463ffffffff1660e01b81526004016104f293929190611a9c565b6020604051808303815f875af115801561050e573d5f803e3d5ffd5b505050506040513d601f19601f820116820180604052508101906105329190611afb565b610571576040517f08c379a000000000000000000000000000000000000000000000000000000000815260040161056890611b70565b60405180910390fd5b60405180608001604052808681526020018581526020014281526020015f815250826003015f8873ffffffffffffffffffffffffffffffffffffffff1673ffffffffffffffffffffffffffffffffffffffff1681526020019081526020015f205f820151815f01556020820151816001015560408201518160020155606082015181600301559050508573ffffffffffffffffffffffffffffffffffffffff163373ffffffffffffffffffffffffffffffffffffffff167ff00d5a3e0408d34d2b3b0ee24c891fc3a82e6568f4f136256b72527802ba6b968787604051610659929190611b8e565b60405180910390a3505050505050565b6001602052805f5260405f205f91509050805f015f9054906101000a900473ffffffffffffffffffffffffffffffffffffffff1690805f0160149054906101000a900460ff16905082565b3360015f8273ffffffffffffffffffffffffffffffffffffffff1673ffffffffffffffffffffffffffffffffffffffff1681526020019081526020015f206001015f3373ffffffffffffffffffffffffffffffffffffffff1673ffffffffffffffffffffffffffffffffffffffff1681526020019081526020015f205f9054906101000a900460ff1661077c576040517f08c379a0000000000000000000000000000000000000000000000000000000008152600401610773906118b8565b60405180910390fd5b5f73ffffffffffffffffffffffffffffffffffffffff168273ffffffffffffffffffffffffffffffffffffffff16036107ea576040517f08c379a00000000000000000000000000000000000000000000000000000000081526004016107e190611bff565b60405180910390fd5b6001805f3373ffffffffffffffffffffffffffffffffffffffff1673ffffffffffffffffffffffffffffffffffffffff1681526020019081526020015f206001015f8473ffffffffffffffffffffffffffffffffffffffff1673ffffffffffffffffffffffffffffffffffffffff1681526020019081526020015f205f6101000a81548160ff0219169083151502179055508173ffffffffffffffffffffffffffffffffffffffff163373ffffffffffffffffffffffffffffffffffffffff167fbf3f493c772c8c283fd124432c2d0f539ab343faa04258fe88e52912d36b102b60405160405180910390a35050565b5f8054906101000a900473ffffffffffffffffffffffffffffffffffffffff1681565b3360015f8273ffffffffffffffffffffffffffffffffffffffff1673ffffffffffffffffffffffffffffffffffffffff1681526020019081526020015f206001015f3373ffffffffffffffffffffffffffffffffffffffff1673ffffffffffffffffffffffffffffffffffffffff1681526020019081526020015f205f9054906101000a900460ff166109c5576040517f08c379a00000000000000000000000000000000000000000000000000000000081526004016109bc906118b8565b60405180910390fd5b5f836040516020016109d79190611c89565b6040516020818303038152906040528051906020012090505f60015f3373ffffffffffffffffffffffffffffffffffffffff1673ffffffffffffffffffffffffffffffffffffffff1681526020019081526020015f206002015f8381526020019081526020015f206001015414610a83576040517f08c379a0000000000000000000000000000000000000000000000000000000008152600401610a7a90611ce9565b60405180910390fd5b60405180604001604052808581526020018481525060015f3373ffffffffffffffffffffffffffffffffffffffff1673ffffffffffffffffffffffffffffffffffffffff1681526020019081526020015f206002015f8381526020019081526020015f205f820151815f019081610afa9190611f01565b5060208201518160010155905050803373ffffffffffffffffffffffffffffffffffffffff167f363005321f09105a5c4496a963b03a8be1278be47ed2cba71837c87fc8b86f858686604051610b51929190612008565b60405180910390a350505050565b60015f3373ffffffffffffffffffffffffffffffffffffffff1673ffffffffffffffffffffffffffffffffffffffff1681526020019081526020015f205f0160149054906101000a900460ff1615610bec576040517f08c379a0000000000000000000000000000000000000000000000000000000008152600401610be390612080565b60405180910390fd5b5f73ffffffffffffffffffffffffffffffffffffffff168173ffffffffffffffffffffffffffffffffffffffff1603610c5a576040517f08c379a0000000000000000000000000000000000000000000000000000000008152600401610c51906120e8565b60405180910390fd5b5f60015f3373ffffffffffffffffffffffffffffffffffffffff1673ffffffffffffffffffffffffffffffffffffffff1681526020019081526020015f20905081815f015f6101000a81548173ffffffffffffffffffffffffffffffffffffffff021916908373ffffffffffffffffffffffffffffffffffffffff1602179055506001815f0160146101000a81548160ff0219169083151502179055506001816001015f3373ffffffffffffffffffffffffffffffffffffffff1673ffffffffffffffffffffffffffffffffffffffff1681526020019081526020015f205f6101000a81548160ff0219169083151502179055508173ffffffffffffffffffffffffffffffffffffffff163373ffffffffffffffffffffffffffffffffffffffff167f9f51233d33c6517e4ea55596370510cf6f316777b475e532b8fbe6d3e6b1afaa60405160405180910390a33373ffffffffffffffffffffffffffffffffffffffff163373ffffffffffffffffffffffffffffffffffffffff167fbf3f493c772c8c283fd124432c2d0f539ab343faa04258fe88e52912d36b102b60405160405180910390a35050565b5f60015f8373ffffffffffffffffffffffffffffffffffffffff1673ffffffffffffffffffffffffffffffffffffffff1681526020019081526020015f209050805f0160149054906101000a900460ff16610e96576040517f08c379a0000000000000000000000000000000000000000000000000000000008152600401610e8d90612150565b60405180910390fd5b5f816003015f3373ffffffffffffffffffffffffffffffffffffffff1673ffffffffffffffffffffffffffffffffffffffff1681526020019081526020015f2090505f816001015411610f1e576040517f08c379a0000000000000000000000000000000000000000000000000000000008152600401610f15906121de565b60405180910390fd5b5f826002015f835f015481526020019081526020015f206040518060400160405290815f82018054610f4f90611d34565b80601f0160208091040260200160405190810160405280929190818152602001828054610f7b90611d34565b8015610fc65780601f10610f9d57610100808354040283529160200191610fc6565b820191905f5260205f20905b815481529060010190602001808311610fa957829003601f168201915b5050505050815260200160018201548152505090505f61101c836040518060800160405290815f820154815260200160018201548152602001600282015481526020016003820154815250508360200151611388565b90505f6110368460030154836113fa90919063ffffffff16565b90505f811161107a576040517f08c379a000000000000000000000000000000000000000000000000000000000815260040161107190612246565b60405180910390fd5b61109181856003015461140f90919063ffffffff16565b8460030181905550845f015f9054906101000a900473ffffffffffffffffffffffffffffffffffffffff1673ffffffffffffffffffffffffffffffffffffffff1663a9059cbb33836040518363ffffffff1660e01b81526004016110f6929190612264565b6020604051808303815f875af1158015611112573d5f803e3d5ffd5b505050506040513d601f19601f820116820180604052508101906111369190611afb565b503373ffffffffffffffffffffffffffffffffffffffff168673ffffffffffffffffffffffffffffffffffffffff167fa86305abc2db271df4609aa86a8d044bc11fb36939841bfdad6c1ab2b26e947183604051611194919061228b565b60405180910390a3505050505050565b5f8054906101000a900473ffffffffffffffffffffffffffffffffffffffff1673ffffffffffffffffffffffffffffffffffffffff163373ffffffffffffffffffffffffffffffffffffffff1614611231576040517f08c379a0000000000000000000000000000000000000000000000000000000008152600401611228906122ee565b60405180910390fd5b5f73ffffffffffffffffffffffffffffffffffffffff168173ffffffffffffffffffffffffffffffffffffffff160361129f576040517f08c379a000000000000000000000000000000000000000000000000000000000815260040161129690612356565b60405180910390fd5b805f806101000a81548173ffffffffffffffffffffffffffffffffffffffff021916908373ffffffffffffffffffffffffffffffffffffffff16021790555050565b5f805f805f60015f8873ffffffffffffffffffffffffffffffffffffffff1673ffffffffffffffffffffffffffffffffffffffff1681526020019081526020015f206003015f8773ffffffffffffffffffffffffffffffffffffffff1673ffffffffffffffffffffffffffffffffffffffff1681526020019081526020015f209050805f015481600101548260020154836003015494509450945094505092959194509250565b5f6113a082846040015161140f90919063ffffffff16565b42106113b257826020015190506113f4565b6113f1826113e36113d08660400151426113fa90919063ffffffff16565b866020015161142490919063ffffffff16565b61143990919063ffffffff16565b90505b92915050565b5f818361140791906123a1565b905092915050565b5f818361141c91906123d4565b905092915050565b5f81836114319190612407565b905092915050565b5f81836114469190612475565b905092915050565b5f604051905090565b5f80fd5b5f80fd5b5f73ffffffffffffffffffffffffffffffffffffffff82169050919050565b5f6114888261145f565b9050919050565b6114988161147e565b81146114a2575f80fd5b50565b5f813590506114b38161148f565b92915050565b5f819050919050565b6114cb816114b9565b81146114d5575f80fd5b50565b5f813590506114e6816114c2565b92915050565b5f819050919050565b6114fe816114ec565b8114611508575f80fd5b50565b5f81359050611519816114f5565b92915050565b5f805f6060848603121561153657611535611457565b5b5f611543868287016114a5565b9350506020611554868287016114d8565b92505060406115658682870161150b565b9150509250925092565b5f6020828403121561158457611583611457565b5b5f611591848285016114a5565b91505092915050565b6115a38161147e565b82525050565b5f8115159050919050565b6115bd816115a9565b82525050565b5f6040820190506115d65f83018561159a565b6115e360208301846115b4565b9392505050565b5f6020820190506115fd5f83018461159a565b92915050565b5f80fd5b5f80fd5b5f601f19601f8301169050919050565b7f4e487b71000000000000000000000000000000000000000000000000000000005f52604160045260245ffd5b6116518261160b565b810181811067ffffffffffffffff821117156116705761166f61161b565b5b80604052505050565b5f61168261144e565b905061168e8282611648565b919050565b5f67ffffffffffffffff8211156116ad576116ac61161b565b5b6116b68261160b565b9050602081019050919050565b828183375f83830152505050565b5f6116e36116de84611693565b611679565b9050828152602081018484840111156116ff576116fe611607565b5b61170a8482856116c3565b509392505050565b5f82601f83011261172657611725611603565b5b81356117368482602086016116d1565b91505092915050565b5f806040838503121561175557611754611457565b5b5f83013567ffffffffffffffff8111156117725761177161145b565b5b61177e85828601611712565b925050602061178f8582860161150b565b9150509250929050565b5f80604083850312156117af576117ae611457565b5b5f6117bc858286016114a5565b92505060206117cd858286016114a5565b9150509250929050565b6117e0816114b9565b82525050565b6117ef816114ec565b82525050565b5f6080820190506118085f8301876117d7565b61181560208301866117e6565b61182260408301856117e6565b61182f60608301846117e6565b95945050505050565b5f82825260208201905092915050565b7f43616c6c6572206973206e6f7420616e206f7267616e697a6174696f6e2061645f8201527f6d696e0000000000000000000000000000000000000000000000000000000000602082015250565b5f6118a2602383611838565b91506118ad82611848565b604082019050919050565b5f6020820190508181035f8301526118cf81611896565b9050919050565b7f496e76616c69642062656e6566696369617279206164647265737300000000005f82015250565b5f61190a601b83611838565b9150611915826118d6565b602082019050919050565b5f6020820190508181035f830152611937816118fe565b9050919050565b7f496e76616c6964207374616b65686f6c646572207479706500000000000000005f82015250565b5f611972601883611838565b915061197d8261193e565b602082019050919050565b5f6020820190508181035f83015261199f81611966565b9050919050565b7f416d6f756e74206d7573742062652067726561746572207468616e20300000005f82015250565b5f6119da601d83611838565b91506119e5826119a6565b602082019050919050565b5f6020820190508181035f830152611a07816119ce565b9050919050565b7f56657374696e67207363686564756c6520616c726561647920657869737473205f8201527f666f722062656e65666963696172790000000000000000000000000000000000602082015250565b5f611a68602f83611838565b9150611a7382611a0e565b604082019050919050565b5f6020820190508181035f830152611a9581611a5c565b9050919050565b5f606082019050611aaf5f83018661159a565b611abc602083018561159a565b611ac960408301846117e6565b949350505050565b611ada816115a9565b8114611ae4575f80fd5b50565b5f81519050611af581611ad1565b92915050565b5f60208284031215611b1057611b0f611457565b5b5f611b1d84828501611ae7565b91505092915050565b7f546f6b656e207472616e73666572206661696c656400000000000000000000005f82015250565b5f611b5a601583611838565b9150611b6582611b26565b602082019050919050565b5f6020820190508181035f830152611b8781611b4e565b9050919050565b5f604082019050611ba15f8301856117d7565b611bae60208301846117e6565b9392505050565b7f496e76616c69642061646d696e206164647265737300000000000000000000005f82015250565b5f611be9601583611838565b9150611bf482611bb5565b602082019050919050565b5f6020820190508181035f830152611c1681611bdd565b9050919050565b5f81519050919050565b5f81905092915050565b5f5b83811015611c4e578082015181840152602081019050611c33565b5f8484015250505050565b5f611c6382611c1d565b611c6d8185611c27565b9350611c7d818560208601611c31565b80840191505092915050565b5f611c948284611c59565b915081905092915050565b7f5374616b65686f6c646572207479706520616c726561647920657869737473005f82015250565b5f611cd3601f83611838565b9150611cde82611c9f565b602082019050919050565b5f6020820190508181035f830152611d0081611cc7565b9050919050565b7f4e487b71000000000000000000000000000000000000000000000000000000005f52602260045260245ffd5b5f6002820490506001821680611d4b57607f821691505b602082108103611d5e57611d5d611d07565b5b50919050565b5f819050815f5260205f209050919050565b5f6020601f8301049050919050565b5f82821b905092915050565b5f60088302611dc07fffffffffffffffffffffffffffffffffffffffffffffffffffffffffffffffff82611d85565b611dca8683611d85565b95508019841693508086168417925050509392505050565b5f819050919050565b5f611e05611e00611dfb846114ec565b611de2565b6114ec565b9050919050565b5f819050919050565b611e1e83611deb565b611e32611e2a82611e0c565b848454611d91565b825550505050565b5f90565b611e46611e3a565b611e51818484611e15565b505050565b5b81811015611e7457611e695f82611e3e565b600181019050611e57565b5050565b601f821115611eb957611e8a81611d64565b611e9384611d76565b81016020851015611ea2578190505b611eb6611eae85611d76565b830182611e56565b50505b505050565b5f82821c905092915050565b5f611ed95f1984600802611ebe565b1980831691505092915050565b5f611ef18383611eca565b9150826002028217905092915050565b611f0a82611c1d565b67ffffffffffffffff811115611f2357611f2261161b565b5b611f2d8254611d34565b611f38828285611e78565b5f60209050601f831160018114611f69575f8415611f57578287015190505b611f618582611ee6565b865550611fc8565b601f198416611f7786611d64565b5f5b82811015611f9e57848901518255600182019150602085019450602081019050611f79565b86831015611fbb5784890151611fb7601f891682611eca565b8355505b6001600288020188555050505b505050505050565b5f611fda82611c1d565b611fe48185611838565b9350611ff4818560208601611c31565b611ffd8161160b565b840191505092915050565b5f6040820190508181035f8301526120208185611fd0565b905061202f60208301846117e6565b9392505050565b7f4f7267616e697a6174696f6e20616c72656164792072656769737465726564005f82015250565b5f61206a601f83611838565b915061207582612036565b602082019050919050565b5f6020820190508181035f8301526120978161205e565b9050919050565b7f496e76616c696420746f6b656e206164647265737300000000000000000000005f82015250565b5f6120d2601583611838565b91506120dd8261209e565b602082019050919050565b5f6020820190508181035f8301526120ff816120c6565b9050919050565b7f4f7267616e697a6174696f6e206e6f74207265676973746572656400000000005f82015250565b5f61213a601b83611838565b915061214582612106565b602082019050919050565b5f6020820190508181035f8301526121678161212e565b9050919050565b7f4e6f2076657374696e67207363686564756c6520666f756e6420666f722062655f8201527f6e65666963696172790000000000000000000000000000000000000000000000602082015250565b5f6121c8602983611838565b91506121d38261216e565b604082019050919050565b5f6020820190508181035f8301526121f5816121bc565b9050919050565b7f4e6f20746f6b656e7320617661696c61626c6520746f20636c61696d000000005f82015250565b5f612230601c83611838565b915061223b826121fc565b602082019050919050565b5f6020820190508181035f83015261225d81612224565b9050919050565b5f6040820190506122775f83018561159a565b61228460208301846117e6565b9392505050565b5f60208201905061229e5f8301846117e6565b92915050565b7f43616c6c6572206973206e6f7420746865206f776e65720000000000000000005f82015250565b5f6122d8601783611838565b91506122e3826122a4565b602082019050919050565b5f6020820190508181035f830152612305816122cc565b9050919050565b7f4e6577206f776e657220697320746865207a65726f20616464726573730000005f82015250565b5f612340601d83611838565b915061234b8261230c565b602082019050919050565b5f6020820190508181035f83015261236d81612334565b9050919050565b7f4e487b71000000000000000000000000000000000000000000000000000000005f52601160045260245ffd5b5f6123ab826114ec565b91506123b6836114ec565b92508282039050818111156123ce576123cd612374565b5b92915050565b5f6123de826114ec565b91506123e9836114ec565b925082820190508082111561240157612400612374565b5b92915050565b5f612411826114ec565b915061241c836114ec565b925082820261242a816114ec565b9150828204841483151761244157612440612374565b5b5092915050565b7f4e487b71000000000000000000000000000000000000000000000000000000005f52601260045260245ffd5b5f61247f826114ec565b915061248a836114ec565b92508261249a57612499612448565b5b82820490509291505056fea264697066735822122054adb5f212a60da3b038b1a52217ee98725531b06ffee7ed64da226fa0a5f9bb64736f6c63430008140033",
					"opcodes": "PUSH1 0x80 PUSH1 0x40 MSTORE CALLVALUE DUP1 ISZERO PUSH2 0xF JUMPI PUSH0 DUP1 REVERT JUMPDEST POP CALLER PUSH0 DUP1 PUSH2 0x100 EXP DUP2 SLOAD DUP2 PUSH20 0xFFFFFFFFFFFFFFFFFFFFFFFFFFFFFFFFFFFFFFFF MUL NOT AND SWAP1 DUP4 PUSH20 0xFFFFFFFFFFFFFFFFFFFFFFFFFFFFFFFFFFFFFFFF AND MUL OR SWAP1 SSTORE POP PUSH2 0x24DB DUP1 PUSH2 0x5C PUSH0 CODECOPY PUSH0 RETURN INVALID PUSH1 0x80 PUSH1 0x40 MSTORE CALLVALUE DUP1 ISZERO PUSH2 0xF JUMPI PUSH0 DUP1 REVERT JUMPDEST POP PUSH1 0x4 CALLDATASIZE LT PUSH2 0x91 JUMPI PUSH0 CALLDATALOAD PUSH1 0xE0 SHR DUP1 PUSH4 0x8DDB44A8 GT PUSH2 0x64 JUMPI DUP1 PUSH4 0x8DDB44A8 EQ PUSH2 0x11C JUMPI DUP1 PUSH4 0x90BE003C EQ PUSH2 0x138 JUMPI DUP1 PUSH4 0xDF8DE3E7 EQ PUSH2 0x154 JUMPI DUP1 PUSH4 0xF2FDE38B EQ PUSH2 0x170 JUMPI DUP1 PUSH4 0xFFC7B095 EQ PUSH2 0x18C JUMPI PUSH2 0x91 JUMP JUMPDEST DUP1 PUSH4 0x253A45F7 EQ PUSH2 0x95 JUMPI DUP1 PUSH4 0x5A1F7406 EQ PUSH2 0xB1 JUMPI DUP1 PUSH4 0x70480275 EQ PUSH2 0xE2 JUMPI DUP1 PUSH4 0x8DA5CB5B EQ PUSH2 0xFE JUMPI JUMPDEST PUSH0 DUP1 REVERT JUMPDEST PUSH2 0xAF PUSH1 0x4 DUP1 CALLDATASIZE SUB DUP2 ADD SWAP1 PUSH2 0xAA SWAP2 SWAP1 PUSH2 0x151F JUMP JUMPDEST PUSH2 0x1BF JUMP JUMPDEST STOP JUMPDEST PUSH2 0xCB PUSH1 0x4 DUP1 CALLDATASIZE SUB DUP2 ADD SWAP1 PUSH2 0xC6 SWAP2 SWAP1 PUSH2 0x156F JUMP JUMPDEST PUSH2 0x669 JUMP JUMPDEST PUSH1 0x40 MLOAD PUSH2 0xD9 SWAP3 SWAP2 SWAP1 PUSH2 0x15C3 JUMP JUMPDEST PUSH1 0x40 MLOAD DUP1 SWAP2 SUB SWAP1 RETURN JUMPDEST PUSH2 0xFC PUSH1 0x4 DUP1 CALLDATASIZE SUB DUP2 ADD SWAP1 PUSH2 0xF7 SWAP2 SWAP1 PUSH2 0x156F JUMP JUMPDEST PUSH2 0x6B4 JUMP JUMPDEST STOP JUMPDEST PUSH2 0x106 PUSH2 0x8DA JUMP JUMPDEST PUSH1 0x40 MLOAD PUSH2 0x113 SWAP2 SWAP1 PUSH2 0x15EA JUMP JUMPDEST PUSH1 0x40 MLOAD DUP1 SWAP2 SUB SWAP1 RETURN JUMPDEST PUSH2 0x136 PUSH1 0x4 DUP1 CALLDATASIZE SUB DUP2 ADD SWAP1 PUSH2 0x131 SWAP2 SWAP1 PUSH2 0x173F JUMP JUMPDEST PUSH2 0x8FD JUMP JUMPDEST STOP JUMPDEST PUSH2 0x152 PUSH1 0x4 DUP1 CALLDATASIZE SUB DUP2 ADD SWAP1 PUSH2 0x14D SWAP2 SWAP1 PUSH2 0x156F JUMP JUMPDEST PUSH2 0xB5F JUMP JUMPDEST STOP JUMPDEST PUSH2 0x16E PUSH1 0x4 DUP1 CALLDATASIZE SUB DUP2 ADD SWAP1 PUSH2 0x169 SWAP2 SWAP1 PUSH2 0x156F JUMP JUMPDEST PUSH2 0xE06 JUMP JUMPDEST STOP JUMPDEST PUSH2 0x18A PUSH1 0x4 DUP1 CALLDATASIZE SUB DUP2 ADD SWAP1 PUSH2 0x185 SWAP2 SWAP1 PUSH2 0x156F JUMP JUMPDEST PUSH2 0x11A4 JUMP JUMPDEST STOP JUMPDEST PUSH2 0x1A6 PUSH1 0x4 DUP1 CALLDATASIZE SUB DUP2 ADD SWAP1 PUSH2 0x1A1 SWAP2 SWAP1 PUSH2 0x1799 JUMP JUMPDEST PUSH2 0x12E1 JUMP JUMPDEST PUSH1 0x40 MLOAD PUSH2 0x1B6 SWAP5 SWAP4 SWAP3 SWAP2 SWAP1 PUSH2 0x17F5 JUMP JUMPDEST PUSH1 0x40 MLOAD DUP1 SWAP2 SUB SWAP1 RETURN JUMPDEST CALLER PUSH1 0x1 PUSH0 DUP3 PUSH20 0xFFFFFFFFFFFFFFFFFFFFFFFFFFFFFFFFFFFFFFFF AND PUSH20 0xFFFFFFFFFFFFFFFFFFFFFFFFFFFFFFFFFFFFFFFF AND DUP2 MSTORE PUSH1 0x20 ADD SWAP1 DUP2 MSTORE PUSH1 0x20 ADD PUSH0 KECCAK256 PUSH1 0x1 ADD PUSH0 CALLER PUSH20 0xFFFFFFFFFFFFFFFFFFFFFFFFFFFFFFFFFFFFFFFF AND PUSH20 0xFFFFFFFFFFFFFFFFFFFFFFFFFFFFFFFFFFFFFFFF AND DUP2 MSTORE PUSH1 0x20 ADD SWAP1 DUP2 MSTORE PUSH1 0x20 ADD PUSH0 KECCAK256 PUSH0 SWAP1 SLOAD SWAP1 PUSH2 0x100 EXP SWAP1 DIV PUSH1 0xFF AND PUSH2 0x287 JUMPI PUSH1 0x40 MLOAD PUSH32 0x8C379A000000000000000000000000000000000000000000000000000000000 DUP2 MSTORE PUSH1 0x4 ADD PUSH2 0x27E SWAP1 PUSH2 0x18B8 JUMP JUMPDEST PUSH1 0x40 MLOAD DUP1 SWAP2 SUB SWAP1 REVERT JUMPDEST PUSH0 PUSH20 0xFFFFFFFFFFFFFFFFFFFFFFFFFFFFFFFFFFFFFFFF AND DUP5 PUSH20 0xFFFFFFFFFFFFFFFFFFFFFFFFFFFFFFFFFFFFFFFF AND SUB PUSH2 0x2F5 JUMPI PUSH1 0x40 MLOAD PUSH32 0x8C379A000000000000000000000000000000000000000000000000000000000 DUP2 MSTORE PUSH1 0x4 ADD PUSH2 0x2EC SWAP1 PUSH2 0x1920 JUMP JUMPDEST PUSH1 0x40 MLOAD DUP1 SWAP2 SUB SWAP1 REVERT JUMPDEST PUSH0 PUSH1 0x1 PUSH0 CALLER PUSH20 0xFFFFFFFFFFFFFFFFFFFFFFFFFFFFFFFFFFFFFFFF AND PUSH20 0xFFFFFFFFFFFFFFFFFFFFFFFFFFFFFFFFFFFFFFFF AND DUP2 MSTORE PUSH1 0x20 ADD SWAP1 DUP2 MSTORE PUSH1 0x20 ADD PUSH0 KECCAK256 PUSH1 0x2 ADD PUSH0 DUP6 DUP2 MSTORE PUSH1 0x20 ADD SWAP1 DUP2 MSTORE PUSH1 0x20 ADD PUSH0 KECCAK256 PUSH1 0x1 ADD SLOAD GT PUSH2 0x389 JUMPI PUSH1 0x40 MLOAD PUSH32 0x8C379A000000000000000000000000000000000000000000000000000000000 DUP2 MSTORE PUSH1 0x4 ADD PUSH2 0x380 SWAP1 PUSH2 0x1988 JUMP JUMPDEST PUSH1 0x40 MLOAD DUP1 SWAP2 SUB SWAP1 REVERT JUMPDEST PUSH0 DUP3 GT PUSH2 0x3CB JUMPI PUSH1 0x40 MLOAD PUSH32 0x8C379A000000000000000000000000000000000000000000000000000000000 DUP2 MSTORE PUSH1 0x4 ADD PUSH2 0x3C2 SWAP1 PUSH2 0x19F0 JUMP JUMPDEST PUSH1 0x40 MLOAD DUP1 SWAP2 SUB SWAP1 REVERT JUMPDEST PUSH0 PUSH1 0x1 PUSH0 CALLER PUSH20 0xFFFFFFFFFFFFFFFFFFFFFFFFFFFFFFFFFFFFFFFF AND PUSH20 0xFFFFFFFFFFFFFFFFFFFFFFFFFFFFFFFFFFFFFFFF AND DUP2 MSTORE PUSH1 0x20 ADD SWAP1 DUP2 MSTORE PUSH1 0x20 ADD PUSH0 KECCAK256 SWAP1 POP PUSH0 DUP2 PUSH1 0x3 ADD PUSH0 DUP8 PUSH20 0xFFFFFFFFFFFFFFFFFFFFFFFFFFFFFFFFFFFFFFFF AND PUSH20 0xFFFFFFFFFFFFFFFFFFFFFFFFFFFFFFFFFFFFFFFF AND DUP2 MSTORE PUSH1 0x20 ADD SWAP1 DUP2 MSTORE PUSH1 0x20 ADD PUSH0 KECCAK256 PUSH1 0x1 ADD SLOAD EQ PUSH2 0x48F JUMPI PUSH1 0x40 MLOAD PUSH32 0x8C379A000000000000000000000000000000000000000000000000000000000 DUP2 MSTORE PUSH1 0x4 ADD PUSH2 0x486 SWAP1 PUSH2 0x1A7E JUMP JUMPDEST PUSH1 0x40 MLOAD DUP1 SWAP2 SUB SWAP1 REVERT JUMPDEST PUSH0 DUP2 PUSH0 ADD PUSH0 SWAP1 SLOAD SWAP1 PUSH2 0x100 EXP SWAP1 DIV PUSH20 0xFFFFFFFFFFFFFFFFFFFFFFFFFFFFFFFFFFFFFFFF AND SWAP1 POP DUP1 PUSH20 0xFFFFFFFFFFFFFFFFFFFFFFFFFFFFFFFFFFFFFFFF AND PUSH4 0x23B872DD CALLER ADDRESS DUP8 PUSH1 0x40 MLOAD DUP5 PUSH4 0xFFFFFFFF AND PUSH1 0xE0 SHL DUP2 MSTORE PUSH1 0x4 ADD PUSH2 0x4F2 SWAP4 SWAP3 SWAP2 SWAP1 PUSH2 0x1A9C JUMP JUMPDEST PUSH1 0x20 PUSH1 0x40 MLOAD DUP1 DUP4 SUB DUP2 PUSH0 DUP8 GAS CALL ISZERO DUP1 ISZERO PUSH2 0x50E JUMPI RETURNDATASIZE PUSH0 DUP1 RETURNDATACOPY RETURNDATASIZE PUSH0 REVERT JUMPDEST POP POP POP POP PUSH1 0x40 MLOAD RETURNDATASIZE PUSH1 0x1F NOT PUSH1 0x1F DUP3 ADD AND DUP3 ADD DUP1 PUSH1 0x40 MSTORE POP DUP2 ADD SWAP1 PUSH2 0x532 SWAP2 SWAP1 PUSH2 0x1AFB JUMP JUMPDEST PUSH2 0x571 JUMPI PUSH1 0x40 MLOAD PUSH32 0x8C379A000000000000000000000000000000000000000000000000000000000 DUP2 MSTORE PUSH1 0x4 ADD PUSH2 0x568 SWAP1 PUSH2 0x1B70 JUMP JUMPDEST PUSH1 0x40 MLOAD DUP1 SWAP2 SUB SWAP1 REVERT JUMPDEST PUSH1 0x40 MLOAD DUP1 PUSH1 0x80 ADD PUSH1 0x40 MSTORE DUP1 DUP7 DUP2 MSTORE PUSH1 0x20 ADD DUP6 DUP2 MSTORE PUSH1 0x20 ADD TIMESTAMP DUP2 MSTORE PUSH1 0x20 ADD PUSH0 DUP2 MSTORE POP DUP3 PUSH1 0x3 ADD PUSH0 DUP9 PUSH20 0xFFFFFFFFFFFFFFFFFFFFFFFFFFFFFFFFFFFFFFFF AND PUSH20 0xFFFFFFFFFFFFFFFFFFFFFFFFFFFFFFFFFFFFFFFF AND DUP2 MSTORE PUSH1 0x20 ADD SWAP1 DUP2 MSTORE PUSH1 0x20 ADD PUSH0 KECCAK256 PUSH0 DUP3 ADD MLOAD DUP2 PUSH0 ADD SSTORE PUSH1 0x20 DUP3 ADD MLOAD DUP2 PUSH1 0x1 ADD SSTORE PUSH1 0x40 DUP3 ADD MLOAD DUP2 PUSH1 0x2 ADD SSTORE PUSH1 0x60 DUP3 ADD MLOAD DUP2 PUSH1 0x3 ADD SSTORE SWAP1 POP POP DUP6 PUSH20 0xFFFFFFFFFFFFFFFFFFFFFFFFFFFFFFFFFFFFFFFF AND CALLER PUSH20 0xFFFFFFFFFFFFFFFFFFFFFFFFFFFFFFFFFFFFFFFF AND PUSH32 0xF00D5A3E0408D34D2B3B0EE24C891FC3A82E6568F4F136256B72527802BA6B96 DUP8 DUP8 PUSH1 0x40 MLOAD PUSH2 0x659 SWAP3 SWAP2 SWAP1 PUSH2 0x1B8E JUMP JUMPDEST PUSH1 0x40 MLOAD DUP1 SWAP2 SUB SWAP1 LOG3 POP POP POP POP POP POP JUMP JUMPDEST PUSH1 0x1 PUSH1 0x20 MSTORE DUP1 PUSH0 MSTORE PUSH1 0x40 PUSH0 KECCAK256 PUSH0 SWAP2 POP SWAP1 POP DUP1 PUSH0 ADD PUSH0 SWAP1 SLOAD SWAP1 PUSH2 0x100 EXP SWAP1 DIV PUSH20 0xFFFFFFFFFFFFFFFFFFFFFFFFFFFFFFFFFFFFFFFF AND SWAP1 DUP1 PUSH0 ADD PUSH1 0x14 SWAP1 SLOAD SWAP1 PUSH2 0x100 EXP SWAP1 DIV PUSH1 0xFF AND SWAP1 POP DUP3 JUMP JUMPDEST CALLER PUSH1 0x1 PUSH0 DUP3 PUSH20 0xFFFFFFFFFFFFFFFFFFFFFFFFFFFFFFFFFFFFFFFF AND PUSH20 0xFFFFFFFFFFFFFFFFFFFFFFFFFFFFFFFFFFFFFFFF AND DUP2 MSTORE PUSH1 0x20 ADD SWAP1 DUP2 MSTORE PUSH1 0x20 ADD PUSH0 KECCAK256 PUSH1 0x1 ADD PUSH0 CALLER PUSH20 0xFFFFFFFFFFFFFFFFFFFFFFFFFFFFFFFFFFFFFFFF AND PUSH20 0xFFFFFFFFFFFFFFFFFFFFFFFFFFFFFFFFFFFFFFFF AND DUP2 MSTORE PUSH1 0x20 ADD SWAP1 DUP2 MSTORE PUSH1 0x20 ADD PUSH0 KECCAK256 PUSH0 SWAP1 SLOAD SWAP1 PUSH2 0x100 EXP SWAP1 DIV PUSH1 0xFF AND PUSH2 0x77C JUMPI PUSH1 0x40 MLOAD PUSH32 0x8C379A000000000000000000000000000000000000000000000000000000000 DUP2 MSTORE PUSH1 0x4 ADD PUSH2 0x773 SWAP1 PUSH2 0x18B8 JUMP JUMPDEST PUSH1 0x40 MLOAD DUP1 SWAP2 SUB SWAP1 REVERT JUMPDEST PUSH0 PUSH20 0xFFFFFFFFFFFFFFFFFFFFFFFFFFFFFFFFFFFFFFFF AND DUP3 PUSH20 0xFFFFFFFFFFFFFFFFFFFFFFFFFFFFFFFFFFFFFFFF AND SUB PUSH2 0x7EA JUMPI PUSH1 0x40 MLOAD PUSH32 0x8C379A000000000000000000000000000000000000000000000000000000000 DUP2 MSTORE PUSH1 0x4 ADD PUSH2 0x7E1 SWAP1 PUSH2 0x1BFF JUMP JUMPDEST PUSH1 0x40 MLOAD DUP1 SWAP2 SUB SWAP1 REVERT JUMPDEST PUSH1 0x1 DUP1 PUSH0 CALLER PUSH20 0xFFFFFFFFFFFFFFFFFFFFFFFFFFFFFFFFFFFFFFFF AND PUSH20 0xFFFFFFFFFFFFFFFFFFFFFFFFFFFFFFFFFFFFFFFF AND DUP2 MSTORE PUSH1 0x20 ADD SWAP1 DUP2 MSTORE PUSH1 0x20 ADD PUSH0 KECCAK256 PUSH1 0x1 ADD PUSH0 DUP5 PUSH20 0xFFFFFFFFFFFFFFFFFFFFFFFFFFFFFFFFFFFFFFFF AND PUSH20 0xFFFFFFFFFFFFFFFFFFFFFFFFFFFFFFFFFFFFFFFF AND DUP2 MSTORE PUSH1 0x20 ADD SWAP1 DUP2 MSTORE PUSH1 0x20 ADD PUSH0 KECCAK256 PUSH0 PUSH2 0x100 EXP DUP2 SLOAD DUP2 PUSH1 0xFF MUL NOT AND SWAP1 DUP4 ISZERO ISZERO MUL OR SWAP1 SSTORE POP DUP2 PUSH20 0xFFFFFFFFFFFFFFFFFFFFFFFFFFFFFFFFFFFFFFFF AND CALLER PUSH20 0xFFFFFFFFFFFFFFFFFFFFFFFFFFFFFFFFFFFFFFFF AND PUSH32 0xBF3F493C772C8C283FD124432C2D0F539AB343FAA04258FE88E52912D36B102B PUSH1 0x40 MLOAD PUSH1 0x40 MLOAD DUP1 SWAP2 SUB SWAP1 LOG3 POP POP JUMP JUMPDEST PUSH0 DUP1 SLOAD SWAP1 PUSH2 0x100 EXP SWAP1 DIV PUSH20 0xFFFFFFFFFFFFFFFFFFFFFFFFFFFFFFFFFFFFFFFF AND DUP2 JUMP JUMPDEST CALLER PUSH1 0x1 PUSH0 DUP3 PUSH20 0xFFFFFFFFFFFFFFFFFFFFFFFFFFFFFFFFFFFFFFFF AND PUSH20 0xFFFFFFFFFFFFFFFFFFFFFFFFFFFFFFFFFFFFFFFF AND DUP2 MSTORE PUSH1 0x20 ADD SWAP1 DUP2 MSTORE PUSH1 0x20 ADD PUSH0 KECCAK256 PUSH1 0x1 ADD PUSH0 CALLER PUSH20 0xFFFFFFFFFFFFFFFFFFFFFFFFFFFFFFFFFFFFFFFF AND PUSH20 0xFFFFFFFFFFFFFFFFFFFFFFFFFFFFFFFFFFFFFFFF AND DUP2 MSTORE PUSH1 0x20 ADD SWAP1 DUP2 MSTORE PUSH1 0x20 ADD PUSH0 KECCAK256 PUSH0 SWAP1 SLOAD SWAP1 PUSH2 0x100 EXP SWAP1 DIV PUSH1 0xFF AND PUSH2 0x9C5 JUMPI PUSH1 0x40 MLOAD PUSH32 0x8C379A000000000000000000000000000000000000000000000000000000000 DUP2 MSTORE PUSH1 0x4 ADD PUSH2 0x9BC SWAP1 PUSH2 0x18B8 JUMP JUMPDEST PUSH1 0x40 MLOAD DUP1 SWAP2 SUB SWAP1 REVERT JUMPDEST PUSH0 DUP4 PUSH1 0x40 MLOAD PUSH1 0x20 ADD PUSH2 0x9D7 SWAP2 SWAP1 PUSH2 0x1C89 JUMP JUMPDEST PUSH1 0x40 MLOAD PUSH1 0x20 DUP2 DUP4 SUB SUB DUP2 MSTORE SWAP1 PUSH1 0x40 MSTORE DUP1 MLOAD SWAP1 PUSH1 0x20 ADD KECCAK256 SWAP1 POP PUSH0 PUSH1 0x1 PUSH0 CALLER PUSH20 0xFFFFFFFFFFFFFFFFFFFFFFFFFFFFFFFFFFFFFFFF AND PUSH20 0xFFFFFFFFFFFFFFFFFFFFFFFFFFFFFFFFFFFFFFFF AND DUP2 MSTORE PUSH1 0x20 ADD SWAP1 DUP2 MSTORE PUSH1 0x20 ADD PUSH0 KECCAK256 PUSH1 0x2 ADD PUSH0 DUP4 DUP2 MSTORE PUSH1 0x20 ADD SWAP1 DUP2 MSTORE PUSH1 0x20 ADD PUSH0 KECCAK256 PUSH1 0x1 ADD SLOAD EQ PUSH2 0xA83 JUMPI PUSH1 0x40 MLOAD PUSH32 0x8C379A000000000000000000000000000000000000000000000000000000000 DUP2 MSTORE PUSH1 0x4 ADD PUSH2 0xA7A SWAP1 PUSH2 0x1CE9 JUMP JUMPDEST PUSH1 0x40 MLOAD DUP1 SWAP2 SUB SWAP1 REVERT JUMPDEST PUSH1 0x40 MLOAD DUP1 PUSH1 0x40 ADD PUSH1 0x40 MSTORE DUP1 DUP6 DUP2 MSTORE PUSH1 0x20 ADD DUP5 DUP2 MSTORE POP PUSH1 0x1 PUSH0 CALLER PUSH20 0xFFFFFFFFFFFFFFFFFFFFFFFFFFFFFFFFFFFFFFFF AND PUSH20 0xFFFFFFFFFFFFFFFFFFFFFFFFFFFFFFFFFFFFFFFF AND DUP2 MSTORE PUSH1 0x20 ADD SWAP1 DUP2 MSTORE PUSH1 0x20 ADD PUSH0 KECCAK256 PUSH1 0x2 ADD PUSH0 DUP4 DUP2 MSTORE PUSH1 0x20 ADD SWAP1 DUP2 MSTORE PUSH1 0x20 ADD PUSH0 KECCAK256 PUSH0 DUP3 ADD MLOAD DUP2 PUSH0 ADD SWAP1 DUP2 PUSH2 0xAFA SWAP2 SWAP1 PUSH2 0x1F01 JUMP JUMPDEST POP PUSH1 0x20 DUP3 ADD MLOAD DUP2 PUSH1 0x1 ADD SSTORE SWAP1 POP POP DUP1 CALLER PUSH20 0xFFFFFFFFFFFFFFFFFFFFFFFFFFFFFFFFFFFFFFFF AND PUSH32 0x363005321F09105A5C4496A963B03A8BE1278BE47ED2CBA71837C87FC8B86F85 DUP7 DUP7 PUSH1 0x40 MLOAD PUSH2 0xB51 SWAP3 SWAP2 SWAP1 PUSH2 0x2008 JUMP JUMPDEST PUSH1 0x40 MLOAD DUP1 SWAP2 SUB SWAP1 LOG3 POP POP POP POP JUMP JUMPDEST PUSH1 0x1 PUSH0 CALLER PUSH20 0xFFFFFFFFFFFFFFFFFFFFFFFFFFFFFFFFFFFFFFFF AND PUSH20 0xFFFFFFFFFFFFFFFFFFFFFFFFFFFFFFFFFFFFFFFF AND DUP2 MSTORE PUSH1 0x20 ADD SWAP1 DUP2 MSTORE PUSH1 0x20 ADD PUSH0 KECCAK256 PUSH0 ADD PUSH1 0x14 SWAP1 SLOAD SWAP1 PUSH2 0x100 EXP SWAP1 DIV PUSH1 0xFF AND ISZERO PUSH2 0xBEC JUMPI PUSH1 0x40 MLOAD PUSH32 0x8C379A000000000000000000000000000000000000000000000000000000000 DUP2 MSTORE PUSH1 0x4 ADD PUSH2 0xBE3 SWAP1 PUSH2 0x2080 JUMP JUMPDEST PUSH1 0x40 MLOAD DUP1 SWAP2 SUB SWAP1 REVERT JUMPDEST PUSH0 PUSH20 0xFFFFFFFFFFFFFFFFFFFFFFFFFFFFFFFFFFFFFFFF AND DUP2 PUSH20 0xFFFFFFFFFFFFFFFFFFFFFFFFFFFFFFFFFFFFFFFF AND SUB PUSH2 0xC5A JUMPI PUSH1 0x40 MLOAD PUSH32 0x8C379A000000000000000000000000000000000000000000000000000000000 DUP2 MSTORE PUSH1 0x4 ADD PUSH2 0xC51 SWAP1 PUSH2 0x20E8 JUMP JUMPDEST PUSH1 0x40 MLOAD DUP1 SWAP2 SUB SWAP1 REVERT JUMPDEST PUSH0 PUSH1 0x1 PUSH0 CALLER PUSH20 0xFFFFFFFFFFFFFFFFFFFFFFFFFFFFFFFFFFFFFFFF AND PUSH20 0xFFFFFFFFFFFFFFFFFFFFFFFFFFFFFFFFFFFFFFFF AND DUP2 MSTORE PUSH1 0x20 ADD SWAP1 DUP2 MSTORE PUSH1 0x20 ADD PUSH0 KECCAK256 SWAP1 POP DUP2 DUP2 PUSH0 ADD PUSH0 PUSH2 0x100 EXP DUP2 SLOAD DUP2 PUSH20 0xFFFFFFFFFFFFFFFFFFFFFFFFFFFFFFFFFFFFFFFF MUL NOT AND SWAP1 DUP4 PUSH20 0xFFFFFFFFFFFFFFFFFFFFFFFFFFFFFFFFFFFFFFFF AND MUL OR SWAP1 SSTORE POP PUSH1 0x1 DUP2 PUSH0 ADD PUSH1 0x14 PUSH2 0x100 EXP DUP2 SLOAD DUP2 PUSH1 0xFF MUL NOT AND SWAP1 DUP4 ISZERO ISZERO MUL OR SWAP1 SSTORE POP PUSH1 0x1 DUP2 PUSH1 0x1 ADD PUSH0 CALLER PUSH20 0xFFFFFFFFFFFFFFFFFFFFFFFFFFFFFFFFFFFFFFFF AND PUSH20 0xFFFFFFFFFFFFFFFFFFFFFFFFFFFFFFFFFFFFFFFF AND DUP2 MSTORE PUSH1 0x20 ADD SWAP1 DUP2 MSTORE PUSH1 0x20 ADD PUSH0 KECCAK256 PUSH0 PUSH2 0x100 EXP DUP2 SLOAD DUP2 PUSH1 0xFF MUL NOT AND SWAP1 DUP4 ISZERO ISZERO MUL OR SWAP1 SSTORE POP DUP2 PUSH20 0xFFFFFFFFFFFFFFFFFFFFFFFFFFFFFFFFFFFFFFFF AND CALLER PUSH20 0xFFFFFFFFFFFFFFFFFFFFFFFFFFFFFFFFFFFFFFFF AND PUSH32 0x9F51233D33C6517E4EA55596370510CF6F316777B475E532B8FBE6D3E6B1AFAA PUSH1 0x40 MLOAD PUSH1 0x40 MLOAD DUP1 SWAP2 SUB SWAP1 LOG3 CALLER PUSH20 0xFFFFFFFFFFFFFFFFFFFFFFFFFFFFFFFFFFFFFFFF AND CALLER PUSH20 0xFFFFFFFFFFFFFFFFFFFFFFFFFFFFFFFFFFFFFFFF AND PUSH32 0xBF3F493C772C8C283FD124432C2D0F539AB343FAA04258FE88E52912D36B102B PUSH1 0x40 MLOAD PUSH1 0x40 MLOAD DUP1 SWAP2 SUB SWAP1 LOG3 POP POP JUMP JUMPDEST PUSH0 PUSH1 0x1 PUSH0 DUP4 PUSH20 0xFFFFFFFFFFFFFFFFFFFFFFFFFFFFFFFFFFFFFFFF AND PUSH20 0xFFFFFFFFFFFFFFFFFFFFFFFFFFFFFFFFFFFFFFFF AND DUP2 MSTORE PUSH1 0x20 ADD SWAP1 DUP2 MSTORE PUSH1 0x20 ADD PUSH0 KECCAK256 SWAP1 POP DUP1 PUSH0 ADD PUSH1 0x14 SWAP1 SLOAD SWAP1 PUSH2 0x100 EXP SWAP1 DIV PUSH1 0xFF AND PUSH2 0xE96 JUMPI PUSH1 0x40 MLOAD PUSH32 0x8C379A000000000000000000000000000000000000000000000000000000000 DUP2 MSTORE PUSH1 0x4 ADD PUSH2 0xE8D SWAP1 PUSH2 0x2150 JUMP JUMPDEST PUSH1 0x40 MLOAD DUP1 SWAP2 SUB SWAP1 REVERT JUMPDEST PUSH0 DUP2 PUSH1 0x3 ADD PUSH0 CALLER PUSH20 0xFFFFFFFFFFFFFFFFFFFFFFFFFFFFFFFFFFFFFFFF AND PUSH20 0xFFFFFFFFFFFFFFFFFFFFFFFFFFFFFFFFFFFFFFFF AND DUP2 MSTORE PUSH1 0x20 ADD SWAP1 DUP2 MSTORE PUSH1 0x20 ADD PUSH0 KECCAK256 SWAP1 POP PUSH0 DUP2 PUSH1 0x1 ADD SLOAD GT PUSH2 0xF1E JUMPI PUSH1 0x40 MLOAD PUSH32 0x8C379A000000000000000000000000000000000000000000000000000000000 DUP2 MSTORE PUSH1 0x4 ADD PUSH2 0xF15 SWAP1 PUSH2 0x21DE JUMP JUMPDEST PUSH1 0x40 MLOAD DUP1 SWAP2 SUB SWAP1 REVERT JUMPDEST PUSH0 DUP3 PUSH1 0x2 ADD PUSH0 DUP4 PUSH0 ADD SLOAD DUP2 MSTORE PUSH1 0x20 ADD SWAP1 DUP2 MSTORE PUSH1 0x20 ADD PUSH0 KECCAK256 PUSH1 0x40 MLOAD DUP1 PUSH1 0x40 ADD PUSH1 0x40 MSTORE SWAP1 DUP2 PUSH0 DUP3 ADD DUP1 SLOAD PUSH2 0xF4F SWAP1 PUSH2 0x1D34 JUMP JUMPDEST DUP1 PUSH1 0x1F ADD PUSH1 0x20 DUP1 SWAP2 DIV MUL PUSH1 0x20 ADD PUSH1 0x40 MLOAD SWAP1 DUP2 ADD PUSH1 0x40 MSTORE DUP1 SWAP3 SWAP2 SWAP1 DUP2 DUP2 MSTORE PUSH1 0x20 ADD DUP3 DUP1 SLOAD PUSH2 0xF7B SWAP1 PUSH2 0x1D34 JUMP JUMPDEST DUP1 ISZERO PUSH2 0xFC6 JUMPI DUP1 PUSH1 0x1F LT PUSH2 0xF9D JUMPI PUSH2 0x100 DUP1 DUP4 SLOAD DIV MUL DUP4 MSTORE SWAP2 PUSH1 0x20 ADD SWAP2 PUSH2 0xFC6 JUMP JUMPDEST DUP3 ADD SWAP2 SWAP1 PUSH0 MSTORE PUSH1 0x20 PUSH0 KECCAK256 SWAP1 JUMPDEST DUP2 SLOAD DUP2 MSTORE SWAP1 PUSH1 0x1 ADD SWAP1 PUSH1 0x20 ADD DUP1 DUP4 GT PUSH2 0xFA9 JUMPI DUP3 SWAP1 SUB PUSH1 0x1F AND DUP3 ADD SWAP2 JUMPDEST POP POP POP POP POP DUP2 MSTORE PUSH1 0x20 ADD PUSH1 0x1 DUP3 ADD SLOAD DUP2 MSTORE POP POP SWAP1 POP PUSH0 PUSH2 0x101C DUP4 PUSH1 0x40 MLOAD DUP1 PUSH1 0x80 ADD PUSH1 0x40 MSTORE SWAP1 DUP2 PUSH0 DUP3 ADD SLOAD DUP2 MSTORE PUSH1 0x20 ADD PUSH1 0x1 DUP3 ADD SLOAD DUP2 MSTORE PUSH1 0x20 ADD PUSH1 0x2 DUP3 ADD SLOAD DUP2 MSTORE PUSH1 0x20 ADD PUSH1 0x3 DUP3 ADD SLOAD DUP2 MSTORE POP POP DUP4 PUSH1 0x20 ADD MLOAD PUSH2 0x1388 JUMP JUMPDEST SWAP1 POP PUSH0 PUSH2 0x1036 DUP5 PUSH1 0x3 ADD SLOAD DUP4 PUSH2 0x13FA SWAP1 SWAP2 SWAP1 PUSH4 0xFFFFFFFF AND JUMP JUMPDEST SWAP1 POP PUSH0 DUP2 GT PUSH2 0x107A JUMPI PUSH1 0x40 MLOAD PUSH32 0x8C379A000000000000000000000000000000000000000000000000000000000 DUP2 MSTORE PUSH1 0x4 ADD PUSH2 0x1071 SWAP1 PUSH2 0x2246 JUMP JUMPDEST PUSH1 0x40 MLOAD DUP1 SWAP2 SUB SWAP1 REVERT JUMPDEST PUSH2 0x1091 DUP2 DUP6 PUSH1 0x3 ADD SLOAD PUSH2 0x140F SWAP1 SWAP2 SWAP1 PUSH4 0xFFFFFFFF AND JUMP JUMPDEST DUP5 PUSH1 0x3 ADD DUP2 SWAP1 SSTORE POP DUP5 PUSH0 ADD PUSH0 SWAP1 SLOAD SWAP1 PUSH2 0x100 EXP SWAP1 DIV PUSH20 0xFFFFFFFFFFFFFFFFFFFFFFFFFFFFFFFFFFFFFFFF AND PUSH20 0xFFFFFFFFFFFFFFFFFFFFFFFFFFFFFFFFFFFFFFFF AND PUSH4 0xA9059CBB CALLER DUP4 PUSH1 0x40 MLOAD DUP4 PUSH4 0xFFFFFFFF AND PUSH1 0xE0 SHL DUP2 MSTORE PUSH1 0x4 ADD PUSH2 0x10F6 SWAP3 SWAP2 SWAP1 PUSH2 0x2264 JUMP JUMPDEST PUSH1 0x20 PUSH1 0x40 MLOAD DUP1 DUP4 SUB DUP2 PUSH0 DUP8 GAS CALL ISZERO DUP1 ISZERO PUSH2 0x1112 JUMPI RETURNDATASIZE PUSH0 DUP1 RETURNDATACOPY RETURNDATASIZE PUSH0 REVERT JUMPDEST POP POP POP POP PUSH1 0x40 MLOAD RETURNDATASIZE PUSH1 0x1F NOT PUSH1 0x1F DUP3 ADD AND DUP3 ADD DUP1 PUSH1 0x40 MSTORE POP DUP2 ADD SWAP1 PUSH2 0x1136 SWAP2 SWAP1 PUSH2 0x1AFB JUMP JUMPDEST POP CALLER PUSH20 0xFFFFFFFFFFFFFFFFFFFFFFFFFFFFFFFFFFFFFFFF AND DUP7 PUSH20 0xFFFFFFFFFFFFFFFFFFFFFFFFFFFFFFFFFFFFFFFF AND PUSH32 0xA86305ABC2DB271DF4609AA86A8D044BC11FB36939841BFDAD6C1AB2B26E9471 DUP4 PUSH1 0x40 MLOAD PUSH2 0x1194 SWAP2 SWAP1 PUSH2 0x228B JUMP JUMPDEST PUSH1 0x40 MLOAD DUP1 SWAP2 SUB SWAP1 LOG3 POP POP POP POP POP POP JUMP JUMPDEST PUSH0 DUP1 SLOAD SWAP1 PUSH2 0x100 EXP SWAP1 DIV PUSH20 0xFFFFFFFFFFFFFFFFFFFFFFFFFFFFFFFFFFFFFFFF AND PUSH20 0xFFFFFFFFFFFFFFFFFFFFFFFFFFFFFFFFFFFFFFFF AND CALLER PUSH20 0xFFFFFFFFFFFFFFFFFFFFFFFFFFFFFFFFFFFFFFFF AND EQ PUSH2 0x1231 JUMPI PUSH1 0x40 MLOAD PUSH32 0x8C379A000000000000000000000000000000000000000000000000000000000 DUP2 MSTORE PUSH1 0x4 ADD PUSH2 0x1228 SWAP1 PUSH2 0x22EE JUMP JUMPDEST PUSH1 0x40 MLOAD DUP1 SWAP2 SUB SWAP1 REVERT JUMPDEST PUSH0 PUSH20 0xFFFFFFFFFFFFFFFFFFFFFFFFFFFFFFFFFFFFFFFF AND DUP2 PUSH20 0xFFFFFFFFFFFFFFFFFFFFFFFFFFFFFFFFFFFFFFFF AND SUB PUSH2 0x129F JUMPI PUSH1 0x40 MLOAD PUSH32 0x8C379A000000000000000000000000000000000000000000000000000000000 DUP2 MSTORE PUSH1 0x4 ADD PUSH2 0x1296 SWAP1 PUSH2 0x2356 JUMP JUMPDEST PUSH1 0x40 MLOAD DUP1 SWAP2 SUB SWAP1 REVERT JUMPDEST DUP1 PUSH0 DUP1 PUSH2 0x100 EXP DUP2 SLOAD DUP2 PUSH20 0xFFFFFFFFFFFFFFFFFFFFFFFFFFFFFFFFFFFFFFFF MUL NOT AND SWAP1 DUP4 PUSH20 0xFFFFFFFFFFFFFFFFFFFFFFFFFFFFFFFFFFFFFFFF AND MUL OR SWAP1 SSTORE POP POP JUMP JUMPDEST PUSH0 DUP1 PUSH0 DUP1 PUSH0 PUSH1 0x1 PUSH0 DUP9 PUSH20 0xFFFFFFFFFFFFFFFFFFFFFFFFFFFFFFFFFFFFFFFF AND PUSH20 0xFFFFFFFFFFFFFFFFFFFFFFFFFFFFFFFFFFFFFFFF AND DUP2 MSTORE PUSH1 0x20 ADD SWAP1 DUP2 MSTORE PUSH1 0x20 ADD PUSH0 KECCAK256 PUSH1 0x3 ADD PUSH0 DUP8 PUSH20 0xFFFFFFFFFFFFFFFFFFFFFFFFFFFFFFFFFFFFFFFF AND PUSH20 0xFFFFFFFFFFFFFFFFFFFFFFFFFFFFFFFFFFFFFFFF AND DUP2 MSTORE PUSH1 0x20 ADD SWAP1 DUP2 MSTORE PUSH1 0x20 ADD PUSH0 KECCAK256 SWAP1 POP DUP1 PUSH0 ADD SLOAD DUP2 PUSH1 0x1 ADD SLOAD DUP3 PUSH1 0x2 ADD SLOAD DUP4 PUSH1 0x3 ADD SLOAD SWAP5 POP SWAP5 POP SWAP5 POP SWAP5 POP POP SWAP3 SWAP6 SWAP2 SWAP5 POP SWAP3 POP JUMP JUMPDEST PUSH0 PUSH2 0x13A0 DUP3 DUP5 PUSH1 0x40 ADD MLOAD PUSH2 0x140F SWAP1 SWAP2 SWAP1 PUSH4 0xFFFFFFFF AND JUMP JUMPDEST TIMESTAMP LT PUSH2 0x13B2 JUMPI DUP3 PUSH1 0x20 ADD MLOAD SWAP1 POP PUSH2 0x13F4 JUMP JUMPDEST PUSH2 0x13F1 DUP3 PUSH2 0x13E3 PUSH2 0x13D0 DUP7 PUSH1 0x40 ADD MLOAD TIMESTAMP PUSH2 0x13FA SWAP1 SWAP2 SWAP1 PUSH4 0xFFFFFFFF AND JUMP JUMPDEST DUP7 PUSH1 0x20 ADD MLOAD PUSH2 0x1424 SWAP1 SWAP2 SWAP1 PUSH4 0xFFFFFFFF AND JUMP JUMPDEST PUSH2 0x1439 SWAP1 SWAP2 SWAP1 PUSH4 0xFFFFFFFF AND JUMP JUMPDEST SWAP1 POP JUMPDEST SWAP3 SWAP2 POP POP JUMP JUMPDEST PUSH0 DUP2 DUP4 PUSH2 0x1407 SWAP2 SWAP1 PUSH2 0x23A1 JUMP JUMPDEST SWAP1 POP SWAP3 SWAP2 POP POP JUMP JUMPDEST PUSH0 DUP2 DUP4 PUSH2 0x141C SWAP2 SWAP1 PUSH2 0x23D4 JUMP JUMPDEST SWAP1 POP SWAP3 SWAP2 POP POP JUMP JUMPDEST PUSH0 DUP2 DUP4 PUSH2 0x1431 SWAP2 SWAP1 PUSH2 0x2407 JUMP JUMPDEST SWAP1 POP SWAP3 SWAP2 POP POP JUMP JUMPDEST PUSH0 DUP2 DUP4 PUSH2 0x1446 SWAP2 SWAP1 PUSH2 0x2475 JUMP JUMPDEST SWAP1 POP SWAP3 SWAP2 POP POP JUMP JUMPDEST PUSH0 PUSH1 0x40 MLOAD SWAP1 POP SWAP1 JUMP JUMPDEST PUSH0 DUP1 REVERT JUMPDEST PUSH0 DUP1 REVERT JUMPDEST PUSH0 PUSH20 0xFFFFFFFFFFFFFFFFFFFFFFFFFFFFFFFFFFFFFFFF DUP3 AND SWAP1 POP SWAP2 SWAP1 POP JUMP JUMPDEST PUSH0 PUSH2 0x1488 DUP3 PUSH2 0x145F JUMP JUMPDEST SWAP1 POP SWAP2 SWAP1 POP JUMP JUMPDEST PUSH2 0x1498 DUP2 PUSH2 0x147E JUMP JUMPDEST DUP2 EQ PUSH2 0x14A2 JUMPI PUSH0 DUP1 REVERT JUMPDEST POP JUMP JUMPDEST PUSH0 DUP2 CALLDATALOAD SWAP1 POP PUSH2 0x14B3 DUP2 PUSH2 0x148F JUMP JUMPDEST SWAP3 SWAP2 POP POP JUMP JUMPDEST PUSH0 DUP2 SWAP1 POP SWAP2 SWAP1 POP JUMP JUMPDEST PUSH2 0x14CB DUP2 PUSH2 0x14B9 JUMP JUMPDEST DUP2 EQ PUSH2 0x14D5 JUMPI PUSH0 DUP1 REVERT JUMPDEST POP JUMP JUMPDEST PUSH0 DUP2 CALLDATALOAD SWAP1 POP PUSH2 0x14E6 DUP2 PUSH2 0x14C2 JUMP JUMPDEST SWAP3 SWAP2 POP POP JUMP JUMPDEST PUSH0 DUP2 SWAP1 POP SWAP2 SWAP1 POP JUMP JUMPDEST PUSH2 0x14FE DUP2 PUSH2 0x14EC JUMP JUMPDEST DUP2 EQ PUSH2 0x1508 JUMPI PUSH0 DUP1 REVERT JUMPDEST POP JUMP JUMPDEST PUSH0 DUP2 CALLDATALOAD SWAP1 POP PUSH2 0x1519 DUP2 PUSH2 0x14F5 JUMP JUMPDEST SWAP3 SWAP2 POP POP JUMP JUMPDEST PUSH0 DUP1 PUSH0 PUSH1 0x60 DUP5 DUP7 SUB SLT ISZERO PUSH2 0x1536 JUMPI PUSH2 0x1535 PUSH2 0x1457 JUMP JUMPDEST JUMPDEST PUSH0 PUSH2 0x1543 DUP7 DUP3 DUP8 ADD PUSH2 0x14A5 JUMP JUMPDEST SWAP4 POP POP PUSH1 0x20 PUSH2 0x1554 DUP7 DUP3 DUP8 ADD PUSH2 0x14D8 JUMP JUMPDEST SWAP3 POP POP PUSH1 0x40 PUSH2 0x1565 DUP7 DUP3 DUP8 ADD PUSH2 0x150B JUMP JUMPDEST SWAP2 POP POP SWAP3 POP SWAP3 POP SWAP3 JUMP JUMPDEST PUSH0 PUSH1 0x20 DUP3 DUP5 SUB SLT ISZERO PUSH2 0x1584 JUMPI PUSH2 0x1583 PUSH2 0x1457 JUMP JUMPDEST JUMPDEST PUSH0 PUSH2 0x1591 DUP5 DUP3 DUP6 ADD PUSH2 0x14A5 JUMP JUMPDEST SWAP2 POP POP SWAP3 SWAP2 POP POP JUMP JUMPDEST PUSH2 0x15A3 DUP2 PUSH2 0x147E JUMP JUMPDEST DUP3 MSTORE POP POP JUMP JUMPDEST PUSH0 DUP2 ISZERO ISZERO SWAP1 POP SWAP2 SWAP1 POP JUMP JUMPDEST PUSH2 0x15BD DUP2 PUSH2 0x15A9 JUMP JUMPDEST DUP3 MSTORE POP POP JUMP JUMPDEST PUSH0 PUSH1 0x40 DUP3 ADD SWAP1 POP PUSH2 0x15D6 PUSH0 DUP4 ADD DUP6 PUSH2 0x159A JUMP JUMPDEST PUSH2 0x15E3 PUSH1 0x20 DUP4 ADD DUP5 PUSH2 0x15B4 JUMP JUMPDEST SWAP4 SWAP3 POP POP POP JUMP JUMPDEST PUSH0 PUSH1 0x20 DUP3 ADD SWAP1 POP PUSH2 0x15FD PUSH0 DUP4 ADD DUP5 PUSH2 0x159A JUMP JUMPDEST SWAP3 SWAP2 POP POP JUMP JUMPDEST PUSH0 DUP1 REVERT JUMPDEST PUSH0 DUP1 REVERT JUMPDEST PUSH0 PUSH1 0x1F NOT PUSH1 0x1F DUP4 ADD AND SWAP1 POP SWAP2 SWAP1 POP JUMP JUMPDEST PUSH32 0x4E487B7100000000000000000000000000000000000000000000000000000000 PUSH0 MSTORE PUSH1 0x41 PUSH1 0x4 MSTORE PUSH1 0x24 PUSH0 REVERT JUMPDEST PUSH2 0x1651 DUP3 PUSH2 0x160B JUMP JUMPDEST DUP2 ADD DUP2 DUP2 LT PUSH8 0xFFFFFFFFFFFFFFFF DUP3 GT OR ISZERO PUSH2 0x1670 JUMPI PUSH2 0x166F PUSH2 0x161B JUMP JUMPDEST JUMPDEST DUP1 PUSH1 0x40 MSTORE POP POP POP JUMP JUMPDEST PUSH0 PUSH2 0x1682 PUSH2 0x144E JUMP JUMPDEST SWAP1 POP PUSH2 0x168E DUP3 DUP3 PUSH2 0x1648 JUMP JUMPDEST SWAP2 SWAP1 POP JUMP JUMPDEST PUSH0 PUSH8 0xFFFFFFFFFFFFFFFF DUP3 GT ISZERO PUSH2 0x16AD JUMPI PUSH2 0x16AC PUSH2 0x161B JUMP JUMPDEST JUMPDEST PUSH2 0x16B6 DUP3 PUSH2 0x160B JUMP JUMPDEST SWAP1 POP PUSH1 0x20 DUP2 ADD SWAP1 POP SWAP2 SWAP1 POP JUMP JUMPDEST DUP3 DUP2 DUP4 CALLDATACOPY PUSH0 DUP4 DUP4 ADD MSTORE POP POP POP JUMP JUMPDEST PUSH0 PUSH2 0x16E3 PUSH2 0x16DE DUP5 PUSH2 0x1693 JUMP JUMPDEST PUSH2 0x1679 JUMP JUMPDEST SWAP1 POP DUP3 DUP2 MSTORE PUSH1 0x20 DUP2 ADD DUP5 DUP5 DUP5 ADD GT ISZERO PUSH2 0x16FF JUMPI PUSH2 0x16FE PUSH2 0x1607 JUMP JUMPDEST JUMPDEST PUSH2 0x170A DUP5 DUP3 DUP6 PUSH2 0x16C3 JUMP JUMPDEST POP SWAP4 SWAP3 POP POP POP JUMP JUMPDEST PUSH0 DUP3 PUSH1 0x1F DUP4 ADD SLT PUSH2 0x1726 JUMPI PUSH2 0x1725 PUSH2 0x1603 JUMP JUMPDEST JUMPDEST DUP2 CALLDATALOAD PUSH2 0x1736 DUP5 DUP3 PUSH1 0x20 DUP7 ADD PUSH2 0x16D1 JUMP JUMPDEST SWAP2 POP POP SWAP3 SWAP2 POP POP JUMP JUMPDEST PUSH0 DUP1 PUSH1 0x40 DUP4 DUP6 SUB SLT ISZERO PUSH2 0x1755 JUMPI PUSH2 0x1754 PUSH2 0x1457 JUMP JUMPDEST JUMPDEST PUSH0 DUP4 ADD CALLDATALOAD PUSH8 0xFFFFFFFFFFFFFFFF DUP2 GT ISZERO PUSH2 0x1772 JUMPI PUSH2 0x1771 PUSH2 0x145B JUMP JUMPDEST JUMPDEST PUSH2 0x177E DUP6 DUP3 DUP7 ADD PUSH2 0x1712 JUMP JUMPDEST SWAP3 POP POP PUSH1 0x20 PUSH2 0x178F DUP6 DUP3 DUP7 ADD PUSH2 0x150B JUMP JUMPDEST SWAP2 POP POP SWAP3 POP SWAP3 SWAP1 POP JUMP JUMPDEST PUSH0 DUP1 PUSH1 0x40 DUP4 DUP6 SUB SLT ISZERO PUSH2 0x17AF JUMPI PUSH2 0x17AE PUSH2 0x1457 JUMP JUMPDEST JUMPDEST PUSH0 PUSH2 0x17BC DUP6 DUP3 DUP7 ADD PUSH2 0x14A5 JUMP JUMPDEST SWAP3 POP POP PUSH1 0x20 PUSH2 0x17CD DUP6 DUP3 DUP7 ADD PUSH2 0x14A5 JUMP JUMPDEST SWAP2 POP POP SWAP3 POP SWAP3 SWAP1 POP JUMP JUMPDEST PUSH2 0x17E0 DUP2 PUSH2 0x14B9 JUMP JUMPDEST DUP3 MSTORE POP POP JUMP JUMPDEST PUSH2 0x17EF DUP2 PUSH2 0x14EC JUMP JUMPDEST DUP3 MSTORE POP POP JUMP JUMPDEST PUSH0 PUSH1 0x80 DUP3 ADD SWAP1 POP PUSH2 0x1808 PUSH0 DUP4 ADD DUP8 PUSH2 0x17D7 JUMP JUMPDEST PUSH2 0x1815 PUSH1 0x20 DUP4 ADD DUP7 PUSH2 0x17E6 JUMP JUMPDEST PUSH2 0x1822 PUSH1 0x40 DUP4 ADD DUP6 PUSH2 0x17E6 JUMP JUMPDEST PUSH2 0x182F PUSH1 0x60 DUP4 ADD DUP5 PUSH2 0x17E6 JUMP JUMPDEST SWAP6 SWAP5 POP POP POP POP POP JUMP JUMPDEST PUSH0 DUP3 DUP3 MSTORE PUSH1 0x20 DUP3 ADD SWAP1 POP SWAP3 SWAP2 POP POP JUMP JUMPDEST PUSH32 0x43616C6C6572206973206E6F7420616E206F7267616E697A6174696F6E206164 PUSH0 DUP3 ADD MSTORE PUSH32 0x6D696E0000000000000000000000000000000000000000000000000000000000 PUSH1 0x20 DUP3 ADD MSTORE POP JUMP JUMPDEST PUSH0 PUSH2 0x18A2 PUSH1 0x23 DUP4 PUSH2 0x1838 JUMP JUMPDEST SWAP2 POP PUSH2 0x18AD DUP3 PUSH2 0x1848 JUMP JUMPDEST PUSH1 0x40 DUP3 ADD SWAP1 POP SWAP2 SWAP1 POP JUMP JUMPDEST PUSH0 PUSH1 0x20 DUP3 ADD SWAP1 POP DUP2 DUP2 SUB PUSH0 DUP4 ADD MSTORE PUSH2 0x18CF DUP2 PUSH2 0x1896 JUMP JUMPDEST SWAP1 POP SWAP2 SWAP1 POP JUMP JUMPDEST PUSH32 0x496E76616C69642062656E656669636961727920616464726573730000000000 PUSH0 DUP3 ADD MSTORE POP JUMP JUMPDEST PUSH0 PUSH2 0x190A PUSH1 0x1B DUP4 PUSH2 0x1838 JUMP JUMPDEST SWAP2 POP PUSH2 0x1915 DUP3 PUSH2 0x18D6 JUMP JUMPDEST PUSH1 0x20 DUP3 ADD SWAP1 POP SWAP2 SWAP1 POP JUMP JUMPDEST PUSH0 PUSH1 0x20 DUP3 ADD SWAP1 POP DUP2 DUP2 SUB PUSH0 DUP4 ADD MSTORE PUSH2 0x1937 DUP2 PUSH2 0x18FE JUMP JUMPDEST SWAP1 POP SWAP2 SWAP1 POP JUMP JUMPDEST PUSH32 0x496E76616C6964207374616B65686F6C64657220747970650000000000000000 PUSH0 DUP3 ADD MSTORE POP JUMP JUMPDEST PUSH0 PUSH2 0x1972 PUSH1 0x18 DUP4 PUSH2 0x1838 JUMP JUMPDEST SWAP2 POP PUSH2 0x197D DUP3 PUSH2 0x193E JUMP JUMPDEST PUSH1 0x20 DUP3 ADD SWAP1 POP SWAP2 SWAP1 POP JUMP JUMPDEST PUSH0 PUSH1 0x20 DUP3 ADD SWAP1 POP DUP2 DUP2 SUB PUSH0 DUP4 ADD MSTORE PUSH2 0x199F DUP2 PUSH2 0x1966 JUMP JUMPDEST SWAP1 POP SWAP2 SWAP1 POP JUMP JUMPDEST PUSH32 0x416D6F756E74206D7573742062652067726561746572207468616E2030000000 PUSH0 DUP3 ADD MSTORE POP JUMP JUMPDEST PUSH0 PUSH2 0x19DA PUSH1 0x1D DUP4 PUSH2 0x1838 JUMP JUMPDEST SWAP2 POP PUSH2 0x19E5 DUP3 PUSH2 0x19A6 JUMP JUMPDEST PUSH1 0x20 DUP3 ADD SWAP1 POP SWAP2 SWAP1 POP JUMP JUMPDEST PUSH0 PUSH1 0x20 DUP3 ADD SWAP1 POP DUP2 DUP2 SUB PUSH0 DUP4 ADD MSTORE PUSH2 0x1A07 DUP2 PUSH2 0x19CE JUMP JUMPDEST SWAP1 POP SWAP2 SWAP1 POP JUMP JUMPDEST PUSH32 0x56657374696E67207363686564756C6520616C72656164792065786973747320 PUSH0 DUP3 ADD MSTORE PUSH32 0x666F722062656E65666963696172790000000000000000000000000000000000 PUSH1 0x20 DUP3 ADD MSTORE POP JUMP JUMPDEST PUSH0 PUSH2 0x1A68 PUSH1 0x2F DUP4 PUSH2 0x1838 JUMP JUMPDEST SWAP2 POP PUSH2 0x1A73 DUP3 PUSH2 0x1A0E JUMP JUMPDEST PUSH1 0x40 DUP3 ADD SWAP1 POP SWAP2 SWAP1 POP JUMP JUMPDEST PUSH0 PUSH1 0x20 DUP3 ADD SWAP1 POP DUP2 DUP2 SUB PUSH0 DUP4 ADD MSTORE PUSH2 0x1A95 DUP2 PUSH2 0x1A5C JUMP JUMPDEST SWAP1 POP SWAP2 SWAP1 POP JUMP JUMPDEST PUSH0 PUSH1 0x60 DUP3 ADD SWAP1 POP PUSH2 0x1AAF PUSH0 DUP4 ADD DUP7 PUSH2 0x159A JUMP JUMPDEST PUSH2 0x1ABC PUSH1 0x20 DUP4 ADD DUP6 PUSH2 0x159A JUMP JUMPDEST PUSH2 0x1AC9 PUSH1 0x40 DUP4 ADD DUP5 PUSH2 0x17E6 JUMP JUMPDEST SWAP5 SWAP4 POP POP POP POP JUMP JUMPDEST PUSH2 0x1ADA DUP2 PUSH2 0x15A9 JUMP JUMPDEST DUP2 EQ PUSH2 0x1AE4 JUMPI PUSH0 DUP1 REVERT JUMPDEST POP JUMP JUMPDEST PUSH0 DUP2 MLOAD SWAP1 POP PUSH2 0x1AF5 DUP2 PUSH2 0x1AD1 JUMP JUMPDEST SWAP3 SWAP2 POP POP JUMP JUMPDEST PUSH0 PUSH1 0x20 DUP3 DUP5 SUB SLT ISZERO PUSH2 0x1B10 JUMPI PUSH2 0x1B0F PUSH2 0x1457 JUMP JUMPDEST JUMPDEST PUSH0 PUSH2 0x1B1D DUP5 DUP3 DUP6 ADD PUSH2 0x1AE7 JUMP JUMPDEST SWAP2 POP POP SWAP3 SWAP2 POP POP JUMP JUMPDEST PUSH32 0x546F6B656E207472616E73666572206661696C65640000000000000000000000 PUSH0 DUP3 ADD MSTORE POP JUMP JUMPDEST PUSH0 PUSH2 0x1B5A PUSH1 0x15 DUP4 PUSH2 0x1838 JUMP JUMPDEST SWAP2 POP PUSH2 0x1B65 DUP3 PUSH2 0x1B26 JUMP JUMPDEST PUSH1 0x20 DUP3 ADD SWAP1 POP SWAP2 SWAP1 POP JUMP JUMPDEST PUSH0 PUSH1 0x20 DUP3 ADD SWAP1 POP DUP2 DUP2 SUB PUSH0 DUP4 ADD MSTORE PUSH2 0x1B87 DUP2 PUSH2 0x1B4E JUMP JUMPDEST SWAP1 POP SWAP2 SWAP1 POP JUMP JUMPDEST PUSH0 PUSH1 0x40 DUP3 ADD SWAP1 POP PUSH2 0x1BA1 PUSH0 DUP4 ADD DUP6 PUSH2 0x17D7 JUMP JUMPDEST PUSH2 0x1BAE PUSH1 0x20 DUP4 ADD DUP5 PUSH2 0x17E6 JUMP JUMPDEST SWAP4 SWAP3 POP POP POP JUMP JUMPDEST PUSH32 0x496E76616C69642061646D696E20616464726573730000000000000000000000 PUSH0 DUP3 ADD MSTORE POP JUMP JUMPDEST PUSH0 PUSH2 0x1BE9 PUSH1 0x15 DUP4 PUSH2 0x1838 JUMP JUMPDEST SWAP2 POP PUSH2 0x1BF4 DUP3 PUSH2 0x1BB5 JUMP JUMPDEST PUSH1 0x20 DUP3 ADD SWAP1 POP SWAP2 SWAP1 POP JUMP JUMPDEST PUSH0 PUSH1 0x20 DUP3 ADD SWAP1 POP DUP2 DUP2 SUB PUSH0 DUP4 ADD MSTORE PUSH2 0x1C16 DUP2 PUSH2 0x1BDD JUMP JUMPDEST SWAP1 POP SWAP2 SWAP1 POP JUMP JUMPDEST PUSH0 DUP2 MLOAD SWAP1 POP SWAP2 SWAP1 POP JUMP JUMPDEST PUSH0 DUP2 SWAP1 POP SWAP3 SWAP2 POP POP JUMP JUMPDEST PUSH0 JUMPDEST DUP4 DUP2 LT ISZERO PUSH2 0x1C4E JUMPI DUP1 DUP3 ADD MLOAD DUP2 DUP5 ADD MSTORE PUSH1 0x20 DUP2 ADD SWAP1 POP PUSH2 0x1C33 JUMP JUMPDEST PUSH0 DUP5 DUP5 ADD MSTORE POP POP POP POP JUMP JUMPDEST PUSH0 PUSH2 0x1C63 DUP3 PUSH2 0x1C1D JUMP JUMPDEST PUSH2 0x1C6D DUP2 DUP6 PUSH2 0x1C27 JUMP JUMPDEST SWAP4 POP PUSH2 0x1C7D DUP2 DUP6 PUSH1 0x20 DUP7 ADD PUSH2 0x1C31 JUMP JUMPDEST DUP1 DUP5 ADD SWAP2 POP POP SWAP3 SWAP2 POP POP JUMP JUMPDEST PUSH0 PUSH2 0x1C94 DUP3 DUP5 PUSH2 0x1C59 JUMP JUMPDEST SWAP2 POP DUP2 SWAP1 POP SWAP3 SWAP2 POP POP JUMP JUMPDEST PUSH32 0x5374616B65686F6C646572207479706520616C72656164792065786973747300 PUSH0 DUP3 ADD MSTORE POP JUMP JUMPDEST PUSH0 PUSH2 0x1CD3 PUSH1 0x1F DUP4 PUSH2 0x1838 JUMP JUMPDEST SWAP2 POP PUSH2 0x1CDE DUP3 PUSH2 0x1C9F JUMP JUMPDEST PUSH1 0x20 DUP3 ADD SWAP1 POP SWAP2 SWAP1 POP JUMP JUMPDEST PUSH0 PUSH1 0x20 DUP3 ADD SWAP1 POP DUP2 DUP2 SUB PUSH0 DUP4 ADD MSTORE PUSH2 0x1D00 DUP2 PUSH2 0x1CC7 JUMP JUMPDEST SWAP1 POP SWAP2 SWAP1 POP JUMP JUMPDEST PUSH32 0x4E487B7100000000000000000000000000000000000000000000000000000000 PUSH0 MSTORE PUSH1 0x22 PUSH1 0x4 MSTORE PUSH1 0x24 PUSH0 REVERT JUMPDEST PUSH0 PUSH1 0x2 DUP3 DIV SWAP1 POP PUSH1 0x1 DUP3 AND DUP1 PUSH2 0x1D4B JUMPI PUSH1 0x7F DUP3 AND SWAP2 POP JUMPDEST PUSH1 0x20 DUP3 LT DUP2 SUB PUSH2 0x1D5E JUMPI PUSH2 0x1D5D PUSH2 0x1D07 JUMP JUMPDEST JUMPDEST POP SWAP2 SWAP1 POP JUMP JUMPDEST PUSH0 DUP2 SWAP1 POP DUP2 PUSH0 MSTORE PUSH1 0x20 PUSH0 KECCAK256 SWAP1 POP SWAP2 SWAP1 POP JUMP JUMPDEST PUSH0 PUSH1 0x20 PUSH1 0x1F DUP4 ADD DIV SWAP1 POP SWAP2 SWAP1 POP JUMP JUMPDEST PUSH0 DUP3 DUP3 SHL SWAP1 POP SWAP3 SWAP2 POP POP JUMP JUMPDEST PUSH0 PUSH1 0x8 DUP4 MUL PUSH2 0x1DC0 PUSH32 0xFFFFFFFFFFFFFFFFFFFFFFFFFFFFFFFFFFFFFFFFFFFFFFFFFFFFFFFFFFFFFFFF DUP3 PUSH2 0x1D85 JUMP JUMPDEST PUSH2 0x1DCA DUP7 DUP4 PUSH2 0x1D85 JUMP JUMPDEST SWAP6 POP DUP1 NOT DUP5 AND SWAP4 POP DUP1 DUP7 AND DUP5 OR SWAP3 POP POP POP SWAP4 SWAP3 POP POP POP JUMP JUMPDEST PUSH0 DUP2 SWAP1 POP SWAP2 SWAP1 POP JUMP JUMPDEST PUSH0 PUSH2 0x1E05 PUSH2 0x1E00 PUSH2 0x1DFB DUP5 PUSH2 0x14EC JUMP JUMPDEST PUSH2 0x1DE2 JUMP JUMPDEST PUSH2 0x14EC JUMP JUMPDEST SWAP1 POP SWAP2 SWAP1 POP JUMP JUMPDEST PUSH0 DUP2 SWAP1 POP SWAP2 SWAP1 POP JUMP JUMPDEST PUSH2 0x1E1E DUP4 PUSH2 0x1DEB JUMP JUMPDEST PUSH2 0x1E32 PUSH2 0x1E2A DUP3 PUSH2 0x1E0C JUMP JUMPDEST DUP5 DUP5 SLOAD PUSH2 0x1D91 JUMP JUMPDEST DUP3 SSTORE POP POP POP POP JUMP JUMPDEST PUSH0 SWAP1 JUMP JUMPDEST PUSH2 0x1E46 PUSH2 0x1E3A JUMP JUMPDEST PUSH2 0x1E51 DUP2 DUP5 DUP5 PUSH2 0x1E15 JUMP JUMPDEST POP POP POP JUMP JUMPDEST JUMPDEST DUP2 DUP2 LT ISZERO PUSH2 0x1E74 JUMPI PUSH2 0x1E69 PUSH0 DUP3 PUSH2 0x1E3E JUMP JUMPDEST PUSH1 0x1 DUP2 ADD SWAP1 POP PUSH2 0x1E57 JUMP JUMPDEST POP POP JUMP JUMPDEST PUSH1 0x1F DUP3 GT ISZERO PUSH2 0x1EB9 JUMPI PUSH2 0x1E8A DUP2 PUSH2 0x1D64 JUMP JUMPDEST PUSH2 0x1E93 DUP5 PUSH2 0x1D76 JUMP JUMPDEST DUP2 ADD PUSH1 0x20 DUP6 LT ISZERO PUSH2 0x1EA2 JUMPI DUP2 SWAP1 POP JUMPDEST PUSH2 0x1EB6 PUSH2 0x1EAE DUP6 PUSH2 0x1D76 JUMP JUMPDEST DUP4 ADD DUP3 PUSH2 0x1E56 JUMP JUMPDEST POP POP JUMPDEST POP POP POP JUMP JUMPDEST PUSH0 DUP3 DUP3 SHR SWAP1 POP SWAP3 SWAP2 POP POP JUMP JUMPDEST PUSH0 PUSH2 0x1ED9 PUSH0 NOT DUP5 PUSH1 0x8 MUL PUSH2 0x1EBE JUMP JUMPDEST NOT DUP1 DUP4 AND SWAP2 POP POP SWAP3 SWAP2 POP POP JUMP JUMPDEST PUSH0 PUSH2 0x1EF1 DUP4 DUP4 PUSH2 0x1ECA JUMP JUMPDEST SWAP2 POP DUP3 PUSH1 0x2 MUL DUP3 OR SWAP1 POP SWAP3 SWAP2 POP POP JUMP JUMPDEST PUSH2 0x1F0A DUP3 PUSH2 0x1C1D JUMP JUMPDEST PUSH8 0xFFFFFFFFFFFFFFFF DUP2 GT ISZERO PUSH2 0x1F23 JUMPI PUSH2 0x1F22 PUSH2 0x161B JUMP JUMPDEST JUMPDEST PUSH2 0x1F2D DUP3 SLOAD PUSH2 0x1D34 JUMP JUMPDEST PUSH2 0x1F38 DUP3 DUP3 DUP6 PUSH2 0x1E78 JUMP JUMPDEST PUSH0 PUSH1 0x20 SWAP1 POP PUSH1 0x1F DUP4 GT PUSH1 0x1 DUP2 EQ PUSH2 0x1F69 JUMPI PUSH0 DUP5 ISZERO PUSH2 0x1F57 JUMPI DUP3 DUP8 ADD MLOAD SWAP1 POP JUMPDEST PUSH2 0x1F61 DUP6 DUP3 PUSH2 0x1EE6 JUMP JUMPDEST DUP7 SSTORE POP PUSH2 0x1FC8 JUMP JUMPDEST PUSH1 0x1F NOT DUP5 AND PUSH2 0x1F77 DUP7 PUSH2 0x1D64 JUMP JUMPDEST PUSH0 JUMPDEST DUP3 DUP2 LT ISZERO PUSH2 0x1F9E JUMPI DUP5 DUP10 ADD MLOAD DUP3 SSTORE PUSH1 0x1 DUP3 ADD SWAP2 POP PUSH1 0x20 DUP6 ADD SWAP5 POP PUSH1 0x20 DUP2 ADD SWAP1 POP PUSH2 0x1F79 JUMP JUMPDEST DUP7 DUP4 LT ISZERO PUSH2 0x1FBB JUMPI DUP5 DUP10 ADD MLOAD PUSH2 0x1FB7 PUSH1 0x1F DUP10 AND DUP3 PUSH2 0x1ECA JUMP JUMPDEST DUP4 SSTORE POP JUMPDEST PUSH1 0x1 PUSH1 0x2 DUP9 MUL ADD DUP9 SSTORE POP POP POP JUMPDEST POP POP POP POP POP POP JUMP JUMPDEST PUSH0 PUSH2 0x1FDA DUP3 PUSH2 0x1C1D JUMP JUMPDEST PUSH2 0x1FE4 DUP2 DUP6 PUSH2 0x1838 JUMP JUMPDEST SWAP4 POP PUSH2 0x1FF4 DUP2 DUP6 PUSH1 0x20 DUP7 ADD PUSH2 0x1C31 JUMP JUMPDEST PUSH2 0x1FFD DUP2 PUSH2 0x160B JUMP JUMPDEST DUP5 ADD SWAP2 POP POP SWAP3 SWAP2 POP POP JUMP JUMPDEST PUSH0 PUSH1 0x40 DUP3 ADD SWAP1 POP DUP2 DUP2 SUB PUSH0 DUP4 ADD MSTORE PUSH2 0x2020 DUP2 DUP6 PUSH2 0x1FD0 JUMP JUMPDEST SWAP1 POP PUSH2 0x202F PUSH1 0x20 DUP4 ADD DUP5 PUSH2 0x17E6 JUMP JUMPDEST SWAP4 SWAP3 POP POP POP JUMP JUMPDEST PUSH32 0x4F7267616E697A6174696F6E20616C7265616479207265676973746572656400 PUSH0 DUP3 ADD MSTORE POP JUMP JUMPDEST PUSH0 PUSH2 0x206A PUSH1 0x1F DUP4 PUSH2 0x1838 JUMP JUMPDEST SWAP2 POP PUSH2 0x2075 DUP3 PUSH2 0x2036 JUMP JUMPDEST PUSH1 0x20 DUP3 ADD SWAP1 POP SWAP2 SWAP1 POP JUMP JUMPDEST PUSH0 PUSH1 0x20 DUP3 ADD SWAP1 POP DUP2 DUP2 SUB PUSH0 DUP4 ADD MSTORE PUSH2 0x2097 DUP2 PUSH2 0x205E JUMP JUMPDEST SWAP1 POP SWAP2 SWAP1 POP JUMP JUMPDEST PUSH32 0x496E76616C696420746F6B656E20616464726573730000000000000000000000 PUSH0 DUP3 ADD MSTORE POP JUMP JUMPDEST PUSH0 PUSH2 0x20D2 PUSH1 0x15 DUP4 PUSH2 0x1838 JUMP JUMPDEST SWAP2 POP PUSH2 0x20DD DUP3 PUSH2 0x209E JUMP JUMPDEST PUSH1 0x20 DUP3 ADD SWAP1 POP SWAP2 SWAP1 POP JUMP JUMPDEST PUSH0 PUSH1 0x20 DUP3 ADD SWAP1 POP DUP2 DUP2 SUB PUSH0 DUP4 ADD MSTORE PUSH2 0x20FF DUP2 PUSH2 0x20C6 JUMP JUMPDEST SWAP1 POP SWAP2 SWAP1 POP JUMP JUMPDEST PUSH32 0x4F7267616E697A6174696F6E206E6F7420726567697374657265640000000000 PUSH0 DUP3 ADD MSTORE POP JUMP JUMPDEST PUSH0 PUSH2 0x213A PUSH1 0x1B DUP4 PUSH2 0x1838 JUMP JUMPDEST SWAP2 POP PUSH2 0x2145 DUP3 PUSH2 0x2106 JUMP JUMPDEST PUSH1 0x20 DUP3 ADD SWAP1 POP SWAP2 SWAP1 POP JUMP JUMPDEST PUSH0 PUSH1 0x20 DUP3 ADD SWAP1 POP DUP2 DUP2 SUB PUSH0 DUP4 ADD MSTORE PUSH2 0x2167 DUP2 PUSH2 0x212E JUMP JUMPDEST SWAP1 POP SWAP2 SWAP1 POP JUMP JUMPDEST PUSH32 0x4E6F2076657374696E67207363686564756C6520666F756E6420666F72206265 PUSH0 DUP3 ADD MSTORE PUSH32 0x6E65666963696172790000000000000000000000000000000000000000000000 PUSH1 0x20 DUP3 ADD MSTORE POP JUMP JUMPDEST PUSH0 PUSH2 0x21C8 PUSH1 0x29 DUP4 PUSH2 0x1838 JUMP JUMPDEST SWAP2 POP PUSH2 0x21D3 DUP3 PUSH2 0x216E JUMP JUMPDEST PUSH1 0x40 DUP3 ADD SWAP1 POP SWAP2 SWAP1 POP JUMP JUMPDEST PUSH0 PUSH1 0x20 DUP3 ADD SWAP1 POP DUP2 DUP2 SUB PUSH0 DUP4 ADD MSTORE PUSH2 0x21F5 DUP2 PUSH2 0x21BC JUMP JUMPDEST SWAP1 POP SWAP2 SWAP1 POP JUMP JUMPDEST PUSH32 0x4E6F20746F6B656E7320617661696C61626C6520746F20636C61696D00000000 PUSH0 DUP3 ADD MSTORE POP JUMP JUMPDEST PUSH0 PUSH2 0x2230 PUSH1 0x1C DUP4 PUSH2 0x1838 JUMP JUMPDEST SWAP2 POP PUSH2 0x223B DUP3 PUSH2 0x21FC JUMP JUMPDEST PUSH1 0x20 DUP3 ADD SWAP1 POP SWAP2 SWAP1 POP JUMP JUMPDEST PUSH0 PUSH1 0x20 DUP3 ADD SWAP1 POP DUP2 DUP2 SUB PUSH0 DUP4 ADD MSTORE PUSH2 0x225D DUP2 PUSH2 0x2224 JUMP JUMPDEST SWAP1 POP SWAP2 SWAP1 POP JUMP JUMPDEST PUSH0 PUSH1 0x40 DUP3 ADD SWAP1 POP PUSH2 0x2277 PUSH0 DUP4 ADD DUP6 PUSH2 0x159A JUMP JUMPDEST PUSH2 0x2284 PUSH1 0x20 DUP4 ADD DUP5 PUSH2 0x17E6 JUMP JUMPDEST SWAP4 SWAP3 POP POP POP JUMP JUMPDEST PUSH0 PUSH1 0x20 DUP3 ADD SWAP1 POP PUSH2 0x229E PUSH0 DUP4 ADD DUP5 PUSH2 0x17E6 JUMP JUMPDEST SWAP3 SWAP2 POP POP JUMP JUMPDEST PUSH32 0x43616C6C6572206973206E6F7420746865206F776E6572000000000000000000 PUSH0 DUP3 ADD MSTORE POP JUMP JUMPDEST PUSH0 PUSH2 0x22D8 PUSH1 0x17 DUP4 PUSH2 0x1838 JUMP JUMPDEST SWAP2 POP PUSH2 0x22E3 DUP3 PUSH2 0x22A4 JUMP JUMPDEST PUSH1 0x20 DUP3 ADD SWAP1 POP SWAP2 SWAP1 POP JUMP JUMPDEST PUSH0 PUSH1 0x20 DUP3 ADD SWAP1 POP DUP2 DUP2 SUB PUSH0 DUP4 ADD MSTORE PUSH2 0x2305 DUP2 PUSH2 0x22CC JUMP JUMPDEST SWAP1 POP SWAP2 SWAP1 POP JUMP JUMPDEST PUSH32 0x4E6577206F776E657220697320746865207A65726F2061646472657373000000 PUSH0 DUP3 ADD MSTORE POP JUMP JUMPDEST PUSH0 PUSH2 0x2340 PUSH1 0x1D DUP4 PUSH2 0x1838 JUMP JUMPDEST SWAP2 POP PUSH2 0x234B DUP3 PUSH2 0x230C JUMP JUMPDEST PUSH1 0x20 DUP3 ADD SWAP1 POP SWAP2 SWAP1 POP JUMP JUMPDEST PUSH0 PUSH1 0x20 DUP3 ADD SWAP1 POP DUP2 DUP2 SUB PUSH0 DUP4 ADD MSTORE PUSH2 0x236D DUP2 PUSH2 0x2334 JUMP JUMPDEST SWAP1 POP SWAP2 SWAP1 POP JUMP JUMPDEST PUSH32 0x4E487B7100000000000000000000000000000000000000000000000000000000 PUSH0 MSTORE PUSH1 0x11 PUSH1 0x4 MSTORE PUSH1 0x24 PUSH0 REVERT JUMPDEST PUSH0 PUSH2 0x23AB DUP3 PUSH2 0x14EC JUMP JUMPDEST SWAP2 POP PUSH2 0x23B6 DUP4 PUSH2 0x14EC JUMP JUMPDEST SWAP3 POP DUP3 DUP3 SUB SWAP1 POP DUP2 DUP2 GT ISZERO PUSH2 0x23CE JUMPI PUSH2 0x23CD PUSH2 0x2374 JUMP JUMPDEST JUMPDEST SWAP3 SWAP2 POP POP JUMP JUMPDEST PUSH0 PUSH2 0x23DE DUP3 PUSH2 0x14EC JUMP JUMPDEST SWAP2 POP PUSH2 0x23E9 DUP4 PUSH2 0x14EC JUMP JUMPDEST SWAP3 POP DUP3 DUP3 ADD SWAP1 POP DUP1 DUP3 GT ISZERO PUSH2 0x2401 JUMPI PUSH2 0x2400 PUSH2 0x2374 JUMP JUMPDEST JUMPDEST SWAP3 SWAP2 POP POP JUMP JUMPDEST PUSH0 PUSH2 0x2411 DUP3 PUSH2 0x14EC JUMP JUMPDEST SWAP2 POP PUSH2 0x241C DUP4 PUSH2 0x14EC JUMP JUMPDEST SWAP3 POP DUP3 DUP3 MUL PUSH2 0x242A DUP2 PUSH2 0x14EC JUMP JUMPDEST SWAP2 POP DUP3 DUP3 DIV DUP5 EQ DUP4 ISZERO OR PUSH2 0x2441 JUMPI PUSH2 0x2440 PUSH2 0x2374 JUMP JUMPDEST JUMPDEST POP SWAP3 SWAP2 POP POP JUMP JUMPDEST PUSH32 0x4E487B7100000000000000000000000000000000000000000000000000000000 PUSH0 MSTORE PUSH1 0x12 PUSH1 0x4 MSTORE PUSH1 0x24 PUSH0 REVERT JUMPDEST PUSH0 PUSH2 0x247F DUP3 PUSH2 0x14EC JUMP JUMPDEST SWAP2 POP PUSH2 0x248A DUP4 PUSH2 0x14EC JUMP JUMPDEST SWAP3 POP DUP3 PUSH2 0x249A JUMPI PUSH2 0x2499 PUSH2 0x2448 JUMP JUMPDEST JUMPDEST DUP3 DUP3 DIV SWAP1 POP SWAP3 SWAP2 POP POP JUMP INVALID LOG2 PUSH5 0x6970667358 0x22 SLT KECCAK256 SLOAD 0xAD 0xB5 CALLCODE SLT 0xA6 0xD LOG3 0xB0 CODESIZE 0xB1 0xA5 0x22 OR 0xEE SWAP9 PUSH19 0x5531B06FFEE7ED64DA226FA0A5F9BB64736F6C PUSH4 0x43000814 STOP CALLER "
				},
				"gasEstimates": {
					"creation": {
						"codeDepositCost": "1887000",
						"executionCost": "26253",
						"totalCost": "1913253"
					},
					"external": {
						"addAdmin(address)": "28856",
						"addStakeholderType(string,uint256)": "infinite",
						"claimTokens(address)": "infinite",
						"createVestingSchedule(address,bytes32,uint256)": "infinite",
						"getVestingInfo(address,address)": "infinite",
						"organizations(address)": "infinite",
						"owner()": "2572",
						"registerOrganization(address)": "78941",
						"transferOwnership(address)": "26981"
					},
					"internal": {
						"calculateVestedAmount(struct GuevarraTokenVestingManager.Vesting memory,uint256)": "infinite"
					}
				},
				"methodIdentifiers": {
					"addAdmin(address)": "70480275",
					"addStakeholderType(string,uint256)": "8ddb44a8",
					"claimTokens(address)": "df8de3e7",
					"createVestingSchedule(address,bytes32,uint256)": "253a45f7",
					"getVestingInfo(address,address)": "ffc7b095",
					"organizations(address)": "5a1f7406",
					"owner()": "8da5cb5b",
					"registerOrganization(address)": "90be003c",
					"transferOwnership(address)": "f2fde38b"
				}
			},
			"storageLayout": {
				"storage": [
					{
						"astId": 399,
						"contract": "BuildingFirstDapp/GuevarraTokenVestingManager.sol:GuevarraTokenVestingManager",
						"label": "owner",
						"offset": 0,
						"slot": "0",
						"type": "t_address"
					},
					{
						"astId": 437,
						"contract": "BuildingFirstDapp/GuevarraTokenVestingManager.sol:GuevarraTokenVestingManager",
						"label": "organizations",
						"offset": 0,
						"slot": "1",
						"type": "t_mapping(t_address,t_struct(Organization)418_storage)"
					}
				],
				"types": {
					"t_address": {
						"encoding": "inplace",
						"label": "address",
						"numberOfBytes": "20"
					},
					"t_bool": {
						"encoding": "inplace",
						"label": "bool",
						"numberOfBytes": "1"
					},
					"t_bytes32": {
						"encoding": "inplace",
						"label": "bytes32",
						"numberOfBytes": "32"
					},
					"t_mapping(t_address,t_bool)": {
						"encoding": "mapping",
						"key": "t_address",
						"label": "mapping(address => bool)",
						"numberOfBytes": "32",
						"value": "t_bool"
					},
					"t_mapping(t_address,t_struct(Organization)418_storage)": {
						"encoding": "mapping",
						"key": "t_address",
						"label": "mapping(address => struct GuevarraTokenVestingManager.Organization)",
						"numberOfBytes": "32",
						"value": "t_struct(Organization)418_storage"
					},
					"t_mapping(t_address,t_struct(Vesting)432_storage)": {
						"encoding": "mapping",
						"key": "t_address",
						"label": "mapping(address => struct GuevarraTokenVestingManager.Vesting)",
						"numberOfBytes": "32",
						"value": "t_struct(Vesting)432_storage"
					},
					"t_mapping(t_bytes32,t_struct(StakeholderType)423_storage)": {
						"encoding": "mapping",
						"key": "t_bytes32",
						"label": "mapping(bytes32 => struct GuevarraTokenVestingManager.StakeholderType)",
						"numberOfBytes": "32",
						"value": "t_struct(StakeholderType)423_storage"
					},
					"t_string_storage": {
						"encoding": "bytes",
						"label": "string",
						"numberOfBytes": "32"
					},
					"t_struct(Organization)418_storage": {
						"encoding": "inplace",
						"label": "struct GuevarraTokenVestingManager.Organization",
						"members": [
							{
								"astId": 401,
								"contract": "BuildingFirstDapp/GuevarraTokenVestingManager.sol:GuevarraTokenVestingManager",
								"label": "tokenAddress",
								"offset": 0,
								"slot": "0",
								"type": "t_address"
							},
							{
								"astId": 403,
								"contract": "BuildingFirstDapp/GuevarraTokenVestingManager.sol:GuevarraTokenVestingManager",
								"label": "isRegistered",
								"offset": 20,
								"slot": "0",
								"type": "t_bool"
							},
							{
								"astId": 407,
								"contract": "BuildingFirstDapp/GuevarraTokenVestingManager.sol:GuevarraTokenVestingManager",
								"label": "admins",
								"offset": 0,
								"slot": "1",
								"type": "t_mapping(t_address,t_bool)"
							},
							{
								"astId": 412,
								"contract": "BuildingFirstDapp/GuevarraTokenVestingManager.sol:GuevarraTokenVestingManager",
								"label": "stakeholderTypes",
								"offset": 0,
								"slot": "2",
								"type": "t_mapping(t_bytes32,t_struct(StakeholderType)423_storage)"
							},
							{
								"astId": 417,
								"contract": "BuildingFirstDapp/GuevarraTokenVestingManager.sol:GuevarraTokenVestingManager",
								"label": "vestings",
								"offset": 0,
								"slot": "3",
								"type": "t_mapping(t_address,t_struct(Vesting)432_storage)"
							}
						],
						"numberOfBytes": "128"
					},
					"t_struct(StakeholderType)423_storage": {
						"encoding": "inplace",
						"label": "struct GuevarraTokenVestingManager.StakeholderType",
						"members": [
							{
								"astId": 420,
								"contract": "BuildingFirstDapp/GuevarraTokenVestingManager.sol:GuevarraTokenVestingManager",
								"label": "name",
								"offset": 0,
								"slot": "0",
								"type": "t_string_storage"
							},
							{
								"astId": 422,
								"contract": "BuildingFirstDapp/GuevarraTokenVestingManager.sol:GuevarraTokenVestingManager",
								"label": "vestingPeriod",
								"offset": 0,
								"slot": "1",
								"type": "t_uint256"
							}
						],
						"numberOfBytes": "64"
					},
					"t_struct(Vesting)432_storage": {
						"encoding": "inplace",
						"label": "struct GuevarraTokenVestingManager.Vesting",
						"members": [
							{
								"astId": 425,
								"contract": "BuildingFirstDapp/GuevarraTokenVestingManager.sol:GuevarraTokenVestingManager",
								"label": "stakeholderTypeId",
								"offset": 0,
								"slot": "0",
								"type": "t_bytes32"
							},
							{
								"astId": 427,
								"contract": "BuildingFirstDapp/GuevarraTokenVestingManager.sol:GuevarraTokenVestingManager",
								"label": "amount",
								"offset": 0,
								"slot": "1",
								"type": "t_uint256"
							},
							{
								"astId": 429,
								"contract": "BuildingFirstDapp/GuevarraTokenVestingManager.sol:GuevarraTokenVestingManager",
								"label": "startTime",
								"offset": 0,
								"slot": "2",
								"type": "t_uint256"
							},
							{
								"astId": 431,
								"contract": "BuildingFirstDapp/GuevarraTokenVestingManager.sol:GuevarraTokenVestingManager",
								"label": "claimedAmount",
								"offset": 0,
								"slot": "3",
								"type": "t_uint256"
							}
						],
						"numberOfBytes": "128"
					},
					"t_uint256": {
						"encoding": "inplace",
						"label": "uint256",
						"numberOfBytes": "32"
					}
				}
			},
			"userdoc": {
				"kind": "user",
				"methods": {},
				"version": 1
			}
		}
	}
}