{
	"Functions&Errors/ErrorHandlingSaiTok.sol": {
		"SaiTok": {
			"abi": [
				{
					"inputs": [
						{
							"internalType": "uint256",
							"name": "balance",
							"type": "uint256"
						},
						{
							"internalType": "uint256",
							"name": "withdrawAmount",
							"type": "uint256"
						}
					],
					"name": "InsufficientBalance",
					"type": "error"
				},
				{
					"anonymous": false,
					"inputs": [
						{
							"indexed": false,
							"internalType": "uint256",
							"name": "totalSupply",
							"type": "uint256"
						}
					],
					"name": "TotalTokenSupplyChecked",
					"type": "event"
				},
				{
					"inputs": [
						{
							"internalType": "address",
							"name": "",
							"type": "address"
						}
					],
					"name": "accountBalance",
					"outputs": [
						{
							"internalType": "uint256",
							"name": "",
							"type": "uint256"
						}
					],
					"stateMutability": "view",
					"type": "function"
				},
				{
					"inputs": [
						{
							"internalType": "address",
							"name": "recipient",
							"type": "address"
						},
						{
							"internalType": "uint256",
							"name": "value",
							"type": "uint256"
						}
					],
					"name": "createTokens",
					"outputs": [],
					"stateMutability": "nonpayable",
					"type": "function"
				},
				{
					"inputs": [
						{
							"internalType": "address",
							"name": "owner",
							"type": "address"
						},
						{
							"internalType": "uint256",
							"name": "value",
							"type": "uint256"
						}
					],
					"name": "destroyTokens",
					"outputs": [],
					"stateMutability": "nonpayable",
					"type": "function"
				},
				{
					"inputs": [],
					"name": "testAssert",
					"outputs": [],
					"stateMutability": "nonpayable",
					"type": "function"
				},
				{
					"inputs": [
						{
							"internalType": "uint256",
							"name": "_withdrawAmount",
							"type": "uint256"
						}
					],
					"name": "testCustomError",
					"outputs": [],
					"stateMutability": "view",
					"type": "function"
				},
				{
					"inputs": [],
					"name": "tokenName",
					"outputs": [
						{
							"internalType": "string",
							"name": "",
							"type": "string"
						}
					],
					"stateMutability": "view",
					"type": "function"
				},
				{
					"inputs": [],
					"name": "tokenSymbol",
					"outputs": [
						{
							"internalType": "string",
							"name": "",
							"type": "string"
						}
					],
					"stateMutability": "view",
					"type": "function"
				},
				{
					"inputs": [],
					"name": "totalTokenSupply",
					"outputs": [
						{
							"internalType": "uint256",
							"name": "",
							"type": "uint256"
						}
					],
					"stateMutability": "view",
					"type": "function"
				}
			],
			"devdoc": {
				"kind": "dev",
				"methods": {},
				"version": 1
			},
			"evm": {
				"assembly": "    /* \"Functions&Errors/ErrorHandlingSaiTok.sol\":60:2446  contract SaiTok {\r... */\n  mstore(0x40, 0x80)\n    /* \"Functions&Errors/ErrorHandlingSaiTok.sol\":146:180  string public tokenName = \"SaiTok\" */\n  mload(0x40)\n  dup1\n  0x40\n  add\n  0x40\n  mstore\n  dup1\n  0x06\n  dup2\n  mstore\n  0x20\n  add\n  0x536169546f6b0000000000000000000000000000000000000000000000000000\n  dup2\n  mstore\n  pop\n  0x00\n  swap1\n  dup1\n  mload\n  swap1\n  0x20\n  add\n  swap1\n  tag_1\n  swap3\n  swap2\n  swap1\n  tag_2\n  jump\t// in\ntag_1:\n  pop\n    /* \"Functions&Errors/ErrorHandlingSaiTok.sol\":187:220  string public tokenSymbol = \"SAI\" */\n  mload(0x40)\n  dup1\n  0x40\n  add\n  0x40\n  mstore\n  dup1\n  0x03\n  dup2\n  mstore\n  0x20\n  add\n  0x5341490000000000000000000000000000000000000000000000000000000000\n  dup2\n  mstore\n  pop\n  0x01\n  swap1\n  dup1\n  mload\n  swap1\n  0x20\n  add\n  swap1\n  tag_3\n  swap3\n  swap2\n  swap1\n  tag_2\n  jump\t// in\ntag_3:\n  pop\n    /* \"Functions&Errors/ErrorHandlingSaiTok.sol\":261:262  0 */\n  0x00\n    /* \"Functions&Errors/ErrorHandlingSaiTok.sol\":227:262  uint256 public totalTokenSupply = 0 */\n  0x02\n  sstore\n    /* \"Functions&Errors/ErrorHandlingSaiTok.sol\":60:2446  contract SaiTok {\r... */\n  callvalue\n  dup1\n  iszero\n  tag_4\n  jumpi\n  0x00\n  dup1\n  revert\ntag_4:\n  pop\n  jump(tag_5)\ntag_2:\n  dup3\n  dup1\n  sload\n  tag_6\n  swap1\n  tag_7\n  jump\t// in\ntag_6:\n  swap1\n  0x00\n  mstore\n  keccak256(0x00, 0x20)\n  swap1\n  0x1f\n  add\n  0x20\n  swap1\n  div\n  dup2\n  add\n  swap3\n  dup3\n  tag_9\n  jumpi\n  0x00\n  dup6\n  sstore\n  jump(tag_8)\ntag_9:\n  dup3\n  0x1f\n  lt\n  tag_10\n  jumpi\n  dup1\n  mload\n  not(0xff)\n  and\n  dup4\n  dup1\n  add\n  or\n  dup6\n  sstore\n  jump(tag_8)\ntag_10:\n  dup3\n  dup1\n  add\n  0x01\n  add\n  dup6\n  sstore\n  dup3\n  iszero\n  tag_8\n  jumpi\n  swap2\n  dup3\n  add\ntag_11:\n  dup3\n  dup2\n  gt\n  iszero\n  tag_12\n  jumpi\n  dup3\n  mload\n  dup3\n  sstore\n  swap2\n  0x20\n  add\n  swap2\n  swap1\n  0x01\n  add\n  swap1\n  jump(tag_11)\ntag_12:\ntag_8:\n  pop\n  swap1\n  pop\n  tag_13\n  swap2\n  swap1\n  tag_14\n  jump\t// in\ntag_13:\n  pop\n  swap1\n  jump\t// out\ntag_14:\ntag_15:\n  dup1\n  dup3\n  gt\n  iszero\n  tag_16\n  jumpi\n  0x00\n  dup2\n  0x00\n  swap1\n  sstore\n  pop\n  0x01\n  add\n  jump(tag_15)\ntag_16:\n  pop\n  swap1\n  jump\t// out\n    /* \"#utility.yul\":7:327   */\ntag_7:\n    /* \"#utility.yul\":51:57   */\n  0x00\n    /* \"#utility.yul\":88:89   */\n  0x02\n    /* \"#utility.yul\":82:86   */\n  dup3\n    /* \"#utility.yul\":78:90   */\n  div\n    /* \"#utility.yul\":68:90   */\n  swap1\n  pop\n    /* \"#utility.yul\":135:136   */\n  0x01\n    /* \"#utility.yul\":129:133   */\n  dup3\n    /* \"#utility.yul\":125:137   */\n  and\n    /* \"#utility.yul\":156:174   */\n  dup1\n    /* \"#utility.yul\":146:227   */\n  tag_19\n  jumpi\n    /* \"#utility.yul\":212:216   */\n  0x7f\n    /* \"#utility.yul\":204:210   */\n  dup3\n    /* \"#utility.yul\":200:217   */\n  and\n    /* \"#utility.yul\":190:217   */\n  swap2\n  pop\n    /* \"#utility.yul\":146:227   */\ntag_19:\n    /* \"#utility.yul\":274:276   */\n  0x20\n    /* \"#utility.yul\":266:272   */\n  dup3\n    /* \"#utility.yul\":263:277   */\n  lt\n    /* \"#utility.yul\":243:261   */\n  dup2\n    /* \"#utility.yul\":240:278   */\n  eq\n    /* \"#utility.yul\":237:321   */\n  iszero\n  tag_20\n  jumpi\n    /* \"#utility.yul\":293:311   */\n  tag_21\n  tag_22\n  jump\t// in\ntag_21:\n    /* \"#utility.yul\":237:321   */\ntag_20:\n    /* \"#utility.yul\":58:327   */\n  pop\n    /* \"#utility.yul\":7:327   */\n  swap2\n  swap1\n  pop\n  jump\t// out\n    /* \"#utility.yul\":333:513   */\ntag_22:\n    /* \"#utility.yul\":381:458   */\n  0x4e487b7100000000000000000000000000000000000000000000000000000000\n    /* \"#utility.yul\":378:379   */\n  0x00\n    /* \"#utility.yul\":371:459   */\n  mstore\n    /* \"#utility.yul\":478:482   */\n  0x22\n    /* \"#utility.yul\":475:476   */\n  0x04\n    /* \"#utility.yul\":468:483   */\n  mstore\n    /* \"#utility.yul\":502:506   */\n  0x24\n    /* \"#utility.yul\":499:500   */\n  0x00\n    /* \"#utility.yul\":492:507   */\n  revert\n    /* \"Functions&Errors/ErrorHandlingSaiTok.sol\":60:2446  contract SaiTok {\r... */\ntag_5:\n  dataSize(sub_0)\n  dup1\n  dataOffset(sub_0)\n  0x00\n  codecopy\n  0x00\n  return\nstop\n\nsub_0: assembly {\n        /* \"Functions&Errors/ErrorHandlingSaiTok.sol\":60:2446  contract SaiTok {\r... */\n      mstore(0x40, 0x80)\n      callvalue\n      dup1\n      iszero\n      tag_1\n      jumpi\n      0x00\n      dup1\n      revert\n    tag_1:\n      pop\n      jumpi(tag_2, lt(calldatasize, 0x04))\n      shr(0xe0, calldataload(0x00))\n      dup1\n      0x7b61c320\n      gt\n      tag_11\n      jumpi\n      dup1\n      0x7b61c320\n      eq\n      tag_7\n      jumpi\n      dup1\n      0xa69e894e\n      eq\n      tag_8\n      jumpi\n      dup1\n      0xd294cb0f\n      eq\n      tag_9\n      jumpi\n      dup1\n      0xd3ce77fe\n      eq\n      tag_10\n      jumpi\n      jump(tag_2)\n    tag_11:\n      dup1\n      0x1ca8b6cb\n      eq\n      tag_3\n      jumpi\n      dup1\n      0x2b813bc0\n      eq\n      tag_4\n      jumpi\n      dup1\n      0x6c02a931\n      eq\n      tag_5\n      jumpi\n      dup1\n      0x75f7286c\n      eq\n      tag_6\n      jumpi\n    tag_2:\n      0x00\n      dup1\n      revert\n        /* \"Functions&Errors/ErrorHandlingSaiTok.sol\":227:262  uint256 public totalTokenSupply = 0 */\n    tag_3:\n      tag_12\n      tag_13\n      jump\t// in\n    tag_12:\n      mload(0x40)\n      tag_14\n      swap2\n      swap1\n      tag_15\n      jump\t// in\n    tag_14:\n      mload(0x40)\n      dup1\n      swap2\n      sub\n      swap1\n      return\n        /* \"Functions&Errors/ErrorHandlingSaiTok.sol\":1666:2013  function testAssert() public {\r... */\n    tag_4:\n      tag_16\n      tag_17\n      jump\t// in\n    tag_16:\n      stop\n        /* \"Functions&Errors/ErrorHandlingSaiTok.sol\":146:180  string public tokenName = \"SaiTok\" */\n    tag_5:\n      tag_18\n      tag_19\n      jump\t// in\n    tag_18:\n      mload(0x40)\n      tag_20\n      swap2\n      swap1\n      tag_21\n      jump\t// in\n    tag_20:\n      mload(0x40)\n      dup1\n      swap2\n      sub\n      swap1\n      return\n        /* \"Functions&Errors/ErrorHandlingSaiTok.sol\":2078:2443  function testCustomError(uint _withdrawAmount) public view {\r... */\n    tag_6:\n      tag_22\n      0x04\n      dup1\n      calldatasize\n      sub\n      dup2\n      add\n      swap1\n      tag_23\n      swap2\n      swap1\n      tag_24\n      jump\t// in\n    tag_23:\n      tag_25\n      jump\t// in\n    tag_22:\n      stop\n        /* \"Functions&Errors/ErrorHandlingSaiTok.sol\":187:220  string public tokenSymbol = \"SAI\" */\n    tag_7:\n      tag_26\n      tag_27\n      jump\t// in\n    tag_26:\n      mload(0x40)\n      tag_28\n      swap2\n      swap1\n      tag_21\n      jump\t// in\n    tag_28:\n      mload(0x40)\n      dup1\n      swap2\n      sub\n      swap1\n      return\n        /* \"Functions&Errors/ErrorHandlingSaiTok.sol\":656:1031  function createTokens(address recipient, uint256 value) public {\r... */\n    tag_8:\n      tag_29\n      0x04\n      dup1\n      calldatasize\n      sub\n      dup2\n      add\n      swap1\n      tag_30\n      swap2\n      swap1\n      tag_31\n      jump\t// in\n    tag_30:\n      tag_32\n      jump\t// in\n    tag_29:\n      stop\n        /* \"Functions&Errors/ErrorHandlingSaiTok.sol\":341:390  mapping(address => uint256) public accountBalance */\n    tag_9:\n      tag_33\n      0x04\n      dup1\n      calldatasize\n      sub\n      dup2\n      add\n      swap1\n      tag_34\n      swap2\n      swap1\n      tag_35\n      jump\t// in\n    tag_34:\n      tag_36\n      jump\t// in\n    tag_33:\n      mload(0x40)\n      tag_37\n      swap2\n      swap1\n      tag_15\n      jump\t// in\n    tag_37:\n      mload(0x40)\n      dup1\n      swap2\n      sub\n      swap1\n      return\n        /* \"Functions&Errors/ErrorHandlingSaiTok.sol\":1081:1617  function destroyTokens(address owner, uint256 value) public {\r... */\n    tag_10:\n      tag_38\n      0x04\n      dup1\n      calldatasize\n      sub\n      dup2\n      add\n      swap1\n      tag_39\n      swap2\n      swap1\n      tag_31\n      jump\t// in\n    tag_39:\n      tag_40\n      jump\t// in\n    tag_38:\n      stop\n        /* \"Functions&Errors/ErrorHandlingSaiTok.sol\":227:262  uint256 public totalTokenSupply = 0 */\n    tag_13:\n      sload(0x02)\n      dup2\n      jump\t// out\n        /* \"Functions&Errors/ErrorHandlingSaiTok.sol\":1666:2013  function testAssert() public {\r... */\n    tag_17:\n        /* \"Functions&Errors/ErrorHandlingSaiTok.sol\":1795:1836  TotalTokenSupplyChecked(totalTokenSupply) */\n      0x01a73ed9712f640547060159cef1a4bb799ac56f7f9f20b09b316c12e8bc2969\n        /* \"Functions&Errors/ErrorHandlingSaiTok.sol\":1819:1835  totalTokenSupply */\n      sload(0x02)\n        /* \"Functions&Errors/ErrorHandlingSaiTok.sol\":1795:1836  TotalTokenSupplyChecked(totalTokenSupply) */\n      mload(0x40)\n      tag_42\n      swap2\n      swap1\n      tag_15\n      jump\t// in\n    tag_42:\n      mload(0x40)\n      dup1\n      swap2\n      sub\n      swap1\n      log1\n        /* \"Functions&Errors/ErrorHandlingSaiTok.sol\":1985:1988  500 */\n      0x01f4\n        /* \"Functions&Errors/ErrorHandlingSaiTok.sol\":1965:1981  totalTokenSupply */\n      sload(0x02)\n        /* \"Functions&Errors/ErrorHandlingSaiTok.sol\":1965:1988  totalTokenSupply >= 500 */\n      lt\n      iszero\n        /* \"Functions&Errors/ErrorHandlingSaiTok.sol\":1958:1989  assert(totalTokenSupply >= 500) */\n      tag_43\n      jumpi\n      tag_44\n      tag_45\n      jump\t// in\n    tag_44:\n    tag_43:\n        /* \"Functions&Errors/ErrorHandlingSaiTok.sol\":1666:2013  function testAssert() public {\r... */\n      jump\t// out\n        /* \"Functions&Errors/ErrorHandlingSaiTok.sol\":146:180  string public tokenName = \"SaiTok\" */\n    tag_19:\n      0x00\n      dup1\n      sload\n      tag_46\n      swap1\n      tag_47\n      jump\t// in\n    tag_46:\n      dup1\n      0x1f\n      add\n      0x20\n      dup1\n      swap2\n      div\n      mul\n      0x20\n      add\n      mload(0x40)\n      swap1\n      dup2\n      add\n      0x40\n      mstore\n      dup1\n      swap3\n      swap2\n      swap1\n      dup2\n      dup2\n      mstore\n      0x20\n      add\n      dup3\n      dup1\n      sload\n      tag_48\n      swap1\n      tag_47\n      jump\t// in\n    tag_48:\n      dup1\n      iszero\n      tag_49\n      jumpi\n      dup1\n      0x1f\n      lt\n      tag_50\n      jumpi\n      0x0100\n      dup1\n      dup4\n      sload\n      div\n      mul\n      dup4\n      mstore\n      swap2\n      0x20\n      add\n      swap2\n      jump(tag_49)\n    tag_50:\n      dup3\n      add\n      swap2\n      swap1\n      0x00\n      mstore\n      keccak256(0x00, 0x20)\n      swap1\n    tag_51:\n      dup2\n      sload\n      dup2\n      mstore\n      swap1\n      0x01\n      add\n      swap1\n      0x20\n      add\n      dup1\n      dup4\n      gt\n      tag_51\n      jumpi\n      dup3\n      swap1\n      sub\n      0x1f\n      and\n      dup3\n      add\n      swap2\n    tag_49:\n      pop\n      pop\n      pop\n      pop\n      pop\n      dup2\n      jump\t// out\n        /* \"Functions&Errors/ErrorHandlingSaiTok.sol\":2078:2443  function testCustomError(uint _withdrawAmount) public view {\r... */\n    tag_25:\n        /* \"Functions&Errors/ErrorHandlingSaiTok.sol\":2148:2156  uint bal */\n      0x00\n        /* \"Functions&Errors/ErrorHandlingSaiTok.sol\":2159:2173  accountBalance */\n      0x03\n        /* \"Functions&Errors/ErrorHandlingSaiTok.sol\":2159:2185  accountBalance[msg.sender] */\n      0x00\n        /* \"Functions&Errors/ErrorHandlingSaiTok.sol\":2174:2184  msg.sender */\n      caller\n        /* \"Functions&Errors/ErrorHandlingSaiTok.sol\":2159:2185  accountBalance[msg.sender] */\n      0xffffffffffffffffffffffffffffffffffffffff\n      and\n      0xffffffffffffffffffffffffffffffffffffffff\n      and\n      dup2\n      mstore\n      0x20\n      add\n      swap1\n      dup2\n      mstore\n      0x20\n      add\n      0x00\n      keccak256\n      sload\n        /* \"Functions&Errors/ErrorHandlingSaiTok.sol\":2148:2185  uint bal = accountBalance[msg.sender] */\n      swap1\n      pop\n        /* \"Functions&Errors/ErrorHandlingSaiTok.sol\":2292:2307  _withdrawAmount */\n      dup2\n        /* \"Functions&Errors/ErrorHandlingSaiTok.sol\":2286:2289  bal */\n      dup2\n        /* \"Functions&Errors/ErrorHandlingSaiTok.sol\":2286:2307  bal < _withdrawAmount */\n      lt\n        /* \"Functions&Errors/ErrorHandlingSaiTok.sol\":2282:2436  if (bal < _withdrawAmount) {\r... */\n      iszero\n      tag_53\n      jumpi\n        /* \"Functions&Errors/ErrorHandlingSaiTok.sol\":2361:2364  bal */\n      dup1\n        /* \"Functions&Errors/ErrorHandlingSaiTok.sol\":2382:2397  _withdrawAmount */\n      dup3\n        /* \"Functions&Errors/ErrorHandlingSaiTok.sol\":2331:2399  InsufficientBalance({balance: bal, withdrawAmount: _withdrawAmount}) */\n      mload(0x40)\n      0xcf47918100000000000000000000000000000000000000000000000000000000\n      dup2\n      mstore\n      0x04\n      add\n      tag_54\n      swap3\n      swap2\n      swap1\n      tag_55\n      jump\t// in\n    tag_54:\n      mload(0x40)\n      dup1\n      swap2\n      sub\n      swap1\n      revert\n        /* \"Functions&Errors/ErrorHandlingSaiTok.sol\":2282:2436  if (bal < _withdrawAmount) {\r... */\n    tag_53:\n        /* \"Functions&Errors/ErrorHandlingSaiTok.sol\":2137:2443  {\r... */\n      pop\n        /* \"Functions&Errors/ErrorHandlingSaiTok.sol\":2078:2443  function testCustomError(uint _withdrawAmount) public view {\r... */\n      pop\n      jump\t// out\n        /* \"Functions&Errors/ErrorHandlingSaiTok.sol\":187:220  string public tokenSymbol = \"SAI\" */\n    tag_27:\n      0x01\n      dup1\n      sload\n      tag_56\n      swap1\n      tag_47\n      jump\t// in\n    tag_56:\n      dup1\n      0x1f\n      add\n      0x20\n      dup1\n      swap2\n      div\n      mul\n      0x20\n      add\n      mload(0x40)\n      swap1\n      dup2\n      add\n      0x40\n      mstore\n      dup1\n      swap3\n      swap2\n      swap1\n      dup2\n      dup2\n      mstore\n      0x20\n      add\n      dup3\n      dup1\n      sload\n      tag_57\n      swap1\n      tag_47\n      jump\t// in\n    tag_57:\n      dup1\n      iszero\n      tag_58\n      jumpi\n      dup1\n      0x1f\n      lt\n      tag_59\n      jumpi\n      0x0100\n      dup1\n      dup4\n      sload\n      div\n      mul\n      dup4\n      mstore\n      swap2\n      0x20\n      add\n      swap2\n      jump(tag_58)\n    tag_59:\n      dup3\n      add\n      swap2\n      swap1\n      0x00\n      mstore\n      keccak256(0x00, 0x20)\n      swap1\n    tag_60:\n      dup2\n      sload\n      dup2\n      mstore\n      swap1\n      0x01\n      add\n      swap1\n      0x20\n      add\n      dup1\n      dup4\n      gt\n      tag_60\n      jumpi\n      dup3\n      swap1\n      sub\n      0x1f\n      and\n      dup3\n      add\n      swap2\n    tag_58:\n      pop\n      pop\n      pop\n      pop\n      pop\n      dup2\n      jump\t// out\n        /* \"Functions&Errors/ErrorHandlingSaiTok.sol\":656:1031  function createTokens(address recipient, uint256 value) public {\r... */\n    tag_32:\n        /* \"Functions&Errors/ErrorHandlingSaiTok.sol\":831:832  0 */\n      0x00\n        /* \"Functions&Errors/ErrorHandlingSaiTok.sol\":823:828  value */\n      dup2\n        /* \"Functions&Errors/ErrorHandlingSaiTok.sol\":823:832  value > 0 */\n      gt\n        /* \"Functions&Errors/ErrorHandlingSaiTok.sol\":815:876  require(value > 0, \"Must create a positive amount of tokens\") */\n      tag_62\n      jumpi\n      mload(0x40)\n      0x08c379a000000000000000000000000000000000000000000000000000000000\n      dup2\n      mstore\n      0x04\n      add\n      tag_63\n      swap1\n      tag_64\n      jump\t// in\n    tag_63:\n      mload(0x40)\n      dup1\n      swap2\n      sub\n      swap1\n      revert\n    tag_62:\n        /* \"Functions&Errors/ErrorHandlingSaiTok.sol\":973:978  value */\n      dup1\n        /* \"Functions&Errors/ErrorHandlingSaiTok.sol\":953:969  totalTokenSupply */\n      0x02\n      0x00\n        /* \"Functions&Errors/ErrorHandlingSaiTok.sol\":953:978  totalTokenSupply += value */\n      dup3\n      dup3\n      sload\n      tag_65\n      swap2\n      swap1\n      tag_66\n      jump\t// in\n    tag_65:\n      swap3\n      pop\n      pop\n      dup2\n      swap1\n      sstore\n      pop\n        /* \"Functions&Errors/ErrorHandlingSaiTok.sol\":1018:1023  value */\n      dup1\n        /* \"Functions&Errors/ErrorHandlingSaiTok.sol\":989:1003  accountBalance */\n      0x03\n        /* \"Functions&Errors/ErrorHandlingSaiTok.sol\":989:1014  accountBalance[recipient] */\n      0x00\n        /* \"Functions&Errors/ErrorHandlingSaiTok.sol\":1004:1013  recipient */\n      dup5\n        /* \"Functions&Errors/ErrorHandlingSaiTok.sol\":989:1014  accountBalance[recipient] */\n      0xffffffffffffffffffffffffffffffffffffffff\n      and\n      0xffffffffffffffffffffffffffffffffffffffff\n      and\n      dup2\n      mstore\n      0x20\n      add\n      swap1\n      dup2\n      mstore\n      0x20\n      add\n      0x00\n      keccak256\n      0x00\n        /* \"Functions&Errors/ErrorHandlingSaiTok.sol\":989:1023  accountBalance[recipient] += value */\n      dup3\n      dup3\n      sload\n      tag_67\n      swap2\n      swap1\n      tag_66\n      jump\t// in\n    tag_67:\n      swap3\n      pop\n      pop\n      dup2\n      swap1\n      sstore\n      pop\n        /* \"Functions&Errors/ErrorHandlingSaiTok.sol\":656:1031  function createTokens(address recipient, uint256 value) public {\r... */\n      pop\n      pop\n      jump\t// out\n        /* \"Functions&Errors/ErrorHandlingSaiTok.sol\":341:390  mapping(address => uint256) public accountBalance */\n    tag_36:\n      mstore(0x20, 0x03)\n      dup1\n      0x00\n      mstore\n      keccak256(0x00, 0x40)\n      0x00\n      swap2\n      pop\n      swap1\n      pop\n      sload\n      dup2\n      jump\t// out\n        /* \"Functions&Errors/ErrorHandlingSaiTok.sol\":1081:1617  function destroyTokens(address owner, uint256 value) public {\r... */\n    tag_40:\n        /* \"Functions&Errors/ErrorHandlingSaiTok.sol\":1237:1238  0 */\n      0x00\n        /* \"Functions&Errors/ErrorHandlingSaiTok.sol\":1229:1234  value */\n      dup2\n        /* \"Functions&Errors/ErrorHandlingSaiTok.sol\":1229:1238  value > 0 */\n      gt\n        /* \"Functions&Errors/ErrorHandlingSaiTok.sol\":1221:1283  require(value > 0, \"Must destroy a positive amount of tokens\") */\n      tag_69\n      jumpi\n      mload(0x40)\n      0x08c379a000000000000000000000000000000000000000000000000000000000\n      dup2\n      mstore\n      0x04\n      add\n      tag_70\n      swap1\n      tag_71\n      jump\t// in\n    tag_70:\n      mload(0x40)\n      dup1\n      swap2\n      sub\n      swap1\n      revert\n    tag_69:\n        /* \"Functions&Errors/ErrorHandlingSaiTok.sol\":1432:1437  value */\n      dup1\n        /* \"Functions&Errors/ErrorHandlingSaiTok.sol\":1407:1421  accountBalance */\n      0x03\n        /* \"Functions&Errors/ErrorHandlingSaiTok.sol\":1407:1428  accountBalance[owner] */\n      0x00\n        /* \"Functions&Errors/ErrorHandlingSaiTok.sol\":1422:1427  owner */\n      dup5\n        /* \"Functions&Errors/ErrorHandlingSaiTok.sol\":1407:1428  accountBalance[owner] */\n      0xffffffffffffffffffffffffffffffffffffffff\n      and\n      0xffffffffffffffffffffffffffffffffffffffff\n      and\n      dup2\n      mstore\n      0x20\n      add\n      swap1\n      dup2\n      mstore\n      0x20\n      add\n      0x00\n      keccak256\n      sload\n        /* \"Functions&Errors/ErrorHandlingSaiTok.sol\":1407:1437  accountBalance[owner] >= value */\n      lt\n      iszero\n        /* \"Functions&Errors/ErrorHandlingSaiTok.sol\":1399:1470  require(accountBalance[owner] >= value, \"Not enough tokens to destroy\") */\n      tag_72\n      jumpi\n      mload(0x40)\n      0x08c379a000000000000000000000000000000000000000000000000000000000\n      dup2\n      mstore\n      0x04\n      add\n      tag_73\n      swap1\n      tag_74\n      jump\t// in\n    tag_73:\n      mload(0x40)\n      dup1\n      swap2\n      sub\n      swap1\n      revert\n    tag_72:\n        /* \"Functions&Errors/ErrorHandlingSaiTok.sol\":1563:1568  value */\n      dup1\n        /* \"Functions&Errors/ErrorHandlingSaiTok.sol\":1543:1559  totalTokenSupply */\n      0x02\n      0x00\n        /* \"Functions&Errors/ErrorHandlingSaiTok.sol\":1543:1568  totalTokenSupply -= value */\n      dup3\n      dup3\n      sload\n      tag_75\n      swap2\n      swap1\n      tag_76\n      jump\t// in\n    tag_75:\n      swap3\n      pop\n      pop\n      dup2\n      swap1\n      sstore\n      pop\n        /* \"Functions&Errors/ErrorHandlingSaiTok.sol\":1604:1609  value */\n      dup1\n        /* \"Functions&Errors/ErrorHandlingSaiTok.sol\":1579:1593  accountBalance */\n      0x03\n        /* \"Functions&Errors/ErrorHandlingSaiTok.sol\":1579:1600  accountBalance[owner] */\n      0x00\n        /* \"Functions&Errors/ErrorHandlingSaiTok.sol\":1594:1599  owner */\n      dup5\n        /* \"Functions&Errors/ErrorHandlingSaiTok.sol\":1579:1600  accountBalance[owner] */\n      0xffffffffffffffffffffffffffffffffffffffff\n      and\n      0xffffffffffffffffffffffffffffffffffffffff\n      and\n      dup2\n      mstore\n      0x20\n      add\n      swap1\n      dup2\n      mstore\n      0x20\n      add\n      0x00\n      keccak256\n      0x00\n        /* \"Functions&Errors/ErrorHandlingSaiTok.sol\":1579:1609  accountBalance[owner] -= value */\n      dup3\n      dup3\n      sload\n      tag_77\n      swap2\n      swap1\n      tag_76\n      jump\t// in\n    tag_77:\n      swap3\n      pop\n      pop\n      dup2\n      swap1\n      sstore\n      pop\n        /* \"Functions&Errors/ErrorHandlingSaiTok.sol\":1081:1617  function destroyTokens(address owner, uint256 value) public {\r... */\n      pop\n      pop\n      jump\t// out\n        /* \"#utility.yul\":7:146   */\n    tag_79:\n        /* \"#utility.yul\":53:58   */\n      0x00\n        /* \"#utility.yul\":91:97   */\n      dup2\n        /* \"#utility.yul\":78:98   */\n      calldataload\n        /* \"#utility.yul\":69:98   */\n      swap1\n      pop\n        /* \"#utility.yul\":107:140   */\n      tag_81\n        /* \"#utility.yul\":134:139   */\n      dup2\n        /* \"#utility.yul\":107:140   */\n      tag_82\n      jump\t// in\n    tag_81:\n        /* \"#utility.yul\":7:146   */\n      swap3\n      swap2\n      pop\n      pop\n      jump\t// out\n        /* \"#utility.yul\":152:291   */\n    tag_83:\n        /* \"#utility.yul\":198:203   */\n      0x00\n        /* \"#utility.yul\":236:242   */\n      dup2\n        /* \"#utility.yul\":223:243   */\n      calldataload\n        /* \"#utility.yul\":214:243   */\n      swap1\n      pop\n        /* \"#utility.yul\":252:285   */\n      tag_85\n        /* \"#utility.yul\":279:284   */\n      dup2\n        /* \"#utility.yul\":252:285   */\n      tag_86\n      jump\t// in\n    tag_85:\n        /* \"#utility.yul\":152:291   */\n      swap3\n      swap2\n      pop\n      pop\n      jump\t// out\n        /* \"#utility.yul\":297:626   */\n    tag_35:\n        /* \"#utility.yul\":356:362   */\n      0x00\n        /* \"#utility.yul\":405:407   */\n      0x20\n        /* \"#utility.yul\":393:402   */\n      dup3\n        /* \"#utility.yul\":384:391   */\n      dup5\n        /* \"#utility.yul\":380:403   */\n      sub\n        /* \"#utility.yul\":376:408   */\n      slt\n        /* \"#utility.yul\":373:492   */\n      iszero\n      tag_88\n      jumpi\n        /* \"#utility.yul\":411:490   */\n      tag_89\n      tag_90\n      jump\t// in\n    tag_89:\n        /* \"#utility.yul\":373:492   */\n    tag_88:\n        /* \"#utility.yul\":531:532   */\n      0x00\n        /* \"#utility.yul\":556:609   */\n      tag_91\n        /* \"#utility.yul\":601:608   */\n      dup5\n        /* \"#utility.yul\":592:598   */\n      dup3\n        /* \"#utility.yul\":581:590   */\n      dup6\n        /* \"#utility.yul\":577:599   */\n      add\n        /* \"#utility.yul\":556:609   */\n      tag_79\n      jump\t// in\n    tag_91:\n        /* \"#utility.yul\":546:609   */\n      swap2\n      pop\n        /* \"#utility.yul\":502:619   */\n      pop\n        /* \"#utility.yul\":297:626   */\n      swap3\n      swap2\n      pop\n      pop\n      jump\t// out\n        /* \"#utility.yul\":632:1106   */\n    tag_31:\n        /* \"#utility.yul\":700:706   */\n      0x00\n        /* \"#utility.yul\":708:714   */\n      dup1\n        /* \"#utility.yul\":757:759   */\n      0x40\n        /* \"#utility.yul\":745:754   */\n      dup4\n        /* \"#utility.yul\":736:743   */\n      dup6\n        /* \"#utility.yul\":732:755   */\n      sub\n        /* \"#utility.yul\":728:760   */\n      slt\n        /* \"#utility.yul\":725:844   */\n      iszero\n      tag_93\n      jumpi\n        /* \"#utility.yul\":763:842   */\n      tag_94\n      tag_90\n      jump\t// in\n    tag_94:\n        /* \"#utility.yul\":725:844   */\n    tag_93:\n        /* \"#utility.yul\":883:884   */\n      0x00\n        /* \"#utility.yul\":908:961   */\n      tag_95\n        /* \"#utility.yul\":953:960   */\n      dup6\n        /* \"#utility.yul\":944:950   */\n      dup3\n        /* \"#utility.yul\":933:942   */\n      dup7\n        /* \"#utility.yul\":929:951   */\n      add\n        /* \"#utility.yul\":908:961   */\n      tag_79\n      jump\t// in\n    tag_95:\n        /* \"#utility.yul\":898:961   */\n      swap3\n      pop\n        /* \"#utility.yul\":854:971   */\n      pop\n        /* \"#utility.yul\":1010:1012   */\n      0x20\n        /* \"#utility.yul\":1036:1089   */\n      tag_96\n        /* \"#utility.yul\":1081:1088   */\n      dup6\n        /* \"#utility.yul\":1072:1078   */\n      dup3\n        /* \"#utility.yul\":1061:1070   */\n      dup7\n        /* \"#utility.yul\":1057:1079   */\n      add\n        /* \"#utility.yul\":1036:1089   */\n      tag_83\n      jump\t// in\n    tag_96:\n        /* \"#utility.yul\":1026:1089   */\n      swap2\n      pop\n        /* \"#utility.yul\":981:1099   */\n      pop\n        /* \"#utility.yul\":632:1106   */\n      swap3\n      pop\n      swap3\n      swap1\n      pop\n      jump\t// out\n        /* \"#utility.yul\":1112:1441   */\n    tag_24:\n        /* \"#utility.yul\":1171:1177   */\n      0x00\n        /* \"#utility.yul\":1220:1222   */\n      0x20\n        /* \"#utility.yul\":1208:1217   */\n      dup3\n        /* \"#utility.yul\":1199:1206   */\n      dup5\n        /* \"#utility.yul\":1195:1218   */\n      sub\n        /* \"#utility.yul\":1191:1223   */\n      slt\n        /* \"#utility.yul\":1188:1307   */\n      iszero\n      tag_98\n      jumpi\n        /* \"#utility.yul\":1226:1305   */\n      tag_99\n      tag_90\n      jump\t// in\n    tag_99:\n        /* \"#utility.yul\":1188:1307   */\n    tag_98:\n        /* \"#utility.yul\":1346:1347   */\n      0x00\n        /* \"#utility.yul\":1371:1424   */\n      tag_100\n        /* \"#utility.yul\":1416:1423   */\n      dup5\n        /* \"#utility.yul\":1407:1413   */\n      dup3\n        /* \"#utility.yul\":1396:1405   */\n      dup6\n        /* \"#utility.yul\":1392:1414   */\n      add\n        /* \"#utility.yul\":1371:1424   */\n      tag_83\n      jump\t// in\n    tag_100:\n        /* \"#utility.yul\":1361:1424   */\n      swap2\n      pop\n        /* \"#utility.yul\":1317:1434   */\n      pop\n        /* \"#utility.yul\":1112:1441   */\n      swap3\n      swap2\n      pop\n      pop\n      jump\t// out\n        /* \"#utility.yul\":1447:1811   */\n    tag_101:\n        /* \"#utility.yul\":1535:1538   */\n      0x00\n        /* \"#utility.yul\":1563:1602   */\n      tag_103\n        /* \"#utility.yul\":1596:1601   */\n      dup3\n        /* \"#utility.yul\":1563:1602   */\n      tag_104\n      jump\t// in\n    tag_103:\n        /* \"#utility.yul\":1618:1689   */\n      tag_105\n        /* \"#utility.yul\":1682:1688   */\n      dup2\n        /* \"#utility.yul\":1677:1680   */\n      dup6\n        /* \"#utility.yul\":1618:1689   */\n      tag_106\n      jump\t// in\n    tag_105:\n        /* \"#utility.yul\":1611:1689   */\n      swap4\n      pop\n        /* \"#utility.yul\":1698:1750   */\n      tag_107\n        /* \"#utility.yul\":1743:1749   */\n      dup2\n        /* \"#utility.yul\":1738:1741   */\n      dup6\n        /* \"#utility.yul\":1731:1735   */\n      0x20\n        /* \"#utility.yul\":1724:1729   */\n      dup7\n        /* \"#utility.yul\":1720:1736   */\n      add\n        /* \"#utility.yul\":1698:1750   */\n      tag_108\n      jump\t// in\n    tag_107:\n        /* \"#utility.yul\":1775:1804   */\n      tag_109\n        /* \"#utility.yul\":1797:1803   */\n      dup2\n        /* \"#utility.yul\":1775:1804   */\n      tag_110\n      jump\t// in\n    tag_109:\n        /* \"#utility.yul\":1770:1773   */\n      dup5\n        /* \"#utility.yul\":1766:1805   */\n      add\n        /* \"#utility.yul\":1759:1805   */\n      swap2\n      pop\n        /* \"#utility.yul\":1539:1811   */\n      pop\n        /* \"#utility.yul\":1447:1811   */\n      swap3\n      swap2\n      pop\n      pop\n      jump\t// out\n        /* \"#utility.yul\":1817:2183   */\n    tag_111:\n        /* \"#utility.yul\":1959:1962   */\n      0x00\n        /* \"#utility.yul\":1980:2047   */\n      tag_113\n        /* \"#utility.yul\":2044:2046   */\n      0x1c\n        /* \"#utility.yul\":2039:2042   */\n      dup4\n        /* \"#utility.yul\":1980:2047   */\n      tag_106\n      jump\t// in\n    tag_113:\n        /* \"#utility.yul\":1973:2047   */\n      swap2\n      pop\n        /* \"#utility.yul\":2056:2149   */\n      tag_114\n        /* \"#utility.yul\":2145:2148   */\n      dup3\n        /* \"#utility.yul\":2056:2149   */\n      tag_115\n      jump\t// in\n    tag_114:\n        /* \"#utility.yul\":2174:2176   */\n      0x20\n        /* \"#utility.yul\":2169:2172   */\n      dup3\n        /* \"#utility.yul\":2165:2177   */\n      add\n        /* \"#utility.yul\":2158:2177   */\n      swap1\n      pop\n        /* \"#utility.yul\":1817:2183   */\n      swap2\n      swap1\n      pop\n      jump\t// out\n        /* \"#utility.yul\":2189:2555   */\n    tag_116:\n        /* \"#utility.yul\":2331:2334   */\n      0x00\n        /* \"#utility.yul\":2352:2419   */\n      tag_118\n        /* \"#utility.yul\":2416:2418   */\n      0x28\n        /* \"#utility.yul\":2411:2414   */\n      dup4\n        /* \"#utility.yul\":2352:2419   */\n      tag_106\n      jump\t// in\n    tag_118:\n        /* \"#utility.yul\":2345:2419   */\n      swap2\n      pop\n        /* \"#utility.yul\":2428:2521   */\n      tag_119\n        /* \"#utility.yul\":2517:2520   */\n      dup3\n        /* \"#utility.yul\":2428:2521   */\n      tag_120\n      jump\t// in\n    tag_119:\n        /* \"#utility.yul\":2546:2548   */\n      0x40\n        /* \"#utility.yul\":2541:2544   */\n      dup3\n        /* \"#utility.yul\":2537:2549   */\n      add\n        /* \"#utility.yul\":2530:2549   */\n      swap1\n      pop\n        /* \"#utility.yul\":2189:2555   */\n      swap2\n      swap1\n      pop\n      jump\t// out\n        /* \"#utility.yul\":2561:2927   */\n    tag_121:\n        /* \"#utility.yul\":2703:2706   */\n      0x00\n        /* \"#utility.yul\":2724:2791   */\n      tag_123\n        /* \"#utility.yul\":2788:2790   */\n      0x27\n        /* \"#utility.yul\":2783:2786   */\n      dup4\n        /* \"#utility.yul\":2724:2791   */\n      tag_106\n      jump\t// in\n    tag_123:\n        /* \"#utility.yul\":2717:2791   */\n      swap2\n      pop\n        /* \"#utility.yul\":2800:2893   */\n      tag_124\n        /* \"#utility.yul\":2889:2892   */\n      dup3\n        /* \"#utility.yul\":2800:2893   */\n      tag_125\n      jump\t// in\n    tag_124:\n        /* \"#utility.yul\":2918:2920   */\n      0x40\n        /* \"#utility.yul\":2913:2916   */\n      dup3\n        /* \"#utility.yul\":2909:2921   */\n      add\n        /* \"#utility.yul\":2902:2921   */\n      swap1\n      pop\n        /* \"#utility.yul\":2561:2927   */\n      swap2\n      swap1\n      pop\n      jump\t// out\n        /* \"#utility.yul\":2933:3051   */\n    tag_126:\n        /* \"#utility.yul\":3020:3044   */\n      tag_128\n        /* \"#utility.yul\":3038:3043   */\n      dup2\n        /* \"#utility.yul\":3020:3044   */\n      tag_129\n      jump\t// in\n    tag_128:\n        /* \"#utility.yul\":3015:3018   */\n      dup3\n        /* \"#utility.yul\":3008:3045   */\n      mstore\n        /* \"#utility.yul\":2933:3051   */\n      pop\n      pop\n      jump\t// out\n        /* \"#utility.yul\":3057:3370   */\n    tag_21:\n        /* \"#utility.yul\":3170:3174   */\n      0x00\n        /* \"#utility.yul\":3208:3210   */\n      0x20\n        /* \"#utility.yul\":3197:3206   */\n      dup3\n        /* \"#utility.yul\":3193:3211   */\n      add\n        /* \"#utility.yul\":3185:3211   */\n      swap1\n      pop\n        /* \"#utility.yul\":3257:3266   */\n      dup2\n        /* \"#utility.yul\":3251:3255   */\n      dup2\n        /* \"#utility.yul\":3247:3267   */\n      sub\n        /* \"#utility.yul\":3243:3244   */\n      0x00\n        /* \"#utility.yul\":3232:3241   */\n      dup4\n        /* \"#utility.yul\":3228:3245   */\n      add\n        /* \"#utility.yul\":3221:3268   */\n      mstore\n        /* \"#utility.yul\":3285:3363   */\n      tag_131\n        /* \"#utility.yul\":3358:3362   */\n      dup2\n        /* \"#utility.yul\":3349:3355   */\n      dup5\n        /* \"#utility.yul\":3285:3363   */\n      tag_101\n      jump\t// in\n    tag_131:\n        /* \"#utility.yul\":3277:3363   */\n      swap1\n      pop\n        /* \"#utility.yul\":3057:3370   */\n      swap3\n      swap2\n      pop\n      pop\n      jump\t// out\n        /* \"#utility.yul\":3376:3795   */\n    tag_74:\n        /* \"#utility.yul\":3542:3546   */\n      0x00\n        /* \"#utility.yul\":3580:3582   */\n      0x20\n        /* \"#utility.yul\":3569:3578   */\n      dup3\n        /* \"#utility.yul\":3565:3583   */\n      add\n        /* \"#utility.yul\":3557:3583   */\n      swap1\n      pop\n        /* \"#utility.yul\":3629:3638   */\n      dup2\n        /* \"#utility.yul\":3623:3627   */\n      dup2\n        /* \"#utility.yul\":3619:3639   */\n      sub\n        /* \"#utility.yul\":3615:3616   */\n      0x00\n        /* \"#utility.yul\":3604:3613   */\n      dup4\n        /* \"#utility.yul\":3600:3617   */\n      add\n        /* \"#utility.yul\":3593:3640   */\n      mstore\n        /* \"#utility.yul\":3657:3788   */\n      tag_133\n        /* \"#utility.yul\":3783:3787   */\n      dup2\n        /* \"#utility.yul\":3657:3788   */\n      tag_111\n      jump\t// in\n    tag_133:\n        /* \"#utility.yul\":3649:3788   */\n      swap1\n      pop\n        /* \"#utility.yul\":3376:3795   */\n      swap2\n      swap1\n      pop\n      jump\t// out\n        /* \"#utility.yul\":3801:4220   */\n    tag_71:\n        /* \"#utility.yul\":3967:3971   */\n      0x00\n        /* \"#utility.yul\":4005:4007   */\n      0x20\n        /* \"#utility.yul\":3994:4003   */\n      dup3\n        /* \"#utility.yul\":3990:4008   */\n      add\n        /* \"#utility.yul\":3982:4008   */\n      swap1\n      pop\n        /* \"#utility.yul\":4054:4063   */\n      dup2\n        /* \"#utility.yul\":4048:4052   */\n      dup2\n        /* \"#utility.yul\":4044:4064   */\n      sub\n        /* \"#utility.yul\":4040:4041   */\n      0x00\n        /* \"#utility.yul\":4029:4038   */\n      dup4\n        /* \"#utility.yul\":4025:4042   */\n      add\n        /* \"#utility.yul\":4018:4065   */\n      mstore\n        /* \"#utility.yul\":4082:4213   */\n      tag_135\n        /* \"#utility.yul\":4208:4212   */\n      dup2\n        /* \"#utility.yul\":4082:4213   */\n      tag_116\n      jump\t// in\n    tag_135:\n        /* \"#utility.yul\":4074:4213   */\n      swap1\n      pop\n        /* \"#utility.yul\":3801:4220   */\n      swap2\n      swap1\n      pop\n      jump\t// out\n        /* \"#utility.yul\":4226:4645   */\n    tag_64:\n        /* \"#utility.yul\":4392:4396   */\n      0x00\n        /* \"#utility.yul\":4430:4432   */\n      0x20\n        /* \"#utility.yul\":4419:4428   */\n      dup3\n        /* \"#utility.yul\":4415:4433   */\n      add\n        /* \"#utility.yul\":4407:4433   */\n      swap1\n      pop\n        /* \"#utility.yul\":4479:4488   */\n      dup2\n        /* \"#utility.yul\":4473:4477   */\n      dup2\n        /* \"#utility.yul\":4469:4489   */\n      sub\n        /* \"#utility.yul\":4465:4466   */\n      0x00\n        /* \"#utility.yul\":4454:4463   */\n      dup4\n        /* \"#utility.yul\":4450:4467   */\n      add\n        /* \"#utility.yul\":4443:4490   */\n      mstore\n        /* \"#utility.yul\":4507:4638   */\n      tag_137\n        /* \"#utility.yul\":4633:4637   */\n      dup2\n        /* \"#utility.yul\":4507:4638   */\n      tag_121\n      jump\t// in\n    tag_137:\n        /* \"#utility.yul\":4499:4638   */\n      swap1\n      pop\n        /* \"#utility.yul\":4226:4645   */\n      swap2\n      swap1\n      pop\n      jump\t// out\n        /* \"#utility.yul\":4651:4873   */\n    tag_15:\n        /* \"#utility.yul\":4744:4748   */\n      0x00\n        /* \"#utility.yul\":4782:4784   */\n      0x20\n        /* \"#utility.yul\":4771:4780   */\n      dup3\n        /* \"#utility.yul\":4767:4785   */\n      add\n        /* \"#utility.yul\":4759:4785   */\n      swap1\n      pop\n        /* \"#utility.yul\":4795:4866   */\n      tag_139\n        /* \"#utility.yul\":4863:4864   */\n      0x00\n        /* \"#utility.yul\":4852:4861   */\n      dup4\n        /* \"#utility.yul\":4848:4865   */\n      add\n        /* \"#utility.yul\":4839:4845   */\n      dup5\n        /* \"#utility.yul\":4795:4866   */\n      tag_126\n      jump\t// in\n    tag_139:\n        /* \"#utility.yul\":4651:4873   */\n      swap3\n      swap2\n      pop\n      pop\n      jump\t// out\n        /* \"#utility.yul\":4879:5211   */\n    tag_55:\n        /* \"#utility.yul\":5000:5004   */\n      0x00\n        /* \"#utility.yul\":5038:5040   */\n      0x40\n        /* \"#utility.yul\":5027:5036   */\n      dup3\n        /* \"#utility.yul\":5023:5041   */\n      add\n        /* \"#utility.yul\":5015:5041   */\n      swap1\n      pop\n        /* \"#utility.yul\":5051:5122   */\n      tag_141\n        /* \"#utility.yul\":5119:5120   */\n      0x00\n        /* \"#utility.yul\":5108:5117   */\n      dup4\n        /* \"#utility.yul\":5104:5121   */\n      add\n        /* \"#utility.yul\":5095:5101   */\n      dup6\n        /* \"#utility.yul\":5051:5122   */\n      tag_126\n      jump\t// in\n    tag_141:\n        /* \"#utility.yul\":5132:5204   */\n      tag_142\n        /* \"#utility.yul\":5200:5202   */\n      0x20\n        /* \"#utility.yul\":5189:5198   */\n      dup4\n        /* \"#utility.yul\":5185:5203   */\n      add\n        /* \"#utility.yul\":5176:5182   */\n      dup5\n        /* \"#utility.yul\":5132:5204   */\n      tag_126\n      jump\t// in\n    tag_142:\n        /* \"#utility.yul\":4879:5211   */\n      swap4\n      swap3\n      pop\n      pop\n      pop\n      jump\t// out\n        /* \"#utility.yul\":5298:5397   */\n    tag_104:\n        /* \"#utility.yul\":5350:5356   */\n      0x00\n        /* \"#utility.yul\":5384:5389   */\n      dup2\n        /* \"#utility.yul\":5378:5390   */\n      mload\n        /* \"#utility.yul\":5368:5390   */\n      swap1\n      pop\n        /* \"#utility.yul\":5298:5397   */\n      swap2\n      swap1\n      pop\n      jump\t// out\n        /* \"#utility.yul\":5403:5572   */\n    tag_106:\n        /* \"#utility.yul\":5487:5498   */\n      0x00\n        /* \"#utility.yul\":5521:5527   */\n      dup3\n        /* \"#utility.yul\":5516:5519   */\n      dup3\n        /* \"#utility.yul\":5509:5528   */\n      mstore\n        /* \"#utility.yul\":5561:5565   */\n      0x20\n        /* \"#utility.yul\":5556:5559   */\n      dup3\n        /* \"#utility.yul\":5552:5566   */\n      add\n        /* \"#utility.yul\":5537:5566   */\n      swap1\n      pop\n        /* \"#utility.yul\":5403:5572   */\n      swap3\n      swap2\n      pop\n      pop\n      jump\t// out\n        /* \"#utility.yul\":5578:5883   */\n    tag_66:\n        /* \"#utility.yul\":5618:5621   */\n      0x00\n        /* \"#utility.yul\":5637:5657   */\n      tag_148\n        /* \"#utility.yul\":5655:5656   */\n      dup3\n        /* \"#utility.yul\":5637:5657   */\n      tag_129\n      jump\t// in\n    tag_148:\n        /* \"#utility.yul\":5632:5657   */\n      swap2\n      pop\n        /* \"#utility.yul\":5671:5691   */\n      tag_149\n        /* \"#utility.yul\":5689:5690   */\n      dup4\n        /* \"#utility.yul\":5671:5691   */\n      tag_129\n      jump\t// in\n    tag_149:\n        /* \"#utility.yul\":5666:5691   */\n      swap3\n      pop\n        /* \"#utility.yul\":5825:5826   */\n      dup3\n        /* \"#utility.yul\":5757:5823   */\n      0xffffffffffffffffffffffffffffffffffffffffffffffffffffffffffffffff\n        /* \"#utility.yul\":5753:5827   */\n      sub\n        /* \"#utility.yul\":5750:5751   */\n      dup3\n        /* \"#utility.yul\":5747:5828   */\n      gt\n        /* \"#utility.yul\":5744:5851   */\n      iszero\n      tag_150\n      jumpi\n        /* \"#utility.yul\":5831:5849   */\n      tag_151\n      tag_152\n      jump\t// in\n    tag_151:\n        /* \"#utility.yul\":5744:5851   */\n    tag_150:\n        /* \"#utility.yul\":5875:5876   */\n      dup3\n        /* \"#utility.yul\":5872:5873   */\n      dup3\n        /* \"#utility.yul\":5868:5877   */\n      add\n        /* \"#utility.yul\":5861:5877   */\n      swap1\n      pop\n        /* \"#utility.yul\":5578:5883   */\n      swap3\n      swap2\n      pop\n      pop\n      jump\t// out\n        /* \"#utility.yul\":5889:6080   */\n    tag_76:\n        /* \"#utility.yul\":5929:5933   */\n      0x00\n        /* \"#utility.yul\":5949:5969   */\n      tag_154\n        /* \"#utility.yul\":5967:5968   */\n      dup3\n        /* \"#utility.yul\":5949:5969   */\n      tag_129\n      jump\t// in\n    tag_154:\n        /* \"#utility.yul\":5944:5969   */\n      swap2\n      pop\n        /* \"#utility.yul\":5983:6003   */\n      tag_155\n        /* \"#utility.yul\":6001:6002   */\n      dup4\n        /* \"#utility.yul\":5983:6003   */\n      tag_129\n      jump\t// in\n    tag_155:\n        /* \"#utility.yul\":5978:6003   */\n      swap3\n      pop\n        /* \"#utility.yul\":6022:6023   */\n      dup3\n        /* \"#utility.yul\":6019:6020   */\n      dup3\n        /* \"#utility.yul\":6016:6024   */\n      lt\n        /* \"#utility.yul\":6013:6047   */\n      iszero\n      tag_156\n      jumpi\n        /* \"#utility.yul\":6027:6045   */\n      tag_157\n      tag_152\n      jump\t// in\n    tag_157:\n        /* \"#utility.yul\":6013:6047   */\n    tag_156:\n        /* \"#utility.yul\":6072:6073   */\n      dup3\n        /* \"#utility.yul\":6069:6070   */\n      dup3\n        /* \"#utility.yul\":6065:6074   */\n      sub\n        /* \"#utility.yul\":6057:6074   */\n      swap1\n      pop\n        /* \"#utility.yul\":5889:6080   */\n      swap3\n      swap2\n      pop\n      pop\n      jump\t// out\n        /* \"#utility.yul\":6086:6182   */\n    tag_158:\n        /* \"#utility.yul\":6123:6130   */\n      0x00\n        /* \"#utility.yul\":6152:6176   */\n      tag_160\n        /* \"#utility.yul\":6170:6175   */\n      dup3\n        /* \"#utility.yul\":6152:6176   */\n      tag_161\n      jump\t// in\n    tag_160:\n        /* \"#utility.yul\":6141:6176   */\n      swap1\n      pop\n        /* \"#utility.yul\":6086:6182   */\n      swap2\n      swap1\n      pop\n      jump\t// out\n        /* \"#utility.yul\":6188:6314   */\n    tag_161:\n        /* \"#utility.yul\":6225:6232   */\n      0x00\n        /* \"#utility.yul\":6265:6307   */\n      0xffffffffffffffffffffffffffffffffffffffff\n        /* \"#utility.yul\":6258:6263   */\n      dup3\n        /* \"#utility.yul\":6254:6308   */\n      and\n        /* \"#utility.yul\":6243:6308   */\n      swap1\n      pop\n        /* \"#utility.yul\":6188:6314   */\n      swap2\n      swap1\n      pop\n      jump\t// out\n        /* \"#utility.yul\":6320:6397   */\n    tag_129:\n        /* \"#utility.yul\":6357:6364   */\n      0x00\n        /* \"#utility.yul\":6386:6391   */\n      dup2\n        /* \"#utility.yul\":6375:6391   */\n      swap1\n      pop\n        /* \"#utility.yul\":6320:6397   */\n      swap2\n      swap1\n      pop\n      jump\t// out\n        /* \"#utility.yul\":6403:6710   */\n    tag_108:\n        /* \"#utility.yul\":6471:6472   */\n      0x00\n        /* \"#utility.yul\":6481:6594   */\n    tag_165:\n        /* \"#utility.yul\":6495:6501   */\n      dup4\n        /* \"#utility.yul\":6492:6493   */\n      dup2\n        /* \"#utility.yul\":6489:6502   */\n      lt\n        /* \"#utility.yul\":6481:6594   */\n      iszero\n      tag_167\n      jumpi\n        /* \"#utility.yul\":6580:6581   */\n      dup1\n        /* \"#utility.yul\":6575:6578   */\n      dup3\n        /* \"#utility.yul\":6571:6582   */\n      add\n        /* \"#utility.yul\":6565:6583   */\n      mload\n        /* \"#utility.yul\":6561:6562   */\n      dup2\n        /* \"#utility.yul\":6556:6559   */\n      dup5\n        /* \"#utility.yul\":6552:6563   */\n      add\n        /* \"#utility.yul\":6545:6584   */\n      mstore\n        /* \"#utility.yul\":6517:6519   */\n      0x20\n        /* \"#utility.yul\":6514:6515   */\n      dup2\n        /* \"#utility.yul\":6510:6520   */\n      add\n        /* \"#utility.yul\":6505:6520   */\n      swap1\n      pop\n        /* \"#utility.yul\":6481:6594   */\n      jump(tag_165)\n    tag_167:\n        /* \"#utility.yul\":6612:6618   */\n      dup4\n        /* \"#utility.yul\":6609:6610   */\n      dup2\n        /* \"#utility.yul\":6606:6619   */\n      gt\n        /* \"#utility.yul\":6603:6704   */\n      iszero\n      tag_168\n      jumpi\n        /* \"#utility.yul\":6692:6693   */\n      0x00\n        /* \"#utility.yul\":6683:6689   */\n      dup5\n        /* \"#utility.yul\":6678:6681   */\n      dup5\n        /* \"#utility.yul\":6674:6690   */\n      add\n        /* \"#utility.yul\":6667:6694   */\n      mstore\n        /* \"#utility.yul\":6603:6704   */\n    tag_168:\n        /* \"#utility.yul\":6452:6710   */\n      pop\n        /* \"#utility.yul\":6403:6710   */\n      pop\n      pop\n      pop\n      jump\t// out\n        /* \"#utility.yul\":6716:7036   */\n    tag_47:\n        /* \"#utility.yul\":6760:6766   */\n      0x00\n        /* \"#utility.yul\":6797:6798   */\n      0x02\n        /* \"#utility.yul\":6791:6795   */\n      dup3\n        /* \"#utility.yul\":6787:6799   */\n      div\n        /* \"#utility.yul\":6777:6799   */\n      swap1\n      pop\n        /* \"#utility.yul\":6844:6845   */\n      0x01\n        /* \"#utility.yul\":6838:6842   */\n      dup3\n        /* \"#utility.yul\":6834:6846   */\n      and\n        /* \"#utility.yul\":6865:6883   */\n      dup1\n        /* \"#utility.yul\":6855:6936   */\n      tag_170\n      jumpi\n        /* \"#utility.yul\":6921:6925   */\n      0x7f\n        /* \"#utility.yul\":6913:6919   */\n      dup3\n        /* \"#utility.yul\":6909:6926   */\n      and\n        /* \"#utility.yul\":6899:6926   */\n      swap2\n      pop\n        /* \"#utility.yul\":6855:6936   */\n    tag_170:\n        /* \"#utility.yul\":6983:6985   */\n      0x20\n        /* \"#utility.yul\":6975:6981   */\n      dup3\n        /* \"#utility.yul\":6972:6986   */\n      lt\n        /* \"#utility.yul\":6952:6970   */\n      dup2\n        /* \"#utility.yul\":6949:6987   */\n      eq\n        /* \"#utility.yul\":6946:7030   */\n      iszero\n      tag_171\n      jumpi\n        /* \"#utility.yul\":7002:7020   */\n      tag_172\n      tag_173\n      jump\t// in\n    tag_172:\n        /* \"#utility.yul\":6946:7030   */\n    tag_171:\n        /* \"#utility.yul\":6767:7036   */\n      pop\n        /* \"#utility.yul\":6716:7036   */\n      swap2\n      swap1\n      pop\n      jump\t// out\n        /* \"#utility.yul\":7042:7222   */\n    tag_45:\n        /* \"#utility.yul\":7090:7167   */\n      0x4e487b7100000000000000000000000000000000000000000000000000000000\n        /* \"#utility.yul\":7087:7088   */\n      0x00\n        /* \"#utility.yul\":7080:7168   */\n      mstore\n        /* \"#utility.yul\":7187:7191   */\n      0x01\n        /* \"#utility.yul\":7184:7185   */\n      0x04\n        /* \"#utility.yul\":7177:7192   */\n      mstore\n        /* \"#utility.yul\":7211:7215   */\n      0x24\n        /* \"#utility.yul\":7208:7209   */\n      0x00\n        /* \"#utility.yul\":7201:7216   */\n      revert\n        /* \"#utility.yul\":7228:7408   */\n    tag_152:\n        /* \"#utility.yul\":7276:7353   */\n      0x4e487b7100000000000000000000000000000000000000000000000000000000\n        /* \"#utility.yul\":7273:7274   */\n      0x00\n        /* \"#utility.yul\":7266:7354   */\n      mstore\n        /* \"#utility.yul\":7373:7377   */\n      0x11\n        /* \"#utility.yul\":7370:7371   */\n      0x04\n        /* \"#utility.yul\":7363:7378   */\n      mstore\n        /* \"#utility.yul\":7397:7401   */\n      0x24\n        /* \"#utility.yul\":7394:7395   */\n      0x00\n        /* \"#utility.yul\":7387:7402   */\n      revert\n        /* \"#utility.yul\":7414:7594   */\n    tag_173:\n        /* \"#utility.yul\":7462:7539   */\n      0x4e487b7100000000000000000000000000000000000000000000000000000000\n        /* \"#utility.yul\":7459:7460   */\n      0x00\n        /* \"#utility.yul\":7452:7540   */\n      mstore\n        /* \"#utility.yul\":7559:7563   */\n      0x22\n        /* \"#utility.yul\":7556:7557   */\n      0x04\n        /* \"#utility.yul\":7549:7564   */\n      mstore\n        /* \"#utility.yul\":7583:7587   */\n      0x24\n        /* \"#utility.yul\":7580:7581   */\n      0x00\n        /* \"#utility.yul\":7573:7588   */\n      revert\n        /* \"#utility.yul\":7723:7840   */\n    tag_90:\n        /* \"#utility.yul\":7832:7833   */\n      0x00\n        /* \"#utility.yul\":7829:7830   */\n      dup1\n        /* \"#utility.yul\":7822:7834   */\n      revert\n        /* \"#utility.yul\":7846:7948   */\n    tag_110:\n        /* \"#utility.yul\":7887:7893   */\n      0x00\n        /* \"#utility.yul\":7938:7940   */\n      0x1f\n        /* \"#utility.yul\":7934:7941   */\n      not\n        /* \"#utility.yul\":7929:7931   */\n      0x1f\n        /* \"#utility.yul\":7922:7927   */\n      dup4\n        /* \"#utility.yul\":7918:7932   */\n      add\n        /* \"#utility.yul\":7914:7942   */\n      and\n        /* \"#utility.yul\":7904:7942   */\n      swap1\n      pop\n        /* \"#utility.yul\":7846:7948   */\n      swap2\n      swap1\n      pop\n      jump\t// out\n        /* \"#utility.yul\":7954:8132   */\n    tag_115:\n        /* \"#utility.yul\":8094:8124   */\n      0x4e6f7420656e6f75676820746f6b656e7320746f2064657374726f7900000000\n        /* \"#utility.yul\":8090:8091   */\n      0x00\n        /* \"#utility.yul\":8082:8088   */\n      dup3\n        /* \"#utility.yul\":8078:8092   */\n      add\n        /* \"#utility.yul\":8071:8125   */\n      mstore\n        /* \"#utility.yul\":7954:8132   */\n      pop\n      jump\t// out\n        /* \"#utility.yul\":8138:8365   */\n    tag_120:\n        /* \"#utility.yul\":8278:8312   */\n      0x4d7573742064657374726f79206120706f73697469766520616d6f756e74206f\n        /* \"#utility.yul\":8274:8275   */\n      0x00\n        /* \"#utility.yul\":8266:8272   */\n      dup3\n        /* \"#utility.yul\":8262:8276   */\n      add\n        /* \"#utility.yul\":8255:8313   */\n      mstore\n        /* \"#utility.yul\":8347:8357   */\n      0x6620746f6b656e73000000000000000000000000000000000000000000000000\n        /* \"#utility.yul\":8342:8344   */\n      0x20\n        /* \"#utility.yul\":8334:8340   */\n      dup3\n        /* \"#utility.yul\":8330:8345   */\n      add\n        /* \"#utility.yul\":8323:8358   */\n      mstore\n        /* \"#utility.yul\":8138:8365   */\n      pop\n      jump\t// out\n        /* \"#utility.yul\":8371:8597   */\n    tag_125:\n        /* \"#utility.yul\":8511:8545   */\n      0x4d75737420637265617465206120706f73697469766520616d6f756e74206f66\n        /* \"#utility.yul\":8507:8508   */\n      0x00\n        /* \"#utility.yul\":8499:8505   */\n      dup3\n        /* \"#utility.yul\":8495:8509   */\n      add\n        /* \"#utility.yul\":8488:8546   */\n      mstore\n        /* \"#utility.yul\":8580:8589   */\n      0x20746f6b656e7300000000000000000000000000000000000000000000000000\n        /* \"#utility.yul\":8575:8577   */\n      0x20\n        /* \"#utility.yul\":8567:8573   */\n      dup3\n        /* \"#utility.yul\":8563:8578   */\n      add\n        /* \"#utility.yul\":8556:8590   */\n      mstore\n        /* \"#utility.yul\":8371:8597   */\n      pop\n      jump\t// out\n        /* \"#utility.yul\":8603:8725   */\n    tag_82:\n        /* \"#utility.yul\":8676:8700   */\n      tag_185\n        /* \"#utility.yul\":8694:8699   */\n      dup2\n        /* \"#utility.yul\":8676:8700   */\n      tag_158\n      jump\t// in\n    tag_185:\n        /* \"#utility.yul\":8669:8674   */\n      dup2\n        /* \"#utility.yul\":8666:8701   */\n      eq\n        /* \"#utility.yul\":8656:8719   */\n      tag_186\n      jumpi\n        /* \"#utility.yul\":8715:8716   */\n      0x00\n        /* \"#utility.yul\":8712:8713   */\n      dup1\n        /* \"#utility.yul\":8705:8717   */\n      revert\n        /* \"#utility.yul\":8656:8719   */\n    tag_186:\n        /* \"#utility.yul\":8603:8725   */\n      pop\n      jump\t// out\n        /* \"#utility.yul\":8731:8853   */\n    tag_86:\n        /* \"#utility.yul\":8804:8828   */\n      tag_188\n        /* \"#utility.yul\":8822:8827   */\n      dup2\n        /* \"#utility.yul\":8804:8828   */\n      tag_129\n      jump\t// in\n    tag_188:\n        /* \"#utility.yul\":8797:8802   */\n      dup2\n        /* \"#utility.yul\":8794:8829   */\n      eq\n        /* \"#utility.yul\":8784:8847   */\n      tag_189\n      jumpi\n        /* \"#utility.yul\":8843:8844   */\n      0x00\n        /* \"#utility.yul\":8840:8841   */\n      dup1\n        /* \"#utility.yul\":8833:8845   */\n      revert\n        /* \"#utility.yul\":8784:8847   */\n    tag_189:\n        /* \"#utility.yul\":8731:8853   */\n      pop\n      jump\t// out\n\n    auxdata: 0xa264697066735822122088eab9465c367f4691cb60394dc32ebeaa125c54bb190e223a273f453fd76e9964736f6c63430008070033\n}\n",
				"bytecode": {
					"linkReferences": {},
					"object": "60806040526040518060400160405280600681526020017f536169546f6b00000000000000000000000000000000000000000000000000008152506000908051906020019061004f9291906100b3565b506040518060400160405280600381526020017f53414900000000000000000000000000000000000000000000000000000000008152506001908051906020019061009b9291906100b3565b5060006002553480156100ad57600080fd5b506101b7565b8280546100bf90610156565b90600052602060002090601f0160209004810192826100e15760008555610128565b82601f106100fa57805160ff1916838001178555610128565b82800160010185558215610128579182015b8281111561012757825182559160200191906001019061010c565b5b5090506101359190610139565b5090565b5b8082111561015257600081600090555060010161013a565b5090565b6000600282049050600182168061016e57607f821691505b6020821081141561018257610181610188565b5b50919050565b7f4e487b7100000000000000000000000000000000000000000000000000000000600052602260045260246000fd5b610acc80620001c76000396000f3fe608060405234801561001057600080fd5b50600436106100885760003560e01c80637b61c3201161005b5780637b61c320146100ef578063a69e894e1461010d578063d294cb0f14610129578063d3ce77fe1461015957610088565b80631ca8b6cb1461008d5780632b813bc0146100ab5780636c02a931146100b557806375f7286c146100d3575b600080fd5b610095610175565b6040516100a29190610773565b60405180910390f35b6100b361017b565b005b6100bd6101cb565b6040516100ca91906106f1565b60405180910390f35b6100ed60048036038101906100e89190610613565b610259565b005b6100f76102e8565b60405161010491906106f1565b60405180910390f35b610127600480360381019061012291906105d3565b610376565b005b610143600480360381019061013e91906105a6565b61042c565b6040516101509190610773565b60405180910390f35b610173600480360381019061016e91906105d3565b610444565b005b60025481565b7f01a73ed9712f640547060159cef1a4bb799ac56f7f9f20b09b316c12e8bc29696002546040516101ac9190610773565b60405180910390a16101f460025410156101c9576101c86108fe565b5b565b600080546101d8906108cc565b80601f0160208091040260200160405190810160405280929190818152602001828054610204906108cc565b80156102515780601f1061022657610100808354040283529160200191610251565b820191906000526020600020905b81548152906001019060200180831161023457829003601f168201915b505050505081565b6000600360003373ffffffffffffffffffffffffffffffffffffffff1673ffffffffffffffffffffffffffffffffffffffff168152602001908152602001600020549050818110156102e45780826040517fcf4791810000000000000000000000000000000000000000000000000000000081526004016102db92919061078e565b60405180910390fd5b5050565b600180546102f5906108cc565b80601f0160208091040260200160405190810160405280929190818152602001828054610321906108cc565b801561036e5780601f106103435761010080835404028352916020019161036e565b820191906000526020600020905b81548152906001019060200180831161035157829003601f168201915b505050505081565b600081116103b9576040517f08c379a00000000000000000000000000000000000000000000000000000000081526004016103b090610753565b60405180910390fd5b80600260008282546103cb91906107d3565b9250508190555080600360008473ffffffffffffffffffffffffffffffffffffffff1673ffffffffffffffffffffffffffffffffffffffff168152602001908152602001600020600082825461042191906107d3565b925050819055505050565b60036020528060005260406000206000915090505481565b60008111610487576040517f08c379a000000000000000000000000000000000000000000000000000000000815260040161047e90610733565b60405180910390fd5b80600360008473ffffffffffffffffffffffffffffffffffffffff1673ffffffffffffffffffffffffffffffffffffffff168152602001908152602001600020541015610509576040517f08c379a000000000000000000000000000000000000000000000000000000000815260040161050090610713565b60405180910390fd5b806002600082825461051b9190610829565b9250508190555080600360008473ffffffffffffffffffffffffffffffffffffffff1673ffffffffffffffffffffffffffffffffffffffff16815260200190815260200160002060008282546105719190610829565b925050819055505050565b60008135905061058b81610a68565b92915050565b6000813590506105a081610a7f565b92915050565b6000602082840312156105bc576105bb61098b565b5b60006105ca8482850161057c565b91505092915050565b600080604083850312156105ea576105e961098b565b5b60006105f88582860161057c565b925050602061060985828601610591565b9150509250929050565b6000602082840312156106295761062861098b565b5b600061063784828501610591565b91505092915050565b600061064b826107b7565b61065581856107c2565b9350610665818560208601610899565b61066e81610990565b840191505092915050565b6000610686601c836107c2565b9150610691826109a1565b602082019050919050565b60006106a96028836107c2565b91506106b4826109ca565b604082019050919050565b60006106cc6027836107c2565b91506106d782610a19565b604082019050919050565b6106eb8161088f565b82525050565b6000602082019050818103600083015261070b8184610640565b905092915050565b6000602082019050818103600083015261072c81610679565b9050919050565b6000602082019050818103600083015261074c8161069c565b9050919050565b6000602082019050818103600083015261076c816106bf565b9050919050565b600060208201905061078860008301846106e2565b92915050565b60006040820190506107a360008301856106e2565b6107b060208301846106e2565b9392505050565b600081519050919050565b600082825260208201905092915050565b60006107de8261088f565b91506107e98361088f565b9250827fffffffffffffffffffffffffffffffffffffffffffffffffffffffffffffffff0382111561081e5761081d61092d565b5b828201905092915050565b60006108348261088f565b915061083f8361088f565b9250828210156108525761085161092d565b5b828203905092915050565b60006108688261086f565b9050919050565b600073ffffffffffffffffffffffffffffffffffffffff82169050919050565b6000819050919050565b60005b838110156108b757808201518184015260208101905061089c565b838111156108c6576000848401525b50505050565b600060028204905060018216806108e457607f821691505b602082108114156108f8576108f761095c565b5b50919050565b7f4e487b7100000000000000000000000000000000000000000000000000000000600052600160045260246000fd5b7f4e487b7100000000000000000000000000000000000000000000000000000000600052601160045260246000fd5b7f4e487b7100000000000000000000000000000000000000000000000000000000600052602260045260246000fd5b600080fd5b6000601f19601f8301169050919050565b7f4e6f7420656e6f75676820746f6b656e7320746f2064657374726f7900000000600082015250565b7f4d7573742064657374726f79206120706f73697469766520616d6f756e74206f60008201527f6620746f6b656e73000000000000000000000000000000000000000000000000602082015250565b7f4d75737420637265617465206120706f73697469766520616d6f756e74206f6660008201527f20746f6b656e7300000000000000000000000000000000000000000000000000602082015250565b610a718161085d565b8114610a7c57600080fd5b50565b610a888161088f565b8114610a9357600080fd5b5056fea264697066735822122088eab9465c367f4691cb60394dc32ebeaa125c54bb190e223a273f453fd76e9964736f6c63430008070033",
					"opcodes": "PUSH1 0x80 PUSH1 0x40 MSTORE PUSH1 0x40 MLOAD DUP1 PUSH1 0x40 ADD PUSH1 0x40 MSTORE DUP1 PUSH1 0x6 DUP2 MSTORE PUSH1 0x20 ADD PUSH32 0x536169546F6B0000000000000000000000000000000000000000000000000000 DUP2 MSTORE POP PUSH1 0x0 SWAP1 DUP1 MLOAD SWAP1 PUSH1 0x20 ADD SWAP1 PUSH2 0x4F SWAP3 SWAP2 SWAP1 PUSH2 0xB3 JUMP JUMPDEST POP PUSH1 0x40 MLOAD DUP1 PUSH1 0x40 ADD PUSH1 0x40 MSTORE DUP1 PUSH1 0x3 DUP2 MSTORE PUSH1 0x20 ADD PUSH32 0x5341490000000000000000000000000000000000000000000000000000000000 DUP2 MSTORE POP PUSH1 0x1 SWAP1 DUP1 MLOAD SWAP1 PUSH1 0x20 ADD SWAP1 PUSH2 0x9B SWAP3 SWAP2 SWAP1 PUSH2 0xB3 JUMP JUMPDEST POP PUSH1 0x0 PUSH1 0x2 SSTORE CALLVALUE DUP1 ISZERO PUSH2 0xAD JUMPI PUSH1 0x0 DUP1 REVERT JUMPDEST POP PUSH2 0x1B7 JUMP JUMPDEST DUP3 DUP1 SLOAD PUSH2 0xBF SWAP1 PUSH2 0x156 JUMP JUMPDEST SWAP1 PUSH1 0x0 MSTORE PUSH1 0x20 PUSH1 0x0 KECCAK256 SWAP1 PUSH1 0x1F ADD PUSH1 0x20 SWAP1 DIV DUP2 ADD SWAP3 DUP3 PUSH2 0xE1 JUMPI PUSH1 0x0 DUP6 SSTORE PUSH2 0x128 JUMP JUMPDEST DUP3 PUSH1 0x1F LT PUSH2 0xFA JUMPI DUP1 MLOAD PUSH1 0xFF NOT AND DUP4 DUP1 ADD OR DUP6 SSTORE PUSH2 0x128 JUMP JUMPDEST DUP3 DUP1 ADD PUSH1 0x1 ADD DUP6 SSTORE DUP3 ISZERO PUSH2 0x128 JUMPI SWAP2 DUP3 ADD JUMPDEST DUP3 DUP2 GT ISZERO PUSH2 0x127 JUMPI DUP3 MLOAD DUP3 SSTORE SWAP2 PUSH1 0x20 ADD SWAP2 SWAP1 PUSH1 0x1 ADD SWAP1 PUSH2 0x10C JUMP JUMPDEST JUMPDEST POP SWAP1 POP PUSH2 0x135 SWAP2 SWAP1 PUSH2 0x139 JUMP JUMPDEST POP SWAP1 JUMP JUMPDEST JUMPDEST DUP1 DUP3 GT ISZERO PUSH2 0x152 JUMPI PUSH1 0x0 DUP2 PUSH1 0x0 SWAP1 SSTORE POP PUSH1 0x1 ADD PUSH2 0x13A JUMP JUMPDEST POP SWAP1 JUMP JUMPDEST PUSH1 0x0 PUSH1 0x2 DUP3 DIV SWAP1 POP PUSH1 0x1 DUP3 AND DUP1 PUSH2 0x16E JUMPI PUSH1 0x7F DUP3 AND SWAP2 POP JUMPDEST PUSH1 0x20 DUP3 LT DUP2 EQ ISZERO PUSH2 0x182 JUMPI PUSH2 0x181 PUSH2 0x188 JUMP JUMPDEST JUMPDEST POP SWAP2 SWAP1 POP JUMP JUMPDEST PUSH32 0x4E487B7100000000000000000000000000000000000000000000000000000000 PUSH1 0x0 MSTORE PUSH1 0x22 PUSH1 0x4 MSTORE PUSH1 0x24 PUSH1 0x0 REVERT JUMPDEST PUSH2 0xACC DUP1 PUSH3 0x1C7 PUSH1 0x0 CODECOPY PUSH1 0x0 RETURN INVALID PUSH1 0x80 PUSH1 0x40 MSTORE CALLVALUE DUP1 ISZERO PUSH2 0x10 JUMPI PUSH1 0x0 DUP1 REVERT JUMPDEST POP PUSH1 0x4 CALLDATASIZE LT PUSH2 0x88 JUMPI PUSH1 0x0 CALLDATALOAD PUSH1 0xE0 SHR DUP1 PUSH4 0x7B61C320 GT PUSH2 0x5B JUMPI DUP1 PUSH4 0x7B61C320 EQ PUSH2 0xEF JUMPI DUP1 PUSH4 0xA69E894E EQ PUSH2 0x10D JUMPI DUP1 PUSH4 0xD294CB0F EQ PUSH2 0x129 JUMPI DUP1 PUSH4 0xD3CE77FE EQ PUSH2 0x159 JUMPI PUSH2 0x88 JUMP JUMPDEST DUP1 PUSH4 0x1CA8B6CB EQ PUSH2 0x8D JUMPI DUP1 PUSH4 0x2B813BC0 EQ PUSH2 0xAB JUMPI DUP1 PUSH4 0x6C02A931 EQ PUSH2 0xB5 JUMPI DUP1 PUSH4 0x75F7286C EQ PUSH2 0xD3 JUMPI JUMPDEST PUSH1 0x0 DUP1 REVERT JUMPDEST PUSH2 0x95 PUSH2 0x175 JUMP JUMPDEST PUSH1 0x40 MLOAD PUSH2 0xA2 SWAP2 SWAP1 PUSH2 0x773 JUMP JUMPDEST PUSH1 0x40 MLOAD DUP1 SWAP2 SUB SWAP1 RETURN JUMPDEST PUSH2 0xB3 PUSH2 0x17B JUMP JUMPDEST STOP JUMPDEST PUSH2 0xBD PUSH2 0x1CB JUMP JUMPDEST PUSH1 0x40 MLOAD PUSH2 0xCA SWAP2 SWAP1 PUSH2 0x6F1 JUMP JUMPDEST PUSH1 0x40 MLOAD DUP1 SWAP2 SUB SWAP1 RETURN JUMPDEST PUSH2 0xED PUSH1 0x4 DUP1 CALLDATASIZE SUB DUP2 ADD SWAP1 PUSH2 0xE8 SWAP2 SWAP1 PUSH2 0x613 JUMP JUMPDEST PUSH2 0x259 JUMP JUMPDEST STOP JUMPDEST PUSH2 0xF7 PUSH2 0x2E8 JUMP JUMPDEST PUSH1 0x40 MLOAD PUSH2 0x104 SWAP2 SWAP1 PUSH2 0x6F1 JUMP JUMPDEST PUSH1 0x40 MLOAD DUP1 SWAP2 SUB SWAP1 RETURN JUMPDEST PUSH2 0x127 PUSH1 0x4 DUP1 CALLDATASIZE SUB DUP2 ADD SWAP1 PUSH2 0x122 SWAP2 SWAP1 PUSH2 0x5D3 JUMP JUMPDEST PUSH2 0x376 JUMP JUMPDEST STOP JUMPDEST PUSH2 0x143 PUSH1 0x4 DUP1 CALLDATASIZE SUB DUP2 ADD SWAP1 PUSH2 0x13E SWAP2 SWAP1 PUSH2 0x5A6 JUMP JUMPDEST PUSH2 0x42C JUMP JUMPDEST PUSH1 0x40 MLOAD PUSH2 0x150 SWAP2 SWAP1 PUSH2 0x773 JUMP JUMPDEST PUSH1 0x40 MLOAD DUP1 SWAP2 SUB SWAP1 RETURN JUMPDEST PUSH2 0x173 PUSH1 0x4 DUP1 CALLDATASIZE SUB DUP2 ADD SWAP1 PUSH2 0x16E SWAP2 SWAP1 PUSH2 0x5D3 JUMP JUMPDEST PUSH2 0x444 JUMP JUMPDEST STOP JUMPDEST PUSH1 0x2 SLOAD DUP2 JUMP JUMPDEST PUSH32 0x1A73ED9712F640547060159CEF1A4BB799AC56F7F9F20B09B316C12E8BC2969 PUSH1 0x2 SLOAD PUSH1 0x40 MLOAD PUSH2 0x1AC SWAP2 SWAP1 PUSH2 0x773 JUMP JUMPDEST PUSH1 0x40 MLOAD DUP1 SWAP2 SUB SWAP1 LOG1 PUSH2 0x1F4 PUSH1 0x2 SLOAD LT ISZERO PUSH2 0x1C9 JUMPI PUSH2 0x1C8 PUSH2 0x8FE JUMP JUMPDEST JUMPDEST JUMP JUMPDEST PUSH1 0x0 DUP1 SLOAD PUSH2 0x1D8 SWAP1 PUSH2 0x8CC JUMP JUMPDEST DUP1 PUSH1 0x1F ADD PUSH1 0x20 DUP1 SWAP2 DIV MUL PUSH1 0x20 ADD PUSH1 0x40 MLOAD SWAP1 DUP2 ADD PUSH1 0x40 MSTORE DUP1 SWAP3 SWAP2 SWAP1 DUP2 DUP2 MSTORE PUSH1 0x20 ADD DUP3 DUP1 SLOAD PUSH2 0x204 SWAP1 PUSH2 0x8CC JUMP JUMPDEST DUP1 ISZERO PUSH2 0x251 JUMPI DUP1 PUSH1 0x1F LT PUSH2 0x226 JUMPI PUSH2 0x100 DUP1 DUP4 SLOAD DIV MUL DUP4 MSTORE SWAP2 PUSH1 0x20 ADD SWAP2 PUSH2 0x251 JUMP JUMPDEST DUP3 ADD SWAP2 SWAP1 PUSH1 0x0 MSTORE PUSH1 0x20 PUSH1 0x0 KECCAK256 SWAP1 JUMPDEST DUP2 SLOAD DUP2 MSTORE SWAP1 PUSH1 0x1 ADD SWAP1 PUSH1 0x20 ADD DUP1 DUP4 GT PUSH2 0x234 JUMPI DUP3 SWAP1 SUB PUSH1 0x1F AND DUP3 ADD SWAP2 JUMPDEST POP POP POP POP POP DUP2 JUMP JUMPDEST PUSH1 0x0 PUSH1 0x3 PUSH1 0x0 CALLER PUSH20 0xFFFFFFFFFFFFFFFFFFFFFFFFFFFFFFFFFFFFFFFF AND PUSH20 0xFFFFFFFFFFFFFFFFFFFFFFFFFFFFFFFFFFFFFFFF AND DUP2 MSTORE PUSH1 0x20 ADD SWAP1 DUP2 MSTORE PUSH1 0x20 ADD PUSH1 0x0 KECCAK256 SLOAD SWAP1 POP DUP2 DUP2 LT ISZERO PUSH2 0x2E4 JUMPI DUP1 DUP3 PUSH1 0x40 MLOAD PUSH32 0xCF47918100000000000000000000000000000000000000000000000000000000 DUP2 MSTORE PUSH1 0x4 ADD PUSH2 0x2DB SWAP3 SWAP2 SWAP1 PUSH2 0x78E JUMP JUMPDEST PUSH1 0x40 MLOAD DUP1 SWAP2 SUB SWAP1 REVERT JUMPDEST POP POP JUMP JUMPDEST PUSH1 0x1 DUP1 SLOAD PUSH2 0x2F5 SWAP1 PUSH2 0x8CC JUMP JUMPDEST DUP1 PUSH1 0x1F ADD PUSH1 0x20 DUP1 SWAP2 DIV MUL PUSH1 0x20 ADD PUSH1 0x40 MLOAD SWAP1 DUP2 ADD PUSH1 0x40 MSTORE DUP1 SWAP3 SWAP2 SWAP1 DUP2 DUP2 MSTORE PUSH1 0x20 ADD DUP3 DUP1 SLOAD PUSH2 0x321 SWAP1 PUSH2 0x8CC JUMP JUMPDEST DUP1 ISZERO PUSH2 0x36E JUMPI DUP1 PUSH1 0x1F LT PUSH2 0x343 JUMPI PUSH2 0x100 DUP1 DUP4 SLOAD DIV MUL DUP4 MSTORE SWAP2 PUSH1 0x20 ADD SWAP2 PUSH2 0x36E JUMP JUMPDEST DUP3 ADD SWAP2 SWAP1 PUSH1 0x0 MSTORE PUSH1 0x20 PUSH1 0x0 KECCAK256 SWAP1 JUMPDEST DUP2 SLOAD DUP2 MSTORE SWAP1 PUSH1 0x1 ADD SWAP1 PUSH1 0x20 ADD DUP1 DUP4 GT PUSH2 0x351 JUMPI DUP3 SWAP1 SUB PUSH1 0x1F AND DUP3 ADD SWAP2 JUMPDEST POP POP POP POP POP DUP2 JUMP JUMPDEST PUSH1 0x0 DUP2 GT PUSH2 0x3B9 JUMPI PUSH1 0x40 MLOAD PUSH32 0x8C379A000000000000000000000000000000000000000000000000000000000 DUP2 MSTORE PUSH1 0x4 ADD PUSH2 0x3B0 SWAP1 PUSH2 0x753 JUMP JUMPDEST PUSH1 0x40 MLOAD DUP1 SWAP2 SUB SWAP1 REVERT JUMPDEST DUP1 PUSH1 0x2 PUSH1 0x0 DUP3 DUP3 SLOAD PUSH2 0x3CB SWAP2 SWAP1 PUSH2 0x7D3 JUMP JUMPDEST SWAP3 POP POP DUP2 SWAP1 SSTORE POP DUP1 PUSH1 0x3 PUSH1 0x0 DUP5 PUSH20 0xFFFFFFFFFFFFFFFFFFFFFFFFFFFFFFFFFFFFFFFF AND PUSH20 0xFFFFFFFFFFFFFFFFFFFFFFFFFFFFFFFFFFFFFFFF AND DUP2 MSTORE PUSH1 0x20 ADD SWAP1 DUP2 MSTORE PUSH1 0x20 ADD PUSH1 0x0 KECCAK256 PUSH1 0x0 DUP3 DUP3 SLOAD PUSH2 0x421 SWAP2 SWAP1 PUSH2 0x7D3 JUMP JUMPDEST SWAP3 POP POP DUP2 SWAP1 SSTORE POP POP POP JUMP JUMPDEST PUSH1 0x3 PUSH1 0x20 MSTORE DUP1 PUSH1 0x0 MSTORE PUSH1 0x40 PUSH1 0x0 KECCAK256 PUSH1 0x0 SWAP2 POP SWAP1 POP SLOAD DUP2 JUMP JUMPDEST PUSH1 0x0 DUP2 GT PUSH2 0x487 JUMPI PUSH1 0x40 MLOAD PUSH32 0x8C379A000000000000000000000000000000000000000000000000000000000 DUP2 MSTORE PUSH1 0x4 ADD PUSH2 0x47E SWAP1 PUSH2 0x733 JUMP JUMPDEST PUSH1 0x40 MLOAD DUP1 SWAP2 SUB SWAP1 REVERT JUMPDEST DUP1 PUSH1 0x3 PUSH1 0x0 DUP5 PUSH20 0xFFFFFFFFFFFFFFFFFFFFFFFFFFFFFFFFFFFFFFFF AND PUSH20 0xFFFFFFFFFFFFFFFFFFFFFFFFFFFFFFFFFFFFFFFF AND DUP2 MSTORE PUSH1 0x20 ADD SWAP1 DUP2 MSTORE PUSH1 0x20 ADD PUSH1 0x0 KECCAK256 SLOAD LT ISZERO PUSH2 0x509 JUMPI PUSH1 0x40 MLOAD PUSH32 0x8C379A000000000000000000000000000000000000000000000000000000000 DUP2 MSTORE PUSH1 0x4 ADD PUSH2 0x500 SWAP1 PUSH2 0x713 JUMP JUMPDEST PUSH1 0x40 MLOAD DUP1 SWAP2 SUB SWAP1 REVERT JUMPDEST DUP1 PUSH1 0x2 PUSH1 0x0 DUP3 DUP3 SLOAD PUSH2 0x51B SWAP2 SWAP1 PUSH2 0x829 JUMP JUMPDEST SWAP3 POP POP DUP2 SWAP1 SSTORE POP DUP1 PUSH1 0x3 PUSH1 0x0 DUP5 PUSH20 0xFFFFFFFFFFFFFFFFFFFFFFFFFFFFFFFFFFFFFFFF AND PUSH20 0xFFFFFFFFFFFFFFFFFFFFFFFFFFFFFFFFFFFFFFFF AND DUP2 MSTORE PUSH1 0x20 ADD SWAP1 DUP2 MSTORE PUSH1 0x20 ADD PUSH1 0x0 KECCAK256 PUSH1 0x0 DUP3 DUP3 SLOAD PUSH2 0x571 SWAP2 SWAP1 PUSH2 0x829 JUMP JUMPDEST SWAP3 POP POP DUP2 SWAP1 SSTORE POP POP POP JUMP JUMPDEST PUSH1 0x0 DUP2 CALLDATALOAD SWAP1 POP PUSH2 0x58B DUP2 PUSH2 0xA68 JUMP JUMPDEST SWAP3 SWAP2 POP POP JUMP JUMPDEST PUSH1 0x0 DUP2 CALLDATALOAD SWAP1 POP PUSH2 0x5A0 DUP2 PUSH2 0xA7F JUMP JUMPDEST SWAP3 SWAP2 POP POP JUMP JUMPDEST PUSH1 0x0 PUSH1 0x20 DUP3 DUP5 SUB SLT ISZERO PUSH2 0x5BC JUMPI PUSH2 0x5BB PUSH2 0x98B JUMP JUMPDEST JUMPDEST PUSH1 0x0 PUSH2 0x5CA DUP5 DUP3 DUP6 ADD PUSH2 0x57C JUMP JUMPDEST SWAP2 POP POP SWAP3 SWAP2 POP POP JUMP JUMPDEST PUSH1 0x0 DUP1 PUSH1 0x40 DUP4 DUP6 SUB SLT ISZERO PUSH2 0x5EA JUMPI PUSH2 0x5E9 PUSH2 0x98B JUMP JUMPDEST JUMPDEST PUSH1 0x0 PUSH2 0x5F8 DUP6 DUP3 DUP7 ADD PUSH2 0x57C JUMP JUMPDEST SWAP3 POP POP PUSH1 0x20 PUSH2 0x609 DUP6 DUP3 DUP7 ADD PUSH2 0x591 JUMP JUMPDEST SWAP2 POP POP SWAP3 POP SWAP3 SWAP1 POP JUMP JUMPDEST PUSH1 0x0 PUSH1 0x20 DUP3 DUP5 SUB SLT ISZERO PUSH2 0x629 JUMPI PUSH2 0x628 PUSH2 0x98B JUMP JUMPDEST JUMPDEST PUSH1 0x0 PUSH2 0x637 DUP5 DUP3 DUP6 ADD PUSH2 0x591 JUMP JUMPDEST SWAP2 POP POP SWAP3 SWAP2 POP POP JUMP JUMPDEST PUSH1 0x0 PUSH2 0x64B DUP3 PUSH2 0x7B7 JUMP JUMPDEST PUSH2 0x655 DUP2 DUP6 PUSH2 0x7C2 JUMP JUMPDEST SWAP4 POP PUSH2 0x665 DUP2 DUP6 PUSH1 0x20 DUP7 ADD PUSH2 0x899 JUMP JUMPDEST PUSH2 0x66E DUP2 PUSH2 0x990 JUMP JUMPDEST DUP5 ADD SWAP2 POP POP SWAP3 SWAP2 POP POP JUMP JUMPDEST PUSH1 0x0 PUSH2 0x686 PUSH1 0x1C DUP4 PUSH2 0x7C2 JUMP JUMPDEST SWAP2 POP PUSH2 0x691 DUP3 PUSH2 0x9A1 JUMP JUMPDEST PUSH1 0x20 DUP3 ADD SWAP1 POP SWAP2 SWAP1 POP JUMP JUMPDEST PUSH1 0x0 PUSH2 0x6A9 PUSH1 0x28 DUP4 PUSH2 0x7C2 JUMP JUMPDEST SWAP2 POP PUSH2 0x6B4 DUP3 PUSH2 0x9CA JUMP JUMPDEST PUSH1 0x40 DUP3 ADD SWAP1 POP SWAP2 SWAP1 POP JUMP JUMPDEST PUSH1 0x0 PUSH2 0x6CC PUSH1 0x27 DUP4 PUSH2 0x7C2 JUMP JUMPDEST SWAP2 POP PUSH2 0x6D7 DUP3 PUSH2 0xA19 JUMP JUMPDEST PUSH1 0x40 DUP3 ADD SWAP1 POP SWAP2 SWAP1 POP JUMP JUMPDEST PUSH2 0x6EB DUP2 PUSH2 0x88F JUMP JUMPDEST DUP3 MSTORE POP POP JUMP JUMPDEST PUSH1 0x0 PUSH1 0x20 DUP3 ADD SWAP1 POP DUP2 DUP2 SUB PUSH1 0x0 DUP4 ADD MSTORE PUSH2 0x70B DUP2 DUP5 PUSH2 0x640 JUMP JUMPDEST SWAP1 POP SWAP3 SWAP2 POP POP JUMP JUMPDEST PUSH1 0x0 PUSH1 0x20 DUP3 ADD SWAP1 POP DUP2 DUP2 SUB PUSH1 0x0 DUP4 ADD MSTORE PUSH2 0x72C DUP2 PUSH2 0x679 JUMP JUMPDEST SWAP1 POP SWAP2 SWAP1 POP JUMP JUMPDEST PUSH1 0x0 PUSH1 0x20 DUP3 ADD SWAP1 POP DUP2 DUP2 SUB PUSH1 0x0 DUP4 ADD MSTORE PUSH2 0x74C DUP2 PUSH2 0x69C JUMP JUMPDEST SWAP1 POP SWAP2 SWAP1 POP JUMP JUMPDEST PUSH1 0x0 PUSH1 0x20 DUP3 ADD SWAP1 POP DUP2 DUP2 SUB PUSH1 0x0 DUP4 ADD MSTORE PUSH2 0x76C DUP2 PUSH2 0x6BF JUMP JUMPDEST SWAP1 POP SWAP2 SWAP1 POP JUMP JUMPDEST PUSH1 0x0 PUSH1 0x20 DUP3 ADD SWAP1 POP PUSH2 0x788 PUSH1 0x0 DUP4 ADD DUP5 PUSH2 0x6E2 JUMP JUMPDEST SWAP3 SWAP2 POP POP JUMP JUMPDEST PUSH1 0x0 PUSH1 0x40 DUP3 ADD SWAP1 POP PUSH2 0x7A3 PUSH1 0x0 DUP4 ADD DUP6 PUSH2 0x6E2 JUMP JUMPDEST PUSH2 0x7B0 PUSH1 0x20 DUP4 ADD DUP5 PUSH2 0x6E2 JUMP JUMPDEST SWAP4 SWAP3 POP POP POP JUMP JUMPDEST PUSH1 0x0 DUP2 MLOAD SWAP1 POP SWAP2 SWAP1 POP JUMP JUMPDEST PUSH1 0x0 DUP3 DUP3 MSTORE PUSH1 0x20 DUP3 ADD SWAP1 POP SWAP3 SWAP2 POP POP JUMP JUMPDEST PUSH1 0x0 PUSH2 0x7DE DUP3 PUSH2 0x88F JUMP JUMPDEST SWAP2 POP PUSH2 0x7E9 DUP4 PUSH2 0x88F JUMP JUMPDEST SWAP3 POP DUP3 PUSH32 0xFFFFFFFFFFFFFFFFFFFFFFFFFFFFFFFFFFFFFFFFFFFFFFFFFFFFFFFFFFFFFFFF SUB DUP3 GT ISZERO PUSH2 0x81E JUMPI PUSH2 0x81D PUSH2 0x92D JUMP JUMPDEST JUMPDEST DUP3 DUP3 ADD SWAP1 POP SWAP3 SWAP2 POP POP JUMP JUMPDEST PUSH1 0x0 PUSH2 0x834 DUP3 PUSH2 0x88F JUMP JUMPDEST SWAP2 POP PUSH2 0x83F DUP4 PUSH2 0x88F JUMP JUMPDEST SWAP3 POP DUP3 DUP3 LT ISZERO PUSH2 0x852 JUMPI PUSH2 0x851 PUSH2 0x92D JUMP JUMPDEST JUMPDEST DUP3 DUP3 SUB SWAP1 POP SWAP3 SWAP2 POP POP JUMP JUMPDEST PUSH1 0x0 PUSH2 0x868 DUP3 PUSH2 0x86F JUMP JUMPDEST SWAP1 POP SWAP2 SWAP1 POP JUMP JUMPDEST PUSH1 0x0 PUSH20 0xFFFFFFFFFFFFFFFFFFFFFFFFFFFFFFFFFFFFFFFF DUP3 AND SWAP1 POP SWAP2 SWAP1 POP JUMP JUMPDEST PUSH1 0x0 DUP2 SWAP1 POP SWAP2 SWAP1 POP JUMP JUMPDEST PUSH1 0x0 JUMPDEST DUP4 DUP2 LT ISZERO PUSH2 0x8B7 JUMPI DUP1 DUP3 ADD MLOAD DUP2 DUP5 ADD MSTORE PUSH1 0x20 DUP2 ADD SWAP1 POP PUSH2 0x89C JUMP JUMPDEST DUP4 DUP2 GT ISZERO PUSH2 0x8C6 JUMPI PUSH1 0x0 DUP5 DUP5 ADD MSTORE JUMPDEST POP POP POP POP JUMP JUMPDEST PUSH1 0x0 PUSH1 0x2 DUP3 DIV SWAP1 POP PUSH1 0x1 DUP3 AND DUP1 PUSH2 0x8E4 JUMPI PUSH1 0x7F DUP3 AND SWAP2 POP JUMPDEST PUSH1 0x20 DUP3 LT DUP2 EQ ISZERO PUSH2 0x8F8 JUMPI PUSH2 0x8F7 PUSH2 0x95C JUMP JUMPDEST JUMPDEST POP SWAP2 SWAP1 POP JUMP JUMPDEST PUSH32 0x4E487B7100000000000000000000000000000000000000000000000000000000 PUSH1 0x0 MSTORE PUSH1 0x1 PUSH1 0x4 MSTORE PUSH1 0x24 PUSH1 0x0 REVERT JUMPDEST PUSH32 0x4E487B7100000000000000000000000000000000000000000000000000000000 PUSH1 0x0 MSTORE PUSH1 0x11 PUSH1 0x4 MSTORE PUSH1 0x24 PUSH1 0x0 REVERT JUMPDEST PUSH32 0x4E487B7100000000000000000000000000000000000000000000000000000000 PUSH1 0x0 MSTORE PUSH1 0x22 PUSH1 0x4 MSTORE PUSH1 0x24 PUSH1 0x0 REVERT JUMPDEST PUSH1 0x0 DUP1 REVERT JUMPDEST PUSH1 0x0 PUSH1 0x1F NOT PUSH1 0x1F DUP4 ADD AND SWAP1 POP SWAP2 SWAP1 POP JUMP JUMPDEST PUSH32 0x4E6F7420656E6F75676820746F6B656E7320746F2064657374726F7900000000 PUSH1 0x0 DUP3 ADD MSTORE POP JUMP JUMPDEST PUSH32 0x4D7573742064657374726F79206120706F73697469766520616D6F756E74206F PUSH1 0x0 DUP3 ADD MSTORE PUSH32 0x6620746F6B656E73000000000000000000000000000000000000000000000000 PUSH1 0x20 DUP3 ADD MSTORE POP JUMP JUMPDEST PUSH32 0x4D75737420637265617465206120706F73697469766520616D6F756E74206F66 PUSH1 0x0 DUP3 ADD MSTORE PUSH32 0x20746F6B656E7300000000000000000000000000000000000000000000000000 PUSH1 0x20 DUP3 ADD MSTORE POP JUMP JUMPDEST PUSH2 0xA71 DUP2 PUSH2 0x85D JUMP JUMPDEST DUP2 EQ PUSH2 0xA7C JUMPI PUSH1 0x0 DUP1 REVERT JUMPDEST POP JUMP JUMPDEST PUSH2 0xA88 DUP2 PUSH2 0x88F JUMP JUMPDEST DUP2 EQ PUSH2 0xA93 JUMPI PUSH1 0x0 DUP1 REVERT JUMPDEST POP JUMP INVALID LOG2 PUSH5 0x6970667358 0x22 SLT KECCAK256 DUP9 0xEA 0xB9 CHAINID 0x5C CALLDATASIZE PUSH32 0x4691CB60394DC32EBEAA125C54BB190E223A273F453FD76E9964736F6C634300 ADDMOD SMOD STOP CALLER "
				},
				"gasEstimates": {
					"creation": {
						"codeDepositCost": "552800",
						"executionCost": "infinite",
						"totalCost": "infinite"
					},
					"external": {
						"accountBalance(address)": "2858",
						"createTokens(address,uint256)": "infinite",
						"destroyTokens(address,uint256)": "infinite",
						"testAssert()": "5613",
						"testCustomError(uint256)": "infinite",
						"tokenName()": "infinite",
						"tokenSymbol()": "infinite",
						"totalTokenSupply()": "2430"
					}
				},
				"methodIdentifiers": {
					"accountBalance(address)": "d294cb0f",
					"createTokens(address,uint256)": "a69e894e",
					"destroyTokens(address,uint256)": "d3ce77fe",
					"testAssert()": "2b813bc0",
					"testCustomError(uint256)": "75f7286c",
					"tokenName()": "6c02a931",
					"tokenSymbol()": "7b61c320",
					"totalTokenSupply()": "1ca8b6cb"
				}
			},
			"storageLayout": {
				"storage": [
					{
						"astId": 4,
						"contract": "Functions&Errors/ErrorHandlingSaiTok.sol:SaiTok",
						"label": "tokenName",
						"offset": 0,
						"slot": "0",
						"type": "t_string_storage"
					},
					{
						"astId": 7,
						"contract": "Functions&Errors/ErrorHandlingSaiTok.sol:SaiTok",
						"label": "tokenSymbol",
						"offset": 0,
						"slot": "1",
						"type": "t_string_storage"
					},
					{
						"astId": 10,
						"contract": "Functions&Errors/ErrorHandlingSaiTok.sol:SaiTok",
						"label": "totalTokenSupply",
						"offset": 0,
						"slot": "2",
						"type": "t_uint256"
					},
					{
						"astId": 14,
						"contract": "Functions&Errors/ErrorHandlingSaiTok.sol:SaiTok",
						"label": "accountBalance",
						"offset": 0,
						"slot": "3",
						"type": "t_mapping(t_address,t_uint256)"
					}
				],
				"types": {
					"t_address": {
						"encoding": "inplace",
						"label": "address",
						"numberOfBytes": "20"
					},
					"t_mapping(t_address,t_uint256)": {
						"encoding": "mapping",
						"key": "t_address",
						"label": "mapping(address => uint256)",
						"numberOfBytes": "32",
						"value": "t_uint256"
					},
					"t_string_storage": {
						"encoding": "bytes",
						"label": "string",
						"numberOfBytes": "32"
					},
					"t_uint256": {
						"encoding": "inplace",
						"label": "uint256",
						"numberOfBytes": "32"
					}
				}
			},
			"userdoc": {
				"kind": "user",
				"methods": {},
				"version": 1
			}
		}
	}
}